S018000043414E5F515549434B5F5354415254312E7372656340
S113000028300020711700006D1700006D170000E4
S113001000000000000000000000000000000000DC
S11300200000000000000000000000006D17000048
S113003000000000000000006D1700006D170000B4
S11300406D1700006D1700006D1700006D1700009C
S11300506D1700006D1700006D1700006D1700008C
S11300606D170000690A0000790A0000890A00007F
S1130070990A0000A90A0000B90A0000194A000000
S11300806D1700006D1700006D1700006D1700005C
S11300906D1700006D1700006D1700006D1700004C
S11300A06D1700006D1700006D1700006D1700003C
S11300B06D1700006D1700006D17000010B5064C99
S11300C02378002B07D1054B002B02D0044800E015
S11300D000BF0123237010BD680100200000000050
S11300E0309B0000084B10B5002B03D0074908488B
S11300F000E000BF07480368002B00D110BD064B89
S1130100002BFBD09847F9E7000000006C010020A9
S1130110309B0000309B0000000000000C4B1B686B
S1130120002B06D1EFF31083002B07D00022094BDC
S11301301A70074A136801331360704772B6BFF32D
S11301405F8F0022044B1A700132024B1A70F0E7E1
S1130150840100208801002000000020084B1A6858
S1130160013A1A601B68002B09D1064B1B78002B3F
S113017005D00122044B1A70BFF35F8F62B670473B
S1130180840100208801002000000020F0B583B025
S113019001AC012565700027A770257021000F2090
S11301A0064EB047802212028223DB059A61277033
S11301B0657021001C20B04703B0F0BD5D0600004F
S11301C003680A4A934203D0094A934207D070470E
S11301D0084A116980235B000B431361F7E7054A62
S11301E0116980239B000B431361F0E7001C00425C
S11301F0002000420008004070B50C0015000160AA
S1130200A54B9847A54B00221A702A781A70A44B64
S11302109C4200D1C6E0A34B9C4200D1FFE0A369FD
S113022002221343A3610023BC22A3500C32A35027
S11302309D4BE3619D4BE360AB7B002B04D0E268F4
S113024080231B041343E3606B78002B03D0A36863
S113025040221343A3606269AB7813436361EB7874
S1130260002B04D0A2698023DB011343A3612B7903
S1130270002B04D0A26980239B011343A3616B79F3
S1130280002B04D0A26980235B011343A361AB79E3
S1130290002B03D1A36940221343A361EB79002B04
S11302A003D0A36910221343A3612B7A002B03D03C
S11302B0A36908221343A3616B7A1B04F02212037F
S11302C013400122134323622B7B6A7B13436A8905
S11302D012041343A362EB7B1B02FE22D2011340E0
S11302E0297C7F220A401343A3646A7C12013023D1
S11302F01340A97C89000C220A4013438022A35096
S1130300EB7C002B03D0A35802210B43A3502B7D7D
S1130310002B04D08022A35801210B43A350902327
S1130320AA69E2502B7F002B05D0A022A15880237C
S11303301B060B43A350A022A1586B7F1B06FE2073
S1130340C00503400B43A350AB7F002B05D01032F4
S1130350A15880231B060B43A350B022A158EB7F66
S11303601B06FE20C00503400B43A3502023EB5C77
S1130370002B05D01032A1588023DB050B43A3507A
S1130380F022A1582123EB5C1B06FC2080050340CE
S11303900B43A3500323E365043B103AA3500432F8
S11303A0A35070BD3D491A20414B98471A20414B38
S11303B098473B4B9A6902210A439A613E4A1204C8
S11303C0120C802189030A4384215A503B4A1204A7
S11303D0120C802149030A4388201A50384A120417
S11303E0120C0A4318301A50364A1204120C1143E4
S11303F0B0229950344A1204120CAC215A50334A98
S11304001204120C32490A43C0215A50314A1204D0
S1130410120C802109030A43F0215A5003E71F49B3
S11304201B20234B98471B20224B98471D4B9A694E
S113043002210A439A61284A1204120C802189037A
S11304400A4384215A50254A1204120C802149037C
S11304500A4388201A50224A1204120C0A43183004
S11304601A50204A1204120C1143B02299501E4A09
S11304701204120CAC215A501C4A1204120C1449D6
S11304800A43C0215A501A4A1204120C802109034B
S11304900A43F0215A50C6E6C1010000BC0B0020FB
S11304A0001C004200200042030A0506330A05002E
S11304B015160000A51500000C0500208C02002074
S11304C00C0300200C0400208C0100208C0500206B
S11304D0000004040C060020CC0900204C07002076
S11304E0CC070020CC0800204C0600204C0A002039
S11304F0CC0A00200268936901218B43936101684F
S113050001228B691A42FCD17047000010B50368C0
S11305100948834204D0094C1720A34206D010BDD9
S113052009689200064BD1500020F8E70968920050
S1130530044BD1500020F2E7001C0042002000428E
S11305400C050020CC09002070B50D0003680D4C8B
S1130550A34204D00C4C1720A34209D070BD120151
S11305600A49891810222800094B98470020F5E70A
S113057012010849891810222800054B98470020C9
S1130580ECE7C046001C0042002000428C01002021
S1130590515B00004C06002070B50D0003680D4C43
S11305A0A34204D00C4C1720A34209D070BD120101
S11305B00A49891810222800094B98470020F5E7BA
S11305C012010849891810222800054B9847002079
S11305D0ECE7C046001C0042002000420C0300204F
S11305E0515B0000CC07002010B503681748834214
S11305F004D0174C1720A34214D010BD0B68154823
S1130600120113504C6883185C600B0008330832E5
S11306108218103118781070013301328B42F9D1ED
S11306200020EAE70B680C48120113504C68831849
S11306305C600B000833083282181031187810708F
S1130640013301328B42F9D10020D6E7001C00426D
S1130650002000428C0500204C0A002000B583B025
S113066001AB80221A700A785A704A789A708A7894
S1130670DA701900014B984703B000BD1117000050
S1130680F0B5DE4657464E464546E0B587B080464F
S1130690049116001F000022002300218B463F24F2
S11306A001202100009601975C460394444605947A
S11306B013E02024641A0500E540A84614E0009CD9
S11306C0019D121BAB415C464D462C43A346039C43
S11306D045462C430394013925D3202464420C1944
S11306E0E7D40500A540A84604008C40A146921812
S11306F05B4114001D00059E4F463E40B446049ED7
S113070047463E40B246664657463E4303D006003F
S1130710264332002B00009C019D9D42DBD8CED1A4
S11307209442D8D8CBE7039B5846190007B03CBC89
S113073090469946A246AB46F0BD10B54908402301
S11307400024814202D2180010BD1C00091A631C47
S11307509BB28842F9D94023FF2CF4D8148000239B
S1130760F1E70000F0B583B00F00160008AA117875
S113077004004C434022BC4202D9100003B0F0BD37
S1130780002B14D1020008000021194CA0470100DD
S11307903A0000230020174CA04700220123121A1C
S11307A08B41120C1B041A4332800022E5E700221D
S11307B0012BF9D10A00002300210D4CA0470200AF
S11307C00B0000920193380000210A4CA047050059
S11307D080239B0140229842CFD8790FF800009AD9
S11307E0019BA047EA00821AD2B252032A43DBE7F4
S11307F0A15A00008106000010B582B004000E4B1F
S11308001B78002B07D0002905D10B4B5B78834262
S113081010D01D200CE001A90C701220074B984742
S11308201220074B9847044B5C7001221A70002079
S113083002B010BD0020FBE70C0B002015160000D1
S1130840A5150000404B984231D00AD93F4B98423D
S11308504DD03F4B98425AD03E4B984237D000205F
S113086070473D4B98420CD03C4B9842F7D101293C
S113087017D000295DD0022915D0032915D00020F6
S1130880EEE7012907D0002951D0022905D0032918
S113089005D00020E4E73248E2E73248E0E7324896
S11308A0DEE73248DCE73248DAE73248D8E70129A4
S11308B007D000293FD0022905D0032905D0002004
S11308C0CEE72D48CCE72D48CAE72D48C8E70129D3
S11308D007D0002931D0022905D0032905D00020F2
S11308E0BEE72848BCE72848BAE72848B8E7012902
S11308F007D0002923D0022905D0032905D00020E0
S1130900AEE72348ACE72348AAE72348A8E7012930
S113091007D0002915D0022905D0032905D00020CD
S11309209EE71E489CE71E489AE71E4898E71E4823
S113093096E71E4894E71E4892E71E4890E71E4833
S11309408EE71E488CE7C046000C004200140042AB
S11309500018004200100042000400420008004257
S11309600300050003000600030007000200110055
S1130970020012000200130002000D0002000E002B
S113098002000F0002001700020018000200190004
S11309900300290003002A0003002B0003002300A6
S11309A003002000030021000300040002001000E3
S11309B002000C00020016000300280003002200BD
S11309C030B587B00B4B6A4632CB32C232CB32C21F
S11309D0009B83420BD001239A00694652588242FD
S11309E006D00133062BF7D1002007B030BD002319
S11309F0D8B2FAE73C6C000070470000F0B50A4B2F
S1130A001B78002B0CD1094F094E0A4D0024DE51EE
S1130A105A1914600433182BF9D10122024B1A70AD
S1130A208000024BC150F0BD0E0B0020100B0020C3
S1130A30F9090000C00B002000B583B009236A4601
S1130A40137001335370013393700133D370013346
S1130A50137101335371034B98476B46185603B017
S1130A6000BDC046C109000010B5024B1B68002040
S1130A70984710BD100B002010B5024B5B68012095
S1130A80984710BD100B002010B5024B9B68022044
S1130A90984710BD100B002010B5024BDB680320F3
S1130AA0984710BD100B002010B5024B1B690420A1
S1130AB0984710BD100B002010B5024B5B69052050
S1130AC0984710BD100B0020F0B5DE4657464E4641
S1130AD04546E0B591B005000C00160029600800F9
S1130AE0D24B984705280DD00700133722680523F9
S1130AF0D20709D5180011B03CBC90469946A246CD
S1130B00AB46F0BD1927F1E7226817339207F1D4F9
S1130B10C74AD16901301B3B83400B43D3610FA902
S1130B2035239846F35C0B70FFB23800C14B9847ED
S1130B303800C14B98474346F05C0021BF4B9847AF
S1130B40F37A6B712C23F35CAB712D23F35CEB71A3
S1130B50F37E2B722423F35C6B722B6802931800D0
S1130B60B24B984705281DD0133000220E2306A946
S1130B708C4663441A80338A98468023DB01984567
S1130B8000D1C3E010D9C023DB01984500D1B8E0FF
S1130B9080231B02984500D066E1032306930023BB
S1130BA007930AE01920E0E780239B01984500D0D1
S1130BB05AE1102306930F3B079333680593F368B8
S1130BC09B4673690393337E04932E23F35C9A4606
S1130BD073689946002B00D1C5E080235B059945D5
S1130BE000D1A8E0737E002B02D0B37E029A9373E7
S1130BF00E2306AA944663441B88029A9381059A9D
S1130C005B461A43039B1A434B461A4343461A4313
S1130C10049B1B021A4353465B071A432F23F35CBE
S1130C20002B01D104331A43737E9B022421715C8F
S1130C3049020B432621715C09020B432C21715C90
S1130C4049040B432D21715C09040B43B07AF17AFA
S1130C50084318433389FF2B00D1AAE080214904BB
S1130C600A43184302998B689C46338C718C0B435E
S1130C701F000721634619403B000B4302998B6018
S1130C80F369002B02D06E490A401A433423F35C03
S1130C90002B03D16B4B9B789B0701D580231A4310
S1130CA02968029FCB69002BFCD178602968CB6945
S1130CB0002BFCD13A603B68F02212051340E0227D
S1130CC0D20493420AD0BB6807229343BB60BA683C
S1130CD02523F15C1E3B0B401343BB600EAB80220B
S1130CE01A7000225A70DA709A70B36B0A93F36B1D
S1130CF00B93336C0C93736C02930D9300270AAE21
S1130D0066E008230693073B079356E73368059389
S1130D10F3689B4673690393337E04932E23F35C39
S1130D209A4673689946002B19D080235B05994530
S1130D3001D0002327E02F23F35C002B00D051E7E0
S1130D40B36A1F00C0B2404B984701000E2206ABA5
S1130D509C46624438003D4B9847030013E0082347
S1130D600693002307932F23F35C002B0FD0069BDD
S1130D700093079B0E2206A98C466244316BB06A2D
S1130D80334FB8470300002B00D0B3E62AE7B36A19
S1130D901F00C0B22C4B98470100069B0093079B91
S1130DA00E2206A8844662443800294FB84703003F
S1130DB0E9E7F37E002B00D154E78023DB041A43D8
S1130DC050E72000234B984707E00137042F0DD04C
S1130DD0F9B2BB0098590028F3D0431CF5D00EA9F2
S1130DE00870000CC0B21C4B9847EEE70023EB6080
S1130DF02B616B61AB61EB612B62AB626B620022B6
S1130E00EB85AB853033EA540133EA540133EA54B9
S1130E100133EA542868054B984704000F49104BE6
S1130E209847A4000F4BE550002363E6C109000076
S1130E300008004015160000A5150000F907000081
S1130E40FFFFFFF000200041391600003B070000BF
S1130E50650700004508000011170000050F000099
S1130E60FD090000C00B0020102306930023079304
S1130E70A3E6C046C2791C23002A01D1180070479A
S1130E80C28D92B2173B002AF8D102681185022163
S1130E90137E0B42FCD00023F0E782791C23002A46
S1130EA001D118007047828D92B2173B002AF8D105
S1130EB00268107E4007F4D5538BDBB258061DD070
S1130EC0980703D5022353831833EAE7580703D559
S1130ED0042353831A33E4E7D80703D50123538348
S1130EE01233DEE7D80603D5102353833233D8E711
S1130EF09B0603D5202353832133D2E7138D0B8024
S1130F000023CEE7F8B58000644BC5582C68E3692C
S1130F10002BFCD1237EA67D1E403023EB5C3122C6
S1130F20AF5C1F40F30722D5EB8D9BB2002B1CD086
S1130F30AA6A1378DBB2511CA962697901290ED01F
S1130F409BB2DB05DB0D2385EB8D013B9BB2EB856F
S1130F50002B0CD1013323750133A37507E05178BD
S1130F6009020B430232AA62EBE701232375B3079C
S1130F7006D50223237500223133EA54FB071ED41D
S1130F80730768D5AB8D9BB2002B62D0638BDBB249
S1130F901A0718D47F2213405A0601D540229343DE
S1130FA0002B33D09A0711D51A223223EA54303B4E
S1130FB063837B074FD528006B6998474BE0280073
S1130FC0EB689847DCE777221340E5E75A0705D535
S1130FD01E223223EA542E3B6383EAE7DA0705D55F
S1130FE013223223EA54313B6383E2E7DA0605D560
S1130FF042223223EA54223B6383DAE79B06D8D5A4
S113100041223223EA54123B6383D2E7238DDB056A
S1131010DB0DDAB2696A0A706A6A511C696269791D
S1131020012910D0AB8D013B9BB2AB85002B12D1B3
S11310300433237500222E33EA54BB070BD5280052
S11310402B69984707E01B0A53706B6A01336B6284
S1131050E8E704232375F30604D5102323752376C8
S1131060FB060ED4B30604D52023237523763B0751
S11310700BD4330704D5082323752376BB0608D481
S1131080F8BD2800EB699847ECE72800AB6998475E
S1131090EFE72B6A28009847F2E7C046C00B002010
S11310A010B5072803D880000F4B1B589F4600201B
S11310B018E00E4B586815E00D4B597D0907090FD0
S11310C001310C480C4B98470CE0084B986809E038
S11310D0074B1B7F00209B0704D5044B186801E0D5
S11310E08020000210BDC046546C0000280B002074
S11310F000100040006CDC02B5570000F0B5DE467D
S113110057464E464546E0B5254A938A45780178C8
S11311104C424C41A14681788C46C1788846467A37
S1131120077A817A8B461F4944688C60C17A8900AA
S1131130847B64002143447B2143C9B29175017BC4
S1131140D1750121484680000424A343034340464B
S11311500840C0000434A343034360460840000130
S11311600834A34303430F40BF01402083433B4360
S11311700E40F601403083433343793805402D0255
S1131180094803402B4358460140090307480340DC
S11311900B4393823CBC90469946A246AB46F0BDB5
S11311A000140040280B0020FFF8FFFFFFEFFFFFB3
S11311B0F8B50400C568037D012B4DD0A368180160
S11311C02900294B98470F22024003092178C901BD
S11311D06678B6013143C9B2244E31771104013B1C
S11311E01B051B0D0B43336237002C260421BB5D0A
S11311F00B42FCD1A3781B03E178C9000B4321798E
S113120089000B43A17C032631400B43218A090446
S1131210174F39400B43E17C0902E027FF003940B6
S11312200B43277D3F01302139400B430F494B626B
S1131230637D1E402823CE540F002C260821BB5D5D
S11312400B42FCD10F23984382186A43637D043315
S1131250DA40084B1A60F8BD018A013149002800C0
S1131260014B98470500A9E7B5570000001000405E
S11312700000FF07280B0020072803D88000184B24
S11312801B589F46172029E0164A137D02210B4361
S11312901375002022E0144A936902210B439361E1
S11312A000201BE00F4A138A02210B431382002003
S11312B014E00D4A938A02210B43938200200DE02F
S11312C0084A137F02210B43137710002A310222AC
S11312D0435C1342FCD1002000E000207047C0466C
S11312E0746C00000010004000140040F0B5C646C5
S11312F000B58EB003223F4B9A603F4A53681E21CB
S11313008B4318390B4353600AA8002303708022CF
S11313101202426083700122C2708372C37203732B
S1131320437383730239417043720272334B98479B
S11313300520334B984733490122CB681A42FCD02D
S1131340314B1A7D80210A431A7502225A751A00FC
S11313509369002BFCD12D4B984701AD01260296D1
S113136000246C706C7205232B702E7229000120EE
S1131370274B984698470120264FB8476E606C70FB
S11313802C726C7207232B7029000820C047082098
S1131390B84704A88470C47004711F4B836006822C
S11313A04475C474847404700123437004751B4B26
S11313B0C3601B4B98470720114B984712483021B4
S11313C00322435C1340032BFBD1023B154A1371E8
S11313D001A94B6000224A704A7207320A700B72EC
S11313E000200B4B984700200A4B98470EB004BCD2
S11313F09046F0BD0018004000400041FD10000080
S1131400791200000014004000100040291400006C
S11314104D140000F9140000006CDC02FF7F000092
S1131420B111000000080040064A536980210B43B3
S113143053610122044B1A7019000B781342FCD13A
S11314407047C04600080040001C004070B504000E
S11314500D784B78002B02D08023DB001D434B7AA0
S1131460002B02D080231B011D43486801280FD99B
S1131470431E184231D102282DD902230022013201
S11314805B009842FBD880235B011D431204154383
S11314900B7A002B02D080239B011D430426A64017
S11314A01149124A4B6813401E42FBD1104B984716
S11314B0A4000D4B9C466444226A80235B001A40BE
S11314C02A4322626146094A4B6813401E42FBD1FB
S11314D0084B984770BD0022D5E7000480239B0089
S11314E018430543D4E7C046001C0040FC07000035
S11314F01D0100005D01000010B5040004228240BB
S113150009480A4943680B401A42FBD1084B9847E3
S1131510A400054B9C466444226A80235B00134369
S11315202362044B984710BD001C0040FC070000D8
S11315301D0100005D010000F8B504000422824092
S11315401248134943680B401A42FBD1114B984788
S11315500E4F0834A400E0594007400F0E4B984743
S11315600600E559ED04ED0FE459240C0B4B9847A4
S1131570002D07D1012C07D921003000084B9847D2
S1131580060001E00134E6403000F8BD001C0040D4
S1131590FC0700001D010000A11000005D01000017
S11315A0B557000010B50400094B9847A000094B3B
S11315B09C4660448022835840210B438350403131
S11315C0403A43581A42FCD0034B984710BDC046DA
S11315D01D010000001C00405D01000010B5040066
S11315E0094B9847A000094B9C46604480228358CD
S11315F040218B4383504031403A43581A42FCD136
S1131600034B984710BDC0461D010000001C00405C
S11316105D01000070B504000D00054B98472A7861
S11316200F2313402034A400024AA35070BDC046C7
S1131630DD150000001C004010B50400064B98475F
S11316402034A400054BE4582407240F044B984786
S11316502000044B984710BD1D010000001C0040F1
S11316605D0100003915000030B5D378002B35D169
S11316701378802B29D01B068024640223435478DA
S11316800225AC4306D19478002C20D18024A402F6
S1131690234341605478013C012C1CD90D042D0CCA
S11316A0A024E4052C431C4384620D0CD02424069E
S11316B02C431C438462D478002C22D15B031CD5B8
S11316C09378012B1ED0416117E00023D7E7C02493
S11316D0E4022343DDE70D4C2340DFE741600C04C3
S11316E0240CA023DB05234383620C0CD0231B06AC
S11316F023438362D378002B03D15378013B012B1E
S113170002D930BD8161F8E78160FAE7FFFFFBFF92
S113171010B50A00C1090023002905D14309DB01E2
S11317208221C9058C4663441F2420400121814045
S11317301800014B984710BD69160000704700005F
S113174010B5054B9847054B9847054B9847054BF3
S11317509847054B984710BDED1200008D0100001D
S11317603D1700003D1700003D170000FEE7000094
S113177010B5174A174B9A4211D01A00164B9A42C9
S11317800DD2164A03339B1A9B0801339B00002297
S113179010480F498C58845004329A42FAD1104AA6
S11317A0104B9A420AD2D3430E495B1803218B4350
S11317B004339B18002102C29342FCD10A4AFF2140
S11317C00A4B8B4393600A4B98470A4B9847FEE7B2
S11317D0309B00000000002068010020040000206D
S11317E0680100202810002000ED00E00000000047
S11317F0F55A0000994E0000F0B5C64600B50C003D
S1131800904600280FD1002A11DD8F18094E0A4D89
S1131810306821002B6898470134BC42F8D1404617
S113182004BC9046F0BD01235B429846F7E780462E
S1131830F5E7C046E00B0020D80B0020F0B5C64603
S113184000B50E0015000138022810D8002A11D066
S113185000240C4B98460C4F43461868315D3B6896
S11318609847002808DB0134A542F5D106E001249D
S1131870644203E0140001E001246442200004BC3B
S11318809046F0BDE00B0020DC0B00200300064A6C
S11318901268002A04D0044A1068C3181360704701
S11318A00249014A1160F6E7340B00202830002079
S11318B001204042704780239B014B600020704709
S11318C00120704700207047F0B5DE4657464E466B
S11318D04546E0B58BB0814600910192149E0822E2
S11318E0002108A8D14B98470022D14B1A70D14B44
S11318F00793079BDB0ADB02033213430793079B1F
S1131900CD4A1A40CD4B13430793079AE0239B0516
S113191013430793032207A93000C94B9847326841
S1131920516D80231B030B435365C64A1368002B78
S1131930FCD00022C34B1A60C34ACD23D35CCC2114
S1131940525C9A4250D0C049581C03220240CD2018
S11319500A540D331B015B181C7A23005A1E934151
S1131960DBB29846B34B0793079BB84A13400793DF
S1131970032207A93000B24B9847002C36D0B44854
S1131980B44B9847009D2B001033180010220021FF
S1131990A64CA047102249462800A047A54B079310
S11319A0079BDB0ADB02042213430793079BA24A2B
S11319B01A4080235B0413430793079AE0239B0593
S11319C013430793042207A930009D4B98473268BC
S11319D0516D80231B030B435365019B9A460024DE
S11319E09D4D994FB34615E00023B5E79B48994BAD
S11319F098472022002100988C4B9847CEE700217D
S1131A0008310822964B9847013408239C46E24447
S1131A10032C19D02B68A342FCD050461223FF3369
S1131A20FB5C88225200BA5C9A42E8D0591C03221B
S1131A300A401221FF31844E72541B011533FF33C7
S1131A401900B4466144DBE75E467A4B0793079B73
S1131A504A460132FF32120477490B40134307937D
S1131A60079BDB0ADB02042213430793079AE02354
S1131A709B0513430793042207A95846704B9847C4
S1131A803268516D80231B030B435365724A1368FC
S1131A90032BFCD0019818306B4A1223FF33D35C1C
S1131AA088214900525C9A4200D1BDE0664C591C21
S1131AB003220A401221FF3162541B011533FF3304
S1131AC0191908310822664B98475A4B0793079B0C
S1131AD05E4A13400793042207A93000584B9847E5
S1131AE060485C4B98476048604B9847009C2500D1
S1131AF010345E4F29785E48B8470135A542F9D1C4
S1131B005C48544B98470023039388231B04049395
S1131B10039B8024A4004C44A404574A1440234348
S1131B200393049B554A1A4080231B0313430493D5
S1131B300822009905A84A4B9847052203A93000BA
S1131B404F4B984733689A69920702D42021D022D8
S1131B5099503068D821202243581A42FCD0494B6E
S1131B60013B002BFCD1039388231B040493039BA8
S1131B701C430394049B414A1A4080231B031343D0
S1131B80049300990831082205A8354B984705228B
S1131B9003A930003A4B984733689A69920702D4F4
S1131BA02021D02299503068D821202243581A424B
S1131BB0FCD03548274B98471E4B0793079BDB0AFD
S1131BC0DB02032213430793079B1B4A1A401B4B58
S1131BD013430793079AE0239B05134307930322B8
S1131BE007A93000164B98473268516D80231B03B8
S1131BF00B435365134A1368002BFCD00022114B8E
S1131C001A600C4B0793079B104A13400793032257
S1131C1007A930000A4B984740460BB03CBC90469D
S1131C209946A246AB46F0BD00214AE7875B000017
S1131C30380B0020FF070088FFFF00F800001104A4
S1131C400D0500003C0B0020E40B0020FFFFFFC744
S1131C50946C0000DD5D0000400B0020B06C0000BF
S1131C60515B0000CC6C0000E86C0000E95C0000F3
S1131C70F46C00000C9A00000000FC1FFFFFF0FF52
S1131C80E9050000E0930400FC6C000010B5026854
S1131C90012906D9031D8900401810CB2243834231
S1131CA0FBD150421043C00F0138404210BD000028
S1131CB0F8B505000E00C769C46801002031202270
S1131CC030000B4B9847042128000A4B9847002802
S1131CD006D16400E40FE407F3691C43F461F8BD22
S1131CE07F00FF0FFF07F3691F43F761F7E7C04663
S1131CF0635B00008D1C0000F0B5C64600B5874C40
S1131D00A54404000F002822002149A8844B9847C9
S1131D10012349931F339C46BC44634665460193A3
S1131D202022210018007F4B9847E37FDB09984667
S1131D30FB6B5B005B08FB630DA928007A4B98479B
S1131D405DA90DA8794B984753AA79495DA8794BA9
S1131D5098475DAA49A91000774B984753AA49A907
S1131D601000764B98477BA953A8754CA04776A9D9
S1131D7058A8A0477BAA76A91000724EB04776AA4D
S1131D8053A95DA8704DA84771AA58A962A8A8478D
S1131D9076AA71A91000B04771AA53A962A8A847EE
S1131DA06CAA58A95DA8A84771AA6CA91000674B32
S1131DB098476CA976A8A04767A971A8A0476CAA00
S1131DC067A91000B0477D245D4D6CA90800A847A1
S1131DD0013C002CF9D180AA6CA976A8594B9847EC
S1131DE080A908005A4B9847052180A8594B984769
S1131DF0002800D073E080AA11001000514B9847CE
S1131E006CA97BA84E4DA8476CAA11007BA84E4C28
S1131E10A0476CAA110080A8A04785A96CA84E4BC6
S1131E2098476CAA85A97BA8A04703AA6CA980A897
S1131E30A04776A903A8A84776AA11007BA8A047C3
S1131E4003A8464B984708AA6CA971A8A04780AA82
S1131E5076A910003D4B984780A908003C4B984751
S1131E60052180A83B4B984700283ED003A90800D1
S1131E703B4B9847052103A8364B9847002849D087
S1131E800C9B9B0D434502D003A8364B984717A9DA
S1131E9003A8334CA04721A90DA8A04717A8324B8B
S1131EA09847002808D11CA8304B984717A82E4BF8
S1131EB09847002300280BD017A90800284B9847FF
S1131EC0390017A82A4CA047019921A8A04701234B
S1131ED018008A239B009D4404BC9046F0BD80AA50
S1131EE06CA976A8194B984785E77BAB03AA190020
S1131EF031CA31C111CA11C103AC08AA21001000B2
S1131F0070C870C130C830C113CB13C2110005CBE7
S1131F1005C1ABE7079B9B0DB4E7C046D8FDFFFFA7
S1131F20875B0000635B000041280000F932000079
S1131F30086D000085320000C5300000A5300000A7
S1131F40F1220000C71F00005D20000003200000F4
S1131F50352500008D1C0000C5250000952B0000D0
S1131F60693200004D310000B1380000312000001A
S1131F70C928000070B503041B0C000C0C04240CCD
S1131F80090C25005D434B4344434143280C26047C
S1131F90360C80191E04360C8019060C2D042D0CE9
S1131FA0000445401560240C1B0CE3180C04240C9D
S1131FB01B199B19180C090C091809041B041B0C88
S1131FC04B40536070BD10B503681C000B689C4601
S1131FD06444146043681C004B689C466444546029
S1131FE083681C008B689C4664449460C3681C002E
S1131FF0CB689C466444D460036909695B18136127
S113200010BD10B503680C681B1B136043684C6853
S11320101B1B536083688C681B1B9360C368CC686C
S11320201B1BD360036909695B1A136110BD0000AF
S1132030084B02689A1A026042689A1A42608268DF
S11320409A1A8260C2689B1AC360034B02699B1A86
S113205003617047FFFFFF03FFFF7F00F0B5DE461B
S113206057464E464546E0B59DB091464468E31751
S1132070019382689046D217139245466D171A95BC
S11320804646F6001896C768BA46FF171797534690
S11320905D171695DE00149603699B46DB171B93A8
S11320A05A46521712925F46FD000E95036802933A
S11320B0DA1703920A680492D0170590086906009B
S11320C0C517069548680790C7170897CD680995FE
S11320D0EF170A978F680B97F9170C91630F019903
S11320E0C9001943E000814D0D963200069BA847B4
S11320F006000F00049A059B02980399A847361816
S11321004F41079A089B0E981299A84736184F41D9
S1132110099A0A9B18981A99A84736184F410B9A9E
S11321200C9B14981699A84736184F41109611978E
S1132130079A089B02980399A84706000F00049A7F
S1132140059B20000199A84736184F410D9A069B1C
S113215018981A99A84736184F410B9A0C9B0E9859
S11321601299A84736184F41099A0A9B1498169950
S1132170A84736184F41189619970B9A0C9B02984A
S11321800399A84706000F00049A059B404613993B
S1132190A84736184F41079A089B20000199A84781
S11321A036184F410D9A069B14981699A84736186D
S11321B04F41099A0A9B0E981299A84732003B0096
S11321C012184B4114921593099A0A9B0298039989
S11321D0A84706000F00049A059B50461799A84784
S11321E036184F410B9A0C9B20000199A8473618CA
S11321F04F41079A089B40461399A84736184F4108
S11322000D9A069B0E981299A84736184F410E96C0
S11322100F970D9A069B02980399A84706000F0092
S1132220049A059B58461B99A84736184F41099AAA
S11322300A9B20000199A84736184F41079A089B2A
S113224050461799A84736184F410B9A0C9B4046A5
S11322501399A84736184F41109C119DAB01A00E4D
S11322601843A916189B199CC01861418B01840E50
S11322701C438D16149A159BA4185D41A3019B0958
S11322804A469360A901A20E0A43AB160E9C0F9D09
S113229012196B41910189094D46E9609901940E27
S11322A00C439D16A4197D4163025B0A4A461361DF
S11322B0109B9B019B091E0000276902E20D0A4343
S11322C0EB1592197B41910189094C4621608001EB
S11322D080099B01920E1A43801860601DB03CBCBB
S11322E090469946A246AB46F0BDC046A15A0000AE
S11322F0F0B5DE4657464E464546E0B591B08946B0
S11323000168CB174A0005924468E21701920894C9
S113231065000D958668B346F4170394C668B24603
S1132320F51702950469E617B04626170C962001A6
S11323300A90654D0A00080004931900A847060096
S11323400F000A9A0C9B08980199A84736184F4128
S11323505B461B0F0398010119435B461801524663
S1132360029BA84736184F410696079753465B0FC2
S1132370029FF90019435346D80052463B00A84730
S113238006000F00089A019B05980499A84736187F
S11323904F410A9A0C9B58460399A84736184F4157
S11323A00E960F975A46039B05980499A847060072
S11323B00F000898020001990B00A84736184F41F6
S11323C00A9A0C9B50460299A84732003B00121807
S11323D04B41089209935246029B05980499A847D9
S11323E006000F005A46039B0D980199A84736181A
S11323F04F41630F4046C1001943E00022004346A9
S1132400A84736184F410A960B9722004346059871
S11324100499A84706000F005246029B0D980199A3
S1132420A84736184F415A4603990B005846A84707
S113243036184F41069C079DAB01A00E1843A91600
S11324400E9B0F9CC01861418B01840E1C438D169A
S1132450089A099BA4185D41A3019B094A4693600D
S1132460A901A20E0A43AB160A9C0B9D12196B41DB
S1132470910189094D46E9609901940E0C439D161A
S1132480A4197D4163025B0A4A461361069B9B01C2
S11324909B091E0000276902E20D0A43EB159219FD
S11324A07B41910189094C462160800180099B018F
S11324B0920E1A438018606011B03CBC9046994655
S11324C0A246AB46F0BDC046A15A0000F0B505686F
S11324D047688268C6680369AC16E419A0168018B8
S11324E0A401A40982169219800180099616F6188F
S11324F09201920977027F0AF615AD01AD097319AD
S11325009D162C19A51628188516AA189616F619BC
S1132510F7159D01AD097D190D60A401A4094C6056
S113252080018009886092019209CA6073025B0A83
S11325300B61F0BDF0B5036847688268C668056939
S11325409C16E419A716BF18A401A409BA16921977
S1132550BF01BF0990164019920192094602760AFA
S11325609B019B090133C0151B1898160419A0166A
S1132570C719A401A009BC16A218BF01BF0995166A
S1132580AD19920196096C02640A9B019B09ED1531
S1132590013D012215405B1B9D162D18A816C0197C
S11325A0821692199B019B090B60AD01AD094D6028
S11325B080018009886093019B09CB6092161419ED
S11325C00C61F0BDF0B59BB005000E0010A9484C9D
S11325D0A04710AA11002800464FB8470BA910A81D
S11325E0A0470BA90800A0470BAA110010A8B847E0
S11325F006A90BA8A04706A90800A04706A9080039
S1132600A04706A90800A04706AA11000BA8B847CE
S113261001A906A8A0470724354F01A90800B84717
S1132620013C002CF9D101AA110006A8314B9847AE
S113263010A901A82E4B98470F342D4F10A908005C
S1132640B847013C002CF9D110AA110001A8294B6C
S1132650984715A910A8264B98471F34244F15A94D
S11326600800B847013C002CF9D115AA110010A8A4
S1132670204B984720341E4F15A90800B847013C49
S1132680002CF9D115AA10A910001A4B9847103440
S1132690174F15A90800B847013C002CF9D115AA19
S11326A0110001A8134B98470834114F15A90800CD
S11326B0B847013C002CF9D115AA110006A80D4B0E
S11326C0984704340A4F15A90800B847013C002C68
S11326D0F9D115AA11000BA8064CA04715A90800AA
S11326E0034B9847320015A92800A0471BB0F0BD42
S11326F0F12200005D20000070B59EB0050005A920
S11327004D4CA04705AA110028004C4EB0470AA919
S113271005A8A0470AA90800A0470AAA110005A80D
S1132720B0470FA90AA8A0470FA90800A0470FA9FE
S11327300800A0470FA90800A0470FAA11000AA883
S1132740B04714A90FA8A04707243B4E14A90800BA
S1132750B047013C002CF9D114AA11000FA8374B43
S1132760984705A914A8344B98470F34324E05A94D
S11327700800B047013C002CF9D105AA110014A8A7
S11327802E4B9847694605A82B4B98471F342A4E71
S113279069466846B047013C002CF9D16A4669464F
S11327A005A8264B98472034234E69466846B0470F
S11327B0013C002CF9D16A4605A968461F4B98478D
S11327C010341D4E69466846B047013C002CF9D1CF
S11327D06A46694614A8194B98470834164E694648
S11327E06846B047013C002CF9D16A4669460FA8F7
S11327F0124B98470434104E69466846B047013C72
S1132800002CF9D16A4669460AA80C4CA0476946CF
S11328106846094EB04719AA69462800A04719A975
S11328200800B04719A90800B0472A0019A92800D0
S1132830A0471EB070BDC046F12200005D2000001C
S1132840F0B503689B019B090B6043689B011C4A1C
S113285013400468A40E23434B6083681B03194F81
S11328603B404468240D23438B60C3689D04FF26CA
S1132870B604354083689B0B1D43CD60C3685B0081
S11328805B0A0B6103699B019B094B6143699C01D2
S1132890144003699B0E1C438C6183691A033A40FC
S11328A043691B0D1A43CA61C3699B04334082699F
S11328B0920B13430B62C3695B005B0A4B62F0BD6E
S11328C0C0FFFF0300F0FF0343689B060268134345
S11328D00B6083681B054268920913434B60C3680D
S11328E09B038268120B13438B6003691B02C2684B
S11328F0920C1343CB6083699B06426913430B61BB
S1132900C3691B058269920913434B61036A9B03E4
S1132910C269120B13438B61436A1B02026A920C55
S11329201343CB6170470000F0B5DE4657464E4670
S11329304546E0B587B003919946590006D0130087
S113294089005118002410C38B42FCD14B46002B44
S113295035D0019280469B00029300239B461B4B7B
S11329609A46039F019E0024002502CF04AA4346F1
S11329701868D047049A13191100594054400C4365
S11329805C40E40F059A0092A11830681A1843407D
S11329901C00504004435440E40F641804C601353D
S11329A0A945E2D1019B029A9C5001229446E3443A
S11329B00433019304239C46E0445D45D1D107B020
S11329C03CBC90469946A246AB46F0BD751F00003C
S11329D0F0B5D6464F464646C0B584469146002BD0
S11329E022D09B0098460026002201239A46634683
S11329F09B598F59DD1B6C422C43E40F50464440D5
S1132A001440180078406F4038435840C00F2043AA
S1132A10AD1A4B469D51043602004645E7D11CBC15
S1132A2090469946A246F0BD0020F8E7F0B5B1B053
S1132A301500082320AA2C4CA047082310AA2B49D0
S1132A4020A8A04708236A46294910A8A0470026C1
S1132A50002420A973581A19684630588446171858
S1132A6068463750100060405C40204350401300DB
S1132A707B40644654401C437C400443E40F0436CA
S1132A80402EE7D100231A006A44126AEA50043344
S1132A90202BF8D1183B2A0015492800154EB047C1
S1132AA0241A002312495A58224068461A50043303
S1132AB0202BF8D100260023AA59D118684634588F
S1132AC00F19AF51080058405340184348400A00BA
S1132AD07A400B00634013437B400343DB0F04360F
S1132AE0202EE9D131B0F0BD29290000D092000098
S1132AF018930000D129000030B591B004000D00F6
S1132B00202200216846074B98470123009308AA16
S1132B1005492000054CA0472A00694608A8A0479B
S1132B2011B030BD875B0000B09200002D2A000078
S1132B30F0B5D6464F464646C0B5894601260368D9
S1132B401E40731E9C4600250023114A924652469D
S1132B50AA5861460A40D4184659A1194F467951DA
S1132B6027005F405A403A436240904622004A4060
S1132B702300734013434B4042461343DB0F043599
S1132B80202DE4D11CBC90469946A246F0BDC04617
S1132B9018930000F0B50368DC07E417A60942683F
S1132BA0B1188268B218C5687519640A0769BC4609
S1132BB064449B195B104F068026B6043740DB192A
S1132BC00360530633404910591841606906314087
S1132BD052108A188260630633406D105D19C56017
S1132BE064100461F0BD03680B6043684B60836844
S1132BF08B60C368CB6003690B6143694B61836974
S1132C008B61C369CB61036A0B62436A4B62704791
S1132C10F0B5D6464F464646C0B5D2B004008A4603
S1132C2090461E002AA9CC4DA8472000283034A97C
S1132C30A847200050303EA9A8472000783048A972
S1132C40A8472500A035A023DB009946A144C24F24
S1132C5001235B429C46E0444346DC0F644402A9E2
S1132C602800B847280028300CA9B847280050305D
S1132C7016A9B8472800783020A9B8472A9A029B99
S1132C805340234053402A932B9A039B53402340A1
S1132C9053402B932C9A049B5340234053402C9332
S1132CA02D9A059B5340234053402D932E9A069B07
S1132CB05340234053402E932F9A079B5340234065
S1132CC053402F93309A089B5340234053403093F2
S1132CD0319A099B5340234053403193329A0A9BC3
S1132CE05340234053403293339A0B9B5340234029
S1132CF053403393349A0C9B5340234053403493B2
S1132D00359A0D9B5340234053403593369A0E9B7E
S1132D105340234053403693379A0F9B53402340EC
S1132D2053403793389A109B534023405340389371
S1132D30399A119B53402340534039933A9A129B3A
S1132D405340234053403A933B9A139B53402340B0
S1132D5053403B933C9A149B5340234053403C9331
S1132D603D9A159B5340234053403D933E9A169BF6
S1132D705340234053403E933F9A179B5340234074
S1132D8053403F93409A189B5340234053404093F1
S1132D90419A199B5340234053404193429A1A9BB2
S1132DA05340234053404293439A1B9B5340234038
S1132DB053404393449A1C9B5340234053404493B1
S1132DC0459A1D9B5340234053404593469A1E9B6E
S1132DD05340234053404693479A1F9B53402340FC
S1132DE053404793489A209B534023405340489371
S1132DF0499A219B5340234053404993802202AB7C
S1132E00A0215B18995802AB9B584B4023404B4080
S1132E1002A9A02009188B50043202ABA0215B1830
S1132E20995802AB9B584B4023404B4002A90918C8
S1132E308B50043202ABA0215B18995802AB9B580B
S1132E404B4023404B4002A909188B50043202AB7B
S1132E50A0215B18995802AB9B584B4023404B4030
S1132E6002A909188B50043202ABA0215B189958AF
S1132E7002AB9B584B4023404B4002A909188B508E
S1132E80043202ABA0215B18995802AB9B584B400B
S1132E9023404B4002A909188B50043202ABA021F5
S1132EA05B18995802AB9B584B4023404B4002A9F6
S1132EB009188B509C2302AAA0215218D15802AAA7
S1132EC0D25801924A4014404C4002AAA021521800
S1132ED0D450A0354D4500D0BAE620A948A81E4CD0
S1132EE0A0470CA92AA8A04702A934A8A04720A853
S1132EF01A4CA04725A8A0472AAB02A934A80C68FD
S1132F001A686240324062401A608C6A9A6A62406F
S1132F10324062409A628C6F9A6F624032406240E3
S1132F209A67043304318342E9D151462AA80A4CF2
S1132F30A0475146283134A8A047514650313EA8F5
S1132F40A0475146783148A8A04752B01CBC9046CF
S1132F509946A246F0BDC046E72B00003120000090
S1132F60F0B5DE4657464E464546E0B5BFB00400D0
S1132F70019192469B4620A9424DA8472000283043
S1132F802AA9A8472000503034A9A8472700783739
S1132F902300F022D200944663443A4A914698466C
S1132FA0544603E06446783747452ED0013CE50F8C
S1132FB0013D02A93800C847380028300CA9C84789
S1132FC03800503016A9C84720AE02AB9A462AA84A
S1132FD019003200A44613680C6863402B4014683F
S1132FE063401360936A8C6A63402B40946A634025
S1132FF09362136D0C6D63402B40146D6340136535
S1133000043204318242E6D1CCE7140016A934A874
S11330101C4DA8470CA920A8A84702A92AA8A8477C
S113302016A8194DA8471BA8A84752465946306808
S1133030136843400B4043403360B06A936A434093
S11330400B404340B362306D136D43400B4043402B
S1133050336504360432A642E9D1019D290020A833
S1133060084CA047290028312AA8A047290050313C
S113307034A8A0473FB03CBC90469946A246AB4614
S1133080F0BDC046E72B00003120000000230360A0
S113309043608360C360036143618361C36103620E
S11330A043627047F8B504000D001600044FB8479A
S11330B0320014322900143120001430B847F8BD0E
S11330C0C71F0000F8B504000D001600044FB847F0
S11330D0320014322900143120001430B847F8BDEE
S11330E00320000010B503685B000C681B1B136011
S11330F043685B004C681B1B536083685B008C68EF
S11331001B1B9360C3685B00CC681B1BD360036903
S11331105B000C691B1B136143695B004C691B1B3F
S1133120536183695B008C691B1B9361C3695B00FA
S1133130CC691B1BD361036A5B000C6A1B1B136203
S1133140436A5B00496A5B1A536210BD104B026804
S11331509A1A026042689A1A426082689A1A8260D5
S1133160C2689A1AC2600B4A0169511A0161416925
S1133170591A41618169591A8161C169591AC16138
S1133180016A5B1A0362436AD21A42627047C046FC
S1133190FFFFFF03FFFF7F00F0B5C64600B50468DC
S11331A0012398461A002240524291094368CE18DE
S11331B08368CD18C368CF18520A03699C466244D9
S11331C0641864107306802189040B409C4664448F
S11331D004606C060C407610A61946607C060C4010
S11331E06D106519856054060C407F10E719C7609F
S11331F0521002614269434613405B429F0984694D
S11332003E19C4693D19046A3C195B0A9846436A2D
S11332109C4643466344D219521077060F40D21994
S113322042616A060A4076109619866162060A406F
S11332306D105519C5615A06114064100C190462C9
S11332405B10436204BC9046F0BD000070B50400FE
S11332500D00044EB0472900143120001430B0474B
S113326070BDC046CD24000070B504000D00044EAE
S1133270B0472900143120001430B04770BDC04657
S113328035250000F0B597B006000D00019211AB92
S11332901A00164CA04714239C46B44463462F00DE
S11332A014370CA90A00390000936046A04707A808
S11332B00200009930000E4EB04702AA39002800DF
S11332C0B047019E32000CA911A80A4DA84707AACD
S11332D002A91000A04707AA11A91000A8473200AC
S11332E014320CA907A8A84717B0F0BD5D20000050
S11332F0C71F000003200000F0B591B005000C00CA
S1133300060014360BAA31000B4FB84706AA310049
S113331028000A4B984701AA31002800084DA84705
S1133320220006A90BA8A8472200143201A908000C
S1133330B84711B0F0BDC046C71F0000032000000D
S11333405D20000070B58AB0050005A90E4EB04797
S11333502C00143469462000B04705AA69461000C1
S11333600A4B984705A80A4B98472000094B9847F1
S11333702A0005A92800084DA847220005A9200015
S1133380A8470AB070BDC046F1220000C71F000064
S1133390F9260000312000005D200000002906D03D
S11333A0030089004018002204C38342FCD1704703
S11333B0F0B583B004000D000700503738000D4B02
S11333C098472A00390020000B4EB04728239C461A
S11333D0AC44634620002830019362463900B0476C
S11333E029002800054CA04701980100A04703B01C
S11333F0F0BDC0464533000085320000693200004C
S1133400F0B585B005000C00783078239C468C44D8
S11334106346019362460100204EB0472A008C3275
S1133420100022008C320100B0472F002837220000
S113343039002800B04714229446AC4463463C2229
S11334409446AC446146220014320391029318005E
S1133450B0472200283229003800114FB847220013
S11334603C3202990398B8472900A0310198020020
S11334700C4FB8472A00503210002200503201008D
S1133480B04764352800220064322900B04701980F
S113349002000549B84705B0F0BDC046C71F00008B
S11334A00320000085320000F0920000F0B583B0E4
S11334B004000D00070028370A003900154EB047F4
S11334C014239C46A44463463C229446A444614687
S11334D02A001432019100931800B0472A002832C0
S11334E0210038000C4FB8472A003C32009901985B
S11334F0B8472A0078322100A03120007830074BE9
S113350098472900503120005030054B984703B0AC
S1133510F0BDC046C71F0000032000008532000034
S1133520E72B0000F0B583B006000D000700283734
S11335300A003900154CA04714239C46B444634642
S11335403C229446B44461462A001432019100930B
S11335501800A0472C0028342200390030000C4FFA
S1133560B8472A003C3201990098B84729005031E5
S113357030005030074B984729002800064DA847D3
S113358021002000A84703B0F0BDC046032000007E
S1133590C71F0000E72B00004D320000F0B599B0C2
S11335A007000EA92F4EB04728239C46BC4463460F
S11335B0644604A91800B0473A000094210038007A
S11335C0294CA0473800143039003C310200A04790
S11335D0A0239C46BC4463460193624604A90EA8FA
S11335E0A047B4218C46BC4461460391624609A8B5
S11335F0010013A8A0470EAA110004A81B4DA84758
S113360013AA110009A8A84750208446BC44604668
S113361004A90290B0473C00783421003800B04738
S113362004AA0EAE31001000114B98472200019EEF
S113363031002000A8473B008C3318001A0003997E
S1133640A847009A31000EAB18000A4DA8473A006B
S1133650210004A8A847029A04A90EA8A84719B0F3
S1133660F0BDC046F9320000C71F0000032000006F
S1133670E530000085320000F0B59BB006000F0075
S1133680150050239C469444634678317830019366
S113369062462F4CA047390050313000503010AAF8
S11336A0A0472A0039003000A04728229446AC44A1
S11336B0624639002831300028300292A04706AA19
S11336C0019F390010A8234EB04764239C46AC44A4
S11336D063460BAA0393614615A8B04710A80200DD
S11336E0019739001C4FB84715A802000399B84741
S11336F0A0239C46AC446346039362460299280087
S1133700B04714218C46AC4460463C218C46AC4402
S113371061462A00B43205910490B0472E007836F1
S1133720320002992800B8472A008C32059904987F
S1133730B8472A0006A90398A047019A06A910A829
S1133740A047029A10A93000A0471BB0F0BDC046A4
S11337508532000003200000C71F0000F0B5DE46DC
S113376000B5AEB007000D0028239C468C44634688
S1133770664610AA18003A4CA0473C239C46AC4429
S1133780634614229446AC44614615AA02910193FF
S11337901800A0471AAA290003963000314EB346F8
S11337A0B0471FAA02990198B04778208446AC44D8
S11337B06046A0229446AC44614624AA0591049034
S11337C0294EB04750239C46AC44634638005030E1
S11337D006AA00936146B04738007830009A24A9BD
S11337E0B0472A0010A93800B04728373800039A98
S11337F01AA9B04724AA009906A8D8472F0064370D
S113380029AA39000BA8D84706AA00991000A04796
S11338100BAA39001000A047059A039F390028001D
S1133820D8472A00B43201990298D847049A39003B
S11338302800A0472A008C3201990298A0472A0048
S113384024A90598B047009A24A906A8B0473A00CD
S113385006A90498B0472EB004BC9346F0BDC046F8
S1133860C71F00000320000085320000F8B50500E2
S11338700C000C4FB84726002836280020303100B1
S1133880B847210078312000074DA8472100A03116
S11338903000A84720005030044B9847012323658B
S11338A0F8BDC04641280000E72B00008D30000021
S11338B030B59FB00500283014A9214CA0470AA9AF
S11338C02800A0476A460AA914A81E4CA04705AAC6
S11338D00FA919A8A04714AA0AA910001A4DA847AD
S11338E00AAA14A91948A84714A8194B98470123F0
S11338F014930AAA14A91000164DA8470FAA19A9CF
S11339001000A84714AA0AA96846A04719AA0FA933
S113391005A8A04714A908000F4B9847149B002B37
S11339200AD114AB1CAA5968002907D10433934265
S1133930F9D101201FB030BD0020FBE70020F9E7DA
S1133940F93200000320000085320000F0920000EC
S11339508D300000C71F000069320000F0B5DE465C
S113396057464E464546E0B587B005008B460022D3
S1133970C423CA5004900400183403005A68D007C2
S113398019684908014352089868C0071960424001
S11339905A600833A342F1D19946EA69D107AB6969
S11339A05B080B43AB615208EA615946C4235B448C
S11339B0984601239C460096019748460AE0EF6921
S11339C0FB07AA6952081A43AA617B08EB61043118
S11339D0414514D02B6862461340013B0B60049CA4
S11339E06368DE072268520832435B08A668F6075C
S11339F022607340636008348442F1D1DFE7009EA3
S1133A00019FC8235B449846322320229146A9444F
S1133A10A246444698465B46059307E08146012347
S1133A209C46E04404344346FA2B56D0A346012373
S1133A302A681340236004990096019757464B68FF
S1133A40D8070A68520802435B088868C0070A60FE
S1133A5043404B600831B942F1D1BA46EA69D10713
S1133A60AB695B080B43AB615208EA613221404603
S1133A701D4B98478900059BCB585B425A461068FA
S1133A8018408446029000230393029A039B2868FB
S1133A90696812184B4129000CC1009201935342EA
S1133AA0009A1343DB0F012253406046184006007E
S1133AB0002748460A684B6892197B410CC1009262
S1133AC001935342009A1343DB0F012253403340C6
S1133AD01E0000278142EDD1A0E707B03CBC904610
S1133AE09946A246AB46F0BDC1580000F0B5DE468B
S1133AF057464E464546E0B5CE4CA54405000391D5
S1133B0085ACCD4A00212000CC4B98477DA92800E4
S1133B10CB4B98477DA90800CA4B984785A97DA837
S1133B20C94B9847F9239B00E2585200C83BE3581D
S1133B30D218520095239B00E358D2185200C42394
S1133B40E358C621490061585218C04CF02149017C
S1133B50601819A9BE4DA84737AA23A919A8BD4DB5
S1133B60A8473CAA28A91EA8A84741AA23A919A87E
S1133B70B94DA84746AA28A91EA8A8474BA8B74BE1
S1133B80984701234B9337A8B54DA84741A8A847A8
S1133B9055A937A8B34DA8475FA941A8A847B4239E
S1133BA05B019846A044A123DB006B449A46BD26E2
S1133BB0A74B9946AC4DA84CD346DC465B46C8336C
S1133BC01A68330030006438864208DB59465200D4
S1133BD00F68BA465244323BC8399842F7DDA34BCA
S1133BE063441B6819A94046C84755AA5FA9100039
S1133BF0A84705AA4BA90800A0470AAA50A908008B
S1133C00A04755AA2DA91000A8474BAA41A937A837
S1133C10A04750AA46A93CA8A0475FAA37A941A833
S1133C208C4B9A46984764AA3CA946A8D0470FAA49
S1133C3055A905A8D04714AA5AA90AA8D04705AA85
S1133C4055A91000A0470AAA5AA91000A04755AACE
S1133C504BA919A8A84737AA5FA923A8A8475FAA10
S1133C6037A955A8D04764AA3CA95AA8D04755AA51
S1133C7037A91000A0475AAA3CA91000A0474BAA94
S1133C800FA905A8A84737AA0FA95FA8A84741AA62
S1133C9005A955A8A8470A3E754B9C46E04428232D
S1133CA05B429C46E344952E87D1724B04AA94460A
S1133CB063440293C6230193654B9B4608E0019B32
S1133CC0013B0193029A043A0292BD2B00D18BE08E
S1133CD037A8694B98475D4BF022520194466344E0
S1133CE09946019F3B0032225242944663449A46CD
S1133CF0029B5D4D584C1E00B4463300C8331A680D
S1133D003B003800643887420ADB310000965200D9
S1133D100E68B0464244323BC8398342F7DA009E0B
S1133D20524B63441B6819A94846D84755AA5FA952
S1133D301000A84705AA4BA90800A0470AAA50A941
S1133D400800A04755AA2DA91000A8474BAA41A9CD
S1133D5037A8A04750AA46A93CA8A0475FAA37A9FC
S1133D6041A83C4B9846984764AA3CA946A8C0473A
S1133D700FAA55A905A8C04714AA5AA90AA8C0475A
S1133D8005AA55A91000A0470AAA5AA91000A047DD
S1133D9055AA4BA919A8A84737AA5FA923A8A847D9
S1133DA05FAA37A955A8C04764AA3CA95AA8C04726
S1133DB055AA37A91000A0475AAA3CA91000A04749
S1133DC04BAA0FA905A8A84737AA0FA95FA8A84717
S1133DD041AA05A955A8A8470A3F254B9C46E1449A
S1133DE0283E574588D16AE74BA8244B984769AACF
S1133DF04BA937A81C4CA04773AA4BA941A8A047BC
S1133E0069A908001E4CA04773A90800A047039D98
S1133E10290069A81B4CA0472900203173A8A0479A
S1133E200120194B9D443CBC90469946A246AB46A2
S1133E30F0BDC046ACF9FFFF3C040000875B000006
S1133E40F92A0000312B00005D390000306D0000BC
S1133E50612F000003200000C71F00008D30000008
S1133E6099310000E72B000085320000A8FDFFFF18
S1133E7080F8FFFF1C0500009D350000453300005D
S1133E8069320000C928000054060000F0B5DE467F
S1133E9057464E464546E0B589B0924600239C46B7
S1133EA0203399468144083B984680444346009316
S1133EB00791834611E000945B46DB6919075A4673
S1133EC0926912090A4359468A611B09CB6104238A
S1133ED09846C4446346F82B69D05A461F23126897
S1133EE01340049300230593049A059B1020404239
S1133EF0C11712184B41D91702910391C943504677
S1133F006546415150420400544021404840400815
S1133F1007994851594609688D1A55405946096808
S1133F2051400C002C43594609684C40E10F884627
S1133F30029C039D01204042C11724184D41414673
S1133F4021400E000027594608684968801A9941A3
S1133F5002000B0059460CC1009B984648460B686A
S1133F604C681A00230014001D00A41BBD4130C17D
S1133F7000920193931B73403400009D6C402343D3
S1133F806B40DE0F00278142E9D181465946444601
S1133F904B6818070A68120902431B09886800075E
S1133FA00A6043404B6008318C42F1D183E75846A4
S1133FB0079B9B464B68DB0FDB43F821524653506B
S1133FC0026850424240134043405B085A465350F3
S1133FD009B03CBC90469946A246AB46F0BD0000F1
S1133FE0F0B5DBB004000D006946184EB047200060
S1133FF028300AA9B0472000503014A9B047200047
S113400078301EA9B0472000A03028A9B047290065
S113401020000F4B984768460E4B984732A96846D4
S11340200D4B98472C008C23DB009C4665440B4FBA
S1134030074E6A46210032A8B847A03421006846DA
S1134040B047AC42F5D15BB0F0BDC046E72B0000F1
S1134050013400009D350000AD34000079360000C5
S113406070B5A8B0040069460D4B984720000D4D6B
S1134070A847210068460C4EB0472000A8472000FE
S1134080A8472000A8472000A84721006846B04759
S11340902000A8472000A8472000A84728B070BDEA
S11340A0013400009D3500005D370000F0B55A4C26
S11340B0A54407000C0001921D00FC22002149A820
S11340C0564EB047FC2200210AA8B047F723DB0074
S11340D002AA9446634419003800514B9847F723C9
S11340E0DB0002AA9446634418004E4B98470090A4
S11340F0002800D183E0002D00D084E002A9200034
S1134100494B984702A90800484B984788A9F723C8
S1134110DB0002AA944663441800454B98470AAA58
S113412049A902A8434B9847489B879AE321C900B1
S113413002A88446614488A83F4CA047F723DB00CB
S113414002AA944663441900E323DB006344180085
S11341503A4B9847F4243A4D374F3A4EF723DB0055
S113416002AA944663441800A8470AABE35849AA34
S1134170A258E321C90002A88446614488A8B8472C
S1134180F723DB0002AA944663441800A847F723E8
S1134190DB0002AA944663441800A847F723DB0017
S11341A002AA944663441800A847F723DB0002AA36
S11341B0944663441900E323DB0063441800B047CA
S11341C0043C231DCAD188231B0102AA94466344DC
S11341D01900F720C00060441B4B9847019D29003B
S11341E088231B0102AA944663441800174CA04775
S11341F029002031164802AB9C466044A047009831
S1134200144B9D44F0BDF720C00002AB9C466044B3
S1134210114B984772E7C04624F7FFFF875B000005
S11342206D380000B1380000F92A0000312B00007D
S1134230E13F00008D3E0000112C000025350000F8
S11342409D3500005D370000B1330000C92800002F
S1134250A8080000DC0800006140000010B590B020
S11342600C006946044B984721006846034B984765
S1134270012010B010BDC046ED3A0000B11C000092
S113428070B506000D00074B98470400012806D0BE
S113429008213000044EB04708212800B047200010
S11342A070BDC0465D4200009D33000070B590B003
S11342B0060008001500CB7B7F2B30D86946194BCC
S11342C098470400012806D008212800164B984777
S11342D0200010B070BD01236A4631006846134EB9
S11342E0B047002801D10024EEE708216846104BAE
S11342F09847002805D1202208A928000D4B98478B
S1134300E6E7072109A80A4B98470028F3D0089943
S11343104B1E0122521A1343EDD40724D4E706247A
S1134320D2E7C046F91C00009D330000AD400000F8
S11343308D1C0000515B0000F0B5DE4657464E462A
S11343404546E0B58BB0070000230793C6E00F2075
S113435002403EE00123234203D061465140CBB2E8
S11343609C460492202398469044834B4146595CD2
S11343700F2912D95200D1B210230B4202D00D3BA7
S11343805940C9B20F2319407B4B42469954049BB0
S11343901A01794B9846424491706408E4B20A00C9
S11343A034E0019B11003BE0030008AABA5C5340CF
S11343B008AABB5406350136242D3FD05346EA18CB
S11343C0D30F9B185B105A46D25C4B46002BBED1D0
S11343D0120931780801684B1B189B5C0F2BE4D938
S11343E00F23180008401340984206D251404A4017
S11343F00F200300134051400840002BD5D0012B5F
S1134400D2D002001C0000218C460193012CC8D993
S113441011016118C9B2584B595C0F299AD8019BF4
S113442062464A4011000F221140534A04011419F4
S1134430E1541B01D21811540B00B6E7029B01335F
S11344400293039A06320392062B0BD002990F00B3
S1134450002308AA8B54039E069DFF33059A1A4035
S11344609246ABE7059B9C464F46504600210F24DD
S11344705A460DE0C30F1B185B10D3181D78A543D3
S113448008AE8E5D35431D700131063006290DD00E
S1134490002FEFD1C30F1B185B10D3181D782540D4
S11344A008AE8E5D360135431D70EDE7934601235A
S11344B09846C4446346062B0AD0304B039300232A
S11344C00293674601331F4063460593B946BDE72F
S11344D01700079B013307930C2B46D0284B079AF0
S11344E0D35C9846274D0024274E3B004746984608
S11344F006212000B04740442B787B401B01027802
S113450053400370123401356C2CF1D147464146B7
S1134510454612351D485D3C0A781309C35C1B01EE
S11345202240825C13430B7001318D42F4D1F91C9B
S1134530142318201A000B781B044C7824022343FC
S11345408C782343841A1D00A540D3402B431C0CB4
S11345500C701C0A4C708B700331043A002AEAD1A7
S1134560069200239C46BB46A7E70BB03CBC904692
S11345709946A246AB46F0BD0400002038930000E3
S1134580649300005C930000C9580000709300001D
S1134590F0B5D6464F464646C0B588B005000190F2
S11345A08946160003AC0F2200212000304B9847A7
S11345B02023E373103B237463744B46DB0F4B449B
S11345C05B109A46002B49DD5B00A846984403AC77
S11345D0284F23782A785340237063786A785340AD
S11345E063702000B84702354545F2D153464A4628
S11345F0D20735D503AA5B0001995B5C11784B4067
S11346001370517880235B424B40537003AC2000FD
S1134610184B9847102200213000154B98473378E7
S11346202278134333707378627813437370B41C25
S1134630103603AD0F4F2800B84723782A78134368
S1134640237063786A78134363700234B442F2D1FE
S113465008B01CBC90469946A246F0BD0023C6E7AC
S113466003AA117880235B424B401370CEE7C04607
S1134670875B00003943000010B50023C25CCC5CAA
S11346806240C2540133082BF8D110BDF0B5C646C0
S113469000B586B0070001919046002303A90022CB
S11346A05A5401330A2BFBD10024214EE01C0A2169
S11346B0B0477D5C6D01A01C0A21B0477B5CDB0820
S11346C01D4303AB1D5501340A2CEFD103A9487ACD
S11346D00309184AD25C12010F23184002434A729C
S11346E04246521013408A7853408B704346D90F88
S11346F05A18012313405B1A012B12D003AB1A780A
S11347003A705B787B70019E022303A95A5CFA54C9
S11347103270013301360A2BF8D106B004BC90463E
S1134720F0BD03AA5178813B4B405370E6E7C04685
S1134730955A000010940000F0B5DE4657464E46E8
S11347404546E0B5A9B00C000A22010025A83F4D5A
S1134750A84708228E2102AB9C46614423A8A8479F
S1134760012399463A4B01933A4B9A460AE04A464A
S113477023A925A8384B984701239C46E1444B467E
S1134780202B57D023A92000019B9847A446200042
S11347900830A3460F215B461A7813095546EB5C93
S11347A01B010A40AA5C13435A461370012398461E
S11347B0C3448345EFD10022072703A90125D3175A
S11347C05E0F90193840801B3B409B18DB10E65C61
S11347D02B0083403340034153540132402AEED12D
S11347E0002113AA1D4D03AB485DCF5C1754013162
S11347F04029F9D113AA53785B00917889000B43BF
S113480011780B43D178C9000B43117909010B438B
S1134810517949010B43917989010B43D179C9013C
S11348200B4361460B70083201239846C444DC45AF
S1134830E1D19CE723A92000054B984729B03CBC53
S113484090469946A246AB46F0BDC046515B000077
S113485079460000109400008D460000D0930000BB
S1134860F0B5D6464F464646C0B5494CA544060069
S11348700C00811C082220A8464DA8470A223100BA
S113488060A8A84722AEC5256D006D440127424BA0
S11348909846424B99463100083908223000C047F7
S11348A029000A390A222800C0473A0031002800AA
S11348B0C847013708360A35202FECD15EAB9A463B
S11348C020AB9846364B9946364D05E008235B42AB
S11348D09C46E244C2454ED051462000C8470022BF
S11348E007200126D3175F0FD1190140C91B0340CC
S11348F09B18DB10E75C33008B403B400B4169465F
S113490053540132402AEDD1002310A85A5D694660
S1134910595C81540133402BF8D110AA21002600A0
S11349200836200053785B009778BF003B43177824
S11349303B43D778FF003B4317793F013B4357790B
S11349407F013B439779BF013B43D779FF013B4349
S1134950037008320130B042E4D1134E0F270A78B5
S11349601309F35C1B013A40B25C13430B70013131
S11349708142F4D1AAE720A92000094B9847B0232B
S11349809B009D441CBC90469946A246F0BDC0467F
S113499040FDFFFF515B0000635B00008D4600009B
S11349A07946000080930000C093000010B5040015
S11349B00548064B984706486043002803D0002367
S11349C001338342FCD110BD7C950000E95C0000FA
S11349D01027000070B582B005000E0000226B465F
S11349E0DA80064C6B46991D2800A0470028F9D1AF
S11349F06B4606331B88337002B070BD9B0E0000FB
S1134A0070B505008CB2034E21002800B047002881
S1134A10FAD170BD750E0000F0B5DE464F4646462D
S1134A20C0B582B0C34B1B681B6D00930099C2488C
S1134A30C24B9847009B1B0102D4009BDB0007D5A7
S1134A40BC4B1B68C02252051A65BD48BD4B984734
S1134A50BD4B1B78002B00D0A1E0009B1B0300D4AE
S1134A60A5E0B44B1B68802212031A650025B74BDE
S1134A709946B74B9B466AE0AE4B19689C23C858CD
S1134A802C00203C9B3BA34003425DD001959C221B
S1134A908B50019A13019B189B004A469B5C9846D5
S1134AA0019B019A1901C9188900043143461C016C
S1134AB0091949449F48D847019A13019B189B0040
S1134AC04246511C03220A4049465A54019A130192
S1134AD09B189B00E4184C4463685B0045D59D48D3
S1134AE0984B9847019943461B010A0152189200BA
S1134AF09B18964AD3189B681B031B0F0025002B99
S1134B0019DD924E8D4F019A43461C0113019B18E7
S1134B109B00E318F3185B19197B8F48B8470135DC
S1134B20019A13019B189B00E4183419A3681B0312
S1134B301B0FAB42E7DC8948824B9847019B032B50
S1134B4019D0019B042B1FD001350F2D2FDC1F2DF5
S1134B5092D8784B19689823C858973BAB400342C6
S1134B60F2D0019598228B5093E7019942467C48F4
S1134B70724B9847B6E7019903227A486F4B9847DE
S1134B800122794B1A60DFE70199784C23680422EB
S1134B9077486A4EB047236801332360D4E76A4BF1
S1134BA01B78012B09D0009BDB0700D588E002B0FD
S1134BB01CBC90469946A346F0BD009B1B0343D5FD
S1134BC05C4B1B68802212031A6500255F4B9946D3
S1134BD05F4B9B460DE0574B19689C23C8582C002B
S1134BE0203C9B3BA340034200D0D5E001350F2D70
S1134BF02ADC1F2DEFD84F4B19689823C858973BD0
S1134C00AB400342F2D0019598228B50C7E0019942
S1134C1042465348494B9847EBE0564A13680133E0
S1134C201360E3E7544A136801331360DEE7534B20
S1134C301B68012BDAD1524B1B68012BD6D14F4A8A
S1134C40136801331360D1E7009BDB07AFD5394DFF
S1134C502B6801221A654B4C22684B4928004B4BA8
S1134C609847226829683F231340A8228B50236861
S1134C70013323602368102B1ED04548314B9847DD
S1134C80414B5B681B031B0F002B0DDD00253E4EC3
S1134C90314C2A4F7319197A2000B84701357368CB
S1134CA01B031B0FAB42F5DC2C48264B9847314ABB
S1134CB01368013313607AE70022324B1A60DCE791
S1134CC01C4D2B6801221A652E4C22682E4928009F
S1134CD02E4B9847226829683F231340A8228B5003
S1134CE02368013323602368102B1ED02848154BFA
S1134CF09847254B5B681B031B0F002B0DDD00251C
S1134D00214E154C0D4F7319197A2000B8470135FF
S1134D1073681B031B0FAB42F5DC1048094B984723
S1134D201C4A13680133136041E70022154B1A60D3
S1134D30DCE7C046480B002020940000E95C00003A
S1134D402C940000DD5D0000380B0020E40B0020F3
S1134D5049050000709400000895000010950000BB
S1134D60B4940000149500003C0B0020400B00207C
S1134D70249500009C0B0020840B0020980B00203D
S1134D808C0B0020B00B0020A00B00209905000024
S1134D903C950000900B002001959C228B50019AB9
S1134DA013019B189B004A469B5C9846019B019A01
S1134DB01901C9188900043143461C0109194944E1
S1134DC02D48D847019A13019B189B004246511C59
S1134DD003220A4049465A54019A13019B189B0026
S1134DE0E4184C4463685B0000D410E72348244B68
S1134DF09847019943461B010A01521892009B18D7
S1134E00204AD3189B681B031B0F0025002B19DDB8
S1134E101C4E1D4F019A43461C0113019B189B0015
S1134E20E318F3185B19197B1848B8470135019A40
S1134E3013019B189B00E4183419A3681B031B0F70
S1134E40AB42E7DC12480E4B9847019B022B00D182
S1134E50E3E6019B012B00D1E4E6019B042B00D087
S1134E60C4E60C4B1B68002B00D0E0E6094A13682B
S1134E7001331360BAE6C046480B0020709400006A
S1134E80DD5D0000E40B0020E95C000008950000F3
S1134E9010950000980B0020F0B5DE4657464E46AC
S1134EA04546E0B5D9B09B4B984707AB8022D20565
S1134EB0079200225A60FF2119819A72DA72012442
S1134EC0D3395C5401315C5401315A5401315A5480
S1134ED01A6305315A5401315A545A6100211A8215
S1134EE0D976DA611A845A84197624329954597617
S1134EF0113A9A7613329954013A9954962212022D
S1134F009A62C4229203DA60012252429A63DA63FB
S1134F10814A1A64814A5A64814D824B1D60824AD7
S1134F20824B1A60824A834B1A6007AA824928007E
S1134F30824B9847824F3B6898680021814EB04766
S1134F403B6858680021B0472E6830007E4B984774
S1134F501F23184084407D4B1C602A68D369002BB2
S1134F60FCD1336802273B43336006AE00247470DF
S1134F700125B570F470062399463370310018206A
S1134F80734B984698474B46337006A91920C0477F
S1134F9007AB08221A705C709C70DD701D715D7126
S1134FA09D71DC711C725C72093A5A811C735C73CA
S1134FB09C73DC731C745F749F74DD741D75654A87
S1134FC09A611D775C779D77DC7720229C540132AF
S1134FD09C54614C1A0061492000614B98472000A1
S1134FE0604B984780221202584B1A602268516D18
S1134FF0C0235B050B4353655B485C4DA8475C4885
S1135000A847009430AB38AA50A90120594CA047B6
S113501003905948A8470023049301236A46D37593
S113502050AC564B9B46C4E05548504B9847FA2029
S1135030C000544B9847E9E0050053484B4B984750
S1135040280059B03CBC90469946A246AB46F0BDF8
S113505005004E48454B98472800F2E700233EE2FE
S1135060002364E2002377E2494A1368002BFCD052
S1135070474B00221A602BAB9846464B08334246F6
S113508003CB03C241462DA8434B98472B9A2C9936
S11350904248434B98472B9B01332B9329AB424601
S11350A003CA03C3FA204000364B98474B46082BEB
S11350B01EDC29AB984619002DA83A4B984709AB3A
S11350C0424603CA03C3244B9846052207A9180085
S11350D0354B984743461B689A69920701D4D022FE
S11350E09E50264B01221A60FA204000254B984717
S11350F001239C46E1444B460A2B57D053461A6879
S11351002B68002BB0D0D3591E42F9D05B46002146
S11351101960F5E74117000003002A0003002B0083
S11351204C0B0020E00B0020014A0000DC0B0020A7
S1135130D5490000D80B002000140042C90A000021
S113514004010020155E0000390A000000E100E0BF
S113515011170000FFFFFF1F480B0020001C004236
S1135160F9010000F50400008C950000DD5D0000ED
S1135170E8970000C918000000980000440B0020C4
S11351806C980000AD490000A0980000D098000081
S1135190900B0020A00B002061480000409A000002
S11351A0E95C000039470000E9050000EE48EF4BD8
S11351B09847EF49049A0A60EE4B1A60EE4B1A6066
S11351C0EE4B1A60EE4B1A60EE4B1A60EE4B1A600F
S11351D0EE4B1A60EE4B1A60EE4B6A46D27D1A70A3
S11351E0ED48E24DA847ED48A8471022002154A8F5
S11351F0EB4B9847039B002B00D115E7E948DB4BA9
S113520098471022012134A8E54B9847102234A96D
S11352102000E54B984725AA102134A8E34B984772
S1135220E348E44B98470F2725AEE24DB95DE248C9
S1135230A847013FFAD2E148CC4B9847E048DD4B00
S113524098470F26DC4DDB4F315D2800B847013EFF
S1135250FAD2DA48C54B984748A92000D94B984759
S1135260012800D0E8E6D848D24B98470F2748AE2B
S1135270D04DB95DD048A847013FFAD2CF48BB4BC7
S1135280984740AA38A92000D04B9847012800D05D
S1135290DEE6CF48C74B984740AE48ADC54F31789E
S11352A0C548B8470136AE42F9D1C448AF4B984718
S11352B0C848C04B984748AEBF4DBE4F3178280010
S11352C0B8470136B442F9D1BC48A84FB84721AA1F
S11352D0202140A8B54B984725AB1DAA23CB23C258
S11352E01B6813601DA921A8BB4DA8471FA921A8AD
S11352F0A847BA4B9A460693069AB94B99461A4060
S1135300B84B13430693069BDB0ADB0201221343CB
S11353100693069AE0239B0513430693B24D01229C
S113532006A92800B14B984698472A68536D8026F1
S113533036033343536553460693069B4A4613404C
S11353400693069BDB0ADB020693022206A92800C9
S1135350C0472A68536D01210B435365A448B847DD
S1135360FA200001A34B99469847069BA24A134092
S11353700693022206A92800C047A048B847322055
S1135380C8470023079388231B040893079A9C4B60
S113539013430793089B9B4A13401E43089609AB8B
S11353A01DAA03CA03C3052207A92800964B9847E0
S11353B02A6893699B0702D42021D023D150D82096
S11353C0202113581942FCD09048684B984732204A
S11353D0884B98470023079388231B040893079A54
S11353E0874B13430793089B864A1A4080231B0369
S11353F01343089309AB1FAA03CA03C37A4D0522BA
S113540007A92800804B98472A6893699B0702D410
S11354102021D023D150D820202113581942FCD068
S11354207B48524DA847574A1368023313606B4BAD
S11354300693069B6A4A13400693069BDB0ADB022B
S11354400693694E022206A93000684B98473268D9
S1135450536D01210B4353656E48A847494A1368AD
S1135460032BFCD9069B644A134006935E4D02222B
S113547006A928005D4EB04767483C4B9847574BF8
S11354800693069B564A1A40644B13430693069BA5
S1135490DB0ADB02042213430693069AE0239B05EE
S11354A013430693042206A92800B047334A13681D
S11354B0002BFCD05A4A1223FF33D35C88214900C5
S11354C0525C9A4200D1C9E55549581C0322024056
S11354D01220FF300A541B011533FF335B1819AA3D
S11354E0083303CB03C2234A1368013313604D48C6
S11354F01E4B9847214A1368012BFCD04A481B4B8A
S11355009847474B882252009A5C1221FF315B5C1A
S11355109A4200D1A4E542485D1C0F39FF39294065
S11355201225FF3541551B011533FF331B1819A9EB
S1135530083321CB21C11223FF333949CB5C934279
S113554000D18FE5581C032202401220FF300A5478
S11355501B011533FF335B181968C900C9083348A8
S1135560144B9847002763E0589A0000DD5D000063
S1135570800B00208C0B0020940B0020980B002043
S1135580880B00209C0B0020840B0020900B002033
S1135590440B0020380B00201898000034980000B9
S11355A0875B000054980000515B000091450000A7
S11355B084980000E95C0000F46C00000C9A000080
S11355C09098000081420000C0980000AD420000A5
S11355D0F09800000499000039470000FF07008894
S11355E0FFFF00F800000103480B00200D05000038
S11355F014990000AD490000FFFFFFC72099000087
S113560000000404FFFFF0FFE90500002C990000EE
S1135610449900005C9900007099000000000102A8
S1135620E40B0020A0990000B8990000D499000070
S113563019AE484DB95D4848A8470137102FF9D134
S11356404648474EB04719AD290021A8454FB847F1
S11356501BA921A8B8472DAB06CD06C31A002B8879
S113566013804148B04741483A4B984709272DAE2B
S1135670384DB95D3E48A847013FFAD23D4A136808
S1135680002BFCD002273C4B1F70069B3B4A134067
S113569006933B4E042206A930003A4DA8473A48E7
S11356A02F4B9847394B0693069B394A1A40394B7E
S11356B013430693069BDB0ADB02FE22D20013434C
S11356C00693012206A93000A8473268536D0121D0
S11356D00B4353650023079388231B040893079AFD
S11356E02D4B13430793089B2C4A1A4080231B031A
S11356F01343089329AD082200212800284B98471A
S1135700FA208000274B9847274B00221A60290073
S11357102DA8264B984709AB06CD06C3052207A939
S11357203000234B984733689A69174202D12021ED
S1135730D02299501C4B01221A60FA208000194B88
S11357409847002399460E4B9A46174DD827202692
S1135750D4E4C046E95C0000F09900000C9A000013
S1135760DD5D000061480000F8990000109A000017
S1135770F46C0000840B0020380B0020FFFFFFC7EF
S1135780480B00200D050000249A0000FF07008844
S1135790FFFF00F80000010400000410FFFFF0FF09
S11357A0875B0000AD490000440B0020394700002E
S11357B0E9050000002243088B4274D303098B429D
S11357C05FD3030A8B4244D3030B8B4228D3030CCD
S11357D08B420DD3FF22090212BA030C8B4202D36F
S11357E01212090265D0030B8B4219D300E0090A97
S11357F0C30B8B4201D3CB03C01A5241830B8B42A0
S113580001D38B03C01A5241430B8B4201D34B0388
S1135810C01A5241030B8B4201D30B03C01A5241ED
S1135820C30A8B4201D3CB02C01A5241830A8B4272
S113583001D38B02C01A5241430A8B4201D34B025B
S1135840C01A5241030A8B4201D30B02C01A5241BF
S1135850CDD2C3098B4201D3CB01C01A5241830973
S11358608B4201D38B01C01A524143098B4201D3AD
S11358704B01C01A524103098B4201D30B01C01AD8
S11358805241C3088B4201D3CB00C01A5241830852
S11358908B4201D38B00C01A524143088B4201D37F
S11358A04B00C01A5241411A00D2014652411046DF
S11358B07047FFE701B5002000F0F0F802BDC046D4
S11358C00029F7D076E7704703460B437FD40022C4
S11358D043088B4274D303098B425FD3030A8B4280
S11358E044D3030B8B4228D3030C8B420DD3FF22EA
S11358F0090212BA030C8B4202D31212090265D0B8
S1135900030B8B4219D300E0090AC30B8B4201D36A
S1135910CB03C01A5241830B8B4201D38B03C01AB1
S11359205241430B8B4201D34B03C01A5241030B28
S11359308B4201D30B03C01A5241C30A8B4201D3D9
S1135940CB02C01A5241830A8B4201D38B02C01A84
S11359505241430A8B4201D34B02C01A5241030AFB
S11359608B4201D30B02C01A5241CDD2C3098B42E0
S113597001D3CB01C01A524183098B4201D38B015D
S1135980C01A524143098B4201D34B01C01A524100
S113599003098B4201D30B01C01A5241C3088B4245
S11359A001D3CB00C01A524183088B4201D38B0030
S11359B0C01A524143088B4201D34B00C01A5241D2
S11359C0411A00D201465241104670475DE0CA0FA9
S11359D000D04942031000D34042534000229C4669
S11359E003098B422DD3030A8B4212D3FC22890173
S11359F012BA030A8B420CD3890192118B4208D349
S1135A00890192118B4204D389013AD0921100E0AA
S1135A108909C3098B4201D3CB01C01A52418309BE
S1135A208B4201D38B01C01A524143098B4201D3EB
S1135A304B01C01A524103098B4201D30B01C01A16
S1135A405241C3088B4201D3CB00C01A5241830890
S1135A508B4201D38B00C01A5241D9D243088B42E6
S1135A6001D34B00C01A5241411A00D20146634689
S1135A7052415B10104601D34042002B00D54942ED
S1135A80704763465B1000D3404201B5002000F02C
S1135A9005F802BD0029F8D016E770477047C046E4
S1135AA0F0B5CE46474615042D0C2E0080B50704EC
S1135AB0140C3F0C9946030C7E435D4367436343D8
S1135AC07F19340CE4199C46A54203D980235B0258
S1135AD09846C4444B46514343433604360C250C84
S1135AE024046544A4195918491920000CBC904693
S1135AF09946F0BD70B500260C4D0D4C641BA410E6
S1135B00A64209D1002604F003F80A4D0A4C641B8E
S1135B10A410A64205D170BDB300EB5898470136D6
S1135B20EEE7B300EB5898470136F2E71C9B000000
S1135B301C9B00001C9B0000209B000010B5034B25
S1135B400100186800F072F810BDC046040100207E
S1135B50002310B59A4200D110BDCC5CC45401336B
S1135B60F8E710B5884202D98B18984208D300236D
S1135B709A4207D0CC5CC4540133F9E78B5C83545C
S1135B80013AFBD210BD03008218934200D1704742
S1135B9019700133F9E7000070B50500002910D031
S1135BA00C1F2368002B00DAE418280000F0AEFC78
S1135BB01D4A1368002B05D163601460280000F0AF
S1135BC0A6FC70BDA34209D9216860188342F3D1B1
S1135BD018685B6841182160EEE713005A68002AD0
S1135BE001D0A242F9D919685818A0420BD12068F3
S1135BF00918581819608242E0D110685268411897
S1135C0019605A60DAE7A04202D90C232B60D5E769
S1135C1021686018824203D11068526841182160DB
S1135C2062605C60CAE7C046B40B0020032370B511
S1135C30CD1C9D43083506000C2D1ED20C25A9420F
S1135C401DD8300000F062FC254A146821000029A8
S1135C5019D1244C2368002B03D1300000F0C8F87C
S1135C6020602900300000F0C3F8431C2CD10C2321
S1135C703000336000F04BFC03E0002DDFDA0C232E
S1135C803360002070BD0B685B1B1AD40B2B03D947
S1135C900B60CC18256003E08C420ED1636813605E
S1135CA0300000F034FC200007220B30231D904309
S1135CB0C31AE7D05A42E250E4E74B6863600C0031
S1135CC0EEE70C004968C2E70323C41C9C43A042CE
S1135CD0E0D0211A300000F08BF8431CDAD1C6E77B
S1135CE0B40B0020B80B00200FB40B4B13B51C6889
