:10000000582C0020091800000518000005180000F1
:1000100000000000000000000000000000000000E0
:1000200000000000000000000000000005180000B3
:100030000000000000000000051800000518000086
:10004000051800000518000005180000051800003C
:10005000051800000518000005180000051800002C
:1000600005180000010B0000110B0000210B00001F
:10007000310B0000410B0000510B00007D1A000005
:1000800005180000051800000518000005180000FC
:1000900005180000051800000518000005180000EC
:1000A00005180000051800000518000005180000DC
:1000B00005180000051800000518000010B5064CD2
:1000C0002378002B07D1054B002B02D0044800E019
:1000D00000BF0123237010BDD401002000000000E8
:1000E000D8480000084B10B5002B03D0074908483A
:1000F00000E000BF07480368002B00D110BD064B8D
:10010000002BFBD09847F9E700000000D801002041
:10011000D8480000D8480000000000000C4B1B68C5
:10012000002B06D1EFF31083002B07D00022094BE0
:100130001A70074A136801331360704772B6BFF331
:100140005F8F0022044B1A700132024B1A70F0E7E5
:10015000F0010020F401002000000020084B1A6884
:10016000013A1A601B68002B09D1064B1B78002B43
:1001700005D00122044B1A70BFF35F8F62B670473F
:10018000F0010020F401002000000020F0B583B051
:1001900001AC012565700027A770257021000F2094
:1001A000064EB047802212028223DB059A61277037
:1001B000657021001C20B04703B0F0BDF5060000BB
:1001C00003680A4A934203D0094A934207D0704712
:1001D000084A116980235B000B431361F7E7054A66
:1001E000116980239B000B431361F0E7001C004260
:1001F000002000420008004070B50C0015000160AE
:10020000A54B9847A54B00221A702A781A70A44B68
:100210009C4200D1C6E0A34B9C4200D1FFE0A36901
:1002200002221343A3610023BC22A3500C32A3502B
:100230009D4BE3619D4BE360AB7B002B04D0E268F8
:1002400080231B041343E3606B78002B03D0A36867
:1002500040221343A3606269AB7813436361EB7878
:10026000002B04D0A2698023DB011343A3612B7907
:10027000002B04D0A26980239B011343A3616B79F7
:10028000002B04D0A26980235B011343A361AB79E7
:10029000002B03D1A36940221343A361EB79002B08
:1002A00003D0A36910221343A3612B7A002B03D040
:1002B000A36908221343A3616B7A1B04F022120383
:1002C00013400122134323622B7B6A7B13436A8909
:1002D00012041343A362EB7B1B02FE22D2011340E4
:1002E000297C7F220A401343A3646A7C12013023D5
:1002F0001340A97C89000C220A4013438022A3509A
:10030000EB7C002B03D0A35802210B43A3502B7D81
:10031000002B04D08022A35801210B43A35090232B
:10032000AA69E2502B7F002B05D0A022A158802380
:100330001B060B43A350A022A1586B7F1B06FE2077
:10034000C00503400B43A350AB7F002B05D01032F8
:10035000A15880231B060B43A350B022A158EB7F6A
:100360001B06FE20C00503400B43A3502023EB5C7B
:10037000002B05D01032A1588023DB050B43A3507E
:10038000F022A1582123EB5C1B06FC2080050340D2
:100390000B43A3500323E365043B103AA3500432FC
:1003A000A35070BD3D491A20414B98471A20414B3C
:1003B00098473B4B9A6902210A439A613E4A1204CC
:1003C000120C802189030A4384215A503B4A1204AB
:1003D000120C802149030A4388201A50384A12041B
:1003E000120C0A4318301A50364A1204120C1143E8
:1003F000B0229950344A1204120CAC215A50334A9C
:100400001204120C32490A43C0215A50314A1204D4
:10041000120C802109030A43F0215A5003E71F49B7
:100420001B20234B98471B20224B98471D4B9A6952
:1004300002210A439A61284A1204120C802189037E
:100440000A4384215A50254A1204120C8021490380
:100450000A4388201A50224A1204120C0A43183008
:100460001A50204A1204120C1143B02299501E4A0D
:100470001204120CAC215A501C4A1204120C1449DA
:100480000A43C0215A501A4A1204120C802109034F
:100490000A43F0215A50C6E6C10100002C0C00208E
:1004A000001C004200200042030A0506330A050032
:1004B000AD1600003D16000078050020F80200206F
:1004C0007803002078040020F8010020F8050020BF
:1004D0000000040478060020380A0020B807002035
:1004E0003808002038090020B8060020B80A00208B
:1004F000380B00200268936901218B4393610168E6
:1005000001228B691A42FCD17047000010B50368C4
:100510000948834204D0094C1720A34206D010BDDD
:1005200009689200064BD1500020F8E70968920054
:10053000044BD1500020F2E7001C00420020004292
:1005400078050020380A002010B503680C48834263
:1005500004D00C4C1720A34209D010BD08680A4BE8
:10056000D200D05049689B1859600020F5E7086810
:10057000064BD200D05049689A1851600020ECE731
:10058000001C004200200042F8020020B8070020B2
:1005900070B50D0003680D4CA34204D00C4C17201D
:1005A000A34209D070BD12010A49891810222800FF
:1005B000094B98470020F5E71201084989181022D5
:1005C0002800054B98470020ECE7C046001C00427D
:1005D00000200042F801002021220000B80600207F
:1005E00070B50D0003680D4CA34204D00C4C1720CD
:1005F000A34209D070BD12010A49891810222800AF
:10060000094B98470020F5E7120108498918102284
:100610002800054B98470020ECE7C046001C00422C
:10062000002000427803002021220000380800202A
:1006300070B50D0003680D4CA34204D00C4C17207C
:10064000A34209D070BD12010A498918102228005E
:10065000094B98470020F5E7120108498918102234
:100660002800054B98470020ECE7C046001C0042DC
:1006700000200042780400202122000038090020D8
:1006800010B503681748834204D0174C1720A342C3
:1006900014D010BD0B681548120113504C68831814
:1006A0005C600B0008330832821810311878107023
:1006B000013301328B42F9D10020EAE70B680C4884
:1006C000120113504C6883185C600B000833083229
:1006D0008218103118781070013301328B42F9D131
:1006E0000020D6E7001C004200200042F805002050
:1006F000B80A002000B583B001AB80221A700A78D6
:100700005A704A789A708A78DA701900014B9847C3
:1007100003B000BDA9170000F0B5DE4657464E46AF
:100720004546E0B587B08046049116001F000022C0
:10073000002300218B463F240120210000960197D1
:100740005C4603944446059413E02024641A050093
:10075000E540A84614E0009C019D121BAB415C469D
:100760004D462C43A346039C45462C430394013934
:1007700025D3202464420C19E7D40500A540A846DF
:1007800004008C40A14692185B4114001D00059E98
:100790004F463E40B446049E47463E40B2466646FB
:1007A00057463E4303D00600264332002B00009CF0
:1007B000019D9D42DBD8CED19442D8D8CBE7039B94
:1007C0005846190007B03CBC90469946A246AB4635
:1007D000F0BD10B5490840230024814202D2180020
:1007E00010BD1C00091A631C9BB28842F9D9402332
:1007F000FF2CF4D814800023F1E70000F0B583B09B
:100800000F00160008AA117804004C434022BC4295
:1008100002D9100003B0F0BD002B14D10200080073
:100820000021194CA04701003A0000230020174C7A
:10083000A04700220123121A8B41120C1B041A43F9
:1008400032800022E5E70022012BF9D10A000023C3
:1008500000210D4CA04702000B00009201933800CC
:1008600000210A4CA047050080239B0140229842AA
:10087000CFD8790FF800009A019BA047EA00821AAE
:10088000D2B252032A43DBE785210000190700009A
:1008900010B582B004000E4B1B78002B07D0002946
:1008A00005D10B4B5B78834210D01D200CE001A9D1
:1008B0000C701220074B98471220074B9847044BA7
:1008C0005C7001221A70002002B010BD0020FBE70E
:1008D000780B0020AD1600003D160000404B9842FA
:1008E00031D00AD93F4B98424DD03F4B98425AD015
:1008F0003E4B984237D0002070473D4B98420CD079
:100900003C4B9842F7D1012917D000295DD002292C
:1009100015D0032915D00020EEE7012907D00029C2
:1009200051D0022905D0032905D00020E4E7324840
:10093000E2E73248E0E73248DEE73248DCE73248B7
:10094000DAE73248D8E7012907D000293FD0022949
:1009500005D0032905D00020CEE72D48CCE72D484F
:10096000CAE72D48C8E7012907D0002931D002295C
:1009700005D0032905D00020BEE72848BCE7284859
:10098000BAE72848B8E7012907D0002923D002296F
:1009900005D0032905D00020AEE72348ACE7234863
:1009A000AAE72348A8E7012907D0002915D0022982
:1009B00005D0032905D000209EE71E489CE71E486D
:1009C0009AE71E4898E71E4896E71E4894E71E4897
:1009D00092E71E4890E71E488EE71E488CE7C04607
:1009E000000C0042001400420018004200100042B7
:1009F0000004004200080042030005000300060056
:100A000003000700020011000200120002001300A0
:100A100002000D0002000E0002000F00020017008D
:100A200002001800020019000300290003002A0038
:100A300003002B000300230003002000030021001B
:100A4000030004000200100002000C000200160067
:100A5000030028000300220030B587B00B4B6A4624
:100A600032CB32C232CB32C2009B83420BD0012345
:100A70009A0069465258824206D00133062BF7D1BC
:100A8000002007B030BD0023D8B2FAE7C83F00000D
:100A900070470000F0B50A4B1B78002B0CD1094FB2
:100AA000094E0A4D0024DE515A1914600433182BE4
:100AB000F9D10122024B1A708000024BC150F0BDE7
:100AC0007A0B00207C0B0020910A0000300C0020E3
:100AD00000B583B009236A461370013353700133A4
:100AE00093700133D3700133137101335371034B8E
:100AF00098476B46185603B000BDC046590A00001F
:100B000010B5024B1B680020984710BD7C0B0020DD
:100B100010B5024B5B680120984710BD7C0B00208C
:100B200010B5024B9B680220984710BD7C0B00203B
:100B300010B5024BDB680320984710BD7C0B0020EA
:100B400010B5024B1B690420984710BD7C0B002098
:100B500010B5024B5B690520984710BD7C0B002047
:100B6000F0B5DE4657464E464546E0B591B0050025
:100B70000C00160029600800D24B984705280DD0BC
:100B80000700133722680523D20709D5180011B0D2
:100B90003CBC90469946A246AB46F0BD1927F1E70A
:100BA000226817339207F1D4C74AD16901301B3B41
:100BB00083400B43D3610FA935239846F35C0B7038
:100BC000FFB23800C14B98473800C14B98474346A5
:100BD000F05C0021BF4B9847F37A6B712C23F35CD8
:100BE000AB712D23F35CEB71F37E2B722423F35C4A
:100BF0006B722B6802931800B24B984705281DD0E2
:100C0000133000220E2306A98C4663441A80338ACF
:100C100098468023DB01984500D1C3E010D9C0235A
:100C2000DB01984500D1B8E080231B02984500D035
:100C300066E103230693002307930AE01920E0E707
:100C400080239B01984500D05AE1102306930F3B67
:100C5000079333680593F3689B4673690393337E68
:100C600004932E23F35C9A4673689946002B00D1B7
:100C7000C5E080235B05994500D1A8E0737E002B79
:100C800002D0B37E029A93730E2306AA944663445D
:100C90001B88029A9381059A5B461A43039B1A4369
:100CA0004B461A4343461A43049B1B021A435346BE
:100CB0005B071A432F23F35C002B01D104331A4343
:100CC000737E9B022421715C49020B432621715CD7
:100CD00009020B432C21715C49040B432D21715CEB
:100CE00009040B43B07AF17A084318433389FF2B88
:100CF00000D1AAE0802149040A43184302998B6875
:100D00009C46338C718C0B431F00072163461940AE
:100D10003B000B4302998B60F369002B02D06E49B4
:100D20000A401A433423F35C002B03D16B4B9B78AE
:100D30009B0701D580231A432968029FCB69002BAA
:100D4000FCD178602968CB69002BFCD13A603B6804
:100D5000F02212051340E022D20493420AD0BB686D
:100D600007229343BB60BA682523F15C1E3B0B400E
:100D70001343BB600EAB80221A7000225A70DA70E7
:100D80009A70B36B0A93F36B0B93336C0C93736C85
:100D900002930D9300270AAE66E008230693073BF3
:100DA000079356E733680593F3689B46736903938B
:100DB000337E04932E23F35C9A4673689946002B86
:100DC00019D080235B05994501D0002327E02F230C
:100DD000F35C002B00D051E7B36A1F00C0B2404B58
:100DE000984701000E2206AB9C46624438003D4BFA
:100DF0009847030013E008230693002307932F234B
:100E0000F35C002B0FD0069B0093079B0E2206A9D4
:100E10008C466244316BB06A334FB8470300002BF5
:100E200000D0B3E62AE7B36A1F00C0B22C4B984744
:100E30000100069B0093079B0E2206A8844662448D
:100E40003800294FB8470300E9E7F37E002B00D1B3
:100E500054E78023DB041A4350E72000234B9847D4
:100E600007E00137042F0DD0F9B2BB0098590028D4
:100E7000F3D0431CF5D00EA90870000CC0B21C4B77
:100E80009847EEE70023EB602B616B61AB61EB6190
:100E90002B62AB626B620022EB85AB853033EA5488
:100EA0000133EA540133EA540133EA542868054B0C
:100EB000984704000F49104B9847A4000F4BE5508A
:100EC000002363E6590A000000080040AD16000048
:100ED0003D16000091080000FFFFFFF000200041D8
:100EE000D1160000D3070000FD070000DD08000058
:100EF000A91700009D0F0000950A0000300C00208B
:100F00001023069300230793A3E6C046C2791C234F
:100F1000002A01D118007047C28D92B2173B002AF7
:100F2000F8D1026811850221137E0B42FCD0002308
:100F3000F0E782791C23002A01D118007047828DC6
:100F400092B2173B002AF8D10268107E4007F4D510
:100F5000538BDBB258061DD0980703D50223538369
:100F60001833EAE7580703D5042353831A33E4E719
:100F7000D80703D5012353831233DEE7D80603D500
:100F8000102353833233D8E79B0603D520235383A2
:100F90002133D2E7138D0B800023CEE7F8B5800014
:100FA000644BC5582C68E369002BFCD1237EA67DD9
:100FB0001E403023EB5C3122AF5C1F40F30722D58B
:100FC000EB8D9BB2002B1CD0AA6A1378DBB2511CAC
:100FD000A962697901290ED09BB2DB05DB0D23855F
:100FE000EB8D013B9BB2EB85002B0CD101332375BC
:100FF0000133A37507E0517809020B430232AA625C
:10100000EBE701232375B30706D5022323750022DE
:101010003133EA54FB071ED4730768D5AB8D9BB2FE
:10102000002B62D0638BDBB21A0718D47F221340E7
:101030005A0601D540229343002B33D09A0711D58D
:101040001A223223EA54303B63837B074FD52800B2
:101050006B6998474BE02800EB689847DCE77722FC
:101060001340E5E75A0705D51E223223EA542E3BEA
:101070006383EAE7DA0705D513223223EA54313BCA
:101080006383E2E7DA0605D542223223EA54223BA3
:101090006383DAE79B06D8D541223223EA54123B18
:1010A0006383D2E7238DDB05DB0DDAB2696A0A7050
:1010B0006A6A511C69626979012910D0AB8D013BC4
:1010C0009BB2AB85002B12D10433237500222E3343
:1010D000EA54BB070BD528002B69984707E01B0A89
:1010E00053706B6A01336B62E8E704232375F306E0
:1010F00004D5102323752376FB060ED4B30604D53E
:101100002023237523763B070BD4330704D508230C
:1011100023752376BB0608D4F8BD2800EB699847F1
:10112000ECE72800AB699847EFE72B6A280098475F
:10113000F2E7C046300C002010B5072803D8800025
:101140000F4B1B589F46002018E00E4B586815E0C7
:101150000D4B597D0907090F01310C480C4B98477D
:101160000CE0084B986809E0074B1B7F00209B07A9
:1011700004D5044B186801E08020000210BDC04671
:10118000E03F0000940B002000100040006CDC02E7
:101190006D200000F0B5DE4657464E464546E0B5A8
:1011A000254A938A457801784C424C41A146817882
:1011B0008C46C1788846467A077A817A8B461F49E1
:1011C00044688C60C17A8900847B64002143447B3D
:1011D0002143C9B29175017BD17501214846800038
:1011E0000424A343034340460840C0000434A343FF
:1011F00003436046084000010834A34303430F4003
:10120000BF01402083433B430E40F60140308343FF
:101210003343793805402D02094803402B43584693
:1012200001400903074803400B4393823CBC9046AE
:101230009946A246AB46F0BD00140040940B002036
:10124000FFF8FFFFFFEFFFFFF8B50400C568037D5F
:10125000012B4DD0A36818012900294B98470F2274
:10126000024003092178C9016678B6013143C9B249
:10127000244E31771104013B1B051B0D0B433362D8
:1012800037002C260421BB5D0B42FCD1A3781B0345
:10129000E178C9000B43217989000B43A17C032627
:1012A00031400B43218A0904174F39400B43E17C3D
:1012B0000902E027FF0039400B43277D3F01302121
:1012C00039400B430F494B62637D1E402823CE54A7
:1012D0000F002C260821BB5D0B42FCD10F23984345
:1012E00082186A43637D0433DA40084B1A60F8BD04
:1012F000018A013149002800014B98470500A9E700
:101300006D200000001000400000FF07940B00203B
:10131000072803D88000184B1B589F46172029E048
:10132000164A137D02210B431375002022E0144A54
:10133000936902210B43936100201BE00F4A138A3B
:1013400002210B431382002014E00D4A938A0221EC
:101350000B43938200200DE0084A137F02210B43C8
:10136000137710002A310222435C1342FCD1002083
:1013700000E000207047C046004000000010004020
:1013800000140040F0B5C64600B58EB003223F4BB6
:101390009A603F4A53681E218B4318390B435360B0
:1013A0000AA8002303708022120242608370012287
:1013B000C2708372C37203734373837302394170C3
:1013C00043720272334B98470520334B9847334999
:1013D0000122CB681A42FCD0314B1A7D80210A438E
:1013E0001A7502225A751A009369002BFCD12D4BF5
:1013F000984701AD0126029600246C706C7205239B
:101400002B702E7229000120274B98469847012007
:10141000264FB8476E606C702C726C7207232B706D
:1014200029000820C0470820B84704A88470C47069
:1014300004711F4B836006824475C4748474047005
:101440000123437004751B4BC3601B4B9847072057
:10145000114B9847124830210322435C1340032B61
:10146000FBD1023B154A137101A94B6000224A705F
:101470004A7207320A700B7200200B4B984700200B
:101480000A4B98470EB004BC9046F0BD00180040CF
:1014900000400041951100001113000000140040AD
:1014A00000100040C1140000E51400009115000078
:1014B000006CDC02FF7F00004912000000080040C1
:1014C000064A536980210B4353610122044B1A7071
:1014D00019000B781342FCD17047C0460008004049
:1014E000001C004070B504000D784B78002B02D032
:1014F0008023DB001D434B7A002B02D080231B018D
:101500001D43486801280FD9431E184231D10228D3
:101510002DD90223002201325B009842FBD88023A0
:101520005B011D43120415430B7A002B02D080236C
:101530009B011D430426A6401149124A4B681340E3
:101540001E42FBD1104B9847A4000D4B9C466444AF
:10155000226A80235B001A402A4322626146094ABC
:101560004B6813401E42FBD1084B984770BD0022C8
:10157000D5E7000480239B0018430543D4E7C04609
:10158000001C0040FC0700001D0100005D01000080
:1015900010B504000422824009480A4943680B4000
:1015A0001A42FBD1084B9847A400054B9C46644463
:1015B000226A80235B0013432362044B984710BDCB
:1015C000001C0040FC0700001D0100005D01000040
:1015D000F8B50400042282401248134943680B40C6
:1015E0001A42FBD1114B98470E4F0834A400E05922
:1015F0004007400F0E4B98470600E559ED04ED0FEC
:10160000E459240C0B4B9847002D07D1012C07D926
:1016100021003000084B9847060001E00134E64005
:101620003000F8BD001C0040FC0700001D01000058
:10163000391100005D0100006D20000010B50400AC
:10164000094B9847A000094B9C4660448022835870
:1016500040210B4383504031403A43581A42FCD05A
:10166000034B984710BDC0461D010000001C004000
:101670005D01000010B50400094B9847A000094B1C
:101680009C4660448022835840218B4383504031E4
:10169000403A43581A42FCD1034B984710BDC0460C
:1016A0001D010000001C00405D01000070B5040039
:1016B0000D00054B98472A780F2313402034A400CF
:1016C000024AA35070BDC04675160000001C0040C1
:1016D00010B50400064B98472034A400054BE4588D
:1016E0002407240F044B98472000044B984710BD53
:1016F0001D010000001C00405D010000D11500002C
:1017000030B5D378002B35D11378802B29D01B0628
:1017100080246402234354780225AC4306D1947894
:10172000002C20D18024A402234341605478013C42
:10173000012C1CD90D042D0CA024E4052C431C43C2
:1017400084620D0CD02424062C431C438462D4787C
:10175000002C22D15B031CD59378012B1ED0416154
:1017600017E00023D7E7C024E4022343DDE70D4C54
:101770002340DFE741600C04240CA023DB05234356
:1017800083620C0CD0231B0623438362D378002B87
:1017900003D15378013B012B02D930BD8161F8E7B9
:1017A0008160FAE7FFFFFBFF10B50A00C1090023C3
:1017B000002905D14309DB018221C9058C46634418
:1017C0001F242040012181401800014B984710BD83
:1017D000011700007047000010B5054B9847054BF6
:1017E0009847054B9847054B9847054B984710BDC0
:1017F000851300008D010000D5170000D5170000EB
:10180000D5170000FEE7000010B5174A174B9A42A3
:1018100011D01A00164B9A420DD2164A03339B1A66
:101820009B0801339B00002210480F498C588450BC
:1018300004329A42FAD1104A104B9A420AD2D34348
:101840000E495B1803218B4304339B18002102C20D
:101850009342FCD10A4AFF210A4B8B4393600A4B07
:1018600098470A4B9847FEE7D84800000000002040
:10187000D401002004000020D4010020580C0020D6
:1018800000ED00E000000000D9210000D91C00009C
:10189000F0B5C64600B50C00904600280FD1002ACE
:1018A00011DD8F18094E0A4D306821002B689847CA
:1018B0000134BC42F8D1404604BC9046F0BD01233F
:1018C0005B429846F7E78046F5E7C046500C00209B
:1018D000480C0020F0B5C64600B50E0015000138D2
:1018E000022810D8002A11D000240C4B98460C4F27
:1018F00043461868315D3B689847002808DB01348F
:10190000A542F5D106E00124644203E0140001E0A1
:1019100001246442200004BC9046F0BD500C00201D
:101920004C0C00200300064A1268002A04D0044A26
:101930001068C318136070470249014A1160F6E746
:10194000A00B0020582C002001204042704780232B
:101950009B014B60002070470120704700207047BA
:1019600070B582B005000E0000226B46DA80064C8E
:101970006B46991D2800A0470028F9D16B46063315
:101980001B88337002B070BD330F000070B50500C6
:101990008CB2034E21002800B0470028FAD170BD58
:1019A0000D0F000010B584B00023009388231B04A2
:1019B0000193009B8004124C204018430090019B2F
:1019C0000F20104000040F4C234003430193002AD2
:1019D00007D0002318006844CC5C047201339A429B
:1019E000F8D1094C002269462000084B984723682B
:1019F0009A69920702D40121D022995004B010BDF7
:101A00000000FC1FFFFFF0FFA40B00208106000078
:101A100010B584B00023009388231B040193009C1D
:101A20008023DB052343C000C00818430090019BBE
:101A30000F20104000040E4C234003430193002A62
:101A400007D0002318006844CC5C047201339A422A
:101A5000F8D1084C002269462000074B98472368BC
:101A60009A69920702D40121D022995004B010BD86
:101A7000FFFFF0FFA40B002081060000F0B5CE466A
:101A8000474680B585B0824B1B681A6D0392039A56
:101A900012036ED5802212031A6500230293029B63
:101AA0000F2B66D87A4B994698467A4F3AE09C239A
:101AB00041460968CB58203A012191400B405A1EFB
:101AC0009341DBB23BE0724A1168203B01229A400D
:101AD00013009C228B5040E06F48704B98470023C6
:101AE00002936C4B5B681B031B0F029A934210D945
:101AF000684C6B4D6B4E029BE318197A2800B04777
:101B0000029B0133029363681B031B0F029A9342EB
:101B1000F1D86548614B9847029B01330293029BC1
:101B20000F2B26D8029A1F2AC1D898234946096844
:101B3000CB58012191400B405A1E9341DBB2002B40
:101B4000EAD0029B0193029B1F2BBCD8504A11681C
:101B500001229A40130098228B50019A39004C4878
:101B6000524B98473B685B00B6D551484B4B984762
:101B7000B5E7039BDB0715D4039BDB064DD4039B22
:101B80001B0102D4039BDB0007D5414B1B68C0221D
:101B900052051A654748414B984705B00CBC904622
:101BA0009946F0BD3A4D2B6801221A65424C2268D5
:101BB00042492800424B9847226829683F23134036
:101BC000A8228B502368013323602368102B20D078
:101BD0003C48324B984700230293384B5B681B0309
:101BE0001B0F029A934210D9344D2D4C2D4E029B5F
:101BF000EB18197A2000B047029B013302936B68FF
:101C00001B031B0F029A9342F1D82748234B984796
:101C1000B2E70022284B1A60DAE71D4D2B6810222C
:101C20001A65294C226829492800294B98472268BF
:101C300029683F231340A8228B5023680133236077
:101C40002368102B20D02348144B9847002302937D
:101C50001E4B5B681B031B0F029A934210D91B4D4E
:101C60000F4C104E029BEB18197A2000B047029BD4
:101C7000013302936B681B031B0F029A9342F1D846
:101C80000948064B98477AE700220F4B1A60DAE7BB
:101C9000A40B0020E00B0020484100003923000085
:101CA0008C41000045220000944100009105000095
:101CB0000441000018420000100C0020F00B00202E
:101CC000E105000098410000DC0B0020000C002022
:101CD00031060000D8410000F0B595B0B24B9847EE
:101CE00001AA8023DB05019300235360FF211181AA
:101CF0009372D3720124D3395454013154540131B5
:101D00005354013153541363053153540131535427
:101D1000536100211382D176D361138453841176E9
:101D20002433D1545176113B93761333D154013B74
:101D3000D15496231B029362C4239B03D3600123D7
:101D40005B429363D363994B1364994B5364994DEE
:101D5000994B1D6099499A4B19609A499A4B1960A1
:101D60009A4928009A4B98479A4F3B6898680021F7
:101D7000994EB0473B6858680021B0472E68300044
:101D8000964B98471F2318408440954B1C602B6846
:101D9000DA69002AFCD133680232134333607E32A1
:101DA0000023904890491B545A5401330132D2B257
:101DB000082BF8D100246B465C7001259D70DC7007
:101DC00006271F7069461820884EB0476B461F7063
:101DD00069461920B04701AA082313705470947003
:101DE000D570157155719571D47114725472093B87
:101DF0005381147354739473D473147403335374EE
:101E00009374D57415757A4B9361157754779577DC
:101E1000D4772023D4540133D454764C764920000F
:101E2000764B98472000764B9847802212026C4BE5
:101E30001A602268516DC0235B050B4353657148DE
:101E4000714B9847714C724F02E06E486E4B984749
:101E5000704E4F256D4429002000B0472B78303B51
:101E6000DAB2382AF5D89300FB589F466A48664B89
:101E700098476A4B0193019BDB0ADB020222134362
:101E80000193019B664A1A40664B13430193019AE2
:101E9000E0239B0513430193564D002201A928001E
:101EA000614B98472A68516D80231B030B43536590
:101EB000CEE75E48544B9847584B0193019B584AD4
:101EC0001A405B4B134301934A4D012201A928009C
:101ED000554B98472A68536D01210B435365B7E76B
:101EE0005448494B984704223E495348534B98471E
:101EF000AEE75348444B984704223B4951484F4B67
:101F00009847A5E75048404B98478023DB0501934D
:101F10004E4B0293019B5B0F5B074D4A13430193AA
:101F2000019AE0231B0613430193029B5B0F5B079F
:101F30000122134302932F4D002201A92800454B93
:101F400098472A68516D80231B030B4353657FE735
:101F500041482D4B98478023DB0501933B4B02936F
:101F6000019B5B0F5B073D4A13430193214D012207
:101F700001A92800374B98472A68536D10210B435D
:101F8000536565E73648204B984708221549304885
:101F9000344B98475CE734481B4B9847082212495A
:101FA0002E48304B984753E7D917000003002A000A
:101FB00003002B00A80B0020500C00208D190000FE
:101FC0004C0C002061190000480C00200014004255
:101FD000610B00000400002081230000D10A0000F2
:101FE00000E100E0140C00201C0C0020A9170000E8
:101FF000FFFFFF1FA40B0020001C0042F90100009E
:10200000F50400005C42000039230000B8440000E1
:10201000204000004D230000BC440000FF07008862
:10202000FFFF00F800005A040D050000FC4400000A
:10203000000069043C4500005A040000A519000096
:102040008045000069040000C8450000FFFFFF9FB5
:10205000A5000010490500000C4600009600001085
:1020600050460000111A00009C4600000022430860
:102070008B4274D303098B425FD3030A8B4244D350
:10208000030B8B4228D3030C8B420DD3FF22090292
:1020900012BA030C8B4202D31212090265D0030B51
:1020A0008B4219D300E0090AC30B8B4201D3CB0347
:1020B000C01A5241830B8B4201D38B03C01A524189
:1020C000430B8B4201D34B03C01A5241030B8B428B
:1020D00001D30B03C01A5241C30A8B4201D3CB0276
:1020E000C01A5241830A8B4201D38B02C01A52415B
:1020F000430A8B4201D34B02C01A5241030A8B425E
:1021000001D30B02C01A5241CDD2C3098B4201D375
:10211000CB01C01A524183098B4201D38B01C01AF3
:10212000524143098B4201D34B01C01A524103096A
:102130008B4201D30B01C01A5241C3088B4201D319
:10214000CB00C01A524183088B4201D38B00C01AC6
:10215000524143088B4201D34B00C01A5241411AED
:1021600000D20146524110467047FFE701B50020FA
:1021700000F006F802BDC0460029F7D076E77047A8
:102180007047C046F0B5CE46474615042D0C2E00CC
:1021900080B50704140C3F0C9946030C7E435D4345
:1021A000674363437F19340CE4199C46A54203D965
:1021B00080235B029846C4444B4651434343360454
:1021C000360C250C24046544A4195918491920001B
:1021D0000CBC90469946F0BD70B500260C4D0D4CD8
:1021E000641BA410A64209D1002602F065FB0A4D2B
:1021F0000A4C641BA410A64205D170BDB300EB5875
:1022000098470136EEE7B300EB5898470136F2E7FE
:10221000C4480000C4480000C4480000C84800008A
:10222000002310B59A4200D110BDCC5CC4540133D8
:10223000F8E703008218934200D170471970013308
:10224000F9E700000FB40B4B13B51C68002C05D048
:10225000A369002B02D1200000F020FB05AB049AFB
:10226000A1682000019300F011FD16BC08BC04B069
:102270001847C0460400002070B505000E00002875
:1022800004D08369002B01D100F008FBAB69AC6876
:10229000002B02D1280000F001FB244B9C420FD1FF
:1022A0006C68A3891B0702D52369002B20D121006C
:1022B000280000F071F900281AD00120404270BDBA
:1022C0001B4B9C4201D1AC68EBE71A4B9C42E8D116
:1022D000EC68E6E7013B0136A360002B04DAA26953
:1022E000934216DB0A2914D023685A1C2260197005
:1022F0003178A3680029EDD1013BA360002B0FDAF0
:1023000022000A31280000F0F1F8431CD5D00A2041
:10231000D5E72200280000F0E9F8431CE8D1CCE71B
:102320000A2023685A1C22601870C8E71047000072
:1023300030470000F046000010B5034B010018685C
:10234000FFF79AFF10BDC046040000200FB40B4BEE
:1023500013B51C68002C05D0A369002B02D1200006
:1023600000F09CFA05AB049A61682000019301F02B
:10237000B7F816BC08BC04B01847C04604000020DB
:102380004A424A41802310B55200DB0000F002F8B7
:1023900010BD0000F0B51D004F4B85B01E68040055
:1023A0000F000092002E05D0B369002B02D130003F
:1023B00000F074FA494B9C4250D17468009B022B88
:1023C00005D0012B00D984E0002D00DA81E0210046
:1023D000300000F0E1F9616B002908D0230044339C
:1023E000994202D0300000F081FB00236363002398
:1023F000A3616360A3891B0603D52169300000F047
:1024000075FBA389364A1340A381009B022B5AD047
:1024100003AB02AA2100300000F0F2FAA3891843AE
:10242000A081002D24D1029D280000F055FB0195CC
:10243000071E42D1029B0193AB4239D10120404299
:102440000223A2891343A3810023A36023004733FF
:10245000236023610123636105B0F0BD214B9C42E1
:1024600001D1B468AAE7204B9C42A7D1F468A5E744
:10247000002FD9D0B369002B02D1300000F00EFA42
:10248000009B012B03D1A389009A1A43A281082043
:10249000A389276027616561184018D00120184082
:1024A0000023984211D06D42A360A5611800D3E7C4
:1024B000019800F011FB071EC0D08023A289019D66
:1024C0001343A381D6E70020BAE7A560C4E7A06064
:1024D000C2E701204042BFE704000020104700008F
:1024E0005CF3FFFF30470000F0460000F8B5050040
:1024F0000E001400002804D08369002B01D100F0E5
:10250000CDF9224B9C422DD16C68A369A360A389AD
:102510001B0731D52369002B2ED023682269F7B21F
:10252000981A6369F6B2984205DB2100280000F092
:1025300033F9002826D1A3680130013BA36023684A
:102540005A1C22601F706369984204D0A389DB077C
:102550001AD50A2E18D12100280000F01DF90028F4
:1025600012D00FE00A4B9C4201D1AC68CDE7094B79
:102570009C42CAD1EC68C8E72100280000F00CF8A2
:102580000028CAD0012676423000F8BD104700006E
:1025900030470000F0460000364B70B51D6806005D
:1025A0000C00002D05D0AB69002B02D1280000F0F3
:1025B00075F9314B9C420FD16C680C23E25E93B2EB
:1025C00019072DD4D90611D40923012033603733DC
:1025D0001343A381404270BD284B9C4201D1AC689B
:1025E000EBE7274B9C42E8D1EC68E6E75B0713D5A5
:1025F000616B002908D023004433994202D0300097
:1026000000F074FA002363632422A3899343A38117
:1026100000236360236923600823A2891343A381F5
:102620002369002B0BD1A0218022A389890092006D
:102630000B40934203D02100300000F009FA01233F
:10264000A289134011D00023A36063695B42A36198
:10265000002023698342BED10C23E25E1306BAD563
:1026600040231343A3810138B5E7920700D463697F
:10267000A360EDE704000020104700003047000091
:10268000F0460000F7B58A8905000C00130760D4F6
:102690004B68002B04DC0B6C002B01DC0020FEBD22
:1026A000E76A002FFAD000232E682B6080235B019D
:1026B0001A4034D0606DA3895B0706D56368C01AE1
:1026C000636B002B01D0236CC01A0200216A002327
:1026D0002800E76AB847A189431C06D12B681D2B47
:1026E00031D82C4ADA40D3072DD500236360236903
:1026F0002360CB0405D5431C02D12B68002B00D1ED
:102700006065616B2E600029C8D023004433994274
:1027100002D0280000F0EAF900206063BFE701233F
:10272000216A2800B847431CC5D12B68002BC2D0B2
:102730001D2B01D0162B01D12E60AFE74023A289BB
:102740001343A381ABE740230B430120A381404205
:10275000A5E70F69002FA1D00B680F60DB1B019369
:102760000023920700D14B69A360019B002B00DC82
:1027700094E7019B3A00216A2800A66AB047002826
:1027800003DC4023A2891343DFE7019B3F181B1A98
:102790000193EAE7010040200B6970B505000C00C9
:1027A000002B01D1002070BD002804D08369002BCC
:1027B00001D100F073F80B4B9C4209D16C680C22DC
:1027C000A35E002BEED021002800FFF75BFFEAE7B5
:1027D000054B9C4201D1AC68F1E7044B9C42EED121
:1027E000EC68ECE71047000030470000F0460000BE
:1027F00010B5011E05D1054B0549186800F0DEF83B
:1028000010BD044B1868FFF7C7FFF9E7EC4600005E
:10281000992700000400002010B5024900F0CEF80E
:1028200010BDC04699270000002310B504000360C6
:102830004360836081814366C28103614361836138
:10284000190008225C30FFF7F4FC054B2462636238
:10285000044BA362044BE362044B236310BDC046E8
:10286000B9390000E1390000193A0000453A00008A
:1028700070B568254A1E55430E002900743100F0DA
:102880007FF9041E08D000212A00016046600C3048
:10289000A0606832FFF7CDFC200070BD836913B5DE
:1028A0000400002B28D18364C3640365134B144ACE
:1028B0001B6882620193984201D101238361200049
:1028C00000F020F86060200000F01CF8A0602000FC
:1028D00000F018F80022E06004216068FFF7A4FF10
:1028E00001220921A068FFF79FFF02221221E06860
:1028F000FFF79AFF0123A36113BDC046EC46000019
:1029000019280000F8B51E4B07001E68B369002B9C
:1029100002D13000FFF7C2FF4836B4687368013B4C
:1029200004D53368002B07D03668F6E70C22A55E85
:10293000002D0DD06834F2E704213800FFF798FF2E
:1029400030600028F0D10C2304003B602000F8BD6B
:10295000012320005B42E3810233A3816566256089
:10296000A560656025616561A561082229005C306C
:10297000FFF75FFC6563A563A564E564E6E7C04611
:10298000EC460000F7B54830040000260191002C09
:1029900001D13000FEBDA5686768013F01D52468FC
:1029A000F5E7AB89012B07D90E22AB5E013303D0CB
:1029B0002800019B984706436835EEE7F7B5040009
:1029C0000700002601914834002C01D13000FEBDE3
:1029D0006368A5680093009B013B009301D52468C0
:1029E000F2E7AB89012B08D90E22AB5E013304D08C
:1029F00029003800019B984706436835EBE7000043
:102A000070B50E001D000E23C95E90B014000029A1
:102A100007DA00232B60B3891B0611D48023DB0067
:102A20000FE001AA01F018FA0028F2DBF022029B65
:102A300012021340054A9B185A4253412B60EDE79E
:102A400040230020236010B070BDC04600E0FFFFAF
:102A5000F7B502268B8905000C00334206D023000F
:102A600047332360236101236361F7BD01AB6A46ED
:102A7000FFF7C6FF00990700280000F081F8002842
:102A800008D10C22A35E9A05EFD4032293431E4380
:102A9000A681E4E70F4BAB628023A2892060134339
:102AA000A381009B20616361019B002B0DD00E234D
:102AB000E15E280001F0E2F9002806D00322A38994
:102AC00093431A0001231343A381A0893843A081B3
:102AD000CBE7C0461928000010B5034B0100186869
:102AE00000F04EF810BDC0460400002070B505008F
:102AF000002910D00C1F2368002B00DAE4182800EE
:102B000001F011FA1D4A1368002B05D163601460AF
:102B1000280001F009FA70BDA34209D921686018A4
:102B20008342F3D118685B6841182160EEE7130017
:102B30005A68002A01D0A242F9D919685818A0424F
:102B40000BD120680918581819608242E0D110682A
:102B50005268411819605A60DAE7A04202D90C2382
:102B60002B60D5E721686018824203D11068526853
:102B70004118216062605C60CAE7C046240C0020F6
:102B8000032370B5CD1C9D43083506000C2D1ED2C5
:102B90000C25A9421DD8300001F0C5F9254A14685A
:102BA0002100002919D1244C2368002B03D13000C7
:102BB00000F0BEFE20602900300000F0B9FE431C8A
:102BC0002CD10C233000336001F0AEF903E0002D6E
:102BD000DFDA0C233360002070BD0B685B1B1AD456
:102BE0000B2B03D90B60CC18256003E08C420ED16F
:102BF00063681360300001F097F9200007220B3062
:102C0000231D9043C31AE7D05A42E250E4E74B68D1
:102C100063600C00EEE70C004968C2E70323C41CA4
:102C20009C43A042E0D0211A300000F081FE431CFA
:102C3000DAD1C6E7240C0020280C0020936810B5D8
:102C4000013B9360002B05DA9469A34208DBCBB209
:102C50000A2B05D01368581C10601970C8B210BD3B
:102C6000FFF744FCFBE7F8B506000F001400D51889
:102C7000AC4201D1002007E021783A003000FFF794
:102C8000DDFF0134431CF3D1F8BD0000F0B59FB067
:102C900006000F0014000593002804D08369002B60
:102CA00001D1FFF7FBFD7F4B9F425CD17768BB8969
:102CB0001B0762D53B69002B5FD0002306AD6B611B
:102CC00020336B761033AB760294029C2378002B72
:102CD0005DD1029BE31A04930DD0049B029A390044
:102CE0003000FFF7C0FF431C00D1CCE06A69049BB1
:102CF000944663446B612378002B00D1C3E001222A
:102D0000002352426A6002A95432521801342B60E7
:102D1000EB60AB601370AB6521780522624801F06F
:102D2000F7F8631C9C46002835D12968CB0604D5EA
:102D3000532302AA20309B1818700B0704D5532385
:102D40002B2002AA9B18187023782A2B2CD0002045
:102D50000A21099B2278303A092A00D86BE0002822
:102D60002AD0099328E0514B9F4201D1B7689EE7D2
:102D70004F4B9F429BD1F76899E739003000FFF72E
:102D80000BFC002899D0012040421FB0F0BD252B3C
:102D90009FD001349AE7444B2968C01A012383402D
:102DA0000B432B606446B7E7059B181D1B68059015
:102DB000002B3ADB0993644623782E2B0BD16378E2
:102DC000621C2A2B3FD1059B02341A1D1B680592F9
:102DD000002B35DB079321780322364801F098F861
:102DE000002807D0334B2A68C01A4023834013437E
:102DF0002B6001342178631C06222F480293297628
:102E000001F086F8002844D02C4B002B2FD12968E4
:102E1000059B0722C90528D59B18934308330593C2
:102E20006B69039A9B186B614FE75B42EB6002236F
:102E30000B432B60BFE74B4301349B18012089E70C
:102E400001235B42C6E7002314000A201A006B60CE
:102E500021783039092903D9002BBCD00792BAE771
:102E60004243013452180123F2E70733D5E705AB9B
:102E700000933A00124B2900300000E000BF03909D
:102E8000039B0133CCD1BB895B0600D57BE70B9854
:102E90007BE705AB00933A00094B2900300000F0B6
:102EA0007FF8ECE710470000504700003047000073
:102EB000F0460000564700005A470000000000009E
:102EC000672C0000F7B5150001938A680B69009024
:102ED0000C00934200DA130022002B604332127878
:102EE000002A01D001332B6023689B0602D52B6892
:102EF00002332B60062723681F4027D0230043336B
:102F00001B785A1E93412268920630D42200019900
:102F100043320098089EB047431C25D00623206802
:102F20002A68E16803400025042B03D18D1AEB4386
:102F3000DB171D40A3682269934201DD9B1AED183F
:102F40000027BD4220D1002010E00137E3682A6845
:102F50009B1A9F42D2DA220001231932019900986C
:102F6000089EB047431CF0D101204042FEBD3020F6
:102F7000E1184331087021005A1C45310978A21824
:102F8000433202331170C1E7220001231A32019942
:102F90000098089EB047431CE6D00137D1E70000F7
:102FA000F0B58BB006920A00433207930590049265
:102FB0000A7E0C00109B6E2A00D18FE017D8632A7E
:102FC0002CD008D8002A00D199E0582A54D02600E5
:102FD0004236327029E0642A01D0692AF7D121688B
:102FE0001A68080623D5111D1960156825E0732A93
:102FF00000D188E008D86F2A29D0702AE7D1202292
:1030000009680A43226003E0752A20D0782ADED1BD
:1030100022007821453211706C4A30E00E001A68A7
:103020004236111D196013683370012379E0490697
:10303000D9D5111D19600023D55E002D03DA2D238B
:10304000049A6D421370624B0A2703932FE02068A5
:103050001968050603D5081D18600D6805E04006CF
:10306000F9D50D68081D1860ADB2594B08270393B8
:103070006F2A18D00A2716E045310A70544A039285
:103080001A682168101D18601568080622D5CB073C
:1030900002D52023194321601027002D03D12023BE
:1030A00022689A4322602300002243331A70636827
:1030B000A360002B5CDB0422216891432160002D7A
:1030C00058D1049E002B64D02600039B42361B7807
:1030D00033705EE04806DAD5ADB2D8E709681A6801
:1030E000080605D5111D1960136862691A6006E0AB
:1030F0004906F7D5111D19601368A28A1A800023AA
:10310000049E236154E01A68111D1960166800219D
:103110006268300000F0FCFE002801D0801B606077
:10312000636823610023049A137041E0236932002D
:1031300006990598079DA847431C43D0236800259E
:103140009B070FD4099BE06898423DDA18003BE0EA
:1031500022000123193206990598079EB047431CA7
:1031600030D00135E368099A9B1A9D42F0DBE9E70C
:10317000002DA9D0049E28003900FEF7FDFF039B17
:10318000013E5B5C280033703900FEF76FFF051EBF
:10319000F1D1082F09D12368DB0706D563682269BE
:1031A000934202DC3023013E3370049B9B1B23615E
:1031B000079B09AA00932100069B0598FFF782FE52
:1031C000431CB3D1012040420BB0F0BD7247000058
:1031D00061470000F0B5BD4C8625A544039300234C
:1031E0004893499305AB4A93BE236D0000900C00B1
:1031F00002A8B7495B004019C027C15002AB5B1958
:103200001500B4497F00D9512B78002B00D15BE128
:1032100000F04AFE08222B78C0180193437813402F
:1032200041D1019A6E1C252A00D0A8E0479345930E
:103230006B782A2B02D11A3B4593AE1C35000A222B
:1032400029780B00303B092B48D9A34E03223000CC
:1032500000F05EFE002807D00123801B8340459AC2
:1032600001351343029245932B786E1C672B58D877
:10327000652B00D3DDE0472B38D8452B00D3D8E0B1
:10328000002B00D11DE1252B79D003234B9307336D
:10329000469353E0499A01330192013249926268A0
:1032A0002360013A62606368002B0BDD00F0FCFDD7
:1032B000082123681A78801842780A42EAD16E1CE5
:1032C0003500A1E7862202AB52009B18DB59210092
:1032D0000098019398470028E8D0F0E7479B013514
:1032E00002935343303B59184791A9E75B2B00D118
:1032F00077E00FD8582BC8D1459A019280220199C6
:1033000092000A4345921022469203226E2B14DD4E
:10331000013212E0632B00D171E0642BB5D10A2297
:10332000F2E7702B52D022D86E2B00D16FE054D828
:10333000692BAAD10023032246934B926368002B8A
:1033400000DC78E0459B01935B0600D48BE04B9B4F
:10335000022B00DD9DE003AB220045A9009800F0A0
:10336000E7F8012800D1AFE00228A9D125E0752BAC
:10337000D5D0782BC0D0732B87D102233DE0636872
:10338000002B0FDD236801991A78914200D09BE051
:10339000013362682360499B013A01930133626003
:1033A00049938DE7862202AB52009B18DB5921001E
:1033B0000098029398470028E4D04898002800D04D
:1033C0007BE00138A7239B009D44F0BD459A019204
:1033D000202201990A4345928EE70823042246934E
:1033E000ABE7310005A800F0B5FA459B0600019354
:1033F0004023019A1343459301234B939EE7459B3A
:1034000001934023019A134345930023F5E745991F
:10341000CB0600D554E7039B499AC80704D5191D6C
:1034200003911B681A804BE7191D03911B681A60F2
:1034300046E70523E1E7862202AB52009B18DB59E1
:103440002100009801939847002800D17AE7B4E75B
:10345000499A0192013249926268013A6260002AF7
:103460000BDD0133236000F01FFD082123681A786B
:10347000801842780A42EBD169E7862202AB5200FB
:103480009B18DB5921000098019398470028EAD047
:1034900093E7042B06DC03AB220045A9009800F05B
:1034A000ABF85EE70D4B002B00D109E703AB220020
:1034B00045A9009800E000BF53E7A3895B0600D44C
:1034C00080E7012040427DE748987BE764FDFFFFED
:1034D000293D0000113800005647000000000000A0
:1034E000F8B504000D0016001F00002804D0836901
:1034F000002B01D1FFF7D2F90A4B9D4207D1656835
:103500003B00320029002000FFF764FEF8BD064BA7
:103510009D4201D1A568F3E7044B9D42F0D1E568D7
:10352000EEE7C0461047000030470000F0460000BC
:10353000F7B515008A6801900C00002A06D18A6947
:10354000511E8A41012152420A43A2602268D206DA
:1035500003D41A68111D196017680026A369002B8F
:103560001CD0012B08D12B6862691B78D35C002B1F
:1035700014D1002E30D106E0022B06D0002E2BD124
:10358000A369012B28D10120FEBD00F08DFC08228B
:103590002B681B78C01843781342EFD110222368A0
:1035A0000136134203D12B681B783B7001372A6820
:1035B0006B6801322A60A268013B013A6B60A2602D
:1035C000002A09D0002BC9DCC0235B00E358290086
:1035D000019898470028C1D010232268134006D1D3
:1035E000E2680132E260A269002A00D03B702369E0
:1035F00000209E192661C7E7F0B50C008DB002933C
:10360000774B0590160009AA23CB23C2754B06936E
:10361000A369032B01D0744B0693AE220020A3684C
:103620005200591E0490914205D95E3BFF3B049322
:103630005E23FF33A36023001C330193D0230027B4
:1036400022681B0113432360019B0393336809A87D
:103650001978BB000222185800F05AFC00282BD021
:10366000012F5FD16368002B06D1083322686360A5
:10367000F933FF33134323605C4B2268134023600C
:10368000A3685A1EA260002B16D0039B5D1C3368F2
:103690005A1C32601B78039A039513707368013BC0
:1036A0007360002B08DCC0235B00E35831000598F1
:1036B0000793984700287DD10137032FC6D163684F
:1036C000002B01D10A336360102100276368606911
:1036D000C91A474BC91800F03DF9039DA368002B98
:1036E00041D0326860691178405C00283BD03029B5
:1036F00028D1802021680001014223D0049A01379B
:10370000002A03D0013A01330492A3607368013B9D
:103710007360002B1EDD336801333360A368013B07
:10372000A360DBE7022FABD1C02180232268C90050
:1037300011409B009942C2D1F13BFF3B6360F033E3
:1037400013439CE721682B4B0B40236013782B70AD
:103750000135DBE7C0235B00E35831000598039394
:1037600098470028DAD02368DB050ED5019B9D42DF
:1037700007D9BE23013D5B002978E3583200059844
:103780009847019B01209D4227D0102223681A40B0
:103790001CD12A70636801990598069EB047029B68
:1037A00022681B68910607D502991A1D0A601B68DA
:1037B000186008E00027D6E7D107F5D502991A1D51
:1037C0000A601B681880E3680133E3600020019BF6
:1037D000ED1A2369EF19DF1927610DB0F0BDC0465E
:1037E000844700005D3B00008D3C0000FFFAFFFFB6
:1037F00090470000FFF6FFFF092210B583891340B0
:103800000022092B02D1FEF7F3FF0200100010BDC9
:10381000F8B505000C00002804D08369002B01D105
:10382000FFF73CF83D4B9C420AD16C680023636073
:103830000C23E25E93B299060CD50120404268E069
:10384000374B9C4201D1AC68F0E7364B9C42EDD13E
:10385000EC68EBE759074AD4D90605D409232B6055
:1038600037331343A381E8E7082633420AD0210007
:103870002800FEF791FF0028DFD1A389A060B343A1
:10388000A381A0610423A2891343A3812369002B90
:1038900003D121002800FFF7DBF80C23E75EBEB25E
:1038A000B3070FD00123A3811F4B20491868FFF7EE
:1038B00069F80923A7811E409E4203D121002800F8
:1038C000FEF7E0FE23692269236028006369216A0C
:1038D000656AA847020060600020824219DCA18965
:1038E000824217D120230B43A381013811E0616B81
:1038F0000029CBD023004433994202D02800FFF79F
:10390000F5F80020236C606363608342BED0E36BF4
:103910002360F8BD402360600B43A3E7104700001D
:1039200030470000F0460000EC460000F937000088
:10393000002370B5064C050008002360FDF7F2FF78
:10394000431C03D12368002B00D02B6070BDC04600
:10395000540C002070B50B785E2B0DD04A1C002152
:103960000400451CFF3521700134A542FBD1002B1A
:1039700006D1013A100070BD8A1C4B780121EFE797
:1039800001244C401100C4540D784A1C2D2D07D041
:103990005D2DEFD0002D01D10A00EBE72B00F1E700
:1039A0004E785D2EFAD0B342F8DC02310133C454B4
:1039B0009E42FBDCE8E7000070B50C000E25495F75
:1039C00000F0DAFA002803DB636D1B18636570BD35
:1039D000A389024A1340A381F9E7C046FFEFFFFF26
:1039E000F8B51F008B8905000C001600DB0505D516
:1039F0000E23C95E0022022300F064FAA389054A5F
:103A000028001340A38132000E23E15E3B0000F04A
:103A1000FDF9F8BDFFEFFFFF70B50C000E25495F03
:103A200000F050FAA389421C03D1054A1340A38138
:103A300070BD802252011343A3816065F8E7C04640
:103A4000FFEFFFFF10B50E23C95E00F0F3F910BDC4
:103A5000F0B51F000E0087B00590039102920C98FC
:103A6000347800F01DFA082200194378751C1340C1
:103A70000CD12D2C0CD101332C780193B51C002FC7
:103A80000CD0102F14D1302C0AD011E02E00E6E714
:103A900001932B2CF3D12C78B51CF0E7302C2FD1CF
:103AA00020222B789343582B51D110276C78023564
:103AB000019B294A39009E183000FEF75DFB30005B
:103AC00004913900FEF7D2FA012100234942020095
:103AD0008C46180021003039092913D80C00A74260
:103AE0001CDD591C09D06346824206D302D10499D9
:103AF000A14202DB0123784320182C780135E9E745
:103B00000A27D5E721004139192901D8373CE6E7D2
:103B100021006139192901D8573CE0E75A1C08D126
:103B2000059A23331360029B3000002B0BD107B0A2
:103B3000F0BD019A002A00D04042029A002AF6D035
:103B4000039A002B00D06A1E029B1A60EFE7302414
:103B5000002FADD10837ABE7FFFFFF7F13B5054C52
:103B60002468246A002C00D1034C0094FFF770FFF6
:103B700016BDC0460400002068000020F0B51F00FC
:103B80000E0087B00590039101920C98347800F0F4
:103B900087F9082200194378751C13400CD12D2C8D
:103BA0000CD101332C780293B51C002F0CD0102FB0
:103BB00014D1302C0AD011E02E00E6E702932B2C12
:103BC000F3D12C78B51CF0E7302C2FD120222B78A4
:103BD0009343582B54D110276C78023501203900BB
:103BE0004042FEF743FA0600012039004042FEF74A
:103BF000C3FA002304910121012218008C4652428D
:103C000021003039092913D80C00A7421EDD002BF2
:103C10001ADB1300864206D302D10499A14202DBCB
:103C20006346784320182C780135E9E70A27D5E761
:103C300021004139192901D8373CE6E721006139D3
:103C4000192903D8573CE0E71300ECE7002B09DA09
:103C500022230120059A40421360019B002B0BD1C7
:103C600007B0F0BD029A002A00D04042019A002A13
:103C7000F6D0039A002B00D06A1E019B1A60EFE772
:103C80003024002FAAD10837A8E7000013B5054C4F
:103C90002468246A002C00D1034C0094FFF76EFFC7
:103CA00016BDC04604000020680000200B00F7B5D8
:103CB0004D6B44330C009D421CD18026F600310030
:103CC000FEF75EFF002802D101204042FEBD230026
:103CD0006063A66346331A78104BC2542300453301
:103CE0001A780F4BC2542A780E4BC254C018206069
:103CF0000020EBE78E6B290073001A00019300F09F
:103D000014F9051EE0D08719010032003800FEF7D3
:103D100087FA019B27606563A363E9E7FF0300005F
:103D2000FE030000FD030000F8B505000E001400BE
:103D30004B1C03D1012676423000F8BD002804D088
:103D40008369002B01D1FEF7A9FD2D4B9C422DD19B
:103D50006C682022A38993431BB2A3819BB25A07AC
:103D600013D4DA06E6D508273B420AD02100280002
:103D7000FEF712FD0028DDD1A389A060BB43A3811B
:103D8000A0610423A2891343A381626BF7B2636825
:103D9000F6B2002A1BD0A26B934211DA2368013BD2
:103DA00023601F70636801336360C5E7154B9C4255
:103DB00001D1AC68CDE7144B9C42CAD1EC68C8E78E
:103DC00021002800FFF772FF0028E7D0B2E7216941
:103DD0002268002907D0914205D2511E08788642F8
:103DE00001D12160DFE723642300443363630323AD
:103DF000A36323004633E2631F7023600123D3E7EC
:103E00001047000030470000F046000070B5050084
:103E1000080011000022064C22601A00FDF75AFD2E
:103E2000431C03D12368002B00D02B6070BDC0461B
:103E3000540C0020002370B5064C050008002360D8
:103E4000FDF782FD431C03D12368002B00D02B60BB
:103E500070BDC046540C0020002370B5064C050010
:103E6000080011002360FDF772FD431C03D1236895
:103E7000002B00D02B6070BD540C0020002370B5C7
:103E8000064C050008002360FDF766FD431C03D1C6
:103E90002368002B00D02B6070BDC046540C00205E
:103EA000EC30006870470000044B1B681B6A002B55
:103EB00000D1034BEC3318687047C0460400002063
:103EC0006800002070B50500080011000022064CB3
:103ED00022601A00FDF742FD431C03D12368002B2A
:103EE00000D02B6070BDC046540C002082B0002969
:103EF00000D101A9101E06D0002B06D013780B604C
:103F00001078431E984102B0704702204042FAE701
:103F1000C9B28218904201D10020704703788B42C9
:103F2000FBD00130F6E770477047F8B507000D0089
:103F30001600002905D11100FEF722FE0400200022
:103F4000F8BD002A03D1FEF7D1FD3400F7E700F0F9
:103F500033F82C008642F2D931003800FEF710FE0B
:103F6000041EECD029003200FEF75AF9290038006F
:103F7000FEF7BCFDE3E7000070B505000800110086
:103F80000022064C22601A00FDF782FC431C03D17C
:103F90002368002B00D02B6070BDC046540C00205D
:103FA0000B1E04D0FF2A04D98A2303608B3B180020
:103FB00070470A700123FAE70B1F1B68181F002BBC
:103FC00001DA0B58C0187047000400420008004294
:103FD000000C004200100042001400420018004291
:103FE0004A1100004611000046110000781100003F
:103FF00078110000621100005011000068110000EB
:104000003C1300001C1300001C130000721300007E
:104010002E1300004A130000201300005813000064
:104020006C1E0000B21E0000E01E0000F21E000028
:10403000041F0000501F0000841F0000961F000096
:10404000521E0000521E0000521E0000521E0000B0
:10405000521E0000521E0000521E0000521E0000A0
:10406000521E0000521E0000521E0000521E000090
:10407000521E0000521E0000521E0000521E000080
:10408000521E0000521E0000521E0000521E000070
:10409000521E0000521E0000521E0000521E000060
:1040A000521E0000521E0000521E0000521E000050
:1040B000521E0000521E0000521E0000521E000040
:1040C000521E0000521E0000521E0000521E000030
:1040D000521E0000521E0000521E0000521E000020
:1040E000521E0000521E0000521E0000521E000010
:1040F000521E0000521E0000521E0000521E000000
:104100004A1E00000A0D20457874656E64656420BF
:104110006D65737361676520726563656976656453
:1041200020696E205278206275666665722E205472
:104130006865207265636569766564206461746191
:104140002069733A200D00000A0D205374616E64DB
:10415000617264206D657373616765207265636564
:104160006976656420696E2052782062756666659E
:10417000722E2054686520726563656976656420D7
:10418000646174612069733A200D00002020256469
:10419000000000000D0A0D000A0D205374616E64CA
:1041A000617264206D657373616765207265636514
:1041B0006976656420696E204649464F20302E207E
:1041C000546865207265636569766564206461740E
:1041D000612069733A200D000A0D20457874656EE0
:1041E000646564206D6573736167652072656365DE
:1041F0006976656420696E204649464F20312E203D
:1042000054686520726563656976656420646174CD
:10421000612069733A200D0050726F746F636F6C88
:10422000206572726F722C20706C656173652064FA
:104230006F75626C6520636865636B2074686520C8
:10424000636C6F636B20696E2074776F20626F619F
:104250007264732E200D0A0D000000004D656E750E
:10426000203A0D0A20202D2D2053656C65637420A3
:1042700074686520616374696F6E3A0D0A2020309E
:104280003A20536574207374616E646172642066B1
:10429000696C74657220494420303A203078343596
:1042A000412C2073746F726520696E746F20527890
:1042B000206275666665722E200D0A2020313A2034
:1042C000536574207374616E646172642066696CF6
:1042D00074657220494420313A2030783436392CC4
:1042E0002073746F726520696E746F205278204657
:1042F00049464F20302E200D0A2020323A205365A7
:104300006E64207374616E64617264206D65737392
:1043100061676520776974682049443A20307834B1
:10432000354120616E6420342062797465206461B7
:104330007461203020746F20332E200D0A2020332A
:104340003A2053656E64207374616E6461726420F8
:104350006D65737361676520776974682049443AB5
:1043600020307834363920616E64203420627974CC
:104370006520646174612031323820746F203133DC
:10438000312E200D0A2020343A20536574206578A0
:1043900074656E6465642066696C74657220494456
:1043A00020303A20307831303030303041352C20D8
:1043B00073746F726520696E746F20527820627515
:1043C000666665722E200D0A2020353A20536574EA
:1043D00020657874656E6465642066696C746572C6
:1043E00020494420313A2030783130303030303973
:1043F000362C2073746F726520696E746F2052784A
:10440000204649464F20312E200D0A2020363A20E2
:1044100053656E6420657874656E646564206D65AF
:10442000737361676520776974682049443A203066
:1044300078313030303030413520616E64203820A2
:10444000627974652064617461203020746F203754
:104450002E200D0A2020373A2053656E642065789F
:1044600074656E646564206D65737361676520773C
:104470006974682049443A20307831303030303027
:10448000393620616E642038206279746520646159
:1044900074612031323820746F203133352E200D75
:1044A0000A2020683A20446973706C6179206D6538
:1044B0006E75200D0A0D0000256300002020303AA3
:1044C00020536574207374616E6461726420666940
:1044D0006C74657220494420303A2030783435417C
:1044E0002C2073746F726520696E746F205278206F
:1044F0006275666665722E200D0000002020313A3C
:1045000020536574207374616E64617264206669FF
:104510006C74657220494420313A20307834363941
:104520002C2073746F726520696E746F205278202E
:104530004649464F20302E200D0000002020323A00
:104540002053656E64207374616E64617264206DC3
:1045500065737361676520776974682049443A2000
:10456000307834354120616E64203420627974657E
:104570002064617461203020746F20332E200D0080
:104580002020333A2053656E64207374616E646139
:104590007264206D65737361676520776974682044
:1045A00049443A20307834363920616E6420342012
:1045B0006279746520646174612031323820746FCF
:1045C000203133312E200D002020343A20536574E1
:1045D00020657874656E6465642066696C746572C4
:1045E00020494420303A203078313030303030416A
:1045F000352C2073746F726520696E746F20527849
:10460000206275666665722E200D00002020353A06
:104610002053657420657874656E646564206669EE
:104620006C74657220494420313A20307831303042
:1046300030303039362C2073746F726520696E7497
:104640006F205278204649464F20312E200D000021
:104650002020363A2053656E6420657874656E6458
:104660006564206D65737361676520776974682080
:1046700049443A2030783130303030304135206193
:104680006E64203820627974652064617461203022
:1046900020746F20372E200D000000002020373AB4
:1046A0002053656E6420657874656E646564206D62
:1046B00065737361676520776974682049443A209F
:1046C0003078313030303030393620616E64203807
:1046D00020627974652064617461203132382074FD
:1046E0006F203133352E200D00000000080000201F
:1046F00000000000000000000000000000000000BA
:1047000000000000000000000000000000000000A9
:104710000000000000000000000000000000000099
:104720000000000000000000000000000000000089
:104730000000000000000000000000000000000079
:104740000000000000000000000000000000000069
:10475000232D302B2000686C4C006566674546476A
:1047600000303132333435363738394142434445ED
:10477000460030313233343536373839616263645C
:1047800065660000A2470000A5470000A84700009A
:10479000412D46612D663839303132333435363764
:1047A0005D002B2D003030007858004300504F53EF
:1047B0004958002E000020202020202020202028E2
:1047C00028282828202020202020202020202020C9
:1047D0002020202020208810101010101010101001
:1047E0001010101010100404040404040404040441
:1047F00010101010101010414141414141010101C0
:104800000101010101010101010101010101010198
:1048100001101010101010424242424242020202A5
:104820000202020202020202020202020202020268
:104830000210101010200000000000000000000016
:104840000000000000000000000000000000000068
:104850000000000000000000000000000000000058
:104860000000000000000000000000000000000048
:104870000000000000000000000000000000000038
:104880000000000000000000000000000000000028
:104890000000000000000000000000000000000018
:1048A0000000000000000000000000000000000008
:1048B0000000000000000000F8B5C046F8BC08BCCD
:1048C0009E467047E5000000F8B5C046F8BC08BC3D
:0848D0009E467047BD00000088
:1048D8000100000008000020000000001047000050
:1048E80030470000F0460000000000000000000013
:1048F80000000000000000000000000000000000B0
:10490800000000000000000000000000000000009F
:10491800000000000000000000000000000000008F
:10492800000000000000000000000000000000007F
:10493800000000000000000043000000000000002C
:10494800000000000000000000000000000000005F
:10495800000000000000000043000000000000000C
:10496800000000000000000000000000000000003F
:1049780000000000000000004300000000000000EC
:10498800000000000000000000000000000000001F
:1049980000000000000000004300000000000000CC
:1049A80000000000000000000000000000000000FF
:1049B80000000000000000004300000000000000AC
:1049C80000000000000000000000000000000000DF
:1049D800000000000000000043000000000000008C
:1049E80000000000000000000000000000000000BF
:1049F800000000000000000043000000000000006C
:104A0800000000000000000000000000000000009E
:104A18000000000000000000A13F0000ED3E000083
:104A280000000000B5470000B347000055470000EC
:104A380055470000554700005547000055470000FE
:104A480055470000554700005547000055470000EE
:104A5800FFFFFFFFFFFFFFFFFFFFFFFFFFFF00005C
:104A680001004153434949000000000000000000D4
:104A7800000000000000000000000000000000002E
:104A880000004153434949000000000000000000B5
:104A9800000000000000000000000000000000000E
:044AA800000000000A
:0400000300001809D8
:00000001FF
