:10000000B06B0020713A00006D3A00006D3A0000BC
:1000100000000000000000000000000000000000E0
:100020000000000000000000000000006D3A000029
:1000300000000000000000006D3A00006D3A000072
:100040006D3A00006D3A00006D3A00006D3A000014
:100050006D3A0000E90900006D3A00006D3A0000B9
:100060006D3A0000692D0000792D0000892D0000F7
:10007000992D0000A92D0000B92D0000FD6500009C
:100080006D3A00006D3A00006D3A00006D3A0000D4
:10009000CD070000DD070000ED070000FD070000B0
:1000A0000D0800006D3A00006D3A00006D3A000046
:1000B0006D3A00006D3A00006D3A000010B5064C34
:1000C0002378002B07D1054B002B02D0044800E019
:1000D00000BF0123237010BD740200200000000047
:1000E000BCAE0000084B10B5002B03D007490848F0
:1000F00000E000BF07480368002B00D110BD064B8D
:10010000002BFBD09847F9E70000000078020020A0
:10011000BCAE0000BCAE0000000000007047000054
:100120000F2811D880000A4B1B589F460C2070479F
:100130000D20FCE70E20FAE73820F8E73820F6E734
:100140001C20F4E71020F2E70020F0E70820EEE79B
:10015000D080000070B501235B4203800B68002B48
:100160000CDD0D1D00240F2603881B0104CD324039
:100170001343038001340B68A342F5DC70BD00001B
:1001800070B506000C0000230B834B6001250D6049
:100190000800143004220021024B9847E561666292
:1001A00070BDC046A56F000070B505000C000123AE
:1001B0005B420B83064B4B6001230B60080014303D
:1001C00004220021034B98470023E361656270BD60
:1001D000FFFF0000A56F0000F0B5DE4657464E4613
:1001E0004546E0B583B00090894601920C9F0024FB
:1001F0002C4B9B462C4B9A46A6003B8833410F253F
:100200002B402200594609682848D0473B88334193
:100210001D400F2D07D00134042CEDD1A346631EE1
:100220001CD41C0003E001239B46002CF6D1A50042
:100230001C4B9A461C4EB8464F4643461A882A41E4
:100240000F2313407A195360220051460968184859
:10025000B047043D013CF0D5B94647464B465A46A7
:100260001A604846143004220021124B98477B79CB
:100270009900C918C900019B9C4661441831484641
:10028000183002220C4B984700234A46D3614B4654
:10029000009A5A6203B03CBC90469946A246AB46CF
:1002A000F0BDC046A82B00200571000010810000A1
:1002B00024810000A56F0000816F00000538C3B2E3
:1002C00000200A229A42404170470000F0B5C6461D
:1002D00000B59AB006000D0007921C0018002C4BC8
:1002E000984722882B4B19682B682B482B4FB8470F
:1002F0002B4B98478046608029684B1E23713179CB
:100300006171079BA3711800264B98470700E071A5
:100310000798254B984700280AD129001831686AA8
:100320003B002200214CA0471AB004BC9046F0BD0F
:10033000326A43461B041B0C11698C4663441361EB
:10034000002108910991306AE379013B0722934328
:100350002200083204901030039002910191009124
:1003600008A90CA8124FB847326A63881169CB1AE2
:100370001361082221000AA80E4B9847089B0833F6
:1003800029001831686A0AAA084CA047CCE7C04681
:1003900055010000A82B00206081000005710000BD
:1003A0000D72000021010000BD020000490C000098
:1003B0003D1200006F6F0000F0B5CE46474680B595
:1003C0009BB080460F0007921E0022AB1C780834B9
:1003D000E4B2372C00D9382439003000254B984737
:1003E0003288254B19683B682448254DA8470023CF
:1003F00073803B68013B337143461B7973710798E7
:10040000B071F4711F4B984700280BD13900183197
:10041000786A230032001C4CA0471BB00CBC9046ED
:100420009946F0BD4346186A002108910991631E60
:100430000722934332000832049010300390029157
:100440000191009108A90CA8104CA04743461A6AD4
:1004500073881169CB1A1361082231000AA80C4B6A
:100460009847089B083339001831786A0AAA064C65
:10047000A047D2E755010000A82B002060810000B2
:1004800005710000BD020000490C00003D12000093
:100490006F6F0000F0B5C64600B596B005000C00C1
:1004A000484E382322000021686AB0470028F8D05F
:1004B000A079454B984700280DD1227992000F2151
:1004C000914023888B43617991400B43238016B080
:1004D00004BC9046F0BDE679013E07239E430836F2
:1004E0002A6A638811698C4663441361002206926C
:1004F0000792296A23000833049110310391029274
:100500000192009606A908A8304FB84700280BD1E1
:100510002A6A63881169CB1A136120000830069A91
:1005200008A92B4B9847C8E72A4F069B3200396829
:1005300029482A4EB04739682948B047069B002B06
:100540000CD00026274B9846244F08AB9B19197AEC
:100550004046B8470136069BB342F6D82248234BA3
:1005600098471C4B196822481C4B984700261D4B86
:1005700098461A4F2B6A995D4046B8470136102EAF
:10058000F8D11948194B9847124B19681948134B61
:1005900098470026134B9846104F2B6A9B19197CDD
:1005A000C9B24046B8470136102EF6D10E480F4B5F
:1005B00098472A6A63881169CB1A136101200E4B90
:1005C0009847C046ED0C0000BD020000D91A00009B
:1005D0006F6F0000A82B00208481000005710000CF
:1005E000A4810000B8810000DC810000F9710000E6
:1005F000BC810000D0810000C96E0000F0B597B04A
:1006000006000D0038230A000021406A474CA0472D
:10061000002800DC87E0EC79013C07239C43083488
:10062000A879434B9847002822D0326A6B88116919
:100630008C4663441361002206920792316A2B00B4
:10064000083304911031039102920192009406A99B
:1006500008A8384FB84700281ED1326A6B88116944
:10066000CB1A136128000830069A08A9324B984724
:10067000297989006B790F2088402A8882431800E5
:100680008840024392B22A802C4909682C482D4D9B
:10069000A847200017B0F0BD284F069B22003968FC
:1006A0002948284CA04739682848A047069B002BBA
:1006B0000AD00024234F08AB1B19197A2448B847E5
:1006C0000134069BA342F6D82248234B98471B4B84
:1006D000196822481B4B984700241A4F336A195D4A
:1006E0001B48B8470134102CF8D11A481A4B9847C8
:1006F000124B19681A48134B98470024114F336A5C
:100700001B19197CC9B21248B8470134102CF6D114
:100710001048114B9847326A6B881169CB1A1361E4
:100720000120104B98470020B4E7C046ED0C0000B4
:10073000BD020000D91A00006F6F0000A82B002036
:10074000388100000571000084810000A481000050
:10075000B8810000DC810000F9710000BC8100005C
:10076000D0810000C96E000070B58000164BC458DF
:1007700023689D7A227E637E13401D40EB0706D4DA
:10078000AB070BD4EB0610D4AB0615D470BD20001C
:10079000A3689847012322689372F1E72000E36879
:1007A0009847022322689372ECE720002369984758
:1007B000102322689372E7E7200063699847236853
:1007C00020229A72E2E7C046A026002010B5002041
:1007D000014B984710BDC0466907000010B50120C5
:1007E000014B984710BDC0466907000010B50220B4
:1007F000014B984710BDC0466907000010B50320A3
:10080000014B984710BDC0466907000010B5042091
:10081000014B984710BDC046690700000122014BFB
:100820001A7070479402002000B589B001A8104BDF
:10083000984701A80F4B98470F4A137802210B43A2
:1008400013709368002BFCD100220C490C480D4B0F
:1008500098470123084A537120210B4A11600B4A23
:100860001370BFF35F8F62B6002009B000BDC046B1
:10087000B1090000F5080000003000401D0800002C
:10088000B4260020490A000000E100E0EC0000204E
:10089000014B18600020704790020020014B18683F
:1008A0007047C0469002002010B50C490C480D4B13
:1008B00098470D4A1378002BFCD000220A4B1A707F
:1008C000064C21000648074B9847084B18682368D8
:1008D000C01840426421064B984710BD9802002082
:1008E000B4260020650A0000940200209002002037
:1008F000896B000010B582B00400284A516980233A
:100900005B010B435361264B1B780520DB0701D5A8
:1009100002B010BD224B1B7817309B07F8D401A9F9
:1009200023780B7017381F4B984705201E4B9847AC
:10093000A3789B01DBB21A4A13702379002B06D0EF
:100940001720A2682832E3DBE268692AE0DC6278DB
:1009500012011A43D2B2124B9A70E2681202120AC2
:100960001A61A2681202120A5A61227CDA700F22FE
:100970001A710E4A12681105890E1202FC208001BC
:1009800002400A431A6262691202120A9A61A2695B
:100990001202120ADA610020BAE7C04600080040DD
:1009A0000030004015390000A5380000306080009C
:1009B00000230370437083700371C360836003740A
:1009C000074B1A68074B1B681901090A81611B054F
:1009D000F02109040B40120B134343617047C046DA
:1009E0003060800034608000F0B5C64600B5144B1E
:1009F0001F68144B9E79F6B2DB681A0202D5FF22FB
:100A0000120613433A695B421360002401250D4B23
:100A1000984602E00134042C0FD0E0B23300E340EA
:100A20001D42F7D02B00A340DBB242469371A300D6
:100A3000FB58002BEED09847ECE704BC9046F0BD85
:100A4000C8260020003000401723042A01D91800CE
:100A5000704792001150024B18600023F7E7C04620
:100A6000C82600200161074B9B78DB0600D5704744
:100A7000044A537801210B4353709368002BFCD137
:100A8000F5E7C0460030004010B582B01400114BAD
:100A90000193019B400542090F4818401043019003
:100AA000019B4A05520DDB0ADB0213430193019AB5
:100AB000E0239B05134301930A0001A92000074B83
:100AC00098472268516D80231B030B435365002018
:100AD00002B010BDFF070088FFFF00F83D280000AE
:100AE0000C23082801DC18007047182804DD0F309B
:100AF000001103000B33F6E707308010431DF2E7C7
:100B0000F8B50C0016001D0000230B6088231B04A1
:100B10004B608004294B18400860C0239B034B6046
:100B20001000274B9847274B1F5C3B000C3BDAB269
:100B3000342A3CD89300244AD3589F4662689023B5
:100B40001B03134363602A00210006981F4B98473C
:100B5000069B1B689A69920703D40122AA40D02100
:100B60005A503800F8BD6268A0231B03134363602A
:100B7000E9E76268B0231B0313436360E3E762683D
:100B8000C0231B0313436360DDE76268D0231B03AC
:100B900013436360D7E76268E0231B03134363607A
:100BA000D1E76268F0231B0313436360CBE73A008D
:100BB00031000748074B98470327D2E70000FC1F86
:100BC000E10A000098830000E0810000D1280000C5
:100BD0005C83000005710000F0B595B005000F00C2
:100BE00014001E004022002104A8084B9847220050
:100BF000390004A8064B98471A9B00933300220043
:100C000002A92800034CA04715B0F0BDA56F000055
:100C10006F6F0000010B000010B50B88084A93426B
:100C200006D0026881681800064B9847002010BD66
:100C30000268C1680248034B98470120F7E7C046A5
:100C4000FFFF0000890A0000F0B5DE4657464E4619
:100C5000C0B584B006008A46140003929946036822
:100C60009B461A4B19681A481A4B98474B46002B5B
:100C700009D023004B441F00164D21781648A84781
:100C80000134BC42F9D11548154B98475346188892
:100C90005B460093B3684A460399124CA0475B46F3
:100CA0001868B36801229A40D82143581A42FCD0F0
:100CB00053461A88054B19680B48064B984704B0F1
:100CC0001CBC91469A46A346F0BDC046A82B002006
:100CD0006C84000005710000B8810000DC81000018
:100CE000F9710000D90B00008C840000F8B50600F3
:100CF00017001C00426891239B0081684B43D31866
:100D000059781B78994200D197E09F4B19689F480A
:100D10009F4B984791218900B368594376687618AC
:100D2000737832789A4215D0591C07220A407270A3
:100D3000D900C918C9000431761873681B031B0F4A
:100D400007330F221340DAB2062A11D89B00914ACA
:100D5000D3589F460026F0E710230FE014230DE040
:100D600018230BE0202309E0302307E0402305E0AF
:100D700089488A4B9847002300E00C23A3422CD2D9
:100D800073681B031B0F07330F221340DAB2062AC6
:100D90000FD89B00824AD3589F4610250FE0142598
:100DA0000DE018250BE0202509E0302507E040255F
:100DB00005E07948794B9847002500E00C25EDB215
:100DC00073681B031B0F07330F221340DAB2062A86
:100DD00011D89B00734AD3589F46E5B2F0E7102123
:100DE0000FE014210DE018210BE0202109E0302153
:100DF00007E0402105E06848684B9847002100E083
:100E00000C216948624CA047310008312A003800A3
:100E1000664B98475C4B19686548A047002D07DD75
:100E200000245B4E395D6348B0470134AC42F9DBC6
:100E300061485A4B98472800F8BDC1685F4B9942FA
:100E400000D19FE091239B004B43D2185178137837
:100E500000259942EFD04C4B196859484C4B9847A4
:100E600091218900F368594376687618737832784F
:100E70009A4215D0591C07220A407270D900C9182D
:100E8000C9000431761873681B031B0F07330F2248
:100E90001340DAB2062A11D89B004A4AD3589F461B
:100EA0000026F0E710230FE014230DE018230BE0D9
:100EB000202309E0302307E0402305E03648374B84
:100EC0009847002300E00C239C422CD973681B0335
:100ED0001B0F07330F221340DAB2062A0FD89B00EC
:100EE000394AD3589F4610250FE014250DE01825E8
:100EF0000BE0202509E0302507E0402505E02648E5
:100F0000264B9847002500E00C25EDB273681B03C3
:100F10001B0F07330F221340DAB2062A11D89B00A9
:100F20002A4AD3589F46E5B2F0E710210FE014217A
:100F30000DE018210BE0202109E0302107E04021DD
:100F400005E01548154B9847002100E00C21164894
:100F50000F4CA047310008312A003800134B984746
:100F6000094B19681A48A047002D07DD0024084ED8
:100F7000395D1048B0470134AC42F9DB0E48074BED
:100F8000984758E7002556E7A82B0020A8830000C3
:100F900005710000B4820000C8830000F9710000F0
:100FA000D0820000EC820000E48300006F6F00003C
:100FB000FC830000B8810000DC810000FFFF00001E
:100FC0002084000008830000248300004083000088
:100FD0004084000070B588B0202209210C480D4DD6
:100FE000A8470D4E3468217820226846A84714345B
:100FF000202200212000A84721006846074B98477F
:101000003268043220216846054B984708B070BD0D
:101010003C000020A56F000038000020C1610000E6
:10102000D1640000F0B59DB006000C0007926C483A
:10103000010020316B4B98470500012805D06A4814
:101040006A4B984728001DB0F0BD65480200403249
:10105000674B19681431674B98470500012804D085
:101060006548624B98472800EDE75D480200603212
:1010700040302021614B98470EAD614F2900200080
:10108000B8470028FAD0AB79042BF7D110AA544BFB
:10109000203323CB23C223CB23C203CB03C2202381
:1010A00000930EAB042221003000564DA8470EAD30
:1010B000534F29002000B8470028FAD0AB79042B01
:1010C000F7D1474B1A006032049280330393002318
:1010D000029301930EABDB79083B009310AB002227
:1010E00009A90AA8484DA847414B19680431099A33
:1010F0000AA8464B984700283ED10822012110A893
:10110000434B9847082300930EAB04222100300084
:101110003C4CA0470EAC3A4D21003000A8470028B7
:10112000FAD0A379042BF7D12D4B1A006032049228
:10113000803303930023029301930EABDB79083BCA
:10114000009310AB002209A90AA82F4CA047002841
:101150003ED10AAA224B703313CA13C312681A6015
:10116000274C0EA90798A0470028FAD0294B1968E8
:1011700029482A4B984766E729481C4B9847254B36
:1011800019682848254B98470024194F264E234DAF
:101190003B681B1919793000A8470134102CF7D18E
:1011A0002248124B98471B4B196821481B4B984704
:1011B00000240AAF1C4E194DE15D3000A8470134F0
:1011C000102CF9D11948094B98470220194B984720
:1011D000104B19681848114B98470220154B984737
:1011E0003C000020C1610000B8840000F9710000DB
:1011F00038000020ED610000D8840000D1640000B8
:10120000FD050000B9030000D91A0000516F00006D
:10121000A56F0000A82B0020948500000571000038
:10122000F88400002C850000B8810000DC810000FB
:1012300048850000C96E000064850000F0B5DE46F8
:1012400057464E464546E0B5A5B016901392319CE0
:10125000A446329F179308330B60396878680C06F0
:10126000020E0B02FF263604334023430D0A040608
:101270002C43FF252D022C40234399460C0E0102DE
:101280002143FF239B4619404B4619431291010A03
:10129000030613430202224332401A430800284047
:1012A00002431192BA68FB681406180E1702374001
:1012B0002743140AA0461C0641460C432C402743F2
:1012C000120E1C02144359460C40274315971F0A5F
:1012D0001C0620431B021343334018432F4038435E
:1012E00014906446246861464B6827061A0E200253
:1012F00030403843210A1F060F432F403843240E45
:101300001F02274359460F4038431F0A19060A4354
:101310001B021C43344022432F4014003C43A2468E
:101320006446A768E4683A06210E88463B023340CB
:101330001A43390A23060B432B4013433F0E220264
:101340003A43594611401943230A9C462306424614
:1013500013432402274337403B43644625402B4335
:101360000024A0466F4CA446119F129E149D159C0C
:10137000A1465246F02401944446B046CA468346EC
:101380008946F026754040B45C4053407D40E143BF
:1013900019432E1CBE437440DE43164375403E1C69
:1013A000A6437340161C2E407E4051406940664063
:1013B0005C4067464246AC46A04654465D464846B9
:1013C0008A469B46474068405440F9430143231CEA
:1013D00093435F40C3432B435C40131CBB435840C3
:1013E0002B1C23405A404D4065407A404740A94657
:1013F0006546BC46A309AF06A9097B40A70679400C
:1014000067087B40EF077B406F087940E70779402A
:101410005C404D40D300770FF1007B40570F79407F
:1014200057067B40F7097B4077067940D70979401A
:101430005A404E405B46B346C6055F0AD9057E401A
:10144000470A7940C7097E405F067E40DF09794040
:101450004706794070404B405F464E468146934672
:101460005246A246700CD403510C6040F403614014
:10147000B40A604094056040940A6140B40561403C
:1014800046404A40614644469C46D846B3460B0F08
:101490002601200F73400E017040CE0C734066038E
:1014A0007340E60C70404E03704040BC59404440CD
:1014B00063468C460F3E3C2E00D063E749465846B3
:1014C00046461A9464461B941C971D961E955546D5
:1014D0001F95119C62402092129C60402190149CA8
:1014E00063402293159C61402391179B0E93002328
:1014F0000F930E9B0F9C002C01D000F0D7FA072B06
:1015000001D800F0D3FA04930594169B9846139FD4
:10151000FF231B040393FF231B02109301974346F1
:10152000029301E0060C4080019B1E685968330657
:101530000A0E3002039C20400343370A0806384352
:10154000109D28400343360E08023043FF273840E1
:101550000343080A0F063A430902314321400A4374
:10156000284002431A994A401B994B401106180E15
:101570001602039426403143170A1E063E432E40AE
:101580003143160EB4461E0267463E43FF273E40D7
:1015900031431F0A1E0630431E0264462643039C45
:1015A000264030432F403843029C206061601C99E4
:1015B00006911D9907911E9908911F9909912099EB
:1015C0000A9121990B9122990C9123990D91069FD3
:1015D000079E08998A4609980A998B460B990C9C94
:1015E00025000D9CA04696249C46B1465346824653
:1015F00058468B462900634010B44A4041407B4026
:10160000D6430E431C1CBC436240CC43044363409E
:101610003C1C94436140041C1C407C4046405E409E
:1016200054404A40674648469C46914652465B466F
:101630004546B2468B466F405D404240FE432E43D6
:10164000111C81434F40E94319434A40011CB943EF
:101650004D40191C114048407340534078406F4042
:1016600098466346BC4691099F069E0979409706B5
:101670007E4057087940DF0779405F087E40D707F2
:101680007E404A407340C100670FE6007940470F33
:101690007E4047067940E709794067067E40C709E2
:1016A0007E40484074405946A346EC054F0ACE059B
:1016B0007C406F0A7E40EF097C404F067C40CF099A
:1016C0007E406F067E40654071405F464446A846B6
:1016D000834650469246650CC203460C5540E203D1
:1016E0005640A20A554082055540820A5640A2053E
:1016F00056406C40704066464A468C46D946A346E2
:10170000310F1401150F614034016540F40C614044
:1017100054036140D40C65407403654010BC4E40D6
:101720006A406146B4460F3C3C2C00D063E70D0094
:101730005946834650461C004E4663461A921B93F8
:101740001C971D961E941F9058462090219122951B
:1017500043462393019B08330193029B0833029372
:10176000049A059B08204042C11712184B4104926D
:101770000593002B00D0D7E6049B059C002C02D1DA
:10178000072B00D9D0E608225242D3170E9E0F9F96
:10179000B6185F417907F0080843F908441CE400D3
:1017A000139DAC46A44465461395169DAC4664440F
:1017B000464DA847801979410E900F910E9D0F9EBE
:1017C0002B000721491BC90020225242881800D54E
:1017D0006EE18025854080268E401A9A56401B9ADD
:1017E00055401A961B950E990F9A080010436FD01A
:1017F0000822D31ADB00283A9A1800D55DE10120AF
:101800004042D040019001225242DA409046139B60
:101810001A681100019A11405B68424613400F0696
:101820001A0E02920A02FF20000484460240174367
:10183000B9460F0A1A063A43FF20000202404F46FB
:101840001743090E1A020A43FF20834602403A4317
:10185000180A81461806029F07431B020B43614684
:101860000B403B434946FF20000201400B435E40D2
:101870006A401A961B92236801998B43180063688B
:1018800041468B433106150E284319433502634602
:101890001D402943350A13062B43FF252D022B40FB
:1018A0001943360E150235435B461D402943150A80
:1018B000130618431202164363461E403043FF27A7
:1018C0003F022F4038432060616001E0756E0000E8
:1018D0001C9B1900119B59401D9A12984240944636
:1018E0001E9A0192149A019C624010001F9A019264
:1018F000159E56401B9A9146209A219B229C239F1D
:101900001A9DB046BA46F0269B46704040B46540EA
:1019100054404840EF432743061C8E437540E6433E
:10192000164370400E1CAE437440161C06404E40D9
:10193000574047406E406540494662468146AC4646
:10194000454658465346B846A3465940434055403D
:10195000CF431F432C1C94436140DC430443654048
:10196000141C8C436340041C2C4062407840684047
:101970004A405940824648468946AC098106870953
:101980004C40A9064F4069084C40C1074C404108F3
:101990004F40E9074F4065407840D400710FF70091
:1019A0004C40510F4F4051064C40F1094C407106DC
:1019B0004F40D1094F4062407E405C46B346DE0551
:1019C000610AE7054E40590A4F40D9094E40610669
:1019D0004E40E1094F4059064F4073407C40594604
:1019E00056469A4693464246A846730CD503570C72
:1019F0006B40F5036F40B50A6B4095056B40950A47
:101A00006F40B5056F405E407A404F466546A1463F
:101A1000DC46B3463C0F2E012B0F74403E01734051
:101A2000FE0C74406E037440EE0C73407E037340F2
:101A300040BC67405D404C46B9460F3E3C2E00D04E
:101A400063E75B4611994A40129843401106180E0D
:101A50001402FF26360434402143150A1C062C4389
:101A6000FF252D022C402143120E1C021443FF2798
:101A70003C4021431C0A1F0638431B0213433340DA
:101A8000034325402B4318931991169B179A9446AC
:101A900063441800082218A90E4B9847002025B06F
:101AA0003CBC90469946A246AB46F0BD169C85E6E6
:101AB0002020401A8025C5408DE62022D21A012020
:101AC0004042010091400A00D840010011430191B9
:101AD00099E6C0466F6F0000F0B5DE4657464E46A9
:101AE0004546E0B5A3B00F9014932F9A94463098D2
:101AF0002C9A072A01D800F086FC083A15920A6051
:101B00000268436811061D0E1402FF273F043C4083
:101B10000C43160A19063143FF26360231400C43A6
:101B2000A146120E190211438846FF218B464146F9
:101B30005C4621404C46214311911C0AA0461C06DC
:101B40002C431B021A433A401443454635402C436C
:101B500010948268C36810061D0E14023C400443B2
:101B6000110A1806084330400443120E18021043AD
:101B700059460840044313941C0A180605431B02E7
:101B80001A433A402A4334401500254312956146D2
:101B90000C684B6825061A0E200238402843210A9B
:101BA0001D060D4335402843240E1D02254359468A
:101BB0000D4028431D0A19060A431B021C433C40E2
:101BC00022433540110029438A4661468D68CC681E
:101BD0002A06210E88462B023B401A43290A230677
:101BE0000B43334013432D0E22022A435946114022
:101BF0001943230A9C4623064246134324022543E5
:101C00003D402B4367463E4033430026B0466F4E6F
:101C1000B446109F119A9146129D139C5246F0268D
:101C200000964646C846A24683468946F0214D4066
:101C300002B45E4053407D40F0431843291CB94331
:101C40004E40D94311434D40391CB1434B40111C08
:101C5000294079405040684071405E4067464246A6
:101C6000AC46B04656465D464C4682469B4667406B
:101C70006C405640F8432043331C93435F40E3439A
:101C80002B435E40131CBB435C402B1C33405A402B
:101C9000454075407A406740A9466546BC46B30951
:101CA000AF06A8097B40B706784077087B40EF076E
:101CB0007B406F087840F70778405E404540D3008E
:101CC0004F0FC8007B40570F784057067B40CF0925
:101CD0007B404F067840D70978405A4041405B46E8
:101CE0008B46E1055F0AD8057940670A7840E70925
:101CF00079405F067940DF097840670678404C40BC
:101D000043405F464946A14693465246B2464C0C74
:101D1000D603500C7440CE0370408E0A7440960572
:101D20007440960A70408E057040614042406046A3
:101D300046469C46D8468B46030F3101340F4B4034
:101D400001014C40C10C4B4071034B40F10C4C4025
:101D500041034C4002BC58406640634684460F39FC
:101D60003C2900D063E7494658465446C146189678
:101D7000664619961A974E461B961C951D94109E02
:101D800072401E92119E70401F90129D6B402093D6
:101D9000139C61402191159A0C9200220D920C9A8D
:101DA0000D9B002B01D000F015FB072A01D800F095
:101DB00011FB029203930F9A149B9846FF231B0278
:101DC000009301924346049302E0C046060C408013
:101DD000049B1868596803060A0E0602FF242404AF
:101DE00026403343070A0E063E43009D2E403343F0
:101DF000000E0E020643FF24264033430E0A0F0650
:101E00003A4309020143FF20000401400A432E40E7
:101E10003243189D5540199959402F060E0E28023D
:101E2000FF24240420400743280A8046080644462D
:101E30002043009C204038432D0E0F022F43FF24E7
:101E4000274038430F0A0C06264309022943FF2482
:101E5000240421403143009C27403943019C2160E8
:101E600060601A9905911B9906911C9907911D991B
:101E700008911E9909911F990A9120990B91219916
:101E80000E9105998C46069F07998946089E0998E8
:101E900082460A980B9D0E999624059498466446AE
:101EA000BC464B46B146564682468B4696214B4031
:101EB00002B46A4075406340D0432843191CA143D3
:101EC0004A40E94331434B40211C91434D40311C72
:101ED000194061407040584051406A40444666464F
:101EE000984694464A4653465F468146AA467C40F9
:101EF0005F407240E0433843151CB5436C40FD43DE
:101F00001D436A40351CA5436F401D1C15406E40A3
:101F10004340534066407C409B464346A04695095B
:101F20009C06980965409406604054086540DC07AB
:101F300065405C086040D40760406A404340F5005B
:101F40004C0FC8006540740F604074066540CC09B2
:101F500065404C066040F40960406E404140554683
:101F60008A46F9056C0AE80561407C0A6040FC0974
:101F700061406C066140EC0960407C0660404F4067
:101F8000454054465946BB46B2464E4691464F0CD4
:101F9000F203700C5740CA0350408A0A5740B205FA
:101FA0005740B20A50408A0550407940464040466A
:101FB0006246A846D4468A46050F1101170F4D40C8
:101FC00001014F40C10C4D4051034D40D10C4F40D9
:101FD00041034F4002BC68407A40454680460F3975
:101FE0003C2900D063E759465046B2464E469946D2
:101FF00067464346189219931A941B974B461C93B5
:102000001D9653461E931F902095219108239C46B0
:10201000019A62440192049B08330493029A039B41
:1020200008204042C11712184B4102920393002B23
:1020300000D0CDE6029B039C002C02D1072B00D9D7
:10204000C6E608225242D3170C9C0D9DA4185D4190
:102050006907E0080843E908461CF6000F9FBC46E4
:10206000B44467460F97149FBC466644584FB84720
:10207000001969410C900D910C9B0D9C0093072257
:10208000D21AD20020235B42D11800D5A4E1A0339C
:102090008B4080219140189A5140199A53401891D1
:1020A00019930C9C0D9D2000284300D192E008223A
:1020B0000098121AD20020204042101800D590E15A
:1020C00001246442C44001277F42D7403068204049
:1020D00072683A400506AB46150EAA460502FF2671
:1020E000360435405E462E43B346050A16062E4397
:1020F000FF252D022E40B4465E4665462E43B3466C
:10210000000E15022E000643FF25A9462E40B446B8
:102110005E4665462E43B346150AAC46150656463E
:102120002E4312020243FF20000402403243604665
:10213000FF252D02284002435140584643400F9846
:1021400005682E00A6433400456801952E00BE4365
:1021500008061D0E2C4330430F02FF252D042F408F
:1021600038430D0A1F062F43FF252D022F40384309
:102170000F0E1D022E003E43B4464E4665462E40CD
:1021800030431D0AAC461D062C431D022F43FF257C
:102190002D042F4027436546FF24240225402F436A
:1021A0000F9C276060600098C400202040422518E2
:1021B00000D51FE11F30E84001256D42E540014098
:1021C0002B404A4018925A465340199302E0C046A9
:1021D000756E00001A9B109A53401B99119841404C
:1021E0008C461C99129A4A401D990091139F4F40AA
:1021F000199989461E9D1F9C2099219E1898B846C2
:10220000B246F026A346724040B4484069405A4066
:10221000C7430F43161C9E437040CE432E4372406B
:102220001E1C864371402E1C16405E406F40574076
:10223000464048404B4665469146844640465A468D
:102240005446B8468B46634054406840DF432743BA
:10225000011CA9434B40E14311434840291C9943C9
:102260004C40111C01404D407A4042405D4063406B
:1022700092464A4699468109930697095940830632
:102280005F4043085940D307594053085F40C30794
:102290005F4048407A40E900730FF70059406B0FE8
:1022A0005F406B065940F309594073065F40EB09E4
:1022B0005F404D407E405946B346E6054B0ACF0588
:1022C0005E40630A5F40E3095E404B065E40CB0917
:1022D0005F4063065F40744079405B465646A246C5
:1022E000AB4645468046740CE8036F0C4440F0034F
:1022F0004740B00A4440A8054440A80A4740B005FA
:10230000474066407D404F4660468946DC46B346BE
:10231000390F0601040F71403E017440FE0C7140FC
:1023200046037140C60C74407E03744040BC4F406D
:1023300060404946B9460F3E3C2E00D063E75C46FC
:102340001499159EB4466144082216A82F4B98474D
:10235000169A17981106030E1602FF273F04BC4673
:102360003E403143170A06063E43FF273F023E40E8
:102370003143160EB046060242461643FF2216406F
:1023800031438A46060A01060B43000241460843D0
:102390006146084003433E4033435D4053465C4042
:1023A000109B5D4011984440254321042B0C0B43A6
:1023B000210C1D430C432406280A204328431040C7
:1023C0000138C00F013823B03CBC90469946A24664
:1023D000AB46F0BD149E4FE62021891A8023CB40E6
:1023E00057E62020801A0124644225008540D4400D
:1023F0002C4368E620252D1B012040420600AE40FC
:10240000E0403043D8E601204042DCE76F6F000037
:102410000C4B1B68002B06D1EFF31083002B07D069
:102420000022094B1A70074A136801331360704782
:1024300072B6BFF35F8F0022044B1A700132024B59
:102440001A70F0E79C020020A0020020EC0000209F
:10245000084B1A68013A1A601B68002B09D1064B19
:102460001B78002B05D00122044B1A70BFF35F8F3D
:1024700062B670479C020020A0020020EC00002001
:10248000F0B583B001AC012565700027A7702570F9
:1024900021000F20064EB047802212028223DB0566
:1024A0009A612770657021001C20B04703B0F0BD11
:1024B0005D29000003680A4A934203D0094A934207
:1024C00007D07047084A116980235B000B431361F2
:1024D000F7E7054A116980239B000B431361F0E77E
:1024E000001C0042002000420008004070B50C00B3
:1024F00015000160A64B9847A64B00221A702A7857
:102500001A70A54B9C4200D1C7E0A44B9C4200D15D
:1025100000E1A36902221343A361A14ABC23E25054
:1025200007220C33E2509F4BE3619F4BE360AB7B90
:10253000002B04D0E26880231B041343E3606B7814
:10254000002B03D0A36840221343A3606269AB78D9
:1025500013436361EB78002B04D0A2698023DB0175
:102560001343A3612B79002B04D0A26980239B0124
:102570001343A3616B79002B04D0A26980235B0114
:102580001343A361AB79002B03D1A369402213430A
:10259000A361EB79002B03D0A36910221343A3613D
:1025A0002B7A002B03D0A36908221343A3616B7A13
:1025B0001B04F022120313400122134323622B7BDE
:1025C0006A7B13436A8912041343A362EB7B1B02E9
:1025D000FE22D2011340297C7F220A401343A364C8
:1025E0006A7C120130231340A97C89000C220A4026
:1025F00013438022A350EB7C002B03D0A35802216D
:102600000B43A3502B7D002B04D08022A358012123
:102610000B43A3509023AA69E2502B7F002B05D0D7
:10262000A022A15880231B060B43A350A022A1582F
:102630006B7F1B06FE20C00503400B43A350AB7FFE
:10264000002B05D01032A15880231B060B43A3504A
:10265000B022A158EB7F1B06FE20C00503400B43B0
:10266000A3502023EB5C002B05D01032A15880230F
:10267000DB050B43A350F022A1582123EB5C1B0682
:10268000FC20800503400B43A3500323E365043B78
:10269000103AA3500432A35070BD3E491A20434B58
:1026A00098471A20424B98473B4B9A6902210A43AC
:1026B0009A61404A1204120C802189030A43842142
:1026C0005A503D4A1204120C802149030A438820C3
:1026D0001A503A4A1204120C0A4318301A50384A57
:1026E0001204120C1143B0229950364A1204120CF3
:1026F000AC215A50344A1204120C34490A43C02106
:102700005A50334A1204120C802109030A43F02163
:102710005A5002E71F491B20244B98471B20244B8B
:1027200098471E4B9A6902210A439A61294A12046A
:10273000120C802189030A4384215A50264A12042C
:10274000120C802149030A4388201A50234A12049C
:10275000120C0A4318301A50214A1204120C114369
:10276000B02299501F4A1204120CAC215A501E4A32
:102770001204120C15490A43C0215A501B4A120474
:10278000120C802109030A43F0215A50C5E6C046C5
:10279000B5240000582B0020001C004200200042FD
:1027A00077070000030A0506330A00001539000008
:1027B000A5380000A410002024070020A407002052
:1027C000240C0020A4020020241100200000040496
:1027D00064130020A421002024180020A418002045
:1027E000241D0020A41300202422002064240020A3
:1027F0000268936901218B439361016801228B690F
:102800001A42FCD170470268936901210B4393611E
:10281000026893691942FCD0936902210B439361CA
:102820000268916980235B000B43936102689169A0
:1028300080239B000B4393617047000010B5036831
:102840000948834204D0094C1720A34206D010BD8A
:1028500009689200064BD1500020F8E70968920001
:10286000044BD1500020F2E7001C0042002000423F
:10287000A4100020A421002010B50C0003680F490B
:102880008B4204D00E4917208B420BD010BDD100D3
:102890008A18D2000B498918482220000A4B984711
:1028A0000020F3E7D1008A18D2000849891848228D
:1028B0002000054B98470020E8E7C046001C004276
:1028C00000200042A40200206F6F0000A41300202B
:1028D00030B503681D48834204D01D4C1720A34225
:1028E0001AD030BD0D681B48D400A318DB001D5062
:1028F0004D68A318DB00C3185D600B000833A218F5
:10290000D200083282184831187810700133013231
:102910008B42F9D10020E4E70D680F48D400A318DA
:10292000DB001D504D68A318DB00C3185D600B0071
:102930000833A218D2000832821848311878107073
:10294000013301328B42F9D10020CAE7001C00425A
:1029500000200042241100202422002000B583B072
:1029600001AB80221A700A785A704A789A708A7875
:10297000DA701900014B984703B000BD113A00000E
:10298000F0B5DE4657464E464546E0B587B0804630
:10299000049116001F000022002300218B463F24D3
:1029A00001202100009601975C460394444605945B
:1029B00013E02024641A0500E540A84614E0009CBA
:1029C000019D121BAB415C464D462C43A346039C24
:1029D00045462C430394013925D3202464420C1925
:1029E000E7D40500A540A84604008C40A1469218F3
:1029F0005B4114001D00059E4F463E40B446049EB8
:102A000047463E40B246664657463E4303D0060020
:102A1000264332002B00009C019D9D42DBD8CED185
:102A20009442D8D8CBE7039B5846190007B03CBC6A
:102A300090469946A246AB46F0BD10B549084023E2
:102A40000024814202D2180010BD1C00091A631C28
:102A50009BB28842F9D94023FF2CF4D8148000237C
:102A6000F1E70000F0B583B00F00160008AA117856
:102A700004004C434022BC4202D9100003B0F0BD18
:102A8000002B14D1020008000021194CA0470100BE
:102A90003A0000230020174CA04700220123121AFD
:102AA0008B41120C1B041A4332800022E5E70022FE
:102AB000012BF9D10A00002300210D4CA047020090
:102AC0000B0000920193380000210A4CA04705003A
:102AD00080239B0140229842CFD8790FF800009ABA
:102AE000019BA047EA00821AD2B252032A43DBE7D5
:102AF000756E00008129000010B582B004000E4BF5
:102B00001B78002B07D0002905D10B4B5B78834243
:102B100010D01D200CE001A90C701220074B984723
:102B20001220074B9847044B5C7001221A7000205A
:102B300002B010BD0020FBE7A424002015390000DE
:102B4000A5380000404B984231D00AD93F4B9842FB
:102B50004DD03F4B98425AD03E4B984237D0002040
:102B600070473D4B98420CD03C4B9842F7D101291D
:102B700017D000295DD0022915D0032915D00020D7
:102B8000EEE7012907D0002951D0022905D00329F9
:102B900005D00020E4E73248E2E73248E0E7324877
:102BA000DEE73248DCE73248DAE73248D8E7012985
:102BB00007D000293FD0022905D0032905D00020E5
:102BC000CEE72D48CCE72D48CAE72D48C8E70129B4
:102BD00007D0002931D0022905D0032905D00020D3
:102BE000BEE72848BCE72848BAE72848B8E70129E3
:102BF00007D0002923D0022905D0032905D00020C1
:102C0000AEE72348ACE72348AAE72348A8E7012911
:102C100007D0002915D0022905D0032905D00020AE
:102C20009EE71E489CE71E489AE71E4898E71E4804
:102C300096E71E4894E71E4892E71E4890E71E4814
:102C40008EE71E488CE7C046000C0042001400428C
:102C50000018004200100042000400420008004238
:102C60000300050003000600030007000200110036
:102C7000020012000200130002000D0002000E000C
:102C800002000F00020017000200180002001900E5
:102C90000300290003002A0003002B000300230087
:102CA00003002000030021000300040002001000C4
:102CB00002000C000200160003002800030022009E
:102CC00030B587B00B4B6A4632CB32C232CB32C200
:102CD000009B83420BD001239A00694652588242DE
:102CE00006D00133062BF7D1002007B030BD0023FA
:102CF000D8B2FAE7C885000070470000F0B50A4B6B
:102D00001B78002B0CD1094F094E0A4D0024DE51CF
:102D10005A1914600433182BF9D10122024B1A708E
:102D20008000024BC150F0BDA6240020A824002042
:102D3000F92C00005C2B002000B583B009236A4603
:102D4000137001335370013393700133D370013327
:102D5000137101335371034B98476B46185603B0F8
:102D600000BDC046C12C000010B5024B1B680020FE
:102D7000984710BDA824002010B5024B5B680120C5
:102D8000984710BDA824002010B5024B9B68022074
:102D9000984710BDA824002010B5024BDB68032023
:102DA000984710BDA824002010B5024B1B690420D1
:102DB000984710BDA824002010B5024B5B69052080
:102DC000984710BDA8240020F0B5DE4657464E4671
:102DD0004546E0B591B005000C00160029600800DA
:102DE000D24B984705280DD00700133722680523DA
:102DF000D20709D5180011B03CBC90469946A246AE
:102E0000AB46F0BD1927F1E7226817339207F1D4DA
:102E1000C74AD16901301B3B83400B43D3610FA9E3
:102E200035239846F35C0B70FFB23800C14B9847CE
:102E30003800C14B98474346F05C0021BF4B984790
:102E4000F37A6B712C23F35CAB712D23F35CEB7184
:102E5000F37E2B722423F35C6B722B6802931800B1
:102E6000B24B984705281DD0133000220E2306A927
:102E70008C4663441A80338A98468023DB01984548
:102E800000D1C3E010D9C023DB01984500D1B8E0E0
:102E900080231B02984500D066E10323069300239C
:102EA00007930AE01920E0E780239B01984500D0B2
:102EB0005AE1102306930F3B079333680593F36899
:102EC0009B4673690393337E04932E23F35C9A46E7
:102ED00073689946002B00D1C5E080235B059945B6
:102EE00000D1A8E0737E002B02D0B37E029A9373C8
:102EF0000E2306AA944663441B88029A9381059A7E
:102F00005B461A43039B1A434B461A4343461A43F4
:102F1000049B1B021A4353465B071A432F23F35C9F
:102F2000002B01D104331A43737E9B022421715C70
:102F300049020B432621715C09020B432C21715C71
:102F400049040B432D21715C09040B43B07AF17ADB
:102F5000084318433389FF2B00D1AAE0802149049C
:102F60000A43184302998B689C46338C718C0B433F
:102F70001F000721634619403B000B4302998B60F9
:102F8000F369002B02D06E490A401A433423F35CE4
:102F9000002B03D16B4B9B789B0701D580231A43F1
:102FA0002968029FCB69002BFCD178602968CB6926
:102FB000002BFCD13A603B68F02212051340E0225E
:102FC000D20493420AD0BB6807229343BB60BA681D
:102FD0002523F15C1E3B0B401343BB600EAB8022EC
:102FE0001A7000225A70DA709A70B36B0A93F36BFE
:102FF0000B93336C0C93736C02930D9300270AAE02
:1030000066E008230693073B079356E7336805936A
:10301000F3689B4673690393337E04932E23F35C1A
:103020009A4673689946002B19D080235B05994511
:1030300001D0002327E02F23F35C002B00D051E7C1
:10304000B36A1F00C0B2404B984701000E2206AB86
:103050009C46624438003D4B9847030013E0082328
:103060000693002307932F23F35C002B0FD0069BBE
:103070000093079B0E2206A98C466244316BB06A0E
:10308000334FB8470300002B00D0B3E62AE7B36AFA
:103090001F00C0B22C4B98470100069B0093079B72
:1030A0000E2206A8844662443800294FB847030020
:1030B000E9E7F37E002B00D154E78023DB041A43B9
:1030C00050E72000234B984707E00137042F0DD02D
:1030D000F9B2BB0098590028F3D0431CF5D00EA9D3
:1030E0000870000CC0B21C4B9847EEE70023EB6061
:1030F0002B616B61AB61EB612B62AB626B62002297
:10310000EB85AB853033EA540133EA540133EA549A
:103110000133EA542868054B984704000F49104BC7
:103120009847A4000F4BE550002363E6C12C000034
:103130000008004015390000A5380000F92A0000F9
:10314000FFFFFFF000200041393900003B2A00005A
:10315000652A0000452B0000113A000005320000EE
:10316000FD2C00005C2B0020102306930023079306
:10317000A3E6C046C2791C23002A01D1180070477B
:10318000C28D92B2173B002AF8D102681185022144
:10319000137E0B42FCD00023F0E782791C23002A27
:1031A00001D118007047828D92B2173B002AF8D1E6
:1031B0000268107E4007F4D5538BDBB258061DD051
:1031C000980703D5022353831833EAE7580703D53A
:1031D000042353831A33E4E7D80703D50123538329
:1031E0001233DEE7D80603D5102353833233D8E7F2
:1031F0009B0603D5202353832133D2E7138D0B8005
:103200000023CEE7F8B58000644BC5582C68E3690D
:10321000002BFCD1237EA67D1E403023EB5C3122A7
:10322000AF5C1F40F30722D5EB8D9BB2002B1CD067
:10323000AA6A1378DBB2511CA962697901290ED000
:103240009BB2DB05DB0D2385EB8D013B9BB2EB8550
:10325000002B0CD1013323750133A37507E051789E
:1032600009020B430232AA62EBE701232375B3077D
:1032700006D50223237500223133EA54FB071ED4FE
:10328000730768D5AB8D9BB2002B62D0638BDBB22A
:103290001A0718D47F2213405A0601D540229343BF
:1032A000002B33D09A0711D51A223223EA54303B2F
:1032B00063837B074FD528006B6998474BE0280054
:1032C000EB689847DCE777221340E5E75A0705D516
:1032D0001E223223EA542E3B6383EAE7DA0705D540
:1032E00013223223EA54313B6383E2E7DA0605D541
:1032F00042223223EA54223B6383DAE79B06D8D585
:1033000041223223EA54123B6383D2E7238DDB054B
:10331000DB0DDAB2696A0A706A6A511C69626979FE
:10332000012910D0AB8D013B9BB2AB85002B12D194
:103330000433237500222E33EA54BB070BD5280033
:103340002B69984707E01B0A53706B6A01336B6265
:10335000E8E704232375F30604D5102323752376A9
:10336000FB060ED4B30604D52023237523763B0732
:103370000BD4330704D5082323752376BB0608D462
:10338000F8BD2800EB699847ECE72800AB6998473F
:10339000EFE72B6A28009847F2E7C0465C2B002035
:1033A00010B5072803D880000F4B1B589F460020FC
:1033B00018E00E4B586815E00D4B597D0907090FB1
:1033C00001310C480C4B98470CE0084B986809E019
:1033D000074B1B7F00209B0704D5044B186801E0B6
:1033E0008020000210BDC046E0850000C0240020FF
:1033F00000100040006CDC02896B0000F0B5DE4676
:1034000057464E464546E0B5254A938A45780178A9
:103410004C424C41A14681788C46C1788846467A18
:10342000077A817A8B461F4944688C60C17A89008B
:10343000847B64002143447B2143C9B29175017BA5
:10344000D1750121484680000424A343034340462C
:103450000840C0000434A343034360460840000111
:103460000834A34303430F40BF01402083433B4341
:103470000E40F601403083433343793805402D0236
:10348000094803402B4358460140090307480340BD
:103490000B4393823CBC90469946A246AB46F0BD96
:1034A00000140040C0240020FFF8FFFFFFEFFFFFE3
:1034B000F8B50400C568037D012B4DD0A368180141
:1034C0002900294B98470F22024003092178C9019E
:1034D0006678B6013143C9B2244E31771104013BFD
:1034E0001B051B0D0B43336237002C260421BB5DEB
:1034F0000B42FCD1A3781B03E178C9000B4321796F
:1035000089000B43A17C032631400B43218A090427
:10351000174F39400B43E17C0902E027FF00394097
:103520000B43277D3F01302139400B430F494B624C
:10353000637D1E402823CE540F002C260821BB5D3E
:103540000B42FCD10F23984382186A43637D0433F6
:10355000DA40084B1A60F8BD018A013149002800A1
:10356000014B98470500A9E7896B00000010004057
:103570000000FF07C0240020072803D88000184B54
:103580001B589F46172029E0164A137D02210B4342
:103590001375002022E0144A936902210B439361C2
:1035A00000201BE00F4A138A02210B4313820020E4
:1035B00014E00D4A938A02210B43938200200DE010
:1035C000084A137F02210B43137710002A3102228D
:1035D000435C1342FCD1002000E000207047C0464D
:1035E000008600000010004000140040F0B5C64600
:1035F00000B58EB003223F4B9A603F4A53681E21AC
:103600008B4318390B4353600AA8002303708022B0
:103610001202426083700122C2708372C37203730C
:10362000437383730239417043720272334B98477C
:103630000520334B984733490122CB681A42FCD00E
:10364000314B1A7D80210A431A7502225A751A00DD
:103650009369002BFCD12D4B984701AD01260296B2
:1036600000246C706C7205232B702E7229000120CF
:10367000274B984698470120264FB8476E606C70DC
:103680002C726C7207232B7029000820C047082079
:10369000B84704A88470C47004711F4B836006820D
:1036A0004475C474847404700123437004751B4B07
:1036B000C3601B4B98470720114B98471248302195
:1036C0000322435C1340032BFBD1023B154A1371C9
:1036D00001A94B6000224A704A7207320A700B72CD
:1036E00000200B4B984700200A4B98470EB004BCB3
:1036F0009046F0BD0018004000400041FD3300003E
:103700007935000000140040001000402937000007
:103710004D370000F9370000006CDC02FF7F00002D
:10372000B134000000080040064A536980210B4371
:1037300053610122044B1A7019000B781342FCD11B
:103740007047C04600080040001C004070B50400EF
:103750000D784B78002B02D08023DB001D434B7A81
:10376000002B02D080231B011D43486801280FD97C
:10377000431E184231D102282DD9022300220132E2
:103780005B009842FBD880235B011D431204154364
:103790000B7A002B02D080239B011D430426A640F8
:1037A0001149124A4B6813401E42FBD1104B9847F7
:1037B000A4000D4B9C466444226A80235B001A409F
:1037C0002A4322626146094A4B6813401E42FBD1DC
:1037D000084B984770BD0022D5E7000480239B006A
:1037E00018430543D4E7C046001C0040FC07000016
:1037F000112400005124000010B50400042282406E
:1038000009480A4943680B401A42FBD1084B9847C4
:10381000A400054B9C466444226A80235B0013434A
:103820002362044B984710BD001C0040FC070000B9
:103830001124000051240000F8B504000422824045
:103840001248134943680B401A42FBD1114B984769
:103850000E4F0834A400E0594007400F0E4B984724
:103860000600E559ED04ED0FE459240C0B4B984785
:10387000002D07D1012C07D921003000084B9847B3
:10388000060001E00134E6403000F8BD001C0040B5
:10389000FC07000011240000A133000051240000A7
:1038A000896B000010B50400094B9847A000094B34
:1038B0009C4660448022835840210B438350403112
:1038C000403A43581A42FCD0034B984710BDC046BB
:1038D00011240000001C00405124000010B5040019
:1038E000094B9847A000094B9C46604480228358AE
:1038F00040218B4383504031403A43581A42FCD117
:10390000034B984710BDC04611240000001C004026
:103910005124000070B504000D00054B98472A782B
:103920000F2313402034A400024AA35070BDC046A8
:10393000DD380000001C004010B50400064B98471D
:103940002034A400054BE4582407240F044B984767
:103950002000044B984710BD11240000001C0040BB
:10396000512400003938000030B5D378002B35D110
:103970001378802B29D01B068024640223435478BB
:103980000225AC4306D19478002C20D18024A402D7
:10399000234341605478013C012C1CD90D042D0CAB
:1039A000A024E4052C431C4384620D0CD02424067F
:1039B0002C431C438462D478002C22D15B031CD599
:1039C0009378012B1ED0416117E00023D7E7C02474
:1039D000E4022343DDE70D4C2340DFE741600C04A4
:1039E000240CA023DB05234383620C0CD0231B068D
:1039F00023438362D378002B03D15378013B012BFF
:103A000002D930BD8161F8E78160FAE7FFFFFBFF73
:103A100010B50A00C1090023002905D14309DB01C3
:103A20008221C9058C4663441F2420400121814026
:103A30001800014B984710BD69390000704700001D
:103A400010B5054B9847054B9847054B9847054BD4
:103A50009847054B984710BDED35000081240000C4
:103A60003D3A00003D3A00003D3A0000FEE700000C
:103A700010B5174A174B9A4211D01A00164B9A42AA
:103A80000DD2164A03339B1A9B0801339B00002278
:103A900010480F498C58845004329A42FAD1104A87
:103AA000104B9A420AD2D3430E495B1803218B4331
:103AB00004339B18002102C29342FCD10A4AFF2121
:103AC0000A4B8B4393600A4B98470A4B9847FEE793
:103AD000BCAE0000000000207402002004000020A2
:103AE00074020020B02B002000ED00E00000000078
:103AF000F56E00009D670000F0B5C64600B50C00ED
:103B0000904600280FD1002A11DD8F18094E0A4D6A
:103B1000306821002B6898470134BC42F8D14046F8
:103B200004BC9046F0BD01235B429846F7E780460F
:103B3000F5E7C0467C2B0020742B0020F0B5C6466C
:103B400000B50E0015000138022810D8002A11D047
:103B500000240C4B98460C4F43461868315D3B6877
:103B60009847002808DB0134A542F5D106E001247E
:103B7000644203E0140001E001246442200004BC1C
:103B80009046F0BD7C2B0020782B00200300064AD5
:103B90001268002A04D0044A1068C31813607047E2
:103BA0000249014A1160F6E7CC240020B06B0020E6
:103BB00001204042704780239B014B6000207047EA
:103BC000012070470020704700BEFEE710B5026874
:103BD000012906D9031D8900401810CB22438342D6
:103BE000FBD150421043C00F0138404210BD0000CD
:103BF000F8B505000E00C769C46801002031202215
:103C000030000B4B9847042128000A4B98470028A6
:103C100006D16400E40FE407F3691C43F461F8BDC6
:103C20007F00FF0FFF07F3691F43F761F7E7C04607
:103C3000816F0000CD3B0000F0B5C64600B5874C53
:103C4000A54404000F002822002149A8844B98476E
:103C5000012349931F339C46BC4463466546019348
:103C60002022210018007F4B9847E37FDB0998460C
:103C7000FB6B5B005B08FB630DA928007A4B984740
:103C80005DA90DA8794B984753AA79495DA8794B4E
:103C900098475DAA49A91000774B984753AA49A9AC
:103CA0001000764B98477BA953A8754CA04776A97E
:103CB00058A8A0477BAA76A91000724EB04776AAF2
:103CC00053A95DA8704DA84771AA58A962A8A84732
:103CD00076AA71A91000B04771AA53A962A8A84793
:103CE0006CAA58A95DA8A84771AA6CA91000674BD7
:103CF00098476CA976A8A04767A971A8A0476CAAA5
:103D000067A91000B0477D245D4D6CA90800A84745
:103D1000013C002CF9D180AA6CA976A8594B984790
:103D200080A908005A4B9847052180A8594B98470D
:103D3000002800D073E080AA11001000514B984772
:103D40006CA97BA84E4DA8476CAA11007BA84E4CCD
:103D5000A0476CAA110080A8A04785A96CA84E4B6B
:103D600098476CAA85A97BA8A04703AA6CA980A83C
:103D7000A04776A903A8A84776AA11007BA8A04768
:103D800003A8464B984708AA6CA971A8A04780AA27
:103D900076A910003D4B984780A908003C4B9847F6
:103DA000052180A83B4B984700283ED003A9080076
:103DB0003B4B9847052103A8364B9847002849D02C
:103DC0000C9B9B0D434502D003A8364B984717A97F
:103DD00003A8334CA04721A90DA8A04717A8324B30
:103DE0009847002808D11CA8304B984717A82E4B9D
:103DF0009847002300280BD017A90800284B9847A4
:103E0000390017A82A4CA047019921A8A0470123EF
:103E100018008A239B009D4404BC9046F0BD80AAF4
:103E20006CA976A8194B984785E77BAB03AA1900C4
:103E300031CA31C111CA11C103AC08AA2100100056
:103E400070C870C130C830C113CB13C2110005CB8C
:103E500005C1ABE7079B9B0DB4E7C046D8FDFFFF4C
:103E6000A56F0000816F00008147000039520000FB
:103E700020860000C551000005500000E54F0000FD
:103E800031420000073F00009D3F0000433F00001B
:103E900075440000CD3B000005450000D54A0000F8
:103EA000A95100008D500000F1570000713F000043
:103EB0000948000070B503041B0C000C0C04240C12
:103EC000090C25005D434B4344434143280C260421
:103ED000360C80191E04360C8019060C2D042D0C8E
:103EE000000445401560240C1B0CE3180C04240C42
:103EF0001B199B19180C090C091809041B041B0C2D
:103F00004B40536070BD10B503681C000B689C46A5
:103F10006444146043681C004B689C4664445460CD
:103F200083681C008B689C4664449460C3681C00D2
:103F3000CB689C466444D460036909695B181361CB
:103F400010BD10B503680C681B1B136043684C68F8
:103F50001B1B536083688C681B1B9360C368CC6811
:103F60001B1BD360036909695B1A136110BD000054
:103F7000084B02689A1A026042689A1A4260826884
:103F80009A1A8260C2689B1AC360034B02699B1A2B
:103F900003617047FFFFFF03FFFF7F00F0B5DE46C0
:103FA00057464E464546E0B59DB091464468E317F6
:103FB000019382689046D217139245466D171A9561
:103FC0004646F6001896C768BA46FF171797534635
:103FD0005D171695DE00149603699B46DB171B934D
:103FE0005A46521712925F46FD000E9503680293DF
:103FF000DA1703920A680492D01705900869060040
:10400000C517069548680790C7170897CD680995A2
:10401000EF170A978F680B97F9170C91630F0199A7
:10402000C9001943E000814D0D963200069BA84758
:1040300006000F00049A059B02980399A8473618BA
:104040004F41079A089B0E981299A84736184F417E
:10405000099A0A9B18981A99A84736184F410B9A43
:104060000C9B14981699A84736184F411096119733
:10407000079A089B02980399A84706000F00049A24
:10408000059B20000199A84736184F410D9A069BC1
:1040900018981A99A84736184F410B9A0C9B0E98FE
:1040A0001299A84736184F41099A0A9B14981699F5
:1040B000A84736184F41189619970B9A0C9B0298EF
:1040C0000399A84706000F00049A059B40461399E0
:1040D000A84736184F41079A089B20000199A84726
:1040E00036184F410D9A069B14981699A847361812
:1040F0004F41099A0A9B0E981299A84732003B003B
:1041000012184B4114921593099A0A9B029803992D
:10411000A84706000F00049A059B50461799A84728
:1041200036184F410B9A0C9B20000199A84736186E
:104130004F41079A089B40461399A84736184F41AC
:104140000D9A069B0E981299A84736184F410E9665
:104150000F970D9A069B02980399A84706000F0037
:10416000049A059B58461B99A84736184F41099A4F
:104170000A9B20000199A84736184F41079A089BCF
:1041800050461799A84736184F410B9A0C9B40464A
:104190001399A84736184F41109C119DAB01A00EF2
:1041A0001843A916189B199CC01861418B01840EF5
:1041B0001C438D16149A159BA4185D41A3019B09FD
:1041C0004A469360A901A20E0A43AB160E9C0F9DAE
:1041D00012196B41910189094D46E9609901940ECC
:1041E0000C439D16A4197D4163025B0A4A46136184
:1041F000109B9B019B091E0000276902E20D0A43E8
:10420000EB1592197B41910189094C46216080018F
:1042100080099B01920E1A43801860601DB03CBC5F
:1042200090469946A246AB46F0BDC046756E00006A
:10423000F0B5DE4657464E464546E0B591B0894654
:104240000168CB174A0005924468E217019208946E
:1042500065000D958668B346F4170394C668B246A8
:10426000F51702950469E617B04626170C9620014B
:104270000A90654D0A00080004931900A84706003B
:104280000F000A9A0C9B08980199A84736184F41CD
:104290005B461B0F0398010119435B461801524608
:1042A000029BA84736184F410696079753465B0F67
:1042B000029FF90019435346D80052463B00A847D5
:1042C00006000F00089A019B05980499A847361824
:1042D0004F410A9A0C9B58460399A84736184F41FC
:1042E0000E960F975A46039B05980499A847060017
:1042F0000F000898020001990B00A84736184F419B
:104300000A9A0C9B50460299A84732003B001218AB
:104310004B41089209935246029B05980499A8477D
:1043200006000F005A46039B0D980199A8473618BE
:104330004F41630F4046C1001943E000220043464D
:10434000A84736184F410A960B9722004346059816
:104350000499A84706000F005246029B0D98019948
:10436000A84736184F415A4603990B005846A847AC
:1043700036184F41069C079DAB01A00E1843A916A5
:104380000E9B0F9CC01861418B01840E1C438D163F
:10439000089A099BA4185D41A3019B094A469360B2
:1043A000A901A20E0A43AB160A9C0B9D12196B4180
:1043B000910189094D46E9609901940E0C439D16BF
:1043C000A4197D4163025B0A4A461361069B9B0167
:1043D0009B091E0000276902E20D0A43EB159219A2
:1043E0007B41910189094C462160800180099B0134
:1043F000920E1A438018606011B03CBC90469946FA
:10440000A246AB46F0BDC046756E0000F0B505682B
:1044100047688268C6680369AC16E419A01680185C
:10442000A401A40982169219800180099616F61833
:104430009201920977027F0AF615AD01AD09731951
:104440009D162C19A51628188516AA189616F61961
:10445000F7159D01AD097D190D60A401A4094C60FB
:1044600080018009886092019209CA6073025B0A28
:104470000B61F0BDF0B5036847688268C6680569DE
:104480009C16E419A716BF18A401A409BA1692191C
:10449000BF01BF0990164019920192094602760A9F
:1044A0009B019B090133C0151B1898160419A0160F
:1044B000C719A401A009BC16A218BF01BF0995160F
:1044C000AD19920196096C02640A9B019B09ED15D6
:1044D000013D012215405B1B9D162D18A816C01921
:1044E000821692199B019B090B60AD01AD094D60CD
:1044F00080018009886093019B09CB609216141992
:104500000C61F0BDF0B59BB005000E0010A9484C41
:10451000A04710AA11002800464FB8470BA910A8C1
:10452000A0470BA90800A0470BAA110010A8B84784
:1045300006A90BA8A04706A90800A04706A90800DD
:10454000A04706A90800A04706AA11000BA8B84773
:1045500001A906A8A0470724354F01A90800B847BC
:10456000013C002CF9D101AA110006A8314B984753
:1045700010A901A82E4B98470F342D4F10A9080001
:10458000B847013C002CF9D110AA110001A8294B11
:10459000984715A910A8264B98471F34244F15A9F2
:1045A0000800B847013C002CF9D115AA110010A849
:1045B000204B984720341E4F15A90800B847013CEE
:1045C000002CF9D115AA10A910001A4B98471034E5
:1045D000174F15A90800B847013C002CF9D115AABE
:1045E000110001A8134B98470834114F15A9080072
:1045F000B847013C002CF9D115AA110006A80D4BB3
:10460000984704340A4F15A90800B847013C002C0C
:10461000F9D115AA11000BA8064CA04715A908004E
:10462000034B9847320015A92800A0471BB0F0BDE6
:10463000314200009D3F000070B59EB0050005A905
:104640004D4CA04705AA110028004C4EB0470AA9BE
:1046500005A8A0470AA90800A0470AAA110005A8B2
:10466000B0470FA90AA8A0470FA90800A0470FA9A3
:104670000800A0470FA90800A0470FAA11000AA828
:10468000B04714A90FA8A04707243B4E14A908005F
:10469000B047013C002CF9D114AA11000FA8374BE8
:1046A000984705A914A8344B98470F34324E05A9F2
:1046B0000800B047013C002CF9D105AA110014A84C
:1046C0002E4B9847694605A82B4B98471F342A4E16
:1046D00069466846B047013C002CF9D16A466946F4
:1046E00005A8264B98472034234E69466846B047B4
:1046F000013C002CF9D16A4605A968461F4B984732
:1047000010341D4E69466846B047013C002CF9D173
:104710006A46694614A8194B98470834164E6946EC
:104720006846B047013C002CF9D16A4669460FA89B
:10473000124B98470434104E69466846B047013C16
:10474000002CF9D16A4669460AA80C4CA047694674
:104750006846094EB04719AA69462800A04719A91A
:104760000800B04719A90800B0472A0019A9280075
:10477000A0471EB070BDC046314200009D3F000002
:10478000F0B503689B019B090B6043689B011C4AC1
:1047900013400468A40E23434B6083681B03194F26
:1047A0003B404468240D23438B60C3689D04FF266F
:1047B000B604354083689B0B1D43CD60C3685B0026
:1047C0005B0A0B6103699B019B094B6143699C0177
:1047D000144003699B0E1C438C6183691A033A40A1
:1047E00043691B0D1A43CA61C3699B043340826944
:1047F000920B13430B62C3695B005B0A4B62F0BD13
:10480000C0FFFF0300F0FF0343689B0602681343E9
:104810000B6083681B054268920913434B60C368B1
:104820009B038268120B13438B6003691B02C268EF
:10483000920C1343CB6083699B06426913430B615F
:10484000C3691B058269920913434B61036A9B0389
:10485000C269120B13438B61436A1B02026A920CFA
:104860001343CB6170470000F0B5DE4657464E4615
:104870004546E0B587B003919946590006D013002C
:1048800089005118002410C38B42FCD14B46002BE9
:1048900035D0019280469B00029300239B461B4B20
:1048A0009A46039F019E0024002502CF04AA434696
:1048B0001868D047049A13191100594054400C430A
:1048C0005C40E40F059A0092A11830681A18434022
:1048D0001C00504004435440E40F641804C60135E2
:1048E000A945E2D1019B029A9C5001229446E344DF
:1048F0000433019304239C46E0445D45D1D107B0C5
:104900003CBC90469946A246AB46F0BDB53E000081
:10491000F0B5D6464F464646C0B584469146002B74
:1049200022D09B0098460026002201239A46634627
:104930009B598F59DD1B6C422C43E40F5046444079
:104940001440180078406F4038435840C00F20434F
:10495000AD1A4B469D51043602004645E7D11CBCBA
:1049600090469946A246F0BD0020F8E7F0B5B1B0F8
:104970001500082320AA2C4CA047082310AA2B4975
:1049800020A8A04708236A46294910A8A047002666
:10499000002420A973581A196846305884461718FD
:1049A00068463750100060405C4020435040130080
:1049B0007B40644654401C437C400443E40F04366F
:1049C000402EE7D100231A006A44126AEA500433E9
:1049D000202BF8D1183B2A0015492800154EB04766
:1049E000241A002312495A58224068461A500433A8
:1049F000202BF8D100260023AA59D1186846345834
:104A00000F19AF51080058405340184348400A005E
:104A10007A400B00634013437B400343DB0F0436B3
:104A2000202EE9D131B0F0BD69480000E8AB0000AC
:104A300030AC00001149000030B591B004000D0009
:104A4000202200216846074B98470123009308AABB
:104A500005492000054CA0472A00694608A8A04740
:104A600011B030BDA56F0000C8AB00006D4900005B
:104A7000F0B5D6464F464646C0B58946012603687E
:104A80001E40731E9C4600250023114A9246524642
:104A9000AA5861460A40D4184659A1194F4679517F
:104AA00027005F405A403A436240904622004A4005
:104AB0002300734013434B4042461343DB0F04353E
:104AC000202DE4D11CBC90469946A246F0BDC046BC
:104AD00030AC0000F0B50368DC07E417A6094268B3
:104AE000B1188268B218C5687519640A0769BC46AE
:104AF00064449B195B104F068026B6043740DB19CF
:104B0000036053063340491059184160690631402B
:104B100052108A188260630633406D105D19C560BB
:104B200064100461F0BD03680B6043684B608368E8
:104B30008B60C368CB6003690B6143694B61836918
:104B40008B61C369CB61036A0B62436A4B62704736
:104B5000F0B5D6464F464646C0B5D2B004008A46A8
:104B600090461E002AA9CC4DA8472000283034A921
:104B7000A847200050303EA9A8472000783048A917
:104B8000A8472500A035A023DB009946A144C24FC9
:104B900001235B429C46E0444346DC0F644402A987
:104BA0002800B847280028300CA9B8472800503002
:104BB00016A9B8472800783020A9B8472A9A029B3E
:104BC0005340234053402A932B9A039B5340234046
:104BD00053402B932C9A049B5340234053402C93D7
:104BE0002D9A059B5340234053402D932E9A069BAC
:104BF0005340234053402E932F9A079B534023400A
:104C000053402F93309A089B534023405340309396
:104C1000319A099B5340234053403193329A0A9B67
:104C20005340234053403293339A0B9B53402340CD
:104C300053403393349A0C9B534023405340349356
:104C4000359A0D9B5340234053403593369A0E9B23
:104C50005340234053403693379A0F9B5340234091
:104C600053403793389A109B534023405340389316
:104C7000399A119B53402340534039933A9A129BDF
:104C80005340234053403A933B9A139B5340234055
:104C900053403B933C9A149B5340234053403C93D6
:104CA0003D9A159B5340234053403D933E9A169B9B
:104CB0005340234053403E933F9A179B5340234019
:104CC00053403F93409A189B534023405340409396
:104CD000419A199B5340234053404193429A1A9B57
:104CE0005340234053404293439A1B9B53402340DD
:104CF00053404393449A1C9B534023405340449356
:104D0000459A1D9B5340234053404593469A1E9B12
:104D10005340234053404693479A1F9B53402340A0
:104D200053404793489A209B534023405340489315
:104D3000499A219B5340234053404993802202AB20
:104D4000A0215B18995802AB9B584B4023404B4025
:104D500002A9A02009188B50043202ABA0215B18D5
:104D6000995802AB9B584B4023404B4002A909186D
:104D70008B50043202ABA0215B18995802AB9B58B0
:104D80004B4023404B4002A909188B50043202AB20
:104D9000A0215B18995802AB9B584B4023404B40D5
:104DA00002A909188B50043202ABA0215B18995854
:104DB00002AB9B584B4023404B4002A909188B5033
:104DC000043202ABA0215B18995802AB9B584B40B0
:104DD00023404B4002A909188B50043202ABA0219A
:104DE0005B18995802AB9B584B4023404B4002A99B
:104DF00009188B509C2302AAA0215218D15802AA4C
:104E0000D25801924A4014404C4002AAA0215218A4
:104E1000D450A0354D4500D0BAE620A948A81E4C74
:104E2000A0470CA92AA8A04702A934A8A04720A8F7
:104E30001A4CA04725A8A0472AAB02A934A80C68A1
:104E40001A686240324062401A608C6A9A6A624014
:104E5000324062409A628C6F9A6F62403240624088
:104E60009A67043304318342E9D151462AA80A4C97
:104E7000A0475146283134A8A047514650313EA89A
:104E8000A0475146783148A8A04752B01CBC904674
:104E90009946A246F0BDC046274B0000713F000076
:104EA000F0B5DE4657464E464546E0B5BFB0040075
:104EB000019192469B4620A9424DA84720002830E8
:104EC0002AA9A8472000503034A9A84727007837DE
:104ED0002300F022D200944663443A4A9146984611
:104EE000544603E06446783747452ED0013CE50F31
:104EF000013D02A93800C847380028300CA9C8472E
:104F00003800503016A9C84720AE02AB9A462AA8EE
:104F100019003200A44613680C6863402B401468E3
:104F200063401360936A8C6A63402B40946A6340C9
:104F30009362136D0C6D63402B40146D63401365D9
:104F4000043204318242E6D1CCE7140016A934A819
:104F50001C4DA8470CA920A8A84702A92AA8A84721
:104F600016A8194DA8471BA8A847524659463068AD
:104F7000136843400B4043403360B06A936A434038
:104F80000B404340B362306D136D43400B404340D0
:104F9000336504360432A642E9D1019D290020A8D8
:104FA000084CA047290028312AA8A04729005031E1
:104FB00034A8A0473FB03CBC90469946A246AB46B9
:104FC000F0BDC046274B0000713F00000023036086
:104FD00043608360C360036143618361C3610362B3
:104FE00043627047F8B504000D001600044FB8473F
:104FF000320014322900143120001430B847F8BDB3
:10500000073F0000F8B504000D001600044FB84734
:10501000320014322900143120001430B847F8BD92
:10502000433F000010B503685B000C681B1B136056
:1050300043685B004C681B1B536083685B008C6893
:105040001B1B9360C3685B00CC681B1BD3600369A8
:105050005B000C691B1B136143695B004C691B1BE4
:10506000536183695B008C691B1B9361C3695B009F
:10507000CC691B1BD361036A5B000C6A1B1B1362A8
:10508000436A5B00496A5B1A536210BD104B0268A9
:105090009A1A026042689A1A426082689A1A82607A
:1050A000C2689A1AC2600B4A0169511A01614169CA
:1050B000591A41618169591A8161C169591AC161DD
:1050C000016A5B1A0362436AD21A42627047C046A1
:1050D000FFFFFF03FFFF7F00F0B5C64600B5046881
:1050E000012398461A002240524291094368CE1883
:1050F0008368CD18C368CF18520A03699C4662447E
:10510000641864107306802189040B409C46644433
:1051100004606C060C407610A61946607C060C40B4
:105120006D106519856054060C407F10E719C76043
:10513000521002614269434613405B429F098469F1
:105140003E19C4693D19046A3C195B0A9846436AD2
:105150009C4643466344D219521077060F40D21939
:1051600042616A060A4076109619866162060A4014
:105170006D105519C5615A06114064100C1904626E
:105180005B10436204BC9046F0BD000070B50400A3
:105190000D00044EB0472900143120001430B047F0
:1051A00070BDC0460D44000070B504000D00044EF3
:1051B000B0472900143120001430B04770BDC046FC
:1051C00075440000F0B597B006000D00019211ABD8
:1051D0001A00164CA04714239C46B44463462F0083
:1051E00014370CA90A00390000936046A04707A8AD
:1051F0000200009930000E4EB04702AA3900280084
:10520000B047019E32000CA911A80A4DA84707AA71
:1052100002A91000A04707AA11A91000A847320050
:1052200014320CA907A8A84717B0F0BD9D3F000095
:10523000073F0000433F0000F0B591B005000C00AF
:10524000060014360BAA31000B4FB84706AA3100EE
:1052500028000A4B984701AA31002800084DA847AA
:10526000220006A90BA8A8472200143201A90800B1
:10527000B84711B0F0BDC046073F0000433F0000F3
:105280009D3F000070B58AB0050005A90E4EB047DD
:105290002C00143469462000B04705AA6946100066
:1052A0000A4B984705A80A4B98472000094B984796
:1052B0002A0005A92800084DA847220005A92000BA
:1052C000A8470AB070BDC04631420000073F000049
:1052D00039460000713F00009D3F0000002906D0C4
:1052E000030089004018002204C38342FCD17047A8
:1052F000F0B583B004000D000700503738000D4BA7
:1053000098472A00390020000B4EB04728239C46BE
:10531000AC44634620002830019362463900B04710
:1053200029002800054CA04701980100A04703B0C0
:10533000F0BDC04685520000C5510000A9510000D3
:10534000F0B585B005000C00783078239C468C447D
:105350006346019362460100204EB0472A008C321A
:10536000100022008C320100B0472F0028372200A5
:1053700039002800B04714229446AC4463463C22CE
:105380009446AC4461462200143203910293180003
:10539000B0472200283229003800114FB8472200B8
:1053A0003C3202990398B8472900A03101980200C5
:1053B0000C4FB8472A005032100022005032010032
:1053C000B04764352800220064322900B0470198B4
:1053D00002000549B84705B0F0BDC046073F0000D0
:1053E000433F0000C551000008AC0000F0B583B099
:1053F00004000D00070028370A003900154EB04799
:1054000014239C46A44463463C229446A44461462B
:105410002A001432019100931800B0472A00283264
:10542000210038000C4FB8472A003C3200990198FF
:10543000B8472A0078322100A03120007830074B8D
:1054400098472900503120005030054B984703B051
:10545000F0BDC046073F0000433F0000C5510000BB
:10546000274B0000F0B583B006000D000700283779
:105470000A003900154CA04714239C46B4446346E7
:105480003C229446B44461462A00143201910093B0
:105490001800A0472C0028342200390030000C4F9F
:1054A000B8472A003C3201990098B847290050318A
:1054B00030005030074B984729002800064DA84778
:1054C00021002000A84703B0F0BDC046433F0000C4
:1054D000073F0000274B00008D510000F0B599B048
:1054E00007000EA92F4EB04728239C46BC446346B4
:1054F000644604A91800B0473A000094210038001F
:10550000294CA0473800143039003C310200A04734
:10551000A0239C46BC4463460193624604A90EA89E
:10552000A047B4218C46BC4461460391624609A859
:10553000010013A8A0470EAA110004A81B4DA847FC
:1055400013AA110009A8A84750208446BC4460460D
:1055500004A90290B0473C00783421003800B047DD
:1055600004AA0EAE31001000114B98472200019E94
:1055700031002000A8473B008C3318001A00039923
:10558000A847009A31000EAB18000A4DA8473A0010
:10559000210004A8A847029A04A90EA8A84719B098
:1055A000F0BDC04639520000073F0000433F0000F5
:1055B00025500000C5510000F0B59BB006000F005B
:1055C000150050239C46944463467831783001930B
:1055D00062462F4CA047390050313000503010AA9D
:1055E000A0472A0039003000A04728229446AC4446
:1055F000624639002831300028300292A04706AABE
:10560000019F390010A8234EB04764239C46AC4448
:1056100063460BAA0393614615A8B04710A8020081
:10562000019739001C4FB84715A802000399B847E5
:10563000A0239C46AC44634603936246029928002B
:10564000B04714218C46AC4460463C218C46AC44A7
:1056500061462A00B43205910490B0472E00783696
:10566000320002992800B8472A008C320599049824
:10567000B8472A0006A90398A047019A06A910A8CE
:10568000A047029A10A93000A0471BB0F0BDC04649
:10569000C5510000433F0000073F0000F0B5DE4663
:1056A00000B5AEB007000D0028239C468C4463462D
:1056B000664610AA18003A4CA0473C239C46AC44CE
:1056C000634614229446AC44614615AA02910193A4
:1056D0001800A0471AAA290003963000314EB3469D
:1056E000B0471FAA02990198B04778208446AC447D
:1056F0006046A0229446AC44614624AA05910490D9
:10570000294EB04750239C46AC4463463800503085
:1057100006AA00936146B04738007830009A24A961
:10572000B0472A0010A93800B04728373800039A3C
:105730001AA9B04724AA009906A8D8472F006437B1
:1057400029AA39000BA8D84706AA00991000A0473B
:105750000BAA39001000A047059A039F39002800C2
:10576000D8472A00B43201990298D847049A3900E0
:105770002800A0472A008C3201990298A0472A00ED
:1057800024A90598B047009A24A906A8B0473A0072
:1057900006A90498B0472EB004BC9346F0BDC0469D
:1057A000073F0000433F0000C5510000F8B5050069
:1057B0000C000C4FB8472600283628002030310056
:1057C000B847210078312000074DA8472100A031BB
:1057D0003000A84720005030044B98470123236530
:1057E000F8BDC04681470000274B0000CD4F0000A8
:1057F00030B59FB00500283014A9214CA0470AA954
:105800002800A0476A460AA914A81E4CA04705AA6A
:105810000FA919A8A04714AA0AA910001A4DA84751
:105820000AAA14A91948A84714A8194B9847012394
:1058300014930AAA14A91000164DA8470FAA19A973
:105840001000A84714AA0AA96846A04719AA0FA9D8
:1058500005A8A04714A908000F4B9847149B002BDC
:105860000AD114AB1CAA5968002907D1043393420A
:10587000F9D101201FB030BD0020FBE70020F9E77F
:1058800039520000433F0000C551000008AC000041
:10589000CD4F0000073F0000A9510000F0B5DE46E3
:1058A00057464E464546E0B587B005008B46002278
:1058B000C423CA5004900400183403005A68D00767
:1058C00019684908014352089868C00719604240A6
:1058D0005A600833A342F1D19946EA69D107AB690E
:1058E0005B080B43AB615208EA615946C4235B4431
:1058F000984601239C460096019748460AE0EF69C6
:10590000FB07AA6952081A43AA617B08EB610431BC
:10591000414514D02B6862461340013B0B60049C48
:105920006368DE072268520832435B08A668F60700
:1059300022607340636008348442F1D1DFE7009E47
:10594000019FC8235B449846322320229146A944F4
:10595000A246444698465B46059307E081460123EC
:105960009C46E04404344346FA2B56D0A346012318
:105970002A681340236004990096019757464B68A4
:10598000D8070A68520802435B088868C0070A60A3
:1059900043404B600831B942F1D1BA46EA69D107B8
:1059A000AB695B080B43AB615208EA6132214046A8
:1059B0001D4B98478900059BCB585B425A4610689F
:1059C00018408446029000230393029A039B2868A0
:1059D000696812184B4129000CC10092019353428F
:1059E000009A1343DB0F0122534060461840060023
:1059F000002748460A684B6892197B410CC1009207
:105A000001935342009A1343DB0F0122534033406A
:105A10001E0000278142EDD1A0E707B03CBC9046B4
:105A20009946A246AB46F0BD956C0000F0B5DE4647
:105A300057464E464546E0B5CE4CA5440500039179
:105A400085ACCD4A00212000CC4B98477DA9280089
:105A5000CB4B98477DA90800CA4B984785A97DA8DC
:105A6000C94B9847F9239B00E2585200C83BE358C2
:105A7000D218520095239B00E358D2185200C42339
:105A8000E358C621490061585218C04CF021490121
:105A9000601819A9BE4DA84737AA23A919A8BD4D5A
:105AA000A8473CAA28A91EA8A84741AA23A919A823
:105AB000B94DA84746AA28A91EA8A8474BA8B74B86
:105AC000984701234B9337A8B54DA84741A8A8474D
:105AD00055A937A8B34DA8475FA941A8A847B42343
