:10000000A8320020251700001D1700001D17000052
:1000100000000000000000000000000000000000E0
:100020000000000000000000000000001D1700009C
:1000300000000000000000001D1700001D17000058
:100040001D1700001D1700001D1700001D170000E0
:100050001D1700001D1700001D1700001D170000D0
:100060001D170000190A0000290A0000390A0000C3
:10007000490A0000590A0000690A0000A94A000064
:100080001D1700001D1700001D1700001D170000A0
:100090001D1700001D1700001D1700001D17000090
:1000A0001D1700001D1700001D1700001D17000080
:1000B0001D1700001D1700001D17000010B5064C8D
:1000C0002378002B07D1054B002B02D0044800E019
:1000D00000BF0123237010BDD802002000000000E3
:1000E0001CAF0000084B10B5002B03D0074908488F
:1000F00000E000BF07480368002B00D110BD064B8D
:10010000002BFBD09847F9E700000000DC0200203C
:100110001CAF00001CAF0000000000000C4B1B686F
:10012000002B06D1EFF31083002B07D00022094BE0
:100130001A70074A136801331360704772B6BFF331
:100140005F8F0022044B1A700132024B1A70F0E7E5
:10015000F4020020F802002000000020084B1A687A
:10016000013A1A601B68002B09D1064B1B78002B43
:1001700005D00122044B1A70BFF35F8F62B670473F
:10018000F4020020F802002000000020F0B583B047
:1001900001AC012565700027A770257021000F2094
:1001A000064EB047802212028223DB059A61277037
:1001B000657021001C20B04703B0F0BD0D060000A3
:1001C00003680A4A934203D0094A934207D0704712
:1001D000084A116980235B000B431361F7E7054A66
:1001E000116980239B000B431361F0E7001C004260
:1001F000002000420008004070B50C0015000160AE
:10020000A54B9847A54B00221A702A781A70A44B68
:100210009C4200D1C6E0A34B9C4200D1FFE0A36901
:1002200002221343A3610023BC22A3500C32A3502B
:100230009D4BE3619D4BE360AB7B002B04D0E268F8
:1002400080231B041343E3606B78002B03D0A36867
:1002500040221343A3606269AB7813436361EB7878
:10026000002B04D0A2698023DB011343A3612B7907
:10027000002B04D0A26980239B011343A3616B79F7
:10028000002B04D0A26980235B011343A361AB79E7
:10029000002B03D1A36940221343A361EB79002B08
:1002A00003D0A36910221343A3612B7A002B03D040
:1002B000A36908221343A3616B7A1B04F022120383
:1002C00013400122134323622B7B6A7B13436A8909
:1002D00012041343A362EB7B1B02FE22D2011340E4
:1002E000297C7F220A401343A3646A7C12013023D5
:1002F0001340A97C89000C220A4013438022A3509A
:10030000EB7C002B03D0A35802210B43A3502B7D81
:10031000002B04D08022A35801210B43A35090232B
:10032000AA69E2502B7F002B05D0A022A158802380
:100330001B060B43A350A022A1586B7F1B06FE2077
:10034000C00503400B43A350AB7F002B05D01032F8
:10035000A15880231B060B43A350B022A158EB7F6A
:100360001B06FE20C00503400B43A3502023EB5C7B
:10037000002B05D01032A1588023DB050B43A3507E
:10038000F022A1582123EB5C1B06FC2080050340D2
:100390000B43A3500323E365043B103AA3500432FC
:1003A000A35070BD3D491A20414B98471A20414B3C
:1003B00098473B4B9A6902210A439A613E4A1204CC
:1003C000120C802189030A4384215A503B4A1204AB
:1003D000120C802149030A4388201A50384A12041B
:1003E000120C0A4318301A50364A1204120C1143E8
:1003F000B0229950344A1204120CAC215A50334A9C
:100400001204120C32490A43C0215A50314A1204D4
:10041000120C802109030A43F0215A5003E71F49B7
:100420001B20234B98471B20224B98471D4B9A6952
:1004300002210A439A61284A1204120C802189037E
:100440000A4384215A50254A1204120C8021490380
:100450000A4388201A50224A1204120C0A43183008
:100460001A50204A1204120C1143B02299501E4A0D
:100470001204120CAC215A501C4A1204120C1449DA
:100480000A43C0215A501A4A1204120C802109034F
:100490000A43F0215A50C6E6C1010000180D0020A1
:1004A000001C004200200042030A0506330A050032
:1004B000C5150000551500007C060020FC03002037
:1004C0007C0400207C050020FC020020FC060020AB
:1004D000000004047C0700203C0B0020BC08002026
:1004E0003C0900203C0A0020BC070020BC0B002077
:1004F0003C0C00200268936901218B4393610168E1
:1005000001228B691A42FCD17047000010B50368C4
:100510000948834204D0094C1720A34206D010BDDD
:1005200009689200064BD1500020F8E70968920054
:10053000044BD1500020F2E7001C00420020004292
:100540007C0600203C0B002070B50D0003680D4CAC
:10055000A34204D00C4C1720A34209D070BD120155
:100560000A49891810222800094B98470020F5E70E
:1005700012010849891810222800054B98470020CD
:10058000ECE7C046001C004200200042FC020020B4
:10059000C95E0000BC07002010B5036817488342FD
:1005A00004D0174C1720A34214D010BD0B68154877
:1005B000120113504C6883185C600B00083308323A
:1005C0008218103118781070013301328B42F9D142
:1005D0000020EAE70B680C48120113504C6883189E
:1005E0005C600B00083308328218103118781070E4
:1005F000013301328B42F9D10020D6E7001C0042C2
:1006000000200042FC060020BC0B002000B583B097
:1006100001AB80221A700A785A704A789A708A78E8
:10062000DA701900014B984703B000BDC1160000F5
:10063000F0B5DE4657464E464546E0B587B08046A3
:10064000049116001F000022002300218B463F2446
:1006500001202100009601975C46039444460594CE
:1006600013E02024641A0500E540A84614E0009C2D
:10067000019D121BAB415C464D462C43A346039C97
:1006800045462C430394013925D3202464420C1998
:10069000E7D40500A540A84604008C40A146921866
:1006A0005B4114001D00059E4F463E40B446049E2B
:1006B00047463E40B246664657463E4303D0060094
:1006C000264332002B00009C019D9D42DBD8CED1F9
:1006D0009442D8D8CBE7039B5846190007B03CBCDE
:1006E00090469946A246AB46F0BD10B54908402356
:1006F0000024814202D2180010BD1C00091A631C9C
:100700009BB28842F9D94023FF2CF4D814800023EF
:10071000F1E70000F0B583B00F00160008AA1178C9
:1007200004004C434022BC4202D9100003B0F0BD8B
:10073000002B14D1020008000021194CA047010031
:100740003A0000230020174CA04700220123121A70
:100750008B41120C1B041A4332800022E5E7002271
:10076000012BF9D10A00002300210D4CA047020003
:100770000B0000920193380000210A4CA0470500AD
:1007800080239B0140229842CFD8790FF800009A2D
:10079000019BA047EA00821AD2B252032A43DBE748
:1007A000195E00003106000010B582B004000E4B47
:1007B0001B78002B07D0002905D10B4B5B788342B7
:1007C00010D01D200CE001A90C701220074B984797
:1007D0001220074B9847044B5C7001221A700020CE
:1007E00002B010BD0020FBE77C0C0020C515000006
:1007F00055150000404B984231D00AD93F4B9842E2
:100800004DD03F4B98425AD03E4B984237D00020B3
:1008100070473D4B98420CD03C4B9842F7D1012990
:1008200017D000295DD0022915D0032915D000204A
:10083000EEE7012907D0002951D0022905D003296C
:1008400005D00020E4E73248E2E73248E0E73248EA
:10085000DEE73248DCE73248DAE73248D8E70129F8
:1008600007D000293FD0022905D0032905D0002058
:10087000CEE72D48CCE72D48CAE72D48C8E7012927
:1008800007D0002931D0022905D0032905D0002046
:10089000BEE72848BCE72848BAE72848B8E7012956
:1008A00007D0002923D0022905D0032905D0002034
:1008B000AEE72348ACE72348AAE72348A8E7012985
:1008C00007D0002915D0022905D0032905D0002022
:1008D0009EE71E489CE71E489AE71E4898E71E4878
:1008E00096E71E4894E71E4892E71E4890E71E4888
:1008F0008EE71E488CE7C046000C00420014004200
:1009000000180042001000420004004200080042AB
:1009100003000500030006000300070002001100A9
:10092000020012000200130002000D0002000E007F
:1009300002000F0002001700020018000200190058
:100940000300290003002A0003002B0003002300FA
:100950000300200003002100030004000200100037
:1009600002000C0002001600030028000300220011
:1009700030B587B00B4B6A4632CB32C232CB32C273
:10098000009B83420BD001239A0069465258824251
:1009900006D00133062BF7D1002007B030BD00236D
:1009A000D8B2FAE7807C000070470000F0B50A4B2F
:1009B0001B78002B0CD1094F094E0A4D0024DE5143
:1009C0005A1914600433182BF9D10122024B1A7002
:1009D0008000024BC150F0BD7E0C0020800C002036
:1009E000A90900001C0D002000B583B009236A4648
:1009F000137001335370013393700133D37001339B
:100A0000137101335371034B98476B46185603B06B
:100A100000BDC0467109000010B5024B1B680020E4
:100A2000984710BD800C002010B5024B5B68012078
:100A3000984710BD800C002010B5024B9B68022027
:100A4000984710BD800C002010B5024BDB680320D6
:100A5000984710BD800C002010B5024B1B69042084
:100A6000984710BD800C002010B5024B5B69052033
:100A7000984710BD800C0020F0B5DE4657464E4624
:100A80004546E0B591B005000C001600296008004D
:100A9000D24B984705280DD007001337226805234D
:100AA000D20709D5180011B03CBC90469946A24621
:100AB000AB46F0BD1927F1E7226817339207F1D44E
:100AC000C74AD16901301B3B83400B43D3610FA957
:100AD00035239846F35C0B70FFB23800C14B984742
:100AE0003800C14B98474346F05C0021BF4B984704
:100AF000F37A6B712C23F35CAB712D23F35CEB71F8
:100B0000F37E2B722423F35C6B722B680293180024
:100B1000B24B984705281DD0133000220E2306A99A
:100B20008C4663441A80338A98468023DB019845BB
:100B300000D1C3E010D9C023DB01984500D1B8E053
:100B400080231B02984500D066E10323069300230F
:100B500007930AE01920E0E780239B01984500D025
:100B60005AE1102306930F3B079333680593F3680C
:100B70009B4673690393337E04932E23F35C9A465A
:100B800073689946002B00D1C5E080235B05994529
:100B900000D1A8E0737E002B02D0B37E029A93733B
:100BA0000E2306AA944663441B88029A9381059AF1
:100BB0005B461A43039B1A434B461A4343461A4368
:100BC000049B1B021A4353465B071A432F23F35C13
:100BD000002B01D104331A43737E9B022421715CE4
:100BE00049020B432621715C09020B432C21715CE5
:100BF00049040B432D21715C09040B43B07AF17A4F
:100C0000084318433389FF2B00D1AAE0802149040F
:100C10000A43184302998B689C46338C718C0B43B2
:100C20001F000721634619403B000B4302998B606C
:100C3000F369002B02D06E490A401A433423F35C57
:100C4000002B03D16B4B9B789B0701D580231A4364
:100C50002968029FCB69002BFCD178602968CB6999
:100C6000002BFCD13A603B68F02212051340E022D1
:100C7000D20493420AD0BB6807229343BB60BA6890
:100C80002523F15C1E3B0B401343BB600EAB80225F
:100C90001A7000225A70DA709A70B36B0A93F36B71
:100CA0000B93336C0C93736C02930D9300270AAE75
:100CB00066E008230693073B079356E733680593DE
:100CC000F3689B4673690393337E04932E23F35C8E
:100CD0009A4673689946002B19D080235B05994585
:100CE00001D0002327E02F23F35C002B00D051E735
:100CF000B36A1F00C0B2404B984701000E2206ABFA
:100D00009C46624438003D4B9847030013E008239B
:100D10000693002307932F23F35C002B0FD0069B31
:100D20000093079B0E2206A98C466244316BB06A81
:100D3000334FB8470300002B00D0B3E62AE7B36A6D
:100D40001F00C0B22C4B98470100069B0093079BE5
:100D50000E2206A8844662443800294FB847030093
:100D6000E9E7F37E002B00D154E78023DB041A432C
:100D700050E72000234B984707E00137042F0DD0A0
:100D8000F9B2BB0098590028F3D0431CF5D00EA946
:100D90000870000CC0B21C4B9847EEE70023EB60D4
:100DA0002B616B61AB61EB612B62AB626B6200220A
:100DB000EB85AB853033EA540133EA540133EA540E
:100DC0000133EA542868054B984704000F49104B3B
:100DD0009847A4000F4BE550002363E6710900001B
:100DE00000080040C515000055150000A9070000C7
:100DF000FFFFFFF000200041E9150000EB060000B6
:100E000015070000F5070000C1160000B50E000030
:100E1000AD0900001C0D002010230693002307934A
:100E2000A3E6C046C2791C23002A01D118007047EE
:100E3000C28D92B2173B002AF8D1026811850221B7
:100E4000137E0B42FCD00023F0E782791C23002A9A
:100E500001D118007047828D92B2173B002AF8D159
:100E60000268107E4007F4D5538BDBB258061DD0C4
:100E7000980703D5022353831833EAE7580703D5AD
:100E8000042353831A33E4E7D80703D5012353839C
:100E90001233DEE7D80603D5102353833233D8E765
:100EA0009B0603D5202353832133D2E7138D0B8078
:100EB0000023CEE7F8B58000644BC5582C68E36981
:100EC000002BFCD1237EA67D1E403023EB5C31221B
:100ED000AF5C1F40F30722D5EB8D9BB2002B1CD0DB
:100EE000AA6A1378DBB2511CA962697901290ED074
:100EF0009BB2DB05DB0D2385EB8D013B9BB2EB85C4
:100F0000002B0CD1013323750133A37507E0517811
:100F100009020B430232AA62EBE701232375B307F0
:100F200006D50223237500223133EA54FB071ED471
:100F3000730768D5AB8D9BB2002B62D0638BDBB29D
:100F40001A0718D47F2213405A0601D54022934332
:100F5000002B33D09A0711D51A223223EA54303BA2
:100F600063837B074FD528006B6998474BE02800C7
:100F7000EB689847DCE777221340E5E75A0705D589
:100F80001E223223EA542E3B6383EAE7DA0705D5B3
:100F900013223223EA54313B6383E2E7DA0605D5B4
:100FA00042223223EA54223B6383DAE79B06D8D5F8
:100FB00041223223EA54123B6383D2E7238DDB05BF
:100FC000DB0DDAB2696A0A706A6A511C6962697972
:100FD000012910D0AB8D013B9BB2AB85002B12D108
:100FE0000433237500222E33EA54BB070BD52800A7
:100FF0002B69984707E01B0A53706B6A01336B62D9
:10100000E8E704232375F30604D51023237523761C
:10101000FB060ED4B30604D52023237523763B07A5
:101020000BD4330704D5082323752376BB0608D4D5
:10103000F8BD2800EB699847ECE72800AB699847B2
:10104000EFE72B6A28009847F2E7C0461C0D002006
:1010500010B5072803D880000F4B1B589F4600206F
:1010600018E00E4B586815E00D4B597D0907090F24
:1010700001310C480C4B98470CE0084B986809E08C
:10108000074B1B7F00209B0704D5044B186801E029
:101090008020000210BDC046987C0000980C002003
:1010A00000100040006CDC022D5B0000F0B5DE4655
:1010B00057464E464546E0B5254A938A457801781D
:1010C0004C424C41A14681788C46C1788846467A8C
:1010D000077A817A8B461F4944688C60C17A8900FF
:1010E000847B64002143447B2143C9B29175017B19
:1010F000D1750121484680000424A34303434046A0
:101100000840C0000434A343034360460840000184
:101110000834A34303430F40BF01402083433B43B4
:101120000E40F601403083433343793805402D02A9
:10113000094803402B435846014009030748034030
:101140000B4393823CBC90469946A246AB46F0BD09
:1011500000140040980C0020FFF8FFFFFFEFFFFF96
:10116000F8B50400C568037D012B4DD0A3681801B4
:101170002900294B98470F22024003092178C90111
:101180006678B6013143C9B2244E31771104013B70
:101190001B051B0D0B43336237002C260421BB5D5E
:1011A0000B42FCD1A3781B03E178C9000B432179E2
:1011B00089000B43A17C032631400B43218A09049B
:1011C000174F39400B43E17C0902E027FF0039400B
:1011D0000B43277D3F01302139400B430F494B62C0
:1011E000637D1E402823CE540F002C260821BB5DB2
:1011F0000B42FCD10F23984382186A43637D04336A
:10120000DA40084B1A60F8BD018A01314900280014
:10121000014B98470500A9E72D5B00000010004036
:101220000000FF07980C0020072803D88000184B07
:101230001B589F46172029E0164A137D02210B43B5
:101240001375002022E0144A936902210B43936135
:1012500000201BE00F4A138A02210B431382002057
:1012600014E00D4A938A02210B43938200200DE083
:10127000084A137F02210B43137710002A31022200
:10128000435C1342FCD1002000E000207047C046C0
:10129000B87C00000010004000140040F0B5C646C5
:1012A00000B58EB003223F4B9A603F4A53681E211F
:1012B0008B4318390B4353600AA800230370802224
:1012C0001202426083700122C2708372C372037380
:1012D000437383730239417043720272334B9847F0
:1012E0000520334B984733490122CB681A42FCD082
:1012F000314B1A7D80210A431A7502225A751A0051
:101300009369002BFCD12D4B984701AD0126029625
:1013100000246C706C7205232B702E722900012042
:10132000274B984698470120264FB8476E606C704F
:101330002C726C7207232B7029000820C0470820EC
:10134000B84704A88470C47004711F4B8360068280
:101350004475C474847404700123437004751B4B7A
:10136000C3601B4B98470720114B98471248302108
:101370000322435C1340032BFBD1023B154A13713C
:1013800001A94B6000224A704A7207320A700B7240
:1013900000200B4B984700200A4B98470EB004BC26
:1013A0009046F0BD0018004000400041AD10000024
:1013B000291200000014004000100040D913000062
:1013C000FD130000A9140000006CDC02FF7F000088
:1013D0006111000000080040064A536980210B4358
:1013E00053610122044B1A7019000B781342FCD18F
:1013F0007047C04600080040001C004070B5040063
:101400000D784B78002B02D08023DB001D434B7AF4
:10141000002B02D080231B011D43486801280FD9EF
:10142000431E184231D102282DD902230022013255
:101430005B009842FBD880235B011D4312041543D7
:101440000B7A002B02D080239B011D430426A6406B
:101450001149124A4B6813401E42FBD1104B98476A
:10146000A4000D4B9C466444226A80235B001A4012
:101470002A4322626146094A4B6813401E42FBD14F
:10148000084B984770BD0022D5E7000480239B00DD
:1014900018430543D4E7C046001C0040FC07000089
:1014A0001D0100005D01000010B50400042282400F
:1014B00009480A4943680B401A42FBD1084B984738
:1014C000A400054B9C466444226A80235B001343BE
:1014D0002362044B984710BD001C0040FC0700002D
:1014E0001D0100005D010000F8B5040004228240E7
:1014F0001248134943680B401A42FBD1114B9847DD
:101500000E4F0834A400E0594007400F0E4B984797
:101510000600E559ED04ED0FE459240C0B4B9847F8
:10152000002D07D1012C07D921003000084B984726
:10153000060001E00134E6403000F8BD001C004028
:10154000FC0700001D010000511000005D010000BB
:101550002D5B000010B50400094B9847A000094B13
:101560009C4660448022835840210B438350403185
:10157000403A43581A42FCD0034B984710BDC0462E
:101580001D010000001C00405D01000010B50400BA
:10159000094B9847A000094B9C4660448022835821
:1015A00040218B4383504031403A43581A42FCD18A
:1015B000034B984710BDC0461D010000001C0040B1
:1015C0005D01000070B504000D00054B98472A78B6
:1015D0000F2313402034A400024AA35070BDC0461C
:1015E0008D150000001C004010B50400064B984704
:1015F0002034A400054BE4582407240F044B9847DB
:101600002000044B984710BD1D010000001C004045
:101610005D010000E914000030B5D378002B35D10E
:101620001378802B29D01B0680246402234354782E
:101630000225AC4306D19478002C20D18024A4024A
:10164000234341605478013C012C1CD90D042D0C1E
:10165000A024E4052C431C4384620D0CD0242406F2
:101660002C431C438462D478002C22D15B031CD50C
:101670009378012B1ED0416117E00023D7E7C024E7
:10168000E4022343DDE70D4C2340DFE741600C0417
:10169000240CA023DB05234383620C0CD0231B0600
:1016A00023438362D378002B03D15378013B012B72
:1016B00002D930BD8161F8E78160FAE7FFFFFBFFE7
:1016C00010B50A00C1090023002905D14309DB0137
:1016D0008221C9058C4663441F242040012181409A
:1016E0001800014B984710BD191600007047000004
:1016F00010B5054B9847054B9847054B9847054B48
:101700009847054B984710BD9D1200008D010000C1
:10171000ED160000ED160000ED160000EFF3058356
:10172000FCE7000010B5174A174B9A4211D01A0077
:10173000164B9A420DD2164A03339B1A9B0801336B
:101740009B00002210480F498C58845004329A4262
:10175000FAD1104A104B9A420AD2D3430E495B1871
:1017600003218B4304339B18002102C29342FCD116
:101770000A4AFF210A4B8B4393600A4B98470A4B56
:101780009847FEE71CAF000000000020D8020020B0
:1017900004000020D8020020A412002000ED00E088
:1017A000000000006D5E000005520000F0B5C64666
:1017B00000B50C00904600280FD1002A11DD8F18CB
:1017C000094E0A4D306821002B6898470134BC420D
:1017D000F8D1404604BC9046F0BD01235B429846D8
:1017E000F7E78046F5E7C0463C0D0020340D0020A9
:1017F000F0B5C64600B50E0015000138022810D815
:10180000002A11D000240C4B98460C4F4346186810
:10181000315D3B689847002808DB0134A542F5D1CB
:1018200006E00124644203E0140001E00124644264
:10183000200004BC9046F0BD3C0D0020380D002077
:101840000300064A1268002A04D0044A1068C3182C
:10185000136070470249014A1160F6E7A40C0020AA
:10186000A832002001204042704780239B014B603A
:1018700000207047012070470020704710B5040019
:1018800001000648064B984706486043002803D0ED
:10189000002301338342FCD110BDC046D87C000038
:1018A0006160000010270000F0B5DE4657464E4646
:1018B0004546E0B58FB0824600911700189DDC4880
:1018C000DC4B9847DC48DD4B984704ABDC1C21001F
:1018D000DB48DC4B98472378682B0FD0DA4B9946CE
:1018E000D44B9846D64E4846C04704ABDC1C21007A
:1018F0003000D44B98472378682BF4D1D348CD4B94
:1019000098470022D24B1A705346002B0BDB009EE7
:101910000024D04B9846202200213000C0470134DB
:101920002036A245F7DA05A90023059388231B0476
:101930004B60059AC84B134305934B68C74A1A403E
:1019400080235B0213434B6001230B7201222800AA
:10195000C34B98472B689A69920702D40221D02280
:1019600099502968D822022388580342FCD0BD48E8
:10197000B04CA0471022FF21009E3000B54B984785
:1019800031003000B84B98470600B848A047012EF8
:1019900003D0B748A74B9847FEE7B648A54B9847F2
:1019A000FA204000B44B98470023059388231B047A
:1019B0000693059A8023DB0413430593069BA74AED
:1019C0001A4080231B0313430693009B1C0018221C
:1019D000944663449B46A94B9946A14B98460226E0
:1019E00005E03220A44B984708345C4513D0082208
:1019F000210007A8C847012205A92800C0472B6875
:101A00009A69164201D1D0229E502A68D823D15813
:101A10000E42FCD0E5E79A4B0993099B994A1A407C
:101A2000994B13430993099BDB0ADB020222134300
:101A30000993099AE0239B0513430993FA20400078
:101A40008D4B98475346002B00DC3CE1009B203334
:101A50000193103702978D4B03930123994601336D
:101A600098460AAEAB46ACE05B461968D8228B5864
:101A700040461842FBD0864B00221A60804B0993E7
:101A8000099B039A12047F490B4013430993099B56
:101A9000DB0ADB0203430993099AE0239B05134306
:101AA0000993424609A958467A4B98475B461A68FB
:101AB000516D80231B030B435365754A1368002B3C
:101AC000FCD0754A8923D35C8821525C9A4200D1AC
:101AD000A5E07149581C0322024089200A541B01C9
:101AE0008C335B180833320003CB03C2424609A98A
:101AF0005846684B984769484E4B9847644A136864
:101B0000012BFCD0624B00221A60634A8923D35C0C
:101B10008821525C9A4200D183E05F49581C03221D
:101B2000024089200A541B018C335B180CAA08332D
:101B300003CB03C25A48414B98470025594C3F4FAD
:101B4000A95D2000B8470135102DF9D15648394B11
:101B5000984710223100019C2000484B9847029A78
:101B600010213000514B9847210020003E4B9847F0
:101B7000012858D149464E48304B9847019C2500D2
:101B800010352E4F21784748B8470134AC42F9D17F
:101B90004548284B984749464648284B98474B4666
:101BA00001331A009946019B20330193029B1033A5
:101BB0000293039B01335B055B0D0393924500DAAF
:101BC00080E049463C481D4B9847002305938823F5
:101BD0001B040693059A4B460133FF339B04374998
:101BE0000B4013430593069B1C4A1A4080231B039A
:101BF0001343069300991831082207A81F4B9847F2
:101C0000012205A95846164B98475B461B689A69FE
:101C10004146114200D027E7D022995024E7002303
:101C200060E7002382E749462548044B9847FEE7D2
:101C3000E87C000055610000187D00006160000034
:101C4000447D00008D610000487D00005C7D000047
:101C5000A80C0020FF5E000000004410FFFFF0FF12
:101C600099050000A87D000039430000C07D0000F8
:101C7000EC7D0000207E00007D180000C95E0000A1
:101C8000FF070088FFFF00F80000010301020000C9
:101C9000AC0C00200D050000400D0020447E00002B
:101CA000507E00000CA6000044AB00004946000036
:101CB000987E0000B47E0000307E00000000FC1F13
:101CC000647E00005D46099B194A13400993022275
:101CD00009A92800174B984705A9002305938823D5
:101CE0001B044B60059A144B134305934B68134A2E
:101CF0001A4080235B0213434B6001230B720122C5
:101D000028000F4B98472B689A69920702D402214A
:101D1000D02299502968D822022388580342FCD047
:101D200001200FB03CBC90469946A246AB46F0BDA0
:101D3000FFFFFFC70D05000000004410FFFFF0FF8C
:101D40009905000010B50268012906D9031D890014
:101D5000401810CB22438342FBD150421043C00FA6
:101D60000138404210BD0000F8B505000E00C769FB
:101D7000C46801002031202230000B4B9847042119
:101D800028000A4B9847002806D16400E40FE407B6
:101D9000F3691C43F461F8BD7F00FF0FFF07F3698F
:101DA0001F43F761F7E7C046DB5E0000451D0000FA
:101DB000F0B5C64600B5874CA54404000F002822A4
:101DC000002149A8844B9847012349931F339C461F
:101DD000BC446346654601932022210018007F4BD6
:101DE0009847E37FDB099846FB6B5B005B08FB636E
:101DF0000DA928007A4B98475DA90DA8794B984703
:101E000053AA79495DA8794B98475DAA49A9100062
:101E1000774B984753AA49A91000764B98477BA95E
:101E200053A8754CA04776A958A8A0477BAA76A9C5
:101E30001000724EB04776AA53A95DA8704DA8470E
:101E400071AA58A962A8A84776AA71A91000B0473C
:101E500071AA53A962A8A8476CAA58A95DA8A84767
:101E600071AA6CA91000674B98476CA976A8A04787
:101E700067A971A8A0476CAA67A91000B0477D2484
:101E80005D4D6CA90800A847013C002CF9D180AA3F
:101E90006CA976A8594B984780A908005A4B9847D7
:101EA000052180A8594B9847002800D073E080AAEC
:101EB00011001000514B98476CA97BA84E4DA847C4
:101EC0006CAA11007BA84E4CA0476CAA110080A8F8
:101ED000A04785A96CA84E4B98476CAA85A97BA8FA
:101EE000A04703AA6CA980A8A04776A903A8A84781
:101EF00076AA11007BA8A04703A8464B984708AADA
:101F00006CA971A8A04780AA76A910003D4B9847FC
:101F100080A908003C4B9847052180A83B4B984777
:101F200000283ED003A908003B4B9847052103A891
:101F3000364B9847002849D00C9B9B0D434502D057
:101F400003A8364B984717A903A8334CA04721A9EB
:101F50000DA8A04717A8324B9847002808D11CA805
:101F6000304B984717A82E4B9847002300280BD0DA
:101F700017A90800284B9847390017A82A4CA047F2
:101F8000019921A8A047012318008A239B009D44A2
:101F900004BC9046F0BD80AA6CA976A8194B98475E
:101FA00085E77BAB03AA190031CA31C111CA11C13F
:101FB00003AC08AA2100100070C870C130C830C13D
:101FC00013CB13C2110005CB05C1ABE7079B9B0DDB
:101FD000B4E7C046D8FDFFFFFF5E0000DB5E0000F7
:101FE000F9280000B1330000D47E00003D3300002A
:101FF0007D3100005D310000A92300007F2000003A
:1020000015210000BB200000ED250000451D00004B
:102010007D2600004D2C0000213300000532000019
:1020200069390000E92000008129000070B503042F
:102030001B0C000C0C04240C090C25005D434B43C5
:1020400044434143280C2604360C80191E04360CE8
:102050008019060C2D042D0C000445401560240C3D
:102060001B0CE3180C04240C1B199B19180C090CED
:10207000091809041B041B0C4B40536070BD10B5BC
:1020800003681C000B689C466444146043681C0091
:102090004B689C466444546083681C008B689C4673
:1020A00064449460C3681C00CB689C466444D4605C
:1020B000036909695B18136110BD10B503680C68EA
:1020C0001B1B136043684C681B1B536083688C6840
:1020D0001B1B9360C368CC681B1BD3600369096931
:1020E0005B1A136110BD0000084B02689A1A026067
:1020F00042689A1A426082689A1A8260C2689B1A81
:10210000C360034B02699B1A03617047FFFFFF0323
:10211000FFFF7F00F0B5DE4657464E464546E0B528
:102120009DB091464468E317019382689046D217A8
:10213000139245466D171A954646F6001896C768DD
:10214000BA46FF17179753465D171695DE0014968B
:1021500003699B46DB171B935A46521712925F4640
:10216000FD000E9503680293DA1703920A68049241
:10217000D017059008690600C517069548680790AE
:10218000C7170897CD680995EF170A978F680B97BF
:10219000F9170C91630F0199C9001943E000814DB3
:1021A0000D963200069BA84706000F00049A059B77
:1021B00002980399A84736184F41079A089B0E9832
:1021C0001299A84736184F41099A0A9B18981A99EC
:1021D000A84736184F410B9A0C9B14981699A8479C
:1021E00036184F4110961197079A089B0298039949
:1021F000A84706000F00049A059B20000199A847F4
:1022000036184F410D9A069B18981A99A847361808
:102210004F410B9A0C9B0E981299A84736184F41C4
:10222000099A0A9B14981699A84736184F41189690
:1022300019970B9A0C9B02980399A84706000F0068
:10224000049A059B40461399A84736184F41079AB0
:10225000089B20000199A84736184F410D9A069B0C
:1022600014981699A84736184F41099A0A9B0E9858
:102270001299A84732003B0012184B411492159353
:10228000099A0A9B02980399A84706000F00049A2E
:10229000059B50461799A84736184F410B9A0C9B3F
:1022A00020000199A84736184F41079A089B4046DD
:1022B0001399A84736184F410D9A069B0E9812990C
:1022C000A84736184F410E960F970D9A069B029815
:1022D0000399A84706000F00049A059B58461B99CE
:1022E000A84736184F41099A0A9B20000199A84730
:1022F00036184F41079A089B50461799A847361839
:102300004F410B9A0C9B40461399A84736184F41F2
:10231000109C119DAB01A00E1843A916189B199C87
:10232000C01861418B01840E1C438D16149A159BB5
:10233000A4185D41A3019B094A469360A901A20E1E
:102340000A43AB160E9C0F9D12196B41910189092E
:102350004D46E9609901940E0C439D16A4197D41E8
:1023600063025B0A4A461361109B9B019B091E0096
:1023700000276902E20D0A43EB1592197B41910196
:1023800089094C462160800180099B01920E1A4305
:10239000801860601DB03CBC90469946A246AB4692
:1023A000F0BDC046195E0000F0B5DE4657464E4609
:1023B0004546E0B591B089460168CB174A000592C1
:1023C0004468E2170192089465000D958668B3464B
:1023D000F4170394C668B246F51702950469E61728
:1023E000B04626170C9620010A90654D0A00080099
:1023F00004931900A84706000F000A9A0C9B08983E
:102400000199A84736184F415B461B0F03980101FD
:1024100019435B4618015246029BA84736184F41A4
:102420000696079753465B0F029FF90019435346E0
:10243000D80052463B00A84706000F00089A019BAF
:1024400005980499A84736184F410A9A0C9B58469C
:102450000399A84736184F410E960F975A46039B8B
:1024600005980499A84706000F00089802000199F2
:102470000B00A84736184F410A9A0C9B5046029908
:10248000A84732003B0012184B410892099352466C
:10249000029B05980499A84706000F005A46039B23
:1024A0000D980199A84736184F41630F4046C10067
:1024B0001943E00022004346A84736184F410A96C8
:1024C0000B972200434605980499A84706000F0081
:1024D0005246029B0D980199A84736184F415A461B
:1024E00003990B005846A84736184F41069C079D94
:1024F000AB01A00E1843A9160E9B0F9CC01861419A
:102500008B01840E1C438D16089A099BA4185D410B
:10251000A3019B094A469360A901A20E0A43AB1688
:102520000A9C0B9D12196B41910189094D46E96086
:102530009901940E0C439D16A4197D4163025B0A18
:102540004A461361069B9B019B091E0000276902F6
:10255000E20D0A43EB1592197B41910189094C4622
:102560002160800180099B01920E1A4380186060EF
:1025700011B03CBC90469946A246AB46F0BDC04661
:10258000195E0000F0B5056847688268C66803698F
:10259000AC16E419A0168018A401A4098216921999
:1025A000800180099616F6189201920977027F0A37
:1025B000F615AD01AD0973199D162C19A51628182D
:1025C0008516AA189616F619F7159D01AD097D19FD
:1025D0000D60A401A4094C6080018009886092010B
:1025E0009209CA6073025B0A0B61F0BDF0B5036823
:1025F00047688268C66805699C16E419A716BF1863
:10260000A401A409BA169219BF01BF099016401976
:10261000920192094602760A9B019B090133C0157B
:102620001B1898160419A016C719A401A009BC16F6
:10263000A218BF01BF099516AD19920196096C0247
:10264000640A9B019B09ED15013D012215405B1BAE
:102650009D162D18A816C019821692199B019B0968
:102660000B60AD01AD094D60800180098860930168
:102670009B09CB60921614190C61F0BDF0B59BB0AC
:1026800005000E0010A9484CA04710AA1100280010
:10269000464FB8470BA910A8A0470BA90800A047B0
:1026A0000BAA110010A8B84706A90BA8A04706A9B5
:1026B0000800A04706A90800A04706A90800A047EF
:1026C00006AA11000BA8B84701A906A8A04707242D
:1026D000354F01A90800B847013C002CF9D101AAE7
:1026E000110006A8314B984710A901A82E4B984716
:1026F0000F342D4F10A90800B847013C002CF9D128
:1027000010AA110001A8294B984715A910A8264B1B
:1027100098471F34244F15A90800B847013C002CE6
:10272000F9D115AA110010A8204B984720341E4F4C
:1027300015A90800B847013C002CF9D115AA10A929
:1027400010001A4B98471034174F15A90800B847C6
:10275000013C002CF9D115AA110001A8134B984790
:102760000834114F15A90800B847013C002CF9D1D5
:1027700015AA110006A80D4B984704340A4F15A955
:102780000800B847013C002CF9D115AA11000BA88C
:10279000064CA04715A90800034B9847320015A91D
:1027A0002800A0471BB0F0BDA923000015210000A0
:1027B00070B59EB0050005A94D4CA04705AA1100B3
:1027C00028004C4EB0470AA905A8A0470AA908004E
:1027D000A0470AAA110005A8B0470FA90AA8A04758
:1027E0000FA90800A0470FA90800A0470FA90800DB
:1027F000A0470FAA11000AA8B04714A90FA8A04724
:1028000007243B4E14A90800B047013C002CF9D125
:1028100014AA11000FA8374B984705A914A8344BE8
:1028200098470F34324E05A90800B047013C002CF0
:10283000F9D105AA110014A82E4B9847694605A89E
:102840002B4B98471F342A4E69466846B047013CD7
:10285000002CF9D16A46694605A8264B98472034D2
:10286000234E69466846B047013C002CF9D16A46C0
:1028700005A968461F4B984710341D4E69466846A7
:10288000B047013C002CF9D16A46694614A8194B9F
:1028900098470834164E69466846B047013C002CFC
:1028A000F9D16A4669460FA8124B98470434104E76
:1028B00069466846B047013C002CF9D16A46694632
:1028C0000AA80C4CA04769466846094EB04719AAA9
:1028D00069462800A04719A90800B04719A90800AF
:1028E000B0472A0019A92800A0471EB070BDC046F5
:1028F000A923000015210000F0B503689B019B0986
:102900000B6043689B011C4A13400468A40E2343D8
:102910004B6083681B03194F3B404468240D2343DD
:102920008B60C3689D04FF26B604354083689B0B0B
:102930001D43CD60C3685B005B0A0B6103699B01AB
:102940009B094B6143699C01144003699B0E1C4326
:102950008C6183691A033A4043691B0D1A43CA61AB
:10296000C3699B0433408269920B13430B62C369B2
:102970005B005B0A4B62F0BDC0FFFF0300F0FF038A
:1029800043689B06026813430B6083681B0542681B
:10299000920913434B60C3689B038268120B134375
:1029A0008B6003691B02C268920C1343CB6083697E
:1029B0009B06426913430B61C3691B058269920937
:1029C00013434B61036A9B03C269120B13438B6170
:1029D000436A1B02026A920C1343CB6170470000EA
:1029E000F0B5DE4657464E464546E0B587B0039102
:1029F0009946590006D0130089005118002410C3CD
:102A00008B42FCD14B46002B35D0019280469B0077
:102A1000029300239B461B4B9A46039F019E002472
:102A2000002502CF04AA43461868D047049A131918
:102A30001100594054400C435C40E40F059A009249
:102A4000A11830681A1843401C00504004435440F9
:102A5000E40F641804C60135A945E2D1019B029A2E
:102A60009C5001229446E3440433019304239C4682
:102A7000E0445D45D1D107B03CBC90469946A246A2
:102A8000AB46F0BD2D200000F0B5D6464F46464679
:102A9000C0B584469146002B22D09B009846002664
:102AA000002201239A4663469B598F59DD1B6C42D5
:102AB0002C43E40F504644401440180078406F40C7
:102AC00038435840C00F2043AD1A4B469D51043641
:102AD00002004645E7D11CBC90469946A246F0BD8F
:102AE0000020F8E7F0B5B1B01500082320AA2C4C5F
:102AF000A047082310AA2B4920A8A04708236A460C
:102B0000294910A8A0470026002420A973581A19A3
:102B100068463058844617186846375010006040A1
:102B20005C402043504013007B40644654401C43AB
:102B30007C400443E40F0436402EE7D100231A0002
:102B40006A44126AEA500433202BF8D1183B2A0059
:102B500015492800154EB047241A002312495A5827
:102B6000224068461A500433202BF8D10026002357
:102B7000AA59D118684634580F19AF510800584067
:102B80005340184348400A007A400B006340134307
:102B90007B400343DB0F0436202EE9D131B0F0BD7A
:102BA000E1290000A0A40000E8A40000892A000098
:102BB00030B591B004000D00202200216846074B7B
:102BC00098470123009308AA05492000054CA04717
:102BD0002A00694608A8A04711B030BDFF5E00007A
:102BE00080A40000E52A0000F0B5D6464F464646D0
:102BF000C0B58946012603681E40731E9C46002509
:102C00000023114A92465246AA5861460A40D418F7
:102C10004659A1194F46795127005F405A403A431F
:102C20006240904622004A402300734013434B40C9
:102C300042461343DB0F0435202DE4D11CBC9046E3
:102C40009946A246F0BDC046E8A40000F0B503686E
:102C5000DC07E417A6094268B1188268B218C56893
:102C60007519640A0769BC4664449B195B104F06DA
:102C70008026B6043740DB19036053063340491001
:102C8000591841606906314052108A188260630603
:102C900033406D105D19C56064100461F0BD0368B8
:102CA0000B6043684B6083688B60C368CB600369CB
:102CB0000B6143694B6183698B61C369CB61036AB3
:102CC0000B62436A4B627047F0B5D6464F464646A4
:102CD000C0B5D2B004008A4690461E002AA9CC4D49
:102CE000A8472000283034A9A847200050303EA92A
:102CF000A8472000783048A9A8472500A035A02380
:102D0000DB009946A144C24F01235B429C46E0444C
:102D10004346DC0F644402A92800B8472800283045
:102D20000CA9B8472800503016A9B84728007830B9
:102D300020A9B8472A9A029B5340234053402A9324
:102D40002B9A039B5340234053402B932C9A049B74
:102D50005340234053402C932D9A059B53402340CE
:102D600053402D932E9A069B5340234053402E935D
:102D70002F9A079B5340234053402F93309A089B30
:102D80005340234053403093319A099B5340234092
:102D900053403193329A0A9B53402340534032931D
:102DA000339A0B9B5340234053403393349A0C9BEC
:102DB0005340234053403493359A0D9B5340234056
:102DC00053403593369A0E9B5340234053403693DD
:102DD000379A0F9B5340234053403793389A109BA8
:102DE0005340234053403893399A119B534023401A
:102DF000534039933A9A129B5340234053403A939D
:102E00003B9A139B5340234053403B933C9A149B63
:102E10005340234053403C933D9A159B53402340DD
:102E200053403D933E9A169B5340234053403E935C
:102E30003F9A179B5340234053403F93409A189B1F
:102E40005340234053404093419A199B53402340A1
:102E500053404193429A1A9B53402340534042931C
:102E6000439A1B9B5340234053404393449A1C9BDB
:102E70005340234053404493459A1D9B5340234065
:102E800053404593469A1E9B5340234053404693DC
:102E9000479A1F9B5340234053404793489A209B97
:102EA0005340234053404893499A219B5340234029
:102EB00053404993802202ABA0215B18995802AB82
:102EC0009B584B4023404B4002A9A02009188B502F
:102ED000043202ABA0215B18995802AB9B584B40BF
:102EE00023404B4002A909188B50043202ABA021A9
:102EF0005B18995802AB9B584B4023404B4002A9AA
:102F000009188B50043202ABA0215B18995802AB10
:102F10009B584B4023404B4002A909188B50043268
:102F200002ABA0215B18995802AB9B584B40234041
:102F30004B4002A909188B50043202ABA0215B1848
:102F4000995802AB9B584B4023404B4002A90918AB
:102F50008B50043202ABA0215B18995802AB9B58EE
:102F60004B4023404B4002A909188B509C2302AAD6
:102F7000A0215218D15802AAD25801924A401440B6
:102F80004C4002AAA0215218D450A0354D4500D083
:102F9000BAE620A948A81E4CA0470CA92AA8A04719
:102FA00002A934A8A04720A81A4CA04725A8A047EA
:102FB0002AAB02A934A80C681A6862403240624009
:102FC0001A608C6A9A6A6240324062409A628C6FE0
:102FD0009A6F6240324062409A6704330431834200
:102FE000E9D151462AA80A4CA0475146283134A8B5
:102FF000A047514650313EA8A0475146783148A8D5
:10300000A04752B01CBC90469946A246F0BDC046AF
:103010009F2C0000E9200000F0B5DE4657464E46E2
:103020004546E0B5BFB00400019192469B4620A9F9
:10303000424DA847200028302AA9A8472000503038
:1030400034A9A847270078372300F022D2009446FD
:1030500063443A4A91469846544603E064467837BA
:1030600047452ED0013CE50F013D02A93800C84775
:10307000380028300CA9C8473800503016A9C84776
:1030800020AE02AB9A462AA819003200A446136863
:103090000C6863402B40146863401360936A8C6A29
:1030A00063402B40946A63409362136D0C6D6340E0
:1030B0002B40146D63401365043204318242E6D123
:1030C000CCE7140016A934A81C4DA8470CA920A8C9
:1030D000A84702A92AA8A84716A8194DA8471BA8BF
:1030E000A847524659463068136843400B40434056
:1030F0003360B06A936A43400B404340B362306D23
:10310000136D43400B404340336504360432A642FE
:10311000E9D1019D290020A8084CA04729002831A9
:103120002AA8A0472900503134A8A0473FB03CBC92
:1031300090469946A246AB46F0BDC0469F2C000083
:10314000E92000000023036043608360C3600361E3
:1031500043618361C361036243627047F8B5040051
:103160000D001600044FB847320014322900143104
:1031700020001430B847F8BD7F200000F8B50400E7
:103180000D001600044FB8473200143229001431E4
:1031900020001430B847F8BDBB20000010B503680C
:1031A0005B000C681B1B136043685B004C681B1BB7
:1031B000536083685B008C681B1B9360C3685B0073
:1031C000CC681B1BD36003695B000C691B1B13617C
:1031D00043695B004C691B1B536183695B008C690D
:1031E0001B1B9361C3695B00CC691B1BD361036A22
:1031F0005B000C6A1B1B1362436A5B00496A5B1A23
:10320000536210BD104B02689A1A026042689A1A03
:10321000426082689A1A8260C2689A1AC2600B4A37
:103220000169511A01614169591A41618169591A4B
:103230008161C169591AC161016A5B1A0362436AFB
:10324000D21A42627047C046FFFFFF03FFFF7F00B4
:10325000F0B5C64600B50468012398461A0022401E
:10326000524291094368CE188368CD18C368CF18BD
:10327000520A03699C4662446418641073068021F4
:1032800089040B409C46644404606C060C40761034
:10329000A61946607C060C406D10651985605406C1
:1032A0000C407F10E719C760521002614269434623
:1032B00013405B429F0984693E19C4693D19046A41
:1032C0003C195B0A9846436A9C4643466344D219BC
:1032D000521077060F40D21942616A060A407610F2
:1032E0009619866162060A406D105519C5615A0625
:1032F000114064100C1904625B10436204BC9046D8
:10330000F0BD000070B504000D00044EB047290068
:10331000143120001430B04770BDC0468525000030
:1033200070B504000D00044EB04729001431200090
:103330001430B04770BDC046ED250000F0B597B021
:1033400006000D00019211AB1A00164CA047142381
:103350009C46B44463462F0014370CA90A00390078
:1033600000936046A04707A80200009930000E4E67
:10337000B04702AA39002800B047019E32000CA9CC
:1033800011A80A4DA84707AA02A91000A04707AA3A
:1033900011A91000A847320014320CA907A8A847A9
:1033A00017B0F0BD152100007F200000BB200000F9
:1033B000F0B591B005000C00060014360BAA3100E0
:1033C0000B4FB84706AA310028000A4B984701AABC
:1033D00031002800084DA847220006A90BA8A847DD
:1033E0002200143201A90800B84711B0F0BDC04650
:1033F0007F200000BB2000001521000070B58AB0BE
:10340000050005A90E4EB0472C0014346946200073
:10341000B04705AA694610000A4B984705A80A4B11
:1034200098472000094B98472A0005A92800084D15
:10343000A847220005A92000A8470AB070BDC046D1
:10344000A92300007F200000B1270000E920000030
:1034500015210000002906D0030089004018002231
:1034600004C38342FCD17047F0B583B004000D0063
:103470000700503738000D4B98472A0039002000CC
:103480000B4EB04728239C46AC44634620002830AE
:10349000019362463900B04729002800054CA04737
:1034A00001980100A04703B0F0BDC046FD33000005
:1034B0003D33000021330000F0B585B005000C005D
:1034C000783078239C468C44634601936246010021
:1034D000204EB0472A008C32100022008C320100AE
:1034E000B0472F002837220039002800B0471422A7
:1034F0009446AC4463463C229446AC446146220068
:103500001432039102931800B04722002832290098
:103510003800114FB84722003C3202990398B8474F
:103520002900A031019802000C4FB8472A00503200
:103530001000220050320100B047643528002200FC
:1035400064322900B047019802000549B84705B028
:10355000F0BDC0467F200000BB2000003D330000CE
:10356000C0A40000F0B583B004000D0007002837A8
:103570000A003900154EB04714239C46A444634604
:103580003C229446A44461462A00143201910093DF
:103590001800B0472A002832210038000C4FB847E5
:1035A0002A003C3200990198B8472A00783221005D
:1035B000A03120007830074B984729005031200077
:1035C0005030054B984703B0F0BDC0467F20000047
:1035D000BB2000003D3300009F2C0000F0B583B0FD
:1035E00006000D00070028370A003900154CA047D7
:1035F00014239C46B44463463C229446B44461463A
:103600002A001432019100931800A0472C0028349E
:103610002200390030000C4FB8472A003C32019993
:103620000098B8472900503130005030074B984778
:1036300029002800064DA84721002000A84703B014
:10364000F0BDC046BB2000007F2000009F2C000082
:1036500005330000F0B599B007000EA92F4EB04712
:1036600028239C46BC446346644604A91800B0471E
:103670003A00009421003800294CA047380014304B
:1036800039003C310200A047A0239C46BC4463465D
:103690000193624604A90EA8A047B4218C46BC44FD
:1036A00061460391624609A8010013A8A0470EAA2B
:1036B000110004A81B4DA84713AA110009A8A84788
:1036C00050208446BC44604604A90290B0473C00A8
:1036D000783421003800B04704AA0EAE3100100043
:1036E000114B98472200019E31002000A8473B0063
:1036F0008C3318001A000399A847009A31000EABCA
:1037000018000A4DA8473A00210004A8A847029AC9
:1037100004A90EA8A84719B0F0BDC046B1330000F7
:103720007F200000BB2000009D3100003D330000E1
:10373000F0B59BB006000F00150050239C46944442
:10374000634678317830019362462F4CA0473900A8
:1037500050313000503010AAA0472A003900300004
:10376000A04728229446AC446246390028313000F4
:1037700028300292A04706AA019F390010A8234EC4
:10378000B04764239C46AC4463460BAA039361464E
:1037900015A8B04710A80200019739001C4FB84780
:1037A00015A802000399B847A0239C46AC44634681
:1037B0000393624602992800B04714218C46AC441A
:1037C00060463C218C46AC4461462A00B4320591E7
:1037D0000490B0472E007836320002992800B8478E
:1037E0002A008C3205990498B8472A0006A9039844
:1037F000A047019A06A910A8A047029A10A9300074
:10380000A0471BB0F0BDC0463D330000BB20000008
:103810007F200000F0B5DE4600B5AEB007000D0019
:1038200028239C468C446346664610AA18003A4CEE
:10383000A0473C239C46AC44634614229446AC44C7
:10384000614615AA029101931800A0471AAA2900FF
:1038500003963000314EB346B0471FAA0299019833
:10386000B04778208446AC446046A0229446AC44DD
:10387000614624AA05910490294EB04750239C46E6
:10388000AC4463463800503006AA00936146B04706
:1038900038007830009A24A9B0472A0010A93800CF
:1038A000B04728373800039A1AA9B04724AA0099CC
:1038B00006A8D8472F00643729AA39000BA8D84793
:1038C00006AA00991000A0470BAA39001000A047D3
:1038D000059A039F39002800D8472A00B43201997D
:1038E0000298D847049A39002800A0472A008C3251
:1038F00001990298A0472A0024A90598B047009A88
:1039000024A906A8B0473A0006A90498B0472EB0EB
:1039100004BC9346F0BDC0467F200000BB200000E1
:103920003D330000F8B505000C000C4FB8472600E9
:103930002836280020303100B84721007831200097
:10394000074DA8472100A0313000A8472000503083
:10395000044B984701232365F8BDC046F9280000B1
:103960009F2C00004531000030B59FB00500283085
:1039700014A9214CA0470AA92800A0476A460AA911
:1039800014A81E4CA04705AA0FA919A8A04714AA5D
:103990000AA910001A4DA8470AAA14A91948A8474D
:1039A00014A8194B9847012314930AAA14A91000CC
:1039B000164DA8470FAA19A91000A84714AA0AA9CA
:1039C0006846A04719AA0FA905A8A04714A908008E
:1039D0000F4B9847149B002B0AD114AB1CAA5968B3
:1039E000002907D104339342F9D101201FB030BD23
:1039F0000020FBE70020F9E7B1330000BB20000006
:103A00003D330000C0A40000453100007F200000CD
:103A100021330000F0B5DE4657464E464546E0B538
:103A200087B005008B460022C423CA5004900400CE
:103A3000183403005A68D00719684908014352082E
:103A40009868C007196042405A600833A342F1D118
:103A50009946EA69D107AB695B080B43AB61520831
:103A6000EA615946C4235B44984601239C4600966C
:103A7000019748460AE0EF69FB07AA6952081A4312
:103A8000AA617B08EB610431414514D02B68624682
:103A90001340013B0B60049C6368DE0722685208F8
:103AA00032435B08A668F6072260734063600834FF
:103AB0008442F1D1DFE7009E019FC8235B44984612
:103AC000322320229146A944A246444698465B46AA
:103AD000059307E0814601239C46E04404344346B5
:103AE000FA2B56D0A34601232A6813402360049979
:103AF0000096019757464B68D8070A685208024358
:103B00005B088868C0070A6043404B600831B942CF
:103B1000F1D1BA46EA69D107AB695B080B43AB61E7
:103B20005208EA61322140461D4B98478900059BA7
:103B3000CB585B425A4610681840844602900023D6
:103B40000393029A039B2868696812184B41290065
:103B50000CC1009201935342009A1343DB0F0122E0
:103B60005340604618400600002748460A684B68E4
:103B700092197B410CC1009201935342009A134366
:103B8000DB0F0122534033401E0000278142EDD15C
:103B9000A0E707B03CBC90469946A246AB46F0BDB4
:103BA000395C0000F0B5DE4657464E464546E0B566
:103BB000CE4CA5440500039185ACCD4A00212000E0
:103BC000CC4B98477DA92800CB4B98477DA908008E
:103BD000CA4B984785A97DA8C94B9847F9239B00F4
:103BE000E2585200C83BE358D218520095239B007C
:103BF000E358D2185200C423E358C6214900615843
:103C00005218C04CF0214901601819A9BE4DA847AF
:103C100037AA23A919A8BD4DA8473CAA28A91EA8C0
:103C2000A84741AA23A919A8B94DA84746AA28A977
:103C30001EA8A8474BA8B74B984701234B9337A81A
:103C4000B54DA84741A8A84755A937A8B34DA847DF
:103C50005FA941A8A847B4235B019846A044A123CB
:103C6000DB006B449A46BD26A74B9946AC4DA84C49
:103C7000D346DC465B46C8331A68330030006438EC
:103C8000864208DB594652000F68BA465244323B1E
:103C9000C8399842F7DDA34B63441B6819A9404615
:103CA000C84755AA5FA91000A84705AA4BA9080054
:103CB000A0470AAA50A90800A04755AA2DA910009C
:103CC000A8474BAA41A937A8A04750AA46A93CA893
:103CD000A0475FAA37A941A88C4B9A46984764AA87
:103CE0003CA946A8D0470FAA55A905A8D04714AAB1
:103CF0005AA90AA8D04705AA55A91000A0470AAAA0
:103D00005AA91000A04755AA4BA919A8A84737AA35
:103D10005FA923A8A8475FAA37A955A8D04764AAD6
:103D20003CA95AA8D04755AA37A91000A0475AAABB
:103D30003CA91000A0474BAA0FA905A8A84737AA7D
:103D40000FA95FA8A84741AA05A955A8A8470A3EF8
:103D5000754B9C46E04428235B429C46E344952EE9
:103D600087D1724B04AA944663440293C6230193FD
:103D7000654B9B4608E0019B013B0193029A043A84
:103D80000292BD2B00D18BE037A8694B98475D4B61
:103D9000F0225201944663449946019F3B0032222F
:103DA0005242944663449A46029B5D4D584C1E0015
:103DB000B4463300C8331A683B0038006438874281
:103DC0000ADB3100009652000E68B0464244323B96
:103DD000C8398342F7DA009E524B63441B6819A925
:103DE0004846D84755AA5FA91000A84705AA4BA97D
:103DF0000800A0470AAA50A90800A04755AA2DA963
:103E00001000A8474BAA41A937A8A04750AA46A925
:103E10003CA8A0475FAA37A941A83C4B98469847C1
:103E200064AA3CA946A8C0470FAA55A905A8C0473F
:103E300014AA5AA90AA8C04705AA55A91000A04764
:103E40000AAA5AA91000A04755AA4BA919A8A84721
:103E500037AA5FA923A8A8475FAA37A955A8C047D2
:103E600064AA3CA95AA8C04755AA37A91000A04780
:103E70005AAA3CA91000A0474BAA0FA905A8A84719
:103E800037AA0FA95FA8A84741AA05A955A8A8471E
:103E90000A3F254B9C46E144283E574588D16AE7B6
:103EA0004BA8244B984769AA4BA937A81C4CA0479C
:103EB00073AA4BA941A8A04769A908001E4CA047B6
:103EC00073A90800A047039D290069A81B4CA047BF
:103ED0002900203173A8A0470120194B9D443CBC08
:103EE00090469946A246AB46F0BDC046ACF9FFFFEE
:103EF0003C040000FF5E0000B12B0000E92B000035
:103F0000153A0000FC7E000019300000BB200000C4
:103F10007F20000045310000513200009F2C00003E
:103F20003D330000A8FDFFFF80F8FFFF1C050000E7
:103F300055360000FD3300002133000081290000C8
:103F400054060000F0B5DE4657464E464546E0B5FD
:103F500089B0924600239C46203399468144083B11
:103F600098468044434600930791834611E00094AD
:103F70005B46DB6919075A46926912090A4359469A
:103F80008A611B09CB6104239846C4446346F82B1D
:103F900069D05A461F2312681340049300230593E7
:103FA000049A059B10204042C11712184B41D917A3
:103FB00002910391C9435046654641515042040065
:103FC00054402140484040080799485159460968E3
:103FD0008D1A55405946096851400C002C435946EA
:103FE00009684C40E10F8846029C039D0120404235
:103FF000C11724184D41414621400E000027594663
:1040000008684968801A994102000B0059460CC1A2
:10401000009B984648460B684C681A002300140021
:104020001D00A41BBD4130C100920193931B73403E
:104030003400009D6C4023436B40DE0F002781421B
:10404000E9D18146594644464B6818070A68120967
:1040500002431B09886800070A6043404B6008312F
:104060008C42F1D183E75846079B9B464B68DB0F98
:10407000DB43F821524653500268504242401340FD
:1040800043405B085A46535009B03CBC90469946A1
:10409000A246AB46F0BD0000F0B5DBB004000D0059
:1040A0006946184EB047200028300AA9B0472000C2
:1040B000503014A9B047200078301EA9B047200026
:1040C000A03028A9B047290020000F4B9847684628
:1040D0000E4B984732A968460D4B98472C008C230D
:1040E000DB009C4665440B4F074E6A46210032A810
:1040F000B847A03421006846B047AC42F5D15BB068
:10410000F0BDC0469F2C0000B934000055360000B9
:10411000653500003137000070B5A8B0040069466D
:104120000D4B984720000D4DA847210068460C4EC6
:10413000B0472000A8472000A8472000A84720003B
:10414000A84721006846B0472000A8472000A8479C
:104150002000A84728B070BDB934000055360000D3
:1041600015380000F0B55A4CA54407000C00019228
:104170001D00FC22002149A8564EB047FC22002118
:104180000AA8B047F723DB0002AA9446634419004B
:104190003800514B9847F723DB0002AA944663444A
:1041A00018004E4B98470090002800D183E0002D66
:1041B00000D084E002A92000494B984702A90800DA
:1041C000484B984788A9F723DB0002AA944663442A
:1041D0001800454B98470AAA49A902A8434B98479B
:1041E000489B879AE321C90002A88446614488A8B5
:1041F0003F4CA047F723DB0002AA94466344190012
:10420000E323DB00634418003A4B9847F4243A4D0B
:10421000374F3A4EF723DB0002AA94466344180056
:10422000A8470AABE35849AAA258E321C90002A84B
:104230008446614488A8B847F723DB0002AA944665
:1042400063441800A847F723DB0002AA944663449E
:104250001800A847F723DB0002AA9446634418001D
:10426000A847F723DB0002AA944663441900E3231E
:10427000DB0063441800B047043C231DCAD18823E7
:104280001B0102AA944663441900F720C000604451
:104290001B4B9847019D290088231B0102AA9446C5
:1042A00063441800174CA04729002031164802AB80
:1042B0009C466044A0470098144B9D44F0BDF720F5
:1042C000C00002AB9C466044114B984772E7C04661
:1042D00024F7FFFFFF5E0000253900006939000068
:1042E000B12B0000E92B000099400000453F000081
:1042F000C92C0000DD3500005536000015380000DF
:104300006934000081290000A8080000DC080000D2
:104310001941000010B590B00C006946044B984755
:1043200021006846034B9847012010B010BDC046DD
:10433000A53B0000691D000070B506000D00074B8D
:1043400098470400012806D008213000044EB047E9
:1043500008212800B047200070BDC046154300006A
:104360005534000070B590B0060008001500CB7BF6
:104370007F2B30D86946194B98470400012806D096
:1043800008212800164B9847200010B070BD01236B
:104390006A4631006846134EB047002801D1002418
:1043A000EEE708216846104B9847002805D12022E7
:1043B00008A928000D4B9847E6E7072109A80A4BF2
:1043C00098470028F3D008994B1E0122521A134334
:1043D000EDD40724D4E70624D2E7C046B11D00007F
:1043E0005534000065410000451D0000C95E000015
:1043F000F0B5DE4657464E464546E0B58BB0070061
:1044000000230793C6E00F2002403EE00123234231
:1044100003D061465140CBB29C460492202398467B
:104420009044834B4146595C0F2912D95200D1B2B6
:1044300010230B4202D00D3B5940C9B20F23194043
:104440007B4B42469954049B1A01794B984642444F
:1044500091706408E4B20A0034E0019B11003BE073
:10446000030008AABA5C534008AABB5406350136BB
:10447000242D3FD05346EA18D30F9B185B105A46A1
:10448000D25C4B46002BBED1120931780801684B33
:104490001B189B5C0F2BE4D90F2318000840134016
:1044A000984206D251404A400F2003001340514029
:1044B0000840002BD5D0012BD2D002001C000021D7
:1044C0008C460193012CC8D911016118C9B2584B0F
:1044D000595C0F299AD8019B62464A4011000F226D
:1044E0001140534A04011419E1541B01D21811540C
:1044F0000B00B6E7029B01330293039A0632039244
:10450000062B0BD002990F00002308AA8B54039EA0
:10451000069DFF33059A1A409246ABE7059B9C46E1
:104520004F46504600210F245A460DE0C30F1B187A
:104530005B10D3181D78A54308AE8E5D35431D7002
:104540000131063006290DD0002FEFD1C30F1B1803
:104550005B10D3181D78254008AE8E5D36013543BB
:104560001D70EDE7934601239846C4446346062B2D
:104570000AD0304B039300230293674601331F4058
:1045800063460593B946BDE71700079B01330793C0
:104590000C2B46D0284B079AD35C9846274D002415
:1045A000274E3B004746984606212000B04740442E
:1045B0002B787B401B010278534003701234013585
:1045C0006C2CF1D147464146454612351D485D3CAD
:1045D0000A781309C35C1B012240825C13430B70F1
:1045E00001318D42F4D1F91C142318201A000B78E4
:1045F0001B044C78240223438C782343841A1D0027
:10460000A540D3402B431C0C0C701C0A4C708B70C3
:104610000331043A002AEAD1069200239C46BB46A5
:10462000A7E70BB03CBC90469946A246AB46F0BD0E
:104630000400002008A5000034A500002CA50000FF
:10464000415C000040A50000F0B5D6464F46464606
:10465000C0B588B0050001908946160003AC0F2252
:1046600000212000304B98472023E373103B237434
:1046700063744B46DB0F4B445B109A46002B49DDBD
:104680005B00A846984403AC284F23782A7853400F
:10469000237063786A78534063702000B84702350E
:1046A0004545F2D153464A46D20735D503AA5B00A9
:1046B00001995B5C11784B401370517880235B4209
:1046C0004B40537003AC2000184B98471022002138
:1046D0003000154B98473378227813433370737842
:1046E000627813437370B41C103603AD0F4F28006B
:1046F000B84723782A781343237063786A78134382
:1047000063700234B442F2D108B01CBC90469946A2
:10471000A246F0BD0023C6E703AA117880235B42BE
:104720004B401370CEE7C046FF5E0000F14300002F
:1047300010B50023C25CCC5C6240C2540133082B2C
:10474000F8D110BDF0B5C64600B586B0070001919E
:104750009046002303A900225A5401330A2BFBD1AF
:104760000024214EE01C0A21B0477D5C6D01A01C95
:104770000A21B0477B5CDB081D4303AB1D550134A8
:104780000A2CEFD103A9487A0309184AD25C120116
:104790000F23184002434A724246521013408A784F
:1047A00053408B704346D90F5A18012313405B1AAC
:1047B000012B12D003AB1A783A705B787B70019EA4
:1047C000022303A95A5CFA543270013301360A2BD2
:1047D000F8D106B004BC9046F0BD03AA5178813BE5
:1047E0004B405370E6E7C0460D5E0000E0A50000B8
:1047F000F0B5DE4657464E464546E0B5A9B00C003A
:104800000A22010025A83F4DA84708228E2102ABAD
:104810009C46614423A8A847012399463A4B01933B
:104820003A4B9A460AE04A4623A925A8384B9847AE
:1048300001239C46E1444B46202B57D023A920005E
:10484000019B9847A44620000830A3460F215B46F1
:104850001A7813095546EB5C1B010A40AA5C134306
:104860005A46137001239846C3448345EFD1002272
:10487000072703A90125D3175E0F90193840801B25
:104880003B409B18DB10E65C2B0083403340034128
:1048900053540132402AEED1002113AA1D4D03AB1F
:1048A000485DCF5C175401314029F9D113AA5378E0
:1048B0005B00917889000B4311780B43D178C900D4
:1048C0000B43117909010B43517949010B4391794C
:1048D00089010B43D179C9010B4361460B70083242
:1048E00001239846C444DC45E1D19CE723A920007C
:1048F000054B984729B03CBC90469946A246AB462A
:10490000F0BDC046C95E000031470000E0A50000D0
:1049100045470000A0A50000F0B5D6464F464646E4
:10492000C0B5494CA54406000C00811C082220A8F3
:10493000464DA8470A22310060A8A84722AEC525E7
:104940006D006D440127424B9846424B9946310019
:10495000083908223000C04729000A390A222800F5
:10496000C0473A0031002800C847013708360A35E9
:10497000202FECD15EAB9A4620AB9846364B994639
:10498000364D05E008235B429C46E244C2454ED0CA
:1049900051462000C847002207200126D3175F0F89
:1049A000D1190140C91B03409B18DB10E75C3300A1
:1049B0008B403B400B41694653540132402AEDD1B4
:1049C000002310A85A5D6946595C81540133402B7D
:1049D000F8D110AA210026000836200053785B0089
:1049E0009778BF003B4317783B43D778FF003B43A2
:1049F00017793F013B4357797F013B439779BF01CB
:104A00003B43D779FF013B43037008320130B0428A
:104A1000E4D1134E0F270A781309F35C1B013A40C7
:104A2000B25C13430B7001318142F4D1AAE720A993
:104A30002000094B9847B0239B009D441CBC904626
:104A40009946A246F0BDC04640FDFFFFC95E00008A
:104A5000DB5E0000454700003147000050A5000024
:104A600090A5000070B582B005000E0000226B46D4
:104A7000DA80064C6B46991D2800A0470028F9D122
:104A80006B4606331B88337002B070BD4B0E0000BE
:104A900070B505008CB2034E21002800B0470028F5
:104AA000FAD170BD250E0000F0B5DE464F464646F1
:104AB000C0B582B0D34B1B681B6D00930099462391
:104AC000D14AD25CD148D24B9847009B1B0115D4E8
:104AD000009BDB0012D4CF4B1B78002B00D09FE053
:104AE000009B1B0312D5C74B1B68802212031A655B
:104AF0000025C94B9946C94B9B4677E0C14B1B68C3
:104B0000C02252051A65C648C64B984702B01CBC65
:104B100090469946A346F0BDBA4B19689C23C858E5
:104B20002C00203C9B3BA34003425BD001959C2280
:104B30008B50019A13019B189B004A469B5C984638
:104B4000019B019A1901C9188900043143461C01CF
:104B500009194944AB48D847019A13019B189B0097
:104B60004246511C03220A4049465A54019A1301F5
:104B70009B189B00E4184C4463685B0044D5AA482A
:104B8000A84B9847019943461B010A01521892000D
:104B90009B18A14AD3189B681B031B0F0025002BF1
:104BA00000DCC3E19C4E9A4F019A43461C0113015D
:104BB0009B189B00E318F3185B19197B9B48B847B7
:104BC0000135019A13019B189B00E4183419A3685E
:104BD0001B031B0FAB42E7DC9548924B9847019BA8
:104BE000022B18D001350F2D00DD8FE71F2D93D834
:104BF000844B19689823C858973BAB400342F1D0C7
:104C0000019598228B5094E7019942468948804B40
:104C10009847B7E70025884A136801331360E1E736
:104C20007C4B1B78012B23D07A4B1B78022B43D073
:104C3000009B1B0300D469E7724B186880231B0399
:104C4000036500219C239C46012498250A001F2906
:104C500000D9CCE0435927008F403B405F1EBB4149
:104C6000DBB2002B00D0EBE001311029EED14DE793
:104C7000009B1B0300D449E7624B1B688022120390
:104C80001A650025644B9946644B9B46BAE15D4B1F
:104C900019689C23C8582C00203C9B3BA34003422E
:104CA00000D1ABE101959C228B504BE1019942462A
:104CB0006048574B98476FE1009B1B0300D425E7E2
:104CC000504B186880231B03036500219C239C46DE
:104CD000012498250A001F290CD8435927008F402A
:104CE0003B405F1EBB41DBB2002B0ED101311029CE
:104CF000F0D10BE76346C3580F00203F2600BE40AB
:104D000033405F1EBB41DBB2EEE701921F2A62D83F
:104D10000123934098228350019A3F4C13019B1822
:104D20009B001B5D9846019B019A1901C9188900D7
:104D3000043143461D01491909193248374B984738
:104D4000019A13019B189B004246511C03220A4002
:104D50001A55019A13019B189B00EB18E41863681D
:104D60005B003ED530482F4B9847019943461B01C5
:104D70000A01521892009B18274AD3189B681B03FC
:104D80001B0F0026002B19DD234F214D019A4346AE
:104D90001C0113019B189B00E318FB189B19197B3E
:104DA0002248A8470136019A13019B189B00E4187A
:104DB0003C19A3681B031B0FB342E7DC1C48194BCB
:104DC0009847019A1D4B9200D1580131D1501A6871
:104DD00001321A609AE6203A012393409C228350C4
:104DE0009AE7019942461348094B9847BDE7634645
:104DF000C3580F00203F2600BE4033405F1EBB411A
:104E0000DBB22EE7B00C0020B0110020F0A50000AE
:104E100061600000A80C0020400D00204905000042
:104E200014A600005561000058A60000F0A600007E
:104E3000F8A600009CA60000AC0C0020040D002089
:104E400001921F2A66D80123934098228350019A29
:104E5000724C13019B189B001B5D9846019B019AA5
:104E60001901C9188900043143461D01491909195E
:104E70006B486C4B9847019A13019B189B00424664
:104E8000511C03220A401A55019A13019B189B00DA
:104E9000EB18E41863685B0042D56348634B98479E
:104EA000019943461B010A01521892009B185B4A64
:104EB000D3189B681B031B0F0026002B19DD574FCF
:104EC0005B4D019A43461C0113019B189B00E3189C
:104ED000FB189B19197B5748A8470136019A130103
:104EE0009B189B00E4183C19A3681B031B0FB342DB
:104EF000E7DC51484D4B9847019B50499B005A585D
:104F000001325A5001984E4A1168012383400B43E5
:104F10001360FBE5203A012393409C22835096E7DF
:104F2000019942464748424B9847B9E742483F4BB0
:104F30009847019B022B00D16CE6012556E60195AE
:104F400098228B50019A13019B189B004A469B5C48
:104F50009846019B019A1901C918890004314346FA
:104F60001C01091949442E48D847019A13019B187E
:104F70009B004246511C03220A4049465A54019A5A
:104F800013019B189B00E4184C4463685B0000D439
:104F90008CE62548254B9847019943461B010A0199
:104FA000521892009B181D4AD3189B681B031B0FB5
:104FB0000025002B19DD194E1D4F019A43461C0197
:104FC00013019B189B00E318F3185B19197B194810
:104FD000B8470135019A13019B189B00E418341956
:104FE000A3681B031B0FAB42E7DC13480F4B98472A
:104FF000019B15499B005A5801325A5001350F2D1B
:1050000000DD83E51F2D00D941E6054B1968982383
:10501000C858973BAB400342F0D090E7400D0020CA
:10502000B00C00204905000058A6000055610000A2
:1050300061600000F0A60000F8A60000F40C00205B
:10504000000D00209CA60000E80C0020F0B5C6462C
:1050500000B506000D0014000800103010220021D9
:10506000164B9847002E12D01022FF212800134B18
:10507000984721002800124B984701280BD011486F
:10508000114B98470026300004BC9046F0BD0F48F5
:105090000D4B9847FEE70E480E4B984725001F35ED
:1050A000013C0D4B98460B4F29784046B847013DCF
:1050B000A542F9D10948044B9847E4E7FF5E000098
:1050C0003943000010A7000055610000FCA6000055
:1050D00030A70000616000000CA6000044AB000097
:1050E000F0B5DE4657464E464546E0B58BB00090DB
:1050F00010239A4692441033984688441F3B9B469F
:10510000334B994659463348C84743460193444672
:105110001F345E1E2E4D21782F48A847013CB44213
:10512000F9D12E482E4B98472E48294B9847009B83
:105130001D001F355F1E2C4C254E29782000B047DE
:10514000013DBD42F9D12548254B984702AA019956
:105150000098264B9847019025481D4B98471F24DF
:1051600002AB9C4664445F1E1F4E194D21783000EF
:10517000A847013CA742F9D11848194B9847019B11
:10518000012B1CD159461B48114B984752462021F0
:1051900002A8194B984701239C46E3440F339C46D1
:1051A000E24410339C46E0445B46032BAAD1012025
:1051B0000BB03CBC90469946A246AB46F0BD594662
:1051C0000E48034CA04701990D48A0470020EFE787
:1051D000616000004CA7000068A7000044AB00001D
:1051E0005561000070A700000CA600006543000098
:1051F00084A70000D4A700004946000098A700003B
:10520000C4A70000F0B5DE4657464E464546E0B519
:10521000C9B0DA4B98470CAA8023DB050C93002316
:105220005360FF2111819372D3720124D3395454F6
:105230000131545401315354013153541363053136
:10524000535401315354536100211382D176D361F9
:105250001384538411762433D1545176113B9376C1
:105260001333D154013BD15496231B029362C423C0
:105270009B03D36001235B429363D363C04B1364EE
:10528000C04B5364C04DC14B1D60C149C14B196037
:10529000C149C24B1960C2492800C24B9847C24F4E
:1052A0003B6898680021C14EB0473B6858680021B0
:1052B000B0472E683000BE4B98471F2318408440EB
:1052C000BC4B1C602A68D369002BFCD133680227D1
:1052D0003B4333600BAE002474700125B570F4704D
:1052E00006239946337031001820B34B98469847EF
:1052F0004B46337031001920C0470CAA08231370A5
:1053000054709470D570157155719571D471147273
:105310005472093B5381147354739473D47314748B
:1053200057749774D5741575A44B9361157754779A
:105330009577D4772023D4540133D454A04CA14979
:105340002000A14B98472000A04B984780221202D2
:10535000984B1A602268516DC0235B050B4353655F
:105360009B489C4DA8478822D20000219A489B4B1D
:1053700098479B489B4B9847FF2108AB9C4661444C
:1053800099489A4B98479A48A84700943BAB994A4A
:1053900099490220994CA04706909948A8470123B3
:1053A0009B466A46D377974B10330893954B20332F
:1053B0000993CAE29448874B9847012049B03CBC06
:1053C00090469946A246AB46F0BD9048814B98471F
:1053D000F3E7002130E300214DE3102B42D0494692
:1053E0008B48804B984701239C46E144039B103334
:1053F000039310364B46032B40D04B461C01854B84
:105400009C466444039F3D0039002000824B98472E
:10541000390008312000804B98478048714B9847ED
:105420000F27704CE95D7E48A047013FFAD27D48C6
:105430006C4B98470F2437006A4B9846315D78488B
:10544000C047013CFAD26A48624B98472A783B78B9
:105450009A42C4D10123E95CFA5C9142BDD1013387
:10546000102BF8D1704A11685B46484683400B43C5
:10547000136049466D485B4B9847B4E702226C4B7A
:105480001A7031AA5946FF2008AB9C466044694B0C
:10549000984706220021AE2008AB9C4660444F4B43
:1054A000984765484F4B9847092431AE5C4D4D4FA6
:1054B000A15D2800B847013CFAD24D48454B9847BA
:1054C000594C2168AE2208AB9C4662441088538830
:1054D0001B0403430B4313801B0C53805748414B61
:1054E000984723689B0714D40222554B5A604E4BB1
:1054F0001B685B0700D5B3E00222514B9A6051480C
:10550000344B984718270125364B99464C4B984603
:10551000E4E000254A4B5D60102231A9089F380065
:10552000494CA047494E089739003000484FB847CA
:10553000344B183319003000B847229588231B04D8
:105540002393229A434B13432293239B424A1A40AC
:1055500080231B03134323930822089924A8A04700
:10556000174C5A4622A920003C4B984723689A6959
:105570009207BCD40221D0229950B8E7F11600005E
:1055800003002A0003002B00B40C00203C0D002077
:10559000914A0000380D0020654A0000340D0020BB
:1055A00000140042790A000008010020C1610000D7
:1055B000E909000000E100E0C1160000FFFFFF1F45
:1055C000B00C0020001C0042F9010000F5040000AE
:1055D000FCA7000055610000400D0020FF5E0000A8
:1055E00058AA000061600000447D00008D61000049
:1055F00044AB000010120020B0110020A9180000D8
:1056000088AA000080110020DCAA00000CAB00007A
:1056100000AC00007012002019490000CCAB000063
:105620000CA60000DCAB000004010020ECAB000085
:10563000A80C00204946000018AC000034AC000063
:10564000040D002074AC0000C95E00008012002030
:10565000F147000000000408FFFFF0FF990500007B
:1056600000259B4B9D60102231A9099F3800994C61
:10567000A047994E099739003000984FB847984B8A
:10568000283319003000B847269588231B04279338
:10569000269A944B13432693279B934A1A408023C0
:1056A0001B03134327930822099928A8A0478F4C6E
:1056B000022226A920008E4B984723689A699207F8
:1056C00000D51CE70421D022995018E7D82153585F
:1056D0002342FCD001351037032D3CD08548C84704
:1056E000854B013B002BFCD1AB0042469B58022B63
:1056F000F0D048ABDE19B03E3100049603957B4EE6
:105700002A0030007A4B98475C46AC403268936977
:105710009B0701D4D023D450D82153582342FCD026
:105720007448764B9847764B013B002BFCD11EAB5F
:10573000D8196B4979180822664B98476B4E039A23
:10574000049930006A4B9847326893699B07BDD42F
:10575000D023D450BAE76B486B4B98476548674BEA
:1057600098476A4B013B002BFCD135AC0822002145
:105770002000674B984700232A9388231B042B9310
:105780002A9A644B13432A932B9B574A1A4080232F
:105790001B0313432B932CAB06CC06C3534C5A4626
:1057A0002AA92000524B9847226893699B0702D48C
:1057B0000221D023D150D820022113581942FCD005
:1057C0005548514B98470322544B1A700022544BB2
:1057D0001A60544E01272EAC534DB900534B0B5158
:1057E0000B5932045248034013430B518023DB0012
:1057F000F2180B595205520DDB0ADB0213430B5111
:105800000A59E0239B0513430B5161183A003748AE
:10581000A847013701367605760D052FDDD1334BCC
:105820001A68516D80231B030B4353654148364B67
:10583000984735AB98465DAB9A46394EB14637002E
:1058400016E00225012421E000210831082240460B
:10585000204B9847384AA400A358013BA350304A34
:105860001368AB43136008239C46E044D04569D0DD
:105870003368002BFCD04B461B689B07E1D4012406
:1058800001345D46A5403B682B42F9D021002B48EE
:105890001A4B98472A4923011A1992008A185278FC
:1058A0001B199B005B5C9342CED08C4623011919D7
:1058B000890061440391501C0321084003994870FA
:1058C000191989000431120189186144BDE7C046E5
:1058D000040D0020C95E000090120020F147000076
:1058E0008011002000000808FFFFF0FFB00C00202E
:1058F0009905000098AC000020A10700616000003D
:10590000B0710B00A8AC000055610000A025260076
:10591000FF5E00000000040CC8AC0000A80C0020D2
:10592000000D0020010400000D050000FF070088A5
:10593000FFFF00F8FCAC0000F40C002010AD0000EC
:10594000400D00205E485F4B98475F4B6A46D27F10
:105950001A705E485B4CA0475D48A0473BAB5D4A70
:105960003FA906985C4CA047002800D122E55B4A7D
:1059700058493FA85A4B9847002800D125E5594B74
:105980001A68516D80231B030B435365564C2F94AB
:105990002F9B56490B40564A1A432F922F9BDB0AE6
:1059A000DB025A4613432F932F98E02292051043AF
:1059B0002F903094309B194081235B040B4330932C
:1059C000309BDB0ADB0202210B433093309B1A43EE
:1059D00030924848484B9847484B9846484B039369
:1059E000994644270124474B9A462EAE3B004F462A
:1059F00045469946A300002251465A500594F31893
:105A000004932200190037483F4B98473D49A200B4
:105A10005358002BFCD03800A8466B782A789A425D
:105A200000D1D6E4591C03220A406A7019014B4682
:105A30000433C918354BC91808310822344B98472C
:105A40003448204B98472F49A2005358012BFCD0D3
:105A500038000830434659781B788B4200D1BAE4AD
:105A60004A1C03231340424653704B4604330A0139
:105A70009918264BC91808310822254B9847210050
:105A800025481D4B9847A200935924490B40935138
:105A9000059A049913481C4B984701344435442314
:105AA0009C46E1441037032CA4D11D48054B984770
:105AB00000221C4B1A601C4E012399469DE4C046EF
:105AC00014AD000055610000A80C0020A8AA000039
:105AD000C4AA0000B01100204D5000007012002038
