S018000043414E5F515549434B5F5354415254312E7372656340
S1130000F82D0020711700006D1700006D17000017
S113001000000000000000000000000000000000DC
S11300200000000000000000000000006D17000048
S113003000000000000000006D1700006D170000B4
S11300406D1700006D1700006D1700006D1700009C
S11300506D1700006D1700006D1700006D1700008C
S11300606D170000690A0000790A0000890A00007F
S1130070990A0000A90A0000B90A00008546000098
S11300806D1700006D1700006D1700006D1700005C
S11300906D1700006D1700006D1700006D1700004C
S11300A06D1700006D1700006D1700006D1700003C
S11300B06D1700006D1700006D17000010B5064C99
S11300C02378002B07D1054B002B02D00448AFF353
S11300D000800123237010BD68010020000000008F
S11300E0148C0000084B10B5002B03D007490848B6
S11300F0AFF3008007480368002B00D110BD064B06
S1130100002BFBD09847F9E7000000006C010020A9
S1130110148C0000148C0000000000000C4B1B68C1
S1130120002B06D1EFF31083002B07D00022094BDC
S11301301A70074A136801331360704772B6BFF32D
S11301405F8F0022044B1A700132024B1A70F0E7E1
S1130150840100208801002000000020084B1A6858
S1130160013A1A601B68002B09D1064B1B78002B3F
S113017005D00122044B1A70BFF35F8F62B670473B
S1130180840100208801002000000020F0B583B025
S113019001AC012565700027A770257021000F2090
S11301A0064EB047802212028223DB059A61277033
S11301B0657021001C20B04703B0F0BD5D0600004F
S11301C003680A4A934203D0094A934207D070470E
S11301D0084A116980235B000B431361F7E7054A62
S11301E0116980239B000B431361F0E7001C00425C
S11301F0002000420008004070B50C0015000160AA
S1130200A54B9847A54B00221A702A781A70A44B64
S11302109C4200D1C6E0A34B9C4200D1FFE0A369FD
S113022002221343A3610023BC22A3500C32A35027
S11302309D4BE3619D4BE360AB7B002B04D0E268F4
S113024080231B041343E3606B78002B03D0A36863
S113025040221343A3606269AB7813436361EB7874
S1130260002B04D0A2698023DB011343A3612B7903
S1130270002B04D0A26980239B011343A3616B79F3
S1130280002B04D0A26980235B011343A361AB79E3
S1130290002B03D1A36940221343A361EB79002B04
S11302A003D0A36910221343A3612B7A002B03D03C
S11302B0A36908221343A3616B7A1B04F02212037F
S11302C013400122134323622B7B6A7B13436A8905
S11302D012041343A362EB7B1B02FE22D2011340E0
S11302E0297C7F220A401343A3646A7C12013023D1
S11302F01340A97C89000C220A4013438022A35096
S1130300EB7C002B03D0A35802210B43A3502B7D7D
S1130310002B04D08022A35801210B43A350902327
S1130320AA69E2502B7F002B05D0A022A15880237C
S11303301B060B43A350A022A1586B7F1B06FE2073
S1130340C00503400B43A350AB7F002B05D01032F4
S1130350A15880231B060B43A350B022A158EB7F66
S11303601B06FE20C00503400B43A3502023EB5C77
S1130370002B05D01032A1588023DB050B43A3507A
S1130380F022A1582123EB5C1B06FC2080050340CE
S11303900B43A3500323E365043B103AA3500432F8
S11303A0A35070BD3D491A20414B98471A20414B38
S11303B098473B4B9A6902210A439A613E4A1204C8
S11303C0120C802189030A4384215A503B4A1204A7
S11303D0120C802149030A4388201A50384A120417
S11303E0120C0A4318301A50364A1204120C1143E4
S11303F0B0229950344A1204120CAC215A50334A98
S11304001204120C32490A43C0215A50314A1204D0
S1130410120C802109030A43F0215A5003E71F49B3
S11304201B20234B98471B20224B98471D4B9A694E
S113043002210A439A61284A1204120C802189037A
S11304400A4384215A50254A1204120C802149037C
S11304500A4388201A50224A1204120C0A43183004
S11304601A50204A1204120C1143B02299501E4A09
S11304701204120CAC215A501C4A1204120C1449D6
S11304800A43C0215A501A4A1204120C802109034B
S11304900A43F0215A50C6E6C1010000C80D0020ED
S11304A0001C004200200042030A0506330A05002E
S11304B015160000A51500000C0500208C02002074
S11304C00C0300200C0400208C0100208C0500206B
S11304D0000004040C060020CC0900204C07002076
S11304E0CC070020CC0800204C0600204C0A002039
S11304F0CC0A00200268936901218B43936101684F
S113050001228B691A42FCD17047000010B50368C0
S11305100948834204D0094C1720A34206D010BDD9
S113052009689200064BD1500020F8E70968920050
S1130530044BD1500020F2E7001C0042002000428E
S11305400C050020CC09002070B50D0003680D4C8B
S1130550A34204D00C4C1720A34209D070BD120151
S11305600A49891810222800094B98470020F5E70A
S113057012010849891810222800054B98470020C9
S1130580ECE7C046001C0042002000428C01002021
S11305906D5400004C06002070B50D0003680D4C2E
S11305A0A34204D00C4C1720A34209D070BD120101
S11305B00A49891810222800094B98470020F5E7BA
S11305C012010849891810222800054B9847002079
S11305D0ECE7C046001C0042002000420C0300204F
S11305E06D540000CC07002010B5036817488342FF
S11305F004D0174C1720A34214D010BD0B68154823
S1130600120113504C6883185C600B0008330832E5
S11306108218103118781070013301328B42F9D1ED
S11306200020EAE70B680C48120113504C68831849
S11306305C600B000833083282181031187810708F
S1130640013301328B42F9D10020D6E7001C00426D
S1130650002000428C0500204C0A002000B583B025
S113066001AB80221A700A785A704A789A708A7894
S1130670DA701900014B984703B000BD1117000050
S1130680F0B5DE4657464E464546E0B587B080464F
S1130690049116001F000022002300218B463F24F2
S11306A001202100009601975C460394444605947A
S11306B013E02024641A0500E540A84614E0009CD9
S11306C0019D121BAB415C464D462C43A346039C43
S11306D045462C430394013925D3202464420C1944
S11306E0E7D40500A540A84604008C40A146921812
S11306F05B4114001D00059E4F463E40B446049ED7
S113070047463E40B246664657463E4303D006003F
S1130710264332002B00009C019D9D42DBD8CED1A4
S11307209442D8D8CBE7039B5846190007B03CBC89
S113073090469946A246AB46F0BD10B54908402301
S11307400024814202D2180010BD1C00091A631C47
S11307509BB28842F9D94023FF2CF4D8148000239B
S1130760F1E70000F0B583B00F00160008AA117875
S113077004004C434022BC4202D9100003B0F0BD37
S1130780002B14D1020008000021194CA0470100DD
S11307903A0000230020174CA04700220123121A1C
S11307A08B41120C1B041A4332800022E5E700221D
S11307B0012BF9D10A00002300210D4CA0470200AF
S11307C00B0000920193380000210A4CA047050059
S11307D080239B0140229842CFD8790FF800009AD9
S11307E0019BA047EA00821AD2B252032A43DBE7F4
S11307F0D15300008106000010B582B004000E4BF6
S11308001B78002B07D0002905D10B4B5B78834262
S113081010D01D200CE001A90C701220074B984742
S11308201220074B9847044B5C7001221A70002079
S113083002B010BD0020FBE70C0B002015160000D1
S1130840A5150000404B984231D00AD93F4B98423D
S11308504DD03F4B98425AD03E4B984237D000205F
S113086070473D4B98420CD03C4B9842F7D101293C
S113087017D000295DD0022915D0032915D00020F6
S1130880EEE7012907D0002951D0022905D0032918
S113089005D00020E4E73248E2E73248E0E7324896
S11308A0DEE73248DCE73248DAE73248D8E70129A4
S11308B007D000293FD0022905D0032905D0002004
S11308C0CEE72D48CCE72D48CAE72D48C8E70129D3
S11308D007D0002931D0022905D0032905D00020F2
S11308E0BEE72848BCE72848BAE72848B8E7012902
S11308F007D0002923D0022905D0032905D00020E0
S1130900AEE72348ACE72348AAE72348A8E7012930
S113091007D0002915D0022905D0032905D00020CD
S11309209EE71E489CE71E489AE71E4898E71E4823
S113093096E71E4894E71E4892E71E4890E71E4833
S11309408EE71E488CE7C046000C004200140042AB
S11309500018004200100042000400420008004257
S11309600300050003000600030007000200110055
S1130970020012000200130002000D0002000E002B
S113098002000F0002001700020018000200190004
S11309900300290003002A0003002B0003002300A6
S11309A003002000030021000300040002001000E3
S11309B002000C00020016000300280003002200BD
S11309C030B587B00B4B6A4632CB32C232CB32C21F
S11309D0009B83420BD001239A00694652588242FD
S11309E006D00133062BF7D1002007B030BD002319
S11309F0D8B2FAE76C65000070470000F0B50A4B06
S1130A001B78002B0CD1094F094E0A4D0024DE51EE
S1130A105A1914600433182BF9D10122024B1A70AD
S1130A208000024BC150F0BD0E0B0020100B0020C3
S1130A30F9090000CC0D002000B583B009236A46F3
S1130A40137001335370013393700133D370013346
S1130A50137101335371034B98476B46185603B017
S1130A6000BDC046C109000010B5024B1B68002040
S1130A70984710BD100B002010B5024B5B68012095
S1130A80984710BD100B002010B5024B9B68022044
S1130A90984710BD100B002010B5024BDB680320F3
S1130AA0984710BD100B002010B5024B1B690420A1
S1130AB0984710BD100B002010B5024B5B69052050
S1130AC0984710BD100B0020F0B5DE4657464E4641
S1130AD04546E0B591B005000C00160029600800F9
S1130AE0D24B984705280DD00700133722680523F9
S1130AF0D20709D5180011B03CBC90469946A246CD
S1130B00AB46F0BD1927F1E7226817339207F1D4F9
S1130B10C74AD16901301B3B83400B43D3610FA902
S1130B2035239846F35C0B70FFB23800C14B9847ED
S1130B303800C14B98474346F05C0021BF4B9847AF
S1130B40F37A6B712C23F35CAB712D23F35CEB71A3
S1130B50F37E2B722423F35C6B722B6802931800D0
S1130B60B24B984705281DD0133000220E2306A946
S1130B708C4663441A80338A98468023DB01984567
S1130B8000D1C3E010D9C023DB01984500D1B8E0FF
S1130B9080231B02984500D066E1032306930023BB
S1130BA007930AE01920E0E780239B01984500D0D1
S1130BB05AE1102306930F3B079333680593F368B8
S1130BC09B4673690393337E04932E23F35C9A4606
S1130BD073689946002B00D1C5E080235B059945D5
S1130BE000D1A8E0737E002B02D0B37E029A9373E7
S1130BF00E2306AA944663441B88029A9381059A9D
S1130C005B461A43039B1A434B461A4343461A4313
S1130C10049B1B021A4353465B071A432F23F35CBE
S1130C20002B01D104331A43737E9B022421715C8F
S1130C3049020B432621715C09020B432C21715C90
S1130C4049040B432D21715C09040B43B07AF17AFA
S1130C50084318433389FF2B00D1AAE080214904BB
S1130C600A43184302998B689C46338C718C0B435E
S1130C701F000721634619403B000B4302998B6018
S1130C80F369002B02D06E490A401A433423F35C03
S1130C90002B03D16B4B9B789B0701D580231A4310
S1130CA02968029FCB69002BFCD178602968CB6945
S1130CB0002BFCD13A603B68F02212051340E0227D
S1130CC0D20493420AD0BB6807229343BB60BA683C
S1130CD02523F15C1E3B0B401343BB600EAB80220B
S1130CE01A7000225A70DA709A70B36B0A93F36B1D
S1130CF00B93336C0C93736C02930D9300270AAE21
S1130D0066E008230693073B079356E73368059389
S1130D10F3689B4673690393337E04932E23F35C39
S1130D209A4673689946002B19D080235B05994530
S1130D3001D0002327E02F23F35C002B00D051E7E0
S1130D40B36A1F00C0B2404B984701000E2206ABA5
S1130D509C46624438003D4B9847030013E0082347
S1130D600693002307932F23F35C002B0FD0069BDD
S1130D700093079B0E2206A98C466244316BB06A2D
S1130D80334FB8470300002B00D0B3E62AE7B36A19
S1130D901F00C0B22C4B98470100069B0093079B91
S1130DA00E2206A8844662443800294FB84703003F
S1130DB0E9E7F37E002B00D154E78023DB041A43D8
S1130DC050E72000234B984707E00137042F0DD04C
S1130DD0F9B2BB0098590028F3D0431CF5D00EA9F2
S1130DE00870000CC0B21C4B9847EEE70023EB6080
S1130DF02B616B61AB61EB612B62AB626B620022B6
S1130E00EB85AB853033EA540133EA540133EA54B9
S1130E100133EA542868054B984704000F49104BE6
S1130E209847A4000F4BE550002363E6C109000076
S1130E300008004015160000A5150000F907000081
S1130E40FFFFFFF000200041391600003B070000BF
S1130E50650700004508000011170000050F000099
S1130E60FD090000CC0D00201023069300230793F6
S1130E70A3E6C046C2791C23002A01D1180070479A
S1130E80C28D92B2173B002AF8D102681185022163
S1130E90137E0B42FCD00023F0E782791C23002A46
S1130EA001D118007047828D92B2173B002AF8D105
S1130EB00268107E4007F4D5538BDBB258061DD070
S1130EC0980703D5022353831833EAE7580703D559
S1130ED0042353831A33E4E7D80703D50123538348
S1130EE01233DEE7D80603D5102353833233D8E711
S1130EF09B0603D5202353832133D2E7138D0B8024
S1130F000023CEE7F8B58000644BC5582C68E3692C
S1130F10002BFCD1237EA67D1E403023EB5C3122C6
S1130F20AF5C1F40F30722D5EB8D9BB2002B1CD086
S1130F30AA6A1378DBB2511CA962697901290ED01F
S1130F409BB2DB05DB0D2385EB8D013B9BB2EB856F
S1130F50002B0CD1013323750133A37507E05178BD
S1130F6009020B430232AA62EBE701232375B3079C
S1130F7006D50223237500223133EA54FB071ED41D
S1130F80730768D5AB8D9BB2002B62D0638BDBB249
S1130F901A0718D47F2213405A0601D540229343DE
S1130FA0002B33D09A0711D51A223223EA54303B4E
S1130FB063837B074FD528006B6998474BE0280073
S1130FC0EB689847DCE777221340E5E75A0705D535
S1130FD01E223223EA542E3B6383EAE7DA0705D55F
S1130FE013223223EA54313B6383E2E7DA0605D560
S1130FF042223223EA54223B6383DAE79B06D8D5A4
S113100041223223EA54123B6383D2E7238DDB056A
S1131010DB0DDAB2696A0A706A6A511C696269791D
S1131020012910D0AB8D013B9BB2AB85002B12D1B3
S11310300433237500222E33EA54BB070BD5280052
S11310402B69984707E01B0A53706B6A01336B6284
S1131050E8E704232375F30604D5102323752376C8
S1131060FB060ED4B30604D52023237523763B0751
S11310700BD4330704D5082323752376BB0608D481
S1131080F8BD2800EB699847ECE72800AB6998475E
S1131090EFE72B6A28009847F2E7C046CC0D002002
S11310A010B5072803D880000F4B1B589F4600201B
S11310B018E00E4B586815E00D4B597D0907090FD0
S11310C001310C480C4B98470CE0084B986809E038
S11310D0074B1B7F00209B0704D5044B186801E0D5
S11310E08020000210BDC04684650000280B00204B
S11310F000100040006CDC02E5500000F0B5DE4654
S113110057464E464546E0B5254A938A45780178C8
S11311104C424C41A14681788C46C1788846467A37
S1131120077A817A8B461F4944688C60C17A8900AA
S1131130847B64002143447B2143C9B29175017BC4
S1131140D1750121484680000424A343034340464B
S11311500840C0000434A343034360460840000130
S11311600834A34303430F40BF01402083433B4360
S11311700E40F601403083433343793805402D0255
S1131180094803402B4358460140090307480340DC
S11311900B4393823CBC90469946A246AB46F0BDB5
S11311A000140040280B0020FFF8FFFFFFEFFFFFB3
S11311B0F8B50400C568037D012B4DD0A368180160
S11311C02900294B98470F22024003092178C901BD
S11311D06678B6013143C9B2244E31771104013B1C
S11311E01B051B0D0B43336237002C260421BB5D0A
S11311F00B42FCD1A3781B03E178C9000B4321798E
S113120089000B43A17C032631400B43218A090446
S1131210174F39400B43E17C0902E027FF003940B6
S11312200B43277D3F01302139400B430F494B626B
S1131230637D1E402823CE540F002C260821BB5D5D
S11312400B42FCD10F23984382186A43637D043315
S1131250DA40084B1A60F8BD018A013149002800C0
S1131260014B98470500A9E7E55000000010004035
S11312700000FF07280B0020072803D88000184B24
S11312801B589F46172029E0164A137D02210B4361
S11312901375002022E0144A936902210B439361E1
S11312A000201BE00F4A138A02210B431382002003
S11312B014E00D4A938A02210B43938200200DE02F
S11312C0084A137F02210B43137710002A310222AC
S11312D0435C1342FCD1002000E000207047C0466C
S11312E0A46500000010004000140040F0B5C6469C
S11312F000B58EB003223F4B9A603F4A53681E21CB
S11313008B4318390B4353600AA8002303708022CF
S11313101202426083700122C2708372C37203732B
S1131320437383730239417043720272334B98479B
S11313300520334B984733490122CB681A42FCD02D
S1131340314B1A7D80210A431A7502225A751A00FC
S11313509369002BFCD12D4B984701AD01260296D1
S113136000246C706C7205232B702E7229000120EE
S1131370274B984698470120264FB8476E606C70FB
S11313802C726C7207232B7029000820C047082098
S1131390B84704A88470C47004711F4B836006822C
S11313A04475C474847404700123437004751B4B26
S11313B0C3601B4B98470720114B984712483021B4
S11313C00322435C1340032BFBD1023B154A1371E8
S11313D001A94B6000224A704A7207320A700B72EC
S11313E000200B4B984700200A4B98470EB004BCD2
S11313F09046F0BD0018004000400041FD10000080
S1131400791200000014004000100040291400006C
S11314104D140000F9140000006CDC02FF7F000092
S1131420B111000000080040064A536980210B43B3
S113143053610122044B1A7019000B781342FCD13A
S11314407047C04600080040001C004070B504000E
S11314500D784B78002B02D08023DB001D434B7AA0
S1131460002B02D080231B011D43486801280FD99B
S1131470431E184231D102282DD902230022013201
S11314805B009842FBD880235B011D431204154383
S11314900B7A002B02D080239B011D430426A64017
S11314A01149124A4B6813401E42FBD1104B984716
S11314B0A4000D4B9C466444226A80235B001A40BE
S11314C02A4322626146094A4B6813401E42FBD1FB
S11314D0084B984770BD0022D5E7000480239B0089
S11314E018430543D4E7C046001C0040FC07000035
S11314F01D0100005D01000010B5040004228240BB
S113150009480A4943680B401A42FBD1084B9847E3
S1131510A400054B9C466444226A80235B00134369
S11315202362044B984710BD001C0040FC070000D8
S11315301D0100005D010000F8B504000422824092
S11315401248134943680B401A42FBD1114B984788
S11315500E4F0834A400E0594007400F0E4B984743
S11315600600E559ED04ED0FE459240C0B4B9847A4
S1131570002D07D1012C07D921003000084B9847D2
S1131580060001E00134E6403000F8BD001C0040D4
S1131590FC0700001D010000A11000005D01000017
S11315A0E550000010B50400094B9847A000094B12
S11315B09C4660448022835840210B438350403131
S11315C0403A43581A42FCD0034B984710BDC046DA
S11315D01D010000001C00405D01000010B5040066
S11315E0094B9847A000094B9C46604480228358CD
S11315F040218B4383504031403A43581A42FCD136
S1131600034B984710BDC0461D010000001C00405C
S11316105D01000070B504000D00054B98472A7861
S11316200F2313402034A400024AA35070BDC046C7
S1131630DD150000001C004010B50400064B98475F
S11316402034A400054BE4582407240F044B984786
S11316502000044B984710BD1D010000001C0040F1
S11316605D0100003915000030B5D378002B35D169
S11316701378802B29D01B068024640223435478DA
S11316800225AC4306D19478002C20D18024A402F6
S1131690234341605478013C012C1CD90D042D0CCA
S11316A0A024E4052C431C4384620D0CD02424069E
S11316B02C431C438462D478002C22D15B031CD5B8
S11316C09378012B1ED0416117E00023D7E7C02493
S11316D0E4022343DDE70D4C2340DFE741600C04C3
S11316E0240CA023DB05234383620C0CD0231B06AC
S11316F023438362D378002B03D15378013B012B1E
S113170002D930BD8161F8E78160FAE7FFFFFBFF92
S113171010B50A00C1090023002905D14309DB01E2
S11317208221C9058C4663441F2420400121814045
S11317301800014B984710BD69160000704700005F
S113174010B5054B9847054B9847054B9847054BF3
S11317509847054B984710BDED1200008D0100001D
S11317603D1700003D1700003D170000FEE7000094
S113177010B5174A174B9A4211D01A00164B9A42C9
S11317800DD2164A03339B1A9B0801339B00002297
S113179010480F498C58845004329A42FAD1104AA6
S11317A0104B9A420AD2D3430E495B1803218B4350
S11317B004339B18002102C29342FCD10A4AFF2140
S11317C00A4B8B4393600A4B98470A4B9847FEE7B2
S11317D0148C000000000020680100200400002098
S11317E068010020F40D002000ED00E0000000007E
S11317F02554000089490000F0B5C64600B50C0028
S1131800904600280FD1002A11DD8F18094E0A4D89
S1131810306821002B6898470134BC42F8D1404617
S113182004BC9046F0BD01235B429846F7E780462E
S1131830F5E7C046EC0D0020E40D0020F0B5C646E7
S113184000B50E0015000138022810D8002A11D066
S113185000240C4B98460C4F43461868315D3B6896
S11318609847002808DB0134A542F5D106E001249D
S1131870644203E0140001E001246442200004BC3B
S11318809046F0BDEC0D0020E80D00200300064A50
S11318901268002A04D0044A1068C3181360704701
S11318A00249014A1160F6E7340B0020F82D0020AC
S11318B001204042704780239B014B600020704709
S11318C00120704700207047F0B5D6464F4680B5DA
S11318D08BB0814600919246129E0822002108A8EE
S11318E09C4B984700229C4B1A709C4B0793079B78
S11318F0DB0ADB02033213430793079B984A1A401F
S1131900984B13430793079AE0239B0513430793CC
S1131910032207A93000944B98473268516D802305
S11319201B030B435365914A1368002BFCD0002220
S11319308E4B1A60894D0795079B8D4A1340079378
S1131940032207A93000884CA0478A488A4B98474D
S1131950009B10331800102200217E4FB84710223C
S113196049460098B8470795079BDB0ADB02042227
S113197013430793079B7A4A1A4080235B0413435B
S11319800793079AE0239B0513430793042207A9AF
S11319903000A0473268516D80231B030B4353650D
S11319A00024764D764F48370197764F20002B68F8
S11319B0A342FCD0C000504408220199B847013426
S11319C0032CF3D1654B0793079B4A460132FF3240
S11319D0120463490B4013430793079BDB0ADB02A2
S11319E0042213430793079AE0239B0513430793A9
S11319F0042207A930005C4B98473268516D80235C
S1131A001B030B4353655D4A1368032BFCD05046FC
S1131A10183008225A4948315A4DA8474F4B07936A
S1131A20079B534A13400793042207A930004E4BE7
S1131A3098475548504B98470023039388231B0429
S1131A400493039B8024A4004C44A4044F4A1440F0
S1131A5023430393049B4E4A1A4080231B031343DE
S1131A6004930822009905A8A847052203A9300079
S1131A70484B984733689A69920702D42021D022B0
S1131A8099503068D821202243581A42FCD1424B45
S1131A90013B002BFCD1039388231B040493039B79
S1131AA01C430394049B3A4A1A4080231B031343A8
S1131AB0049300990831082205A8324B984705225F
S1131AC003A93000334B984733689A69920702D4CC
S1131AD02021D02299503068D821202243581A421C
S1131AE0FCD12E48244B98471C4B0793079BDB0AD9
S1131AF0DB02032213430793079B194A1A40194B2D
S1131B0013430793079AE0239B0513430793032288
S1131B1007A93000144B98473268516D80231B038A
S1131B200B435365114A1368002BFCD000220F4B62
S1131B301A600A4B0793079B0D4A1340079303222D
S1131B4007A93000084B984701200BB00CBC914604
S1131B509A46F0BDA3540000380B0020FF0700880C
S1131B60FFFF00F8000011040D0500003C0B0020ED
S1131B70FFFFFFC7C4650000A9550000400B00200B
S1131B80440B00206D540000E06500000000FC1FC1
S1131B90FFFFF0FFE9050000E0930400FC6500008E
S1131BA010B50268012906D9031D8900401810CB1D
S1131BB022438342FBD150421043C00F01384042BC
S1131BC010BD0000F8B505000E00C769C468010027
S1131BD02031202230000B4B9847042128000A4B67
S1131BE09847002806D16400E40FE407F3691C4316
S1131BF0F461F8BD7F00FF0FFF07F3691F43F7612E
S1131C00F7E7C0467F540000A11B0000F0B5C646AC
S1131C1000B5DCB005000E002022002128A8734B7B
S1131C2098470123289334002034202229002000DF
S1131C306F4B9847EF7FFF09F36B5B005B08F3631F
S1131C4038A920006B4B984730AA6B4938A86B4BD6
S1131C50984738AA28A91000694B984730AA28A9A0
S1131C601000684B984750A930A8674CA0474CA96E
S1131C7034A8A04750AA4CA91000644B9846984732
S1131C804CAA30A938A8624DA84748AA34A93CA850
S1131C90A8474CAA48A91000C04748AA30A93CA8A4
S1131CA0A84744AA34A938A8A84748AA44A91000B8
S1131CB0584B984744A94CA8A04740A948A8A04716
S1131CC044AA40A91000C0477D244F4D44A90800F0
S1131CD0A847013C002CF9D154AA44A94CA84B4B69
S1131CE0984754A84C4B9847042154A84B4B984709
S1131CF000285AD154AA11001000444B984744A913
S1131D0050A8414DA84744AA110050A8404CA047F0
S1131D1044AA110054A8A04758A944A8404B984786
S1131D2044AA58A950A8A047320044A954A8A047DF
S1131D304CA93000A8474CAA110050A8A047300075
S1131D40384B9847350010352A0044A948A8A047C5
S1131D5054AA4CA910002F4B984754A82E4B9847CF
S1131D60042154A82D4B9847002824D030002A4B36
S1131D70984704213000294B9847002826D0F3695E
S1131D809B0FBB4202D03000274B98476946300076
S1131D90264B98476846264B98470123002818D0BD
S1131DA018005CB004BC9046F0BD54AA44A94CA8E9
S1131DB0184B98479EE750A930001E4CA0473100AD
S1131DC02800A047290050A8A047CFE7F3689B0F3D
S1131DD0D7E704A8184B9847290004A8154B98473F
S1131DE06846134B98470300DAE7C046A354000043
S1131DF07F540000FD2A000008660000092B000043
S1131E00212B0000152B00000D1F00009D1E00005B
S1131E10D51E0000A91E00001D1F0000A11B00000C
S1131E20D1200000C9240000C52A00001D2F000095
S1131E30592F00008F1E0000B51E000070B503046A
S1131E401B0C000C0C04240C090C25005D434B43B3
S1131E5044434143280C2604360C80191E04360CD6
S1131E608019060C2D042D0C000445401560240C2B
S1131E701B0CE3180C04240C1B199B19180C090CDB
S1131E80091809041B041B0C4B40536070BD00234C
S1131E90C258CA500433102BFAD1704710B5014B05
S1131EA0984710BD893E000010B5014B984710BDFE
S1131EB0BD3E00000368DB4303604368DB434360CB
S1131EC08368DB438360024BC2689B1AC36070471C
S1131ED0FFFFFF7F70B588B005000E0014002022BC
S1131EE000216846064B98476A4631002800054B96
S1131EF0984721006846044B984708B070BDC04617
S1131F00A3540000B93D0000353E000010B50A009E
S1131F100100014B984710BDD51E0000F0B5CE4618
S1131F20474680B5814604000C239846C844010006
S1131F3000270B3B9C460D686E1CEB433343DB0FC1
S1131F40624653403B401A00EB433343DB0F1343D9
S1131F50F61B40C11F004145EDD14A46D2681B48DB
S1131F6015181B48861A2E43F60F01277E401E4083
S1131F7007005740684007437A40D20F1643B446DF
S1131F80EB1A4A46D3607742002322689046D2185F
S1131F906546561B40C415005D40404643401D4302
S1131FA05540130073407A40134373402B43DB0FB7
S1131FB08C42EAD17F084A46D26894466744FB18AB
S1131FC04A46D3600CBC90469946F0BD010000809F
S1131FD0FFFFFF7FF0B5DE4657464E464546E0B567
S1131FE087B003919946590006D01300890051180F
S1131FF0002410C38B42FCD14B46002B35D00192F8
S113200080469B00029300239B461B4B9A46039FEA
S1132010019E0024002502CF04AA43461868D04735
S1132020049A13191100594054400C435C40E40FC6
S1132030059A0092A11830681A1843401C005040B9
S113204004435440E40F641804C60135A945E2D1A1
S1132050019B029A9C5001229446E3440433019369
S113206004239C46E0445D45D1D107B03CBC904676
S11320709946A246AB46F0BD3D1E0000F0B5CE46E3
S1132080474680B588469146002B1FD09B009C464E
S113209000270024C5592E194346D95972184B46B6
S11320A0DA51330063406C4023437340350055409C
S11320B034004C402C4354401C43E40F0437674520
S11320C0E8D120000CBC90469946F0BD1C00F8E70E
S11320D0F0B595B005000E000CA9484CA0470CAA19
S11320E011002800464FB84708A90CA8A04708A922
S11320F00800A04708AA11000CA8B84704A908A81A
S1132100A04704A90800A04704A90800A04704A9FF
S11321100800A04704AA110008A8B847694604A803
S1132120A0470724354F69466846B847013C002C50
S1132130F9D16A46694604A8314B98470CA9684608
S11321402E4B98470F342D4F0CA90800B847013C7B
S1132150002CF9D10CAA11006846294B984710A904
S11321600CA8264B98471F34244F10A90800B847E1
S1132170013C002CF9D110AA11000CA8204B98475F
S113218020341E4F10A90800B847013C002CF9D197
S113219010AA0CA910001A4B98471034174F10A915
S11321A00800B847013C002CF9D110AA1100684678
S11321B0134B98470834114F10A90800B847013C45
S11321C0002CF9D110AA110004A80D4B984704342F
S11321D00A4F10A90800B847013C002CF9D110AAF5
S11321E0110008A8064CA04710A90800034B984703
S11321F0320010A92800A04715B0F0BD0D1F000043
S1132200D51E000070B598B0050004A94D4CA04738
S113221004AA110028004C4EB04708A904A8A047FE
S113222008A90800A04708AA110004A8B0470CA9EF
S113223008A8A0470CA90800A0470CA90800A047BB
S11322400CA90800A0470CAA110008A8B04710A9BF
S11322500CA8A04707243B4E10A90800B047013C36
S1132260002CF9D110AA11000CA8374B984704A9E7
S113227010A8344B98470F34324E04A90800B047D5
S1132280013C002CF9D104AA110010A82E4B984748
S1132290694604A82B4B98471F342A4E6946684662
S11322A0B047013C002CF9D16A46694604A8264B84
S11322B098472034234E69466846B047013C002CB9
S11322C0F9D16A4604A968461F4B984710341D4E3D
S11322D069466846B047013C002CF9D16A46694614
S11322E010A8194B98470834164E69466846B047FB
S11322F0013C002CF9D16A4669460CA8124B984758
S11323000434104E69466846B047013C002CF9D1AC
S11323106A46694608A80C4CA04769466846094EB7
S1132320B04714AA69462800A04714A90800B0477A
S113233014A90800B0472A0014A92800A04718B01F
S113234070BDC0460D1F0000D51E0000F0B5D64676
S11323504F464646C0B584469146002B22D09B008A
S113236098460026002201239A4663469B598F59BA
S1132370DD1B6C422C43E40F5046444014401800CB
S113238078406F4038435840C00F2043AD1A4B4645
S11323909D51043602004645E7D11CBC904699463F
S11323A0A246F0BD0020F8E770B5B0B014000823D1
S11323B020AA194DA847082310AA184920A8A847FD
S11323C008236A46164910A8A84710236A46694696
S11323D020A8144DA847050000231A006A44126A75
S11323E0E2500433202BF8D1183B22000C49200082
S11323F00D4EB047281A002309495A5802406D4629
S11324005A510433202BF8D1183B2200694620008E
S1132410044CA04730B070BDD51F000048840000B4
S1132420888400007D2000004D23000030B591B069
S113243004000D00202200216846074B9847012321
S1132440009308AA05492000054CA0472A006946C4
S113245008A8A04711B030BDA35400002884000090
S1132460A9230000F0B5D6464F464646C0B5894676
S1132470012603681E40731E9C4600250023114A52
S113248092465246AA5861460A40D4184659A119A0
S11324904F46795127005F405A403A436240904684
S11324A022004A402300734013434B4042461343E7
S11324B0DB0F0435202DE4D11CBC90469946A2467E
S11324C0F0BDC04688840000F0B5D6464F46464667
S11324D0C0B5012603681E40B24673429946010006
S11324E00C2398468044040000275346FA1A2368B4
S11324F0D51820C416007E40B4464E467740664642
S11325003743574053406A4013436B403B43DF0F0C
S11325104445EAD14B465B08C26894466344DB19E0
S1132520C3600B685B084A68D207534008C1A142E4
S1132530F7D1C3685B08C3601CBC90469946A246A9
S1132540F0BDF0B5D6464F464646C0B501270368F0
S11325501F407B42984604000C239C46844405009B
S11325600023D91B2A6892468E1840C50A005A4097
S1132570914642465A404B461A434A4091460A0005
S1132580724053464B40134373404A461343DB0F98
S11325906545E6D142465608C26894466644F31837
S11325A0C36023685B086268D207534008C4AC4226
S11325B0F7D1C3685B08C360012703691F407B42EE
S11325C09846040010341C239C46844425000023B0
S11325D0D91B2A6892468E1840C50A005A40914673
S11325E042465A404B461A434A4091460A007240BA
S11325F053464B40134373404A461343DB0F654530
S1132600E6D142465608C26994466644F318C3614B
S113261023685B086268D207534008C4AC42F7D110
S1132620C3695B08C3611CBC90469946A246F0BDD1
S11326300023C258CA500433102BFAD1C258CA50CE
S11326400433202BFAD17047F0B5D6464F464646A0
S1132650C0B5C2B004008A4690461F0022A9AA4D04
S1132660A847200020302AA9A8472000403032A9DA
S1132670A847200060303AA9A84725008035802368
S1132680DB009946A144A04E01235B429C46E044F2
S11326904346DC0F644402A92800B04728002030D8
S11326A00AA9B0472800403012A9B047280060307A
S11326B01AA9B047229A029B5340234053402293C5
S11326C0239A039B5340234053402393249A049B0F
S11326D05340234053402493259A059B5340234061
S11326E053402593269A069B5340234053402693F8
S11326F0279A079B5340234053402793289A089BCB
S11327005340234053402893299A099B5340234024
S1132710534029932A9A0A9B5340234053402A93B7
S11327202B9A0B9B5340234053402B932C9A0C9B86
S11327305340234053402C932D9A0D9B53402340E8
S113274053402D932E9A0E9B5340234053402E9377
S11327502F9A0F9B5340234053402F93309A109B42
S11327605340234053403093319A119B53402340AC
S113277053403193329A129B534023405340329337
S1132780339A139B5340234053403393349A149BFE
S11327905340234053403493359A159B5340234070
S11327A053403593369A169B5340234053403693F7
S11327B0379A179B5340234053403793389A189BBA
S11327C05340234053403893399A199B5340234034
S11327D0534039933A9A1A9B5340234053403A93B7
S11327E03B9A1B9B5340234053403B933C9A1C9B76
S11327F05340234053403C933D9A1D9B53402340F8
S113280053403D933E9A1E9B5340234053403E9376
S11328103F9A1F9B5340234053403F93409A209B31
S11328205340234053404093419A219B019353408A
S11328301C405440419480354D4500D024E71AA9EA
S11328403AA8314CA0470AA922A8A04702A92AA85D
S1132850A0471A9BDB431A931B9BDB431B931C9BD4
S1132860DB431C93294B1D9A9A1A1D921E9AD2433C
S11328701E921F9AD2431F92209AD2432092219AE9
S11328809B1A219322AB02AA26A8146819686140F6
S113289039406140196014691969614039406140E7
S11328A01961146A196A6140394061401962146BF4
S11328B0196B6140394061401963146E196E6140AF
S11328C0394061401966146F196F614039406140A5
S11328D01967043304328342D7D1514622A80A4CE3
S11328E0A047514620312AA8A0475146403132A87A
S11328F0A047514660313AA8A04742B01CBC90465C
S11329009946A246F0BDC04631260000FFFFFF7F76
S1132910F0B5DE4657464E464546E0B5B3B0040032
S1132920019192469B461AA95F4DA847200020308A
S113293022A9A847200040302AA9A84726006036CB
S11329402300C022D20094466344574A91469846D5
S1132950574602E06036464543D0013FFD0F013D36
S113296002A93000C847300020300AA9C847300007
S1132970403012A9C8471AA802AB9A461EA91A00E9
S1132980040084462368106843402B402068434079
S113299023602369106943402B402069434023612D
S11329A0236A106A43402B40206A43402362236B0E
S11329B0106B43402B40206B43402363236C106C0B
S11329C043402B40206C43402364236D106D4340EF
S11329D02B40206D43402365043404328C42D1D112
S11329E0B8E7674612A92AA82F4DA8470AA91AA82A
S11329F0A84702A922A8A847129BDB431293139B62
S1132A00DB431393149BDB431493284B159A9A1AB4
S1132A101592169AD2431692179AD2431792189A7D
S1132A20D2431892199A9B1A1993534659463868F7
S1132A301A6842400A4042403A6038691A69424082
S1132A400A4042403A61386A1A6A42400A404240A7
S1132A503A62386B1A6B42400A4042403A63386C1F
S1132A601A6C42400A4042403A64386D1A6D424042
S1132A700A4042403A6504370433A742D7D1019D46
S1132A8029001AA8084CA0472900203122A8A047F1
S1132A90290040312AA8A04733B03CBC904699464F
S1132AA0A246AB46F0BDC04631260000FFFFFF7FC3
S1132AB00023036043608360C360036143618361F7
S1132AC0C36170470368DB4303604368DB434360CF
S1132AD08368DB438360084BC2689A1AC260026948
S1132AE0D24302614269D24342618269D243826124
S1132AF0C2699B1AC3617047FFFFFF7F10B5014B8A
S1132B00984710BD2D3B000010B5014B984710BDF0
S1132B104138000010B5014B984710BDFD3C000042
S1132B2010B5014B984710BD5B3D000070B588B0EF
S1132B3004006946134EB0472500103504A9280047
S1132B40B0476A4604A968460F4B984768460F4B3E
S1132B5098472369DB4323616369DB436361A369AA
S1132B60DB43A3610A4BE2699B1AE36122006946D5
S1132B702000084CA0472A0069462800A04708B056
S1132B8070BDC0460D1F0000893E000005220000F4
S1132B90FFFFFF7FD51E0000002906D00300890037
S1132BA04018002204C38342FCD17047F0B583B0BF
S1132BB005000C000600403630000F4B98472200F9
S1132BC0310028000D4FB84720239C46A444634697
S1132BD028002030019362463100B8472000084D98
S1132BE0A847220010321000A8470198A8472000E7
S1132BF03030A84703B0F0BD2D2B00004138000051
S1132C001D1F0000F0B583B004000D006030602388
S1132C109C468C4463460193624601000F4EB047C4
S1132C20270020372A0039002000B0472A0020322C
S1132C30210038000A4B9847210080310198020096
S1132C40084FB847403420002A0040322100B047E2
S1132C50019802000449B84703B0F0BDFD3C0000F0
S1132C605B3D0000413800006884000070B504003A
S1132C700D00060020360A0031000B4B98472A004D
S1132C80203221003000094B98472A00603221008D
S1132C90803120006030064B9847290040312000E5
S1132CA04030044B984770BDFD3C00005B3D000084
S1132CB0413800003126000070B504000D00060004
S1132CC020360A003100074B98472A002032310091
S1132CD02000054B98472900403120004030034B29
S1132CE0984770BD5B3D0000FD3C000031260000AC
S1132CF0F0B595B004000CA9254DA84720239C46A7
S1132D00A4446346664604A91800A8472200009616
S1132D10310020001F4FB84780239C46A4446346DB
S1132D200193624604A90CA8B8470CAA110004A890
S1132D30194EB04740218C46A444604604A9029031
S1132D40A84760218C46A44463460393614620004F
S1132D50A84704AA11001000B847039D2A00019F48
S1132D6039002800B04704AA0CA91000B047009A03
S1132D7039000CAB1800094EB0472200290004A802
S1132D80B047029A04A90CA8B04715B0F0BDC046DC
S1132D902D3B0000FD3C00005B3D0000413800007D
S1132DA0F0B595B006000F00150040239C469444EE
S1132DB063466031603001936246204CA04739007D
S1132DC04031300040300CAAA0472A0039003000BE
S1132DD0A04720229446AC4462463900203130009A
S1132DE020300292A04704AA019F39000CA8144E77
S1132DF0B0470CAB1A00019739001800114FB847BF
S1132E0080239C46AC44634603936246029928009F
S1132E10B0472E006036320002992800B8472A00D5
S1132E2004A90398A047019A04A90CA8A047029AF0
S1132E300CA93000A04715B0F0BDC04641380000D1
S1132E405B3D0000FD3C0000F0B5CE4600B5B4B0DB
S1132E5081460C0020239C468C446346654614AA94
S1132E6019002000294EB0471CAA21000195280012
S1132E70274DA84760229446A44460468022944685
S1132E80A44461462CAA03910290224FB8474023E0
S1132E909C46A444624624A9009260461E4B98476F
S1132EA048466030009A2CA9B8474846403004AAE6
S1132EB024A9B847220014A94846B84748462030F8
S1132EC0019A1CA9B8470CAB1A00009904A8A8479A
S1132ED004AA00991000B047039A01992000A8475A
S1132EE0029A019D29002000B04722000CA90398F2
S1132EF0B847009A0CA904A8B8472A0004A9029864
S1132F00B84734B004BC9146F0BDC046FD3C000057
S1132F105B3D00004138000031260000F8B5060092
S1132F200C000B4DA8472700203730002030390013
S1132F30A847210060312000A847210080313800D3
S1132F40A84720004030034B984701232364F8BD71
S1132F5031260000B12A000070B598B00500203079
S1132F6010A92A4CA04708A92800A0476A4608A926
S1132F7010A8274CA04710AA08A91000254DA8475F
S1132F8008AA10A92448A84710A8244B984701234D
S1132F90109308AA10A91000214B984710AA08A959
S1132FA06846A047109A119D129C139813002B4356
S1132FB02343034359420B430ED4149A159E169D82
S1132FC0179C130033432B43234359420B430120E3
S1132FD0002B0DDB18B070BD013201352A430134DA
S1132FE022430130024353421A43E6D50020F1E75D
S1132FF0013201363243681C1043621C02435042C2
S11330001043C00F0138431E9841E3E72D3B0000F5
S11330105B3D00004138000068840000B12A0000D4
S1133020FD3C0000F0B5DE4657464E464546E0B549
S113303087B005008B460022C423CA5004900400C4
S1133040183403005A68D007196849080143520824
S11330509868C007196042405A600833A342F1D10E
S11330609946EA69D107AB695B080B43AB61520827
S1133070EA615946C4235B44984601239C46009662
S1133080019748460AE0EF69FB07AA6952081A4308
S1133090AA617B08EB610431414514D02B68624678
S11330A01340013B0B60049C6368DE0722685208EE
S11330B032435B08A668F6072260734063600834F5
S11330C08442F1D1DFE7009E019FC8235B44984608
S11330D0322320229146A944A246444698465B46A0
S11330E0059307E0814601239C46E04404344346AB
S11330F0FA2B56D0A34601232A681340236004996F
S11331000096019757464B68D8070A68520802434D
S11331105B088868C0070A6043404B600831B942C5
S1133120F1D1BA46EA69D107AB695B080B43AB61DD
S11331305208EA61322140461D4B98478900059B9D
S1133140CB585B425A4610681840844602900023CC
S11331500393029A039B2868696812184B4129005B
S11331600CC1009201935342009A1343DB0F0122D6
S11331705340604618400600002748460A684B68DA
S113318092197B410CC1009201935342009A13435C
S1133190DB0F0122534033401E0000278142EDD152
S11331A0A0E707B03CBC90469946A246AB46F0BDAA
S11331B0F1510000F0B5DE4657464E464546E0B5AF
S11331C0A54CA54404000391A44A00215DA8A44B86
S11331D0984755A92000A34B984755A90800A24B2E
S11331E098475DA955A8A14B9847F9239B0004AAC9
S11331F0B22149005218D2585200C83B04A9B22047
S113320040000918CB58D218520095239B0004A9FA
S11332100918CB58D2185200C42304A90918CB5852
S1133220C621490004A8B224640000194158521868
S11332308F4CC0214901601815A98E4DA8472DAAAD
S11332401DA915A88C4B984735AA1DA915A88B4B09
S113325098472DA88A4DA84735A8A8473DA8894B6B
S1133260984701233D9345A92DA8874DA8474DA90B
S113327035A8A84790235B019846A044FFAE6C365E
S1133280BD257C4B9946814C7C4B9B46B446330010
S1133290C8331A682B0028006438854208DB3100E3
S11332A052000F68BA465244323BC8398342F7DAB7
S11332B0774B63441B6815A94046C84745AA4DA9E6
S11332C01000A04705AA3DA90800D84745AA25A98A
S11332D01000A0473DAA35A92DA8D8474DAA2DA96D
S11332E035A8654B9A4698470DAA45A905A8D04725
S11332F005AA45A91000D84745AA3DA915A8A04785
S11333002DAA4DA91DA8A0473DAA0DA905A8A0470F
S11333104DAA2DA945A8D04745AA2DA91000D847E4
S11333202DAA0DA94DA8A04735AA05A945A8A047CF
S11333300A3D584B9C46E044283E952DA6D1FFAB50
S113334090330293C62301934A4B9B4607E0019BAB
S1133350013B0193029A043A0292BD2B6ED02DA830
S11333604D4B9847424BC0225201944663449946C0
S1133370019D2B0032225242944663449A46029E97
S1133380424C3E4FB4463300C8331A682B00280021
S1133390643885420ADB3100009552000D68A84666
S11333A04244323BC8398342F7DA009D384B6344C8
S11333B01B6815A94846D84745AA4DA91000A0473F
S11333C005AA3DA90800B84745AA25A91000A047A9
S11333D03DAA35A92DA8B8474DAA2DA935A8264B35
S11333E0984698470DAA45A905A8C04705AA45A926
S11333F01000B84745AA3DA915A8A0472DAA4DA974
S11334001DA8A0473DAA0DA905A8A0474DAA2DA90E
S113341045A8C04745AA2DA91000B8472DAA0DA953
S11334204DA8A04735AA05A945A8A0470A3D194BB0
S11334309C46E144283E5545A4D188E703992DA82C
S1133440164B98470120164B9D443CBC9046994628
S1133450A246AB46F0BDC0464CFAFFFF3C04000058
S1133460A35400002D240000652400002530000032
S113347028660000112900005B3D0000FD3C0000AF
S113348043250000B12A0000312600004138000025
S1133490A8FDFFFF00FAFFFFF12C0000AD2B000098
S11334A0B4050000F0B5DE4657464E464546E0B545
S11334B089B0924600239C46203399468144083BB8
S11334C098468044434600930791834611E0009454
S11334D05B46DB6919075A46926912090A43594641
S11334E08A611B09CB6104239846C4446346F82BC4
S11334F069D05A461F23126813400493002305938E
S1133500049A059B10204042C11712184B41D91749
S113351002910391C943504665464151504204000B
S11335205440214048404008079948515946096889
S11335308D1A55405946096851400C002C43594690
S113354009684C40E10F8846029C039D01204042DB
S1133550C11724184D41414621400E000027594609
S113356008684968801A994102000B0059460CC149
S1133570009B984648460B684C681A0023001400C8
S11335801D00A41BBD4130C100920193931B7340E5
S11335903400009D6C4023436B40DE0F00278142C2
S11335A0E9D18146594644464B6818070A6812090E
S11335B002431B09886800070A6043404B600831D6
S11335C08C42F1D183E75846079B9B464B68DB0F3F
S11335D0DB43F821524653500268504242401340A4
S11335E043405B085A46535009B03CBC9046994648
S11335F0A246AB46F0BD0000F0B5C9B004000D0012
S11336006946184EB0472000203008A9B047200072
S1133610403010A9B0472000603018A9B0472000FE
S1133620803020A9B047290020000F4B98476846F6
S11336300E4B984728A968460D4B98472C00E02369
S11336409B009C4665440B4F074E6A46210028A800
S1133650B847803421006846B047AC42F5D149B040
S1133660F0BDC04631260000052C0000F12C0000FE
S11336706D2C0000A12D000070B5A0B004006946B7
S11336800D4B984720000D4DA847210068460C4E6D
S1133690B0472000A8472000A8472000A8472000E2
S11336A0A84721006846B0472000A8472000A84743
S11336B02000A84720B070BD052C0000F12C0000AC
S11336C0492E0000F0B54F4CA54406000C000192B1
S11336D01D00FC22002149A84B4FB847FC220021C1
S11336E00AA8B847D323DB0002AA9446634419000E
S11336F03000464B9847D323DB0002AA9446634428
S11337001800434B9847009000286FD0002D00D03C
S113371070E002A920003F4B984702A908003E4BE5
S1133720984788A9D323DB0002AA9446634418006F
S11337303A4B98470AAA49A902A8394B9847489B8B
S1133740879AC321C90002A88446614488A8354CDD
S1133750A047D323DB0002AA944663441900C32381
S1133760DB0063441800304B9847F4242F4D2D4E52
S11337702F4FD323DB0002AA944663441800A847C2
S11337800AABE35849AAA258C321C90002A8844637
S1133790614488A8B047D323DB0002AA944663445B
S11337A01800A847D323DB0002AA944663441800F8
S11337B0A847D323DB0002AA944663441800A84711
S11337C0D323DB0002AA944663441900C323DB001D
S11337D063441800B847043C231DCAD10199D3207F
S11337E0C00002AB9C466044124B98470098124BB1
S11337F09D44F0BDD320C00002AB9C4660440F4BF7
S1133800984786E7BCF8FFFFA35400001D2F000073
S1133810592F00002D24000065240000F935000014
S1133820A534000049260000B92C0000F12C00004A
S1133830492E0000AD2B000044070000793600003B
S11338402DE9F01F8BB078C80F684FF0000A4FF0D5
S1133850000B4FF0000CA7FB0398E7FB048AE7FB7F
S113386005ABE7FB06BC4F684DF8049B4FF000091D
S1133870E7FB0389E7FB649AE7FB65ABE7FB66BC00
S11338808F684DF8048B4FF00008E7FB0398E7FBC3
S1133890648AE7FB65ABE7FB66BCCF684DF8049B25
S11338A04FF00009E7FB0389E7FB649AE7FB65AB8C
S11338B0E7FB66BC78C80F69ADE8001F4FF0000A4B
S11338C04FF0000B4FF0000CA7FB0398E7FB048AB2
S11338D0E7FB05ABE7FB06BC4F694DF8049B4FF0D3
S11338E00009E7FB0389E7FB649AE7FB65ABE7FBA9
S11338F066BC8F694DF8048B4FF00008E7FB039812
S1133900E7FB648AE7FB65ABE7FB66BCCF694DF870
S1133910049B4FF000098DB04DF8040B4DF8041BC7
S1133920E7FB0389E7FB649AE7FB65ABE7FB66BC4F
S113393078BC04980599069F1B1A8C41BD4176EB0F
S11339400806BDE8800103BC77EB090778EB0A0899
S113395070EB0B0971EB0C0A8AB003BC4FEA4A0AFC
S11339604AEAD97A4FEA490949EAD8794FEA480834
S113397048EAD7784FEA470747EAD67726F0004661
S1133980B7EBDA7778F1000879F100097AF1000AE7
S11339902AF0004ADB1954EB080455EB090556EBF1
S11339A00A0626F0004713EBD67354F1000455F1D0
S11339B0000557F100068DE8780004B0A0F120005E
S11339C078C80F694FF0000A4FF0000B4FF0000C5D
S11339D0A7FB0398E7FB048AE7FB05ABE7FB06BC00
S11339E04F694DF8049B4FF00009E7FB0389E7FB9F
S11339F0649AE7FB65ABE7FB66BC8F694DF8048B03
S1133A004FF00008E7FB0398E7FB648AE7FB65AB2C
S1133A10E7FB66BCCF694DF8049B4FF00009E7FB58
S1133A200389E7FB649AE7FB65ABE7FB66BC4DF8EB
S1133A30048B88B09DE87800ADE8001E0F6878C25A
S1133A4004B078C84FF0000A4FF0000B4FF0000CA0
S1133A50A7FB0398E7FB048AE7FB05ABE7FB06BC7F
S1133A604F684DF8049B4FF00009E7FB0389E7FB1F
S1133A70649AE7FB65ABE7FB66BC8F684DF8048B83
S1133A804FF00008E7FB0398E7FB648AE7FB65ABAC
S1133A90E7FB66BCCF684DF8049B4FF00009E7FBD9
S1133AA00389E7FB649AE7FB65ABE7FB66BC87B079
S1133AB078BC9DE8830088B01B184C417D4156EBCF
S1133AC00806BDE8800103BC57EB090758EB0A0858
S1133AD050EB0B0951EB0C0A4FEA4A0A4AEAD97A2D
S1133AE04FEA490949EAD8794FEA480848EAD778B9
S1133AF04FEA470747EAD67726F000465FEA4A0AC4
S1133B007B4154EB080455EB090556EB5A0626F0A5
S1133B10004713EBD67354F1000455F1000557F137
S1133B20000678C207B0BDE8F01F70472DE9F01F0A
S1133B3084B090E8FC0392197B4154EB080455EBE4
S1133B4009058DE83C0090E83C00921BBB4174EBF6
S1133B50080475EB090525F00046B2EBD57273F144
S1133B60000374F1000476F10005DDF800C04FF0A5
S1133B7000094FF0000A4FF0000BACFB0267ECFBAE
S1133B800379ECFB049AECFB05ABDDF804C000966A
S1133B904FF00006ECFB0276ECFB6369ECFB649AE5
S1133BA0ECFB65ABDDF808C001974FF00007ECFBB8
S1133BB00267ECFB6379ECFB649AECFB65ABDDF824
S1133BC00CC04FF00008ECFB0278ECFB6389ECFBC3
S1133BD0649AECFB65AB4FEA4B0B4BEADA7B4FEA9A
S1133BE04A0A4AEAD97A4FEA490949EAD8794FEAAE
S1133BF0480848EAD7789DE8300027F000475FEA94
S1133C004B0B54EB080455EB090556EB0A0657EB2E
S1133C105B0727F0004814EBD77955F1000A90E8C8
S1133C203C0056F1000B58F1000C92185B416441C2
S1133C306D41A1E8001ED0F810C04FF000094FF00C
S1133C40000A4FF0000BACFB0267ECFB0379ECFBC2
S1133C50049AECFB05ABD0F814C000964FF00006B4
S1133C60ECFB0276ECFB6369ECFB649AECFB65AB62
S1133C70D0F818C001974FF00007ECFB0267ECFB8B
S1133C806379ECFB649AECFB65ABD0F81CC04FF095
S1133C900008ECFB0278ECFB6389ECFB649AECFB18
S1133CA065AB4FEA4B0B4BEADA7B4FEA4A0A4AEA26
S1133CB0D97A4FEA490949EAD8794FEA480848EAE3
S1133CC0D7789DE8300027F000475FEA4B0B54EBB0
S1133CD0080455EB090556EB0A0657EB5B0727F07A
S1133CE0004814EBD77455F1000556F1000658F15D
S1133CF00007F0C104B0BDE8F01F70472DE9F007DC
S1133D0078C8B1E88007DB1954EB080455EB0905C2
S1133D1056EB0A06B1E8800713EBD67354F100049E
S1133D2055F1000556F1000626F0004678C278C821
S1133D30DB1954EB080455EB090556EB0A0626F08B
S1133D40004713EBD67354F1000455F1000557F105
S1133D50000678C2BDE8F00770472DE9F00778C87F
S1133D60B1E88007DB1B74EB080475EB090576EBFF
S1133D700A06B1E88007B3EBD67374F1000475F159
S1133D80000576F1000626F0004678C278C8DB1BF1
S1133D9074EB080475EB090576EB0A0626F0004778
S1133DA0B3EBD67374F1000475F1000577F10006E6
S1133DB078C2BDE8F00770472DE9F01F78C80F6896
S1133DC04FF0000A4FF0000B4FF0000CA7FB0398D4
S1133DD0E7FB048AE7FB05ABE7FB06BC4F6842F848
S1133DE0049B4FF00009E7FB0389E7FB649AE7FBB8
S1133DF065ABE7FB66BC8F6842F8048B4FF00008A4
S1133E00E7FB0398E7FB648AE7FB65ABE7FB66BC6B
S1133E10CF6842F8049B4FF00009E7FB0389E7FBF6
S1133E20649AE7FB65ABE7FB66BCA2E8001FBDE84C
S1133E30F01F70472DE9F003B0E8FC034FEA49098D
S1133E4049EAD8794FEA480848EAD7784FEA470759
S1133E5047EAD6774FEA460646EAD57625F0004586
S1133E6092197B4154EB080455EB090525F00046F3
S1133E7012EBD57253F1000354F1000456F100051E
S1133E803CC1BDE8F00370472DE9F00778C8B1E8FC
S1133E908007DB1954EB080455EB090556EB0A06B9
S1133EA026F0004713EBD67354F1000455F10005D6
S1133EB057F1000678C2BDE8F00770472DE9F00716
S1133EC078C8B1E88007DB1B74EB080475EB0905BF
S1133ED076EB0A0626F00047B3EBD67374F10004C0
S1133EE075F1000577F1000678C2BDE8F007704768
S1133EF010B590B00C006946044B98472100684601
S1133F00034B9847012010B010BDC046B5310000E6
S1133F10C51B000070B506000D00074B9847040050
S1133F20012806D008213000044EB047082128009B
S1133F30B047200070BDC046F13E0000992B000040
S1133F4070B590B0060008001500CB7B7F2B30D8ED
S1133F506946194B98470400012806D00821280017
S1133F60164B9847200010B070BD01236A463100FB
S1133F706846134EB047002801D10024EEE708211B
S1133F806846104B9847002805D1202208A928002C
S1133F900D4B9847E6E7072109A80A4B98470028E4
S1133FA0F3D008994B1E0122521A1343EDD407246F
S1133FB0D4E70624D2E7C0460D1C0000992B00006C
S1133FC0C5360000A11B00006D540000F0B5DE46AC
S1133FD057464E464546E0B58BB00700002307938D
S1133FE0C6E00F2002403EE00123234203D0614695
S1133FF05140CBB29C460492202398469044834B74
S11340004146595C0F2912D95200D1B210230B42F8
S113401002D00D3B5940C9B20F2319407B4B424695
S11340209954049B1A01794B984642449170640850
S1134030E4B20A0034E0019B11003BE0030008AA4B
S1134040BA5C534008AABB5406350136242D3FD030
S11340505346EA18D30F9B185B105A46D25C4B4662
S1134060002BBED1120931780801684B1B189B5CE8
S11340700F2BE4D90F23180008401340984206D2AE
S113408051404A400F200300134051400840002B88
S1134090D5D0012BD2D002001C0000218C46019304
S11340A0012CC8D911016118C9B2584B595C0F29A8
S11340B09AD8019B62464A4011000F221140534A8C
S11340C004011419E1541B01D21811540B00B6E772
S11340D0029B01330293039A06320392062B0BD000
S11340E002990F00002308AA8B54039E069DFF33F8
S11340F0059A1A409246ABE7059B9C464F465046AC
S113410000210F245A460DE0C30F1B185B10D3186F
S11341101D78A54308AE8E5D35431D700131063010
S113412006290DD0002FEFD1C30F1B185B10D31835
S11341301D78254008AE8E5D360135431D70EDE7D0
S1134140934601239846C4446346062B0AD0304B59
S1134150039300230293674601331F40634605938C
S1134160B946BDE71700079B013307930C2B46D0D4
S1134170284B079AD35C9846274D0024274E3B00D2
S11341804746984606212000B04740442B787B40A0
S11341901B01027853400370123401356C2CF1D1A9
S11341A047464146454612351D485D3C0A78130989
S11341B0C35C1B012240825C13430B7001318D42AE
S11341C0F4D1F91C142318201A000B781B044C7822
S11341D0240223438C782343841A1D00A540D34032
S11341E02B431C0C0C701C0A4C708B700331043A6A
S11341F0002AEAD1069200239C46BB46A7E70BB0EF
S11342003CBC90469946A246AB46F0BD0400002053
S1134210A8840000D4840000CC840000F95100007C
S1134220E0840000F0B5D6464F464646C0B588B097
S1134230050001908946160003AC0F2200212000DE
S1134240304B98472023E373103B237463744B462D
S1134250DB0F4B445B109A46002B49DD5B00A846FC
S1134260984403AC284F23782A785340237063780A
S11342706A78534063702000B84702354545F2D14F
S113428053464A46D20735D503AA5B0001995B5CC5
S113429011784B401370517880235B424B4053702C
S11342A003AC2000184B9847102200213000154B16
S11342B098473378227813433370737862781343C2
S11342C07370B41C103603AD0F4F2800B847237821
S11342D02A781343237063786A7813436370023433
S11342E0B442F2D108B01CBC90469946A246F0BD37
S11342F00023C6E703AA117880235B424B40137066
S1134300CEE7C046A3540000CD3F000010B5002303
S1134310C25CCC5C6240C2540133082BF8D110BD9E
S1134320F0B5C64600B586B007000191904600235B
S113433003A900225A5401330A2BFBD10024214E35
S1134340E01C0A21B0477D5C6D01A01C0A21B04726
S11343507B5CDB081D4303AB1D5501340A2CEFD1F4
S113436003A9487A0309184AD25C12010F231840A2
S113437002434A724246521013408A7853408B706B
S11343804346D90F5A18012313405B1A012B12D04C
S113439003AB1A783A705B787B70019E022303A901
S11343A05A5CFA543270013301360A2BF8D106B044
S11343B004BC9046F0BD03AA5178813B4B40537036
S11343C0E6E7C046C553000080850000F0B5DE4630
S11343D057464E464546E0B5A9B00C000A220100F6
S11343E025A83F4DA84708228E2102AB9C46614474
S11343F023A8A847012399463A4B01933A4B9A467E
S11344000AE04A4623A925A8384B984701239C462D
S1134410E1444B46202B57D023A92000019B984709
S1134420A44620000830A3460F215B461A781309DE
S11344305546EB5C1B010A40AA5C13435A461370B1
S113444001239846C3448345EFD10022072703A9DB
S11344500125D3175E0F90193840801B3B409B18F1
S1134460DB10E65C2B00834033400341535401329C
S1134470402AEED1002113AA1D4D03AB485DCF5C49
S1134480175401314029F9D113AA53785B0091786C
S113449089000B4311780B43D178C9000B43117980
S11344A009010B43517949010B43917989010B436C
S11344B0D179C9010B4361460B7008320123984638
S11344C0C444DC45E1D19CE723A92000054B98476F
S11344D029B03CBC90469946A246AB46F0BDC046C6
S11344E06D5400000D43000080850000214300004E
S11344F040850000F0B5D6464F464646C0B5494C07
S1134500A54406000C00811C082220A8464DA8479B
S11345100A22310060A8A84722AEC5256D006D446B
S11345200127424B9846424B9946310008390822EC
S11345303000C04729000A390A222800C0473A003F
S113454031002800C847013708360A35202FECD13E
S11345505EAB9A4620AB9846364B9946364D05E0FD
S113456008235B429C46E244C2454ED0514620009B
S1134570C847002207200126D3175F0FD119014035
S1134580C91B03409B18DB10E75C33008B403B40A6
S11345900B41694653540132402AEDD1002310A83F
S11345A05A5D6946595C81540133402BF8D110AAF5
S11345B0210026000836200053785B009778BF005E
S11345C03B4317783B43D778FF003B4317793F01C0
S11345D03B4357797F013B439779BF013B43D779ED
S11345E0FF013B43037008320130B042E4D1134E63
S11345F00F270A781309F35C1B013A40B25C13439A
S11346000B7001318142F4D1AAE720A92000094BA3
S11346109847B0239B009D441CBC90469946A246F3
S1134620F0BDC04640FDFFFF6D5400007F54000004
S1134630214300000D430000F08400003085000099
S113464070B582B005000E0000226B46DA80064C7D
S11346506B46991D2800A0470028F9D16B46063304
S11346601B88337002B070BD9B0E000070B505004E
S11346708CB2034E21002800B0470028FAD170BD47
S1134680750E0000F0B5CE46474680B583B0A84B02
S11346901B681A6D0092009A120113D4009AD2007A
S11346A010D4A44A1278002A00D077E0009A1203AA
S11346B00ED5802212031A6500249F4B98469F4B07
S11346C099464FE0C02252051A659D489D4B984774
S11346D003B00CBC90469946F0BD954B19689C23D9
S11346E0C8582500203D9B3BAB40034237D0019482
S11346F09C228B500199019A090141448C48C84776
S1134700019B1B0142469B585B0039D58E488D4B5B
S11347109847019A1201884B9B185B681B031B0F77
S11347200024002B12DD844E884D894F019B1B0110
S1134730F3181B19197A2800B8470134019B1B018F
S1134740F3185B681B031B0FA342EFDC81487D4B0E
S11347509847019B032B18D0019B042B19D00134DB
S11347600F2CB5DC1F2CB8D8714B19689823C85886
S1134770973BA3400342F2D0019498228B50B9E7AF
S113478001997548724B9847C3E70122734B1A602D
S1134790E5E7734A136801331360E0E7654A12786A
S11347A0012A37D0009AD20792D501221A656D4C9E
S11347B022685F4D6C4928006C4B98472268296831
S11347C03F231340A8228B502368013323602368BE
S11347D0102B00D1A3E066485A4B9847624B5B68A4
S11347E01B031B0F002B0DDD00255F4E574C584F4C
S11347F07319197A2000B847013573681B031B0F1E
S1134800AB42F5DC53484F4B98475A4A136801337F
S113481013605DE7009A120300D459E78022120363
S11348201A650024444B9846444B99460DE0404B8E
S113483019689C23C8582500203D9B3BAB4003428C
S113484071D101340F2C00DD42E71F2CEFD8384B17
S113485019689823C858973BA3400342F1D00194A8
S113486098228B500199019A090141443048C84764
S1134870019B1B0142469B585B0034D53248314BA7
S11348809847019A12012C4B9B185B681B031B0F62
S11348900024002B12DD284E2C4D2D4F019B1B01B3
S11348A0F3181B19197A2800B8470134019B1B011E
S11348B0F3185B681B031B0FA342EFDC2548214B55
S11348C09847019B022B13D0019B012B15D0019B10
S11348D0042BB6D1284B1B68002B13D1264A13682E
S11348E001331360ADE701991B48194B9847C8E79A
S11348F0224A136801331360A3E7214A1368013382
S113490013609EE71C4B1B68012B9AD11D4B1B683F
S1134910012B96D1184A13680133136091E70022E2
S1134920104B1A6057E701949C228B509AE7C046BB
S1134930480C0020440C0020AC0C00204905000069
S113494090850000A9550000D48500006086000011
S1134950B554000068860000188600008C0C002006
S1134960940C0020BC0D0020AC0D00209905000023
S11349706C860000980C0020A40C0020A80C0020D9
S1134980840C0020900C0020F0B5DE4657464E46BD
S11349904546E0B5D9B0914B984707AB8022D20584
S11349A0079200225A60FF2119819A72DA72012457
S11349B0D3395C5401315C5401315A5401315A5495
S11349C01A6305315A5401315A545A6100211A822A
S11349D0D976DA611A845A8419762432995459762C
S11349E0113A9A7613329954013A99549622120242
S11349F09A62C4229203DA60012252429A63DA6311
S1134A00774A1A64774A5A64774D784B1D60784A1E
S1134A10784B1A60784A794B1A6007AA78492800BB
S1134A20784B9847784F3B6898680021774EB04799
S1134A303B6858680021B0472E683000744B984793
S1134A401F2318408440734B1C602A68D369002BD1
S1134A50FCD1336802273B43336006AE00247470F4
S1134A600125B570F470062399463370310018207F
S1134A70694B984698474B46337006A91920C0479E
S1134A8007AB08221A705C709C70DD701D715D713B
S1134A909D71DC711C725C72093A5A811C735C73DF
S1134AA09C73DC731C745F749F74DD741D755B4AA6
S1134AB09A611D775C779D77DC7720229C540132C4
S1134AC09C54574C1A0057492000574B98472000D4
S1134AD0564B9847802212024E4B1A602268516D41
S1134AE0C0235B050B4353655148524DA8475248B8
S1134AF0A847009430AB38AA50A902204F4CA047D5
S1134B0003904F48A8470023049301236A46D375B2
S1134B104C4B9846B1E04C48464B9847DAE00400C9
S1134B204A48444B9847200059B03CBC90469946AB
S1134B30A246AB46F0BD040045483E4B98472000D2
S1134B40F2E7444A1368002BFCD0424B00221A605F
S1134B50414B08332BAA03CB03C22BA92DA83F4BEF
S1134B6098472B9A2C993E483E4B9B4698472B9B43
S1134B7002332B9329AF3B002BAA03CA03C33A4841
S1134B80D84739002DA8394B984709AB06CF06C33F
S1134B90234F052207A93800354B98473B689A698B
S1134BA0920701D4D0229D50264B01221A602E4830
S1134BB02C4B984701235B429C46E2445346002B0E
S1134BC058D04B461A682368002BBAD093591D421B
S1134BD0F9D0434600211960F5E7C04641170000AB
S1134BE003002A0003002B004C0C0020EC0D0020D5
S1134BF06D460000E80D002041460000E40D002051
S1134C0000140042C90A000004010020BD55000040
S1134C10390A000000E100E011170000FFFFFF1F48
S1134C20480C0020001C0042F9010000F5040000BB
S1134C30AC860000A955000008890000C9180000CE
S1134C4020890000A00C002088890000A0890000B1
S1134C50C0890000980C0020AC0D0020F544000031
S1134C60248B0000B5540000F8890000CD430000F7
S1134C70E9050000E848E94B9847E949049A0A60C5
S1134C80E8490A60E84B1A60E84B1A60E84B1A607E
S1134C90E84B1A60E84B1A60E84B1A60E84B1A605C
S1134CA0E84B6A46D27D1A70E748DC4CA047E748D7
S1134CB0A0471022002154A8E54B9847039B002BE2
S1134CC000D128E7E348D54B98471022022134A8A5
S1134CD0DF4B9847102234A950A8DF4B984725AAE8
S1134CE0102134A8DD4B984748A950A8DC4B9847BD
S1134CF0012800D013E740AA38A950A8D94B9847F7
S1134D00012800D017E721AA202140A8D34B9847B7
S1134D101DA925AB0A0031CB31C21B68136021A841
S1134D20D14CA0471FA921A8A047D04B9946069370
S1134D30069ACF4F3A40CF4B13430693069BDB0AA8
S1134D40DB02012213430693069BE024A4052343BC
S1134D500693C94D06A92800C84EB0472A68516D6C
S1134D6080231B030B4353654B460693069B1F404E
S1134D700697069BDB0ADB02022213430693069B7B
S1134D801C43069406A92800B047BD48A34B984786
S1134D90A84A1368012BFCD9069BBA4A1340069310
S1134DA0B54C022206A92000B44B9847B6489B4B49
S1134DB09847B648B64B98470023079388231B04AB
S1134DC00893079A8123DB0413430793089BB14A92
S1134DD01A4080231B03134308931DAA09AB03CA7B
S1134DE003C3052207A92000AB4B984722689369A7
S1134DF09B0702D42021D023D150D820202113583E
S1134E001942FCD1A548854B9847A048A04B984728
S1134E100023079388231B040893079A8123DB0448
S1134E2013430793089B9B4A1A4080231B03134395
S1134E30089309AB1FAA03CA03C38F4C052207A911
S1134E402000954B9847226893699B0702D4202140
S1134E50D023D150D820202113581942FCD1904896
S1134E606E4CA047734A1368023313607F4B06935A
S1134E70069B7F4A13400693069BDB0ADB02022251
S1134E8013430693069AE0239B05134306930222D9
S1134E9006A97948794B98478248A047654A136820
S1134EA0032BFCD9069B774A13400693724C0222CB
S1134EB006A92000714DA8477B48584B98476B4B77
S1134EC00693069B6A4A1A40784B13430693069B43
S1134ED0DB0ADB02042213430693069AE0239B05B4
S1134EE013430693042206A92000A8474F4A1368D7
S1134EF0002BFCD019AA6E4B483303CB03C2494A9A
S1134F001368013313606B48444B9847474A13684E
S1134F10012BFCD06848414B984719AA64490B00FF
S1134F20483311CB11C2096CC900C9086348584BF6
S1134F309847002619AD624C554F715D2000B84763
S1134F400136102EF9D15F48344DA84719AC210021
S1134F5021A85D4EB0471BA921A8B0472DAB06CCB4
S1134F6006C31A00238813805848A8475848484B5A
S1134F70984709262DAD574C454F715D2000B84721
S1134F80013EFAD22C4A1368002BFCD002222D4B8E
S1134F901A70069B3B4A13400693374C042206A919
S1134FA02000364DA8474C481C4B98472F4B06937E
S1134FB0069B2F4A1A40494B13430693069BDB0A70
S1134FC0DB02FE22D20013430693012206A920002D
S1134FD0A8472268536D01210B43536500230793AF
S1134FE088231B040893079A3D4B13430793089B9C
S1134FF0284A1A4080231B031343089308220021E4
S113500029A8134B98470A239A461B4B99460C4CE4
S1135010D8262025D5E5C0463C8B0000A9550000C4
S1135020800C0020900C00209C0C0020A40C00207C
S1135030880C0020A80C0020840C0020980C002070
S1135040A00C0020440C002034890000508900008A
S1135050A3540000708900006D5400002542000034
S1135060153F0000413F0000CD430000FF070088CA
S1135070FFFF00F800000103480C00200D050000AC
S1135080E0890000FFFFFFC7EC890000F8890000F9
S1135090B5540000FFFFF0FFE9050000088A000096
S11350A0208A0000388A00004C8A000000000202B6
S11350B0AC0C00207C8A0000948A0000B08A0000B6
S11350C0CC8A0000E88A0000F5440000D48A00007D
S11350D0EC8A0000008B0000088B00000000020432
S11350E000000810002243088B4274D303098B424A
S11350F05FD3030A8B4244D3030B8B4228D3030CA4
S11351008B420DD3FF22090212BA030C8B4202D345
S11351101212090265D0030B8B4219D300E0090A6D
S1135120C30B8B4201D3CB03C01A5241830B8B4276
S113513001D38B03C01A5241430B8B4201D34B035F
S1135140C01A5241030B8B4201D30B03C01A5241C4
S1135150C30A8B4201D3CB02C01A5241830A8B4249
S113516001D38B02C01A5241430A8B4201D34B0232
S1135170C01A5241030A8B4201D30B02C01A524196
S1135180CDD2C3098B4201D3CB01C01A524183094A
S11351908B4201D38B01C01A524143098B4201D384
S11351A04B01C01A524103098B4201D30B01C01AAF
S11351B05241C3088B4201D3CB00C01A5241830829
S11351C08B4201D38B00C01A524143088B4201D356
S11351D04B00C01A5241411A00D2014652411046B6
S11351E07047FFE701B5002000F0F0F802BDC046AB
S11351F00029F7D076E7704703460B437FD400229B
S113520043088B4274D303098B425FD3030A8B4256
S113521044D3030B8B4228D3030C8B420DD3FF22C0
S1135220090212BA030C8B4202D31212090265D08E
S1135230030B8B4219D300E0090AC30B8B4201D341
S1135240CB03C01A5241830B8B4201D38B03C01A88
S11352505241430B8B4201D34B03C01A5241030BFF
S11352608B4201D30B03C01A5241C30A8B4201D3B0
S1135270CB02C01A5241830A8B4201D38B02C01A5B
S11352805241430A8B4201D34B02C01A5241030AD2
S11352908B4201D30B02C01A5241CDD2C3098B42B7
S11352A001D3CB01C01A524183098B4201D38B0134
S11352B0C01A524143098B4201D34B01C01A5241D7
S11352C003098B4201D30B01C01A5241C3088B421C
S11352D001D3CB00C01A524183088B4201D38B0007
S11352E0C01A524143088B4201D34B00C01A5241A9
S11352F0411A00D201465241104670475DE0CA0F80
S113530000D04942031000D34042534000229C463F
S113531003098B422DD3030A8B4212D3FC22890149
S113532012BA030A8B420CD3890192118B4208D31F
S1135330890192118B4204D389013AD0921100E081
S11353408909C3098B4201D3CB01C01A5241830995
S11353508B4201D38B01C01A524143098B4201D3C2
S11353604B01C01A524103098B4201D30B01C01AED
S11353705241C3088B4201D3CB00C01A5241830867
S11353808B4201D38B00C01A5241D9D243088B42BD
S113539001D34B00C01A5241411A00D20146634660
S11353A052415B10104601D34042002B00D54942C4
S11353B0704763465B1000D3404201B5002000F003
S11353C005F802BD0029F8D016E770477047C046BB
S11353D0F0B5CE46474615042D0C2E0080B50704C3
S11353E0140C3F0C9946030C7E435D4367436343AF
S11353F07F19340CE4199C46A54203D980235B022F
S11354009846C4444B46514343433604360C250C5A
S113541024046544A4195918491920000CBC904669
S11354209946F0BD70B500260C4D0D4C641BA410BC
S1135430A64209D1002603F0DDFB0A4D0A4C641B89
S1135440A410A64205D170BDB300EB5898470136AD
S1135450EEE7B300EB5898470136F2E7008C000002
S1135460008C0000008C0000048C0000002310B5A8
S11354709A4200D110BDCC5CC4540133F8E710B596
S1135480884202D98B18984208D300239A4207D045
S1135490CC5CC4540133F9E78B5C8354013AFBD2EE
S11354A010BD03008218934200D170471970013374
S11354B0F9E700000FB40B4B13B51C68002C05D0A2
S11354C0A369002B02D1200000F0F2FA05AB049A84
S11354D0A1682000019300F0C7FC16BC08BC04B00E
S11354E01847C0460401002070B505000E000028CE
S11354F004D08369002B01D100F0DAFAAB69AC68FF
S1135500002B02D1280000F0D3FA244B9C420FD187
S11355106C68A3891B0702D52369002B20D12100C5
S1135520280000F057F900281AD00120404270BD2D
S11355301B4B9C4201D1AC68EBE71A4B9C42E8D16F
S1135540EC68E6E7013B0136A360002B04DAA269AC
S1135550934216DB0A2914D023685A1C226019705E
S11355603178A3680029EDD1013BA360002B0FDA49
S113557022000A31280000F0D7F8431CD5D00A20B5
S1135580D5E72200280000F0CFF8431CE8D1CCE78F
S11355900A2023685A1C22601870C8E7808B000018
S11355A0A08B0000608B000010B5034B010018684D
S11355B0FFF79AFF10BDC046040100204A424A4149
S11355C0802310B55200DB0000F002F810BD00008B
S11355D0F0B51D004F4B85B01E6804000F0000920B
S11355E0002E05D0B369002B02D1300000F060FA20
S11355F0494B9C4250D17468009B022B05D0012B6F
S113560000D984E0002D00DA81E02100300000F0B0
S1135610E1F9616B002908D023004433994202D098
S1135620300000F051FB002363630023A361636037
S1135630A3891B0603D52169300000F045FBA3892B
S1135640364A1340A381009B022B5AD003AB02AA13
S11356502100300000F0C2FAA3891843A081002D74
S113566024D1029D280000F025FB0195071E42D19C
S1135670029B0193AB4239D1012040420223A2890B
S11356801343A3810023A3602300473323602361D2
S11356900123636105B0F0BD214B9C4201D1B46884
S11356A0AAE7204B9C42A7D1F468A5E7002FD9D0E4
S11356B0B369002B02D1300000F0FAF9009B012BF2
S11356C003D1A389009A1A43A2810820A3892760E1
S11356D027616561184018D00120184000239842C2
S11356E011D06D42A360A5611800D3E7019800F0C2
S11356F0E1FA071EC0D08023A289019D1343A38130
S1135700D6E70020BAE7A560C4E7A060C2E701209D
S11357104042BFE704010020808B00005CF3FFFFE0
S1135720A08B0000608B0000F8B505000E0014008B
S1135730002804D08369002B01D100F0B9F9224B71
S11357409C422DD16C68A369A360A3891B0731D542
S11357502369002B2ED023682269F7B2981A636953
S1135760F6B2984205DB2100280000F033F9002846
S113577026D1A3680130013BA36023685A1C226030
S11357801F706369984204D0A389DB071AD50A2ED7
S113579018D12100280000F01DF9002812D00FE0D4
S11357A00A4B9C4201D1AC68CDE7094B9C42CAD15B
S11357B0EC68C8E72100280000F00CF80028CAD0E3
S11357C0012676423000F8BD808B0000A08B0000DB
S11357D0608B0000364B70B51D6806000C00002D70
S11357E005D0AB69002B02D1280000F061F9314BE0
S11357F09C420FD16C680C23E25E93B219072DD43E
S1135800D90611D409230120336037331343A3810C
S1135810404270BD284B9C4201D1AC68EBE7274B5A
S11358209C42E8D1EC68E6E75B0713D5616B00297D
S113583008D023004433994202D0300000F044FAE7
S1135840002363632422A3899343A3810023636019
S1135850236923600823A2891343A3812369002BAE
S11358600BD1A0218022A389890092000B4093428E
S113587003D02100300000F0D9F90123A28913409C
S113588011D00023A36063695B42A36100202369F4
S11358908342BED10C23E25E1306BAD540231343E0
S11358A0A3810138B5E7920700D46369A360EDE7EB
S11358B004010020808B0000A08B0000608B00009E
S11358C0F7B58A8905000C00130760D44B68002BD8
S11358D004DC0B6C002B01DC0020FEBDE76A002F0A
S11358E0FAD000232E682B6080235B011A4034D049
S11358F0606DA3895B0706D56368C01A636B002BD0
S113590001D0236CC01A0200216A00232800E76A30
S1135910B847A189431C06D12B681D2B31D82C4ACA
S1135920DA40D3072DD50023636023692360CB04B9
S113593005D5431C02D12B68002B00D16065616B37
S11359402E600029C8D023004433994202D0280095
S113595000F0BAF900206063BFE70123216A280040
S1135960B847431CC5D12B68002BC2D01D2B01D0D6
S1135970162B01D12E60AFE74023A2891343A381E4
S1135980ABE740230B430120A3814042A5E70F6905
S1135990002FA1D00B680F60DB1B0193002392073B
S11359A000D14B69A360019B002B00DC94E7019BB1
S11359B03A00216A2800A66AB047002803DC402385
S11359C0A2891343DFE7019B3F181B1A0193EAE7FF
S11359D0010040200B6970B505000C00002B01D1BB
S11359E0002070BD002804D08369002B01D100F091
S11359F05FF80B4B9C4209D16C680C22A35E002B10
S1135A00EED021002800FFF75BFFEAE7054B9C423C
S1135A1001D1AC68F1E7044B9C42EED1EC68ECE7B1
S1135A20808B0000A08B0000608B000010B5024941
S1135A3000F0B2F810BDC046D5590000002310B5DF
S1135A40040003604360836081814366C281036113
S1135A5043618361190008225C30FFF722FD054B86
S1135A6024626362044BA362044BE362044B23632A
S1135A7010BDC046D5630000FD630000356400001E
S1135A806164000070B568254A1E55430E00290064
S1135A90743100F063F9041E08D000212A0001606B
S1135AA046600C30A0606832FFF7FBFC200070BD3C
S1135AB0836913B50400002B28D18364C364036590
S1135AC0134B144A1B6882620193984201D101234B
S1135AD08361200000F020F86060200000F01CF8D2
S1135AE0A060200000F018F80022E0600421606843
S1135AF0FFF7A4FF01220921A068FFF79FFF0222FC
S1135B001221E068FFF79AFF0123A36113BDC04689
S1135B105C8B00002D5A0000F8B51E4B07001E6870
S1135B20B369002B02D13000FFF7C2FF4836B468D6
S1135B307368013B04D53368002B07D03668F6E759
S1135B400C22A55E002D0DD06834F2E70421380044
S1135B50FFF798FF30600028F0D10C2304003B606D
S1135B602000F8BD012320005B42E3810233A381BE
S1135B7065662560A560656025616561A56108228B
S1135B8029005C30FFF78DFC6563A563A564E564BB
S1135B90E6E7C0465C8B0000F7B50400070000266A
S1135BA001914834002C01D13000FEBD6368A56822
S1135BB00093009B013B009301D52468F2E7AB8975
S1135BC0012B08D90E22AB5E013304D02900380022
S1135BD0019B984706436835EBE7000070B50E005B
S1135BE01D000E23C95E90B01400002907DA0023BB
S1135BF02B60B3891B0611D48023DB000FE001AABC
S1135C0000F05AFC0028F2DBF022029B120213403F
S1135C10054A9B185A4253412B60EDE7402300206C
S1135C20236010B070BDC04600E0FFFFF7B5022648
S1135C308B8905000C00334206D0230047332360D0
S1135C40236101236361F7BD01AB6A46FFF7C6FF19
S1135C5000990700280000F081F8002808D10C22E0
S1135C60A35E9A05EFD4032293431E43A681E4E77F
S1135C700F4BAB628023A28920601343A381009B56
S1135C8020616361019B002B0DD00E23E15E28008F
S1135C9000F024FC002806D00322A38993431A00B1
S1135CA001231343A381A0893843A081CBE7C046D5
S1135CB02D5A000010B5034B0100186800F04EF88F
S1135CC010BDC0460401002070B50500002910D0A5
S1135CD00C1F2368002B00DAE418280000F02FFCC6
S1135CE01D4A1368002B05D163601460280000F07E
