:1000000040590020652900005D2900005D2900009D
:1000100000000000000000000000000000000000E0
:100020000000000000000000000000005D2900004A
:1000300000000000000000005D2900003D5C0000A1
:100040005D2900005D2900005D2900005D29000098
:100050005D2900005D2900005D2900005D29000088
:100060005D290000591C0000691C0000791C00007B
:10007000891C0000991C0000A91C00007D5800008C
:100080005D2900005D2900005D2900005D29000058
:100090005D2900005D2900005D2900005D29000048
:1000A0005D2900005D2900005D2900005D29000038
:1000B0005D2900005D2900005D29000010B5064C97
:1000C0002378002B07D1054B002B02D0044800E019
:1000D00000BF0123237010BDE802002000000000D3
:1000E000ECB10000084B10B5002B03D007490848BD
:1000F00000E000BF07480368002B00D110BD064B8D
:10010000002BFBD09847F9E700000000EC0200202C
:10011000ECB10000ECB1000000000000F0B5DE46DC
:1001200057464E464546E0B5A1B013901092319B1C
:100130009C463298082200232A9C2B9D12196B4161
:100140000A604B60016844680A06230E0F02FF260E
:100150003604374017430D0A22062A43FF252D0295
:100160002A401743B8460A0E27021743FF218B4641
:100170000F40414639430F91270A21060B432402C1
:10018000144334401C432F403C430E948268C368A0
:1001900010061F0E140234400443100A804618064D
:1001A0004146084328400443120E180210435946A2
:1001B0000840044312941C0A18060743180210430F
:1001C000304038432C402043119063461C685B68E4
:1001D00027061A0E200230403843270AB8461F0669
:1001E00041460F432F403843240E1F0227435946F0
:1001F0000F4038431F0A19060A431B021C433440B0
:1002000022432F403A43924663469F68DC683A0691
:10021000230E98463B0233401A433B0A9946230675
:1002200049460B432B4013433F0E22023A435946A3
:1002300011401943230A9C462306424613432402D5
:10024000274337403B43624615402B4300229046EC
:10025000644A94460E9F0F9A9146119D129C5246F5
:10026000F02600964646C846A24683468946F021B7
:100270004D4002B45E4053407D40F0431843291C7A
:10028000B9434E40D94311434D40391CB1434B4013
:10029000111C294079405040684071405E406746DB
:1002A0004246AC46B04656465D464C4682469B4664
:1002B00067406C405640F8432043331C93435F40F3
:1002C000E3432B435E40131CBB435C402B1C334079
:1002D0005A40454075407A406740A9466546BC464D
:1002E000B309AF06A8097B40B706784077087B4082
:1002F000EF077B406F087840F70778405E40454045
:10030000D3004F0FC8007B40570F784057067B4003
:10031000CF097B404F067840D70978405A4041408A
:100320005B468B46E1055F0AD8057940670A78404D
:10033000E70979405F067940DF0978406706784031
:100340004C4043405F464946A14693465246B2461A
:100350004C0CD603500C7440CE0370408E0A74408F
:1003600096057440960A70408E0570406140424088
:10037000604646469C46D8468B46030F3101340FF3
:100380004B4001014C40C10C4B4071034B40F10C00
:100390004C4041034C4002BC584066406346844692
:1003A0000F393C2900D063E7494658465446C146B8
:1003B00016966646179618974E4619961A951B94E8
:1003C0000E9D6A401C920F9A50401D901198434018
:1003D0001E93129C61401F912B9B002B01D100F0BA
:1003E000C2FA01E0060C40802A9B2B9C04930594E2
:1003F000139B9846109FFF231B040393FF231B02AC
:100400000D93009743460193009B1E68596833067D
:100410000A0E3002039C20400343370A0806384383
:100420000D9D28400343360E08023043FF27384015
:100430000343080A0F063A430902314321400A43A5
:100440002840024316994A4017994B401106180E4E
:10045000160226403143170A1E063E432E40314302
:10046000160EB4461E0267463E43FF273E40314308
:100470001F0A1E0630431E0264462643039C264084
:1004800030432F403843019C2060616018990291ED
:10049000199906911A9907911B9908911C9909912C
:1004A0001D990A911E990B911F990C91029F069E0E
:1004B000079906910898099902910A990B9C2500C1
:1004C0000C9CA04696249C46B146069B8246029808
:1004D0008B462900634010B44A4041407B40D643DC
:1004E0000E431C1CBC436240CC43044363403C1C91
:1004F00094436140041C1C407C4046405E40544094
:100500004A40674648469C46914652465B464546A9
:10051000B2468B466F405D404240FE432E43111C65
:1005200081434F40E94319434A40011CB9434D40C0
:10053000191C114048407340534078406F40984622
:100540006346BC4691099F069E09794097067E4006
:1005500057087940DF0779405F087E40D7077E4023
:100560004A407340C100670FE6007940470F7E4064
:1005700047067940E709794067067E40C7097E4013
:10058000484074405946A346EC054F0ACE057C40CE
:100590006F0A7E40EF097C404F067C40CF097E40C9
:1005A0006F067E40654071405F464446A8468346DC
:1005B00050469246650CC203460C5540E203564035
:1005C000A20A554082055540820A5640A20556406F
:1005D0006C40704066464A468C46D946A346310F69
:1005E0001401150F614034016540F40C614054035F
:1005F0006140D40C65407403654010BC4E406A40B5
:100600006146B4460F3C3C2C00D063E70D005946D0
:10061000029050461C004E46634616921793189758
:1006200019961A941B9002981C901D911E95434692
:100630001F93009B08330093019B08330193049A96
:10064000059B08204042C11712184B4104920593A4
:10065000002B00D0D8E6049B059C002C02D1072B70
:1006600000D9D1E62A990839C908C9000831109B78
:100670009C468C4463461093139B9C46614407261A
:100680002A9B1E40002733000720801BC000202229
:100690005242851800D571E18024AC408025854008
:1006A000169A5540179A5440169517943E436CD0AD
:1006B0000822D31ADB00283A9A1800D563E10126F4
:1006C0007642D640009601225242DA409046109B74
:1006D0001A681000009A10405B68424613400706F3
:1006E0001A0E01920202FF263604B4463240174326
:1006F000B946070A1A063A43FF26360232404F46E9
:100700001743000E1A020243FF26B34632403A4313
:100710001E0AB1461E06019F37431B020343604673
:1007200003403B434846FF263602304003435D40CA
:100730006240169517920B68009883431E004B6821
:10074000404683432806140E264318432C02634672
:100750001C4020432C0A13062343FF242402234079
:1007600018432D0E14022C435B461C402043140AF0
:1007700013061E431202154363461D402E43FF27F6
:100780003F0227403E430E604860189B19000E9BB5
:100790005940199A0F98424094461A9A0092119A19
:1007A000009C624010001B9A0092129F5740179ABB
:1007B00091461C9A1D9B1E9C1F9E169DB846B246D4
:1007C000F0269B46704040B4654054404840EF439B
:1007D0002743061C8E437540E643164370400E1CAB
:1007E000AE437440161C06404E40574047406E4092
:1007F0006540494662468146AC46454658465346A2
:10080000B846A346594043405540CF431F432C1C94
:1008100094436140DC4304436540141C8C436340B3
:10082000041C2C406240784068404A40594082464F
:1008300048468946AC09810687094C40A9064F40C5
:1008400069084C40C1074C4041084F40E9074F4000
:1008500065407840D400710FF7004C40510F4F4075
:1008600051064C40F1094C4071064F40D1094F40B0
:1008700062407E405C46B346DE05610AE7054E40B5
:10088000590A4F40D9094E4061064E40E1094F4098
:1008900059064F4073407C40594656469A46934607
:1008A0004246A846730CD503570C6B40F5036F40C6
:1008B000B50A6B4095056B40950A6F40B5056F40D2
:1008C0005E407A404F466546A146DC46B3463C0F43
:1008D0002E012B0F74403E017340FE0C74406E03DA
:1008E0007440EE0C73407E03734040BC67405D4033
:1008F0004C46B9460F3E3C2E00D063E75B460E994E
:100900004A400F9843401106180E1402FF26360481
:1009100034402143150A1C062C43FF252D022C4090
:100920002143120E1C021443FF273C4021431C0AA2
:100930001F0638431B0213433340034325402B4318
:1009400014931591139B2A9A944663441800082225
:1009500014A9134B9847002021B03CBC90469946FF
:10096000A246AB46F0BD002B04D12A9B072B01D930
:10097000FFF73AFD2A9E2B9F139984E620252D1A16
:100980008024EC408AE62022D21A012676423000EA
:1009900090400200DE4030001043009093E6C046D5
:1009A00041680000F0B5DE4657464E464546E0B584
:1009B000A3B00E901593329B9C46339C2D9B002B2D
:1009C00001D100F06DFC08225242D3172C9D2D9EC0
:1009D000AD185E41109511960D604E6022686368F7
:1009E00011061D0E1002FF273F0438400843160A67
:1009F00019063143FF263602314008438046120E65
:100A000018021043FF218B460840414601431291D2
:100A1000180A19060D431B0213433B401D43304087
:100A20002B0003430F93A068E36804061A0E050227
:100A30003D402543040AA0461C0641460C43344071
:100A40002543000E1C02044359460C402900214353
:100A500014911C0A1D062A431B0218433840024306
:100A600034402243139260460468436825061A0EF8
:100A7000200238402843210A1D060D4335402843F3
:100A8000240E1D02254359460D4028431D0A190610
:100A90000A431B021C433C40224335402A439246F2
:100AA0006446A568E4682A06230E98462B023B405C
:100AB0001A432B0A9946230649460B4333401343F6
:100AC0002D0E22022A43594611401943230A9C46FF
:100AD000230642461343240225433D402B436446EC
:100AE000264033430024A046644CA4460F9F129E28
:100AF000139D149C52468146F02001904046B0461A
:100B0000A246CB468946F024654010B45840534075
:100B10007D40C6431E432C1CBC436040DC43144351
:100B200065403C1C84436340141C2C407C40564070
:100B30006E404440584067464246AC468046504668
:100B40005D464946B2469B464F4069405040FE4391
:100B50000E43031C93435F40CB432B435840131C6D
:100B6000BB4359402B1C03405A40754045407A40D6
:100B70004F40A9466546BC468309AF06AE097B4097
:100B800087067E4047087B40EF077B406F087E402A
:100B9000C7077E4058407540D300670FE6007B4092
:100BA000570F7E4057067B40E7097B4067067E4033
:100BB000D7097E405A4074405B46A346CC055F0A85
:100BC000DE057C404F0A7E40CF097C405F067C40BA
:100BD000DF097E404F067E40614073405F464C46D1
:100BE0008946934652468246610CD003560C4140DA
:100BF000E0034640A00A414090054140900A46402B
:100C0000A00546404C407240664640469C46D84649
:100C1000A346330F0401010F634034016140F40C1B
:100C2000634044036340C40C61407403614010BCE2
:100C30005E4048406346B4460F3C3C2C00D063E71E
:100C40004946544646461890604619901A971B9696
:100C50001C951D940F9842401E9212985A4642408D
:100C60001F92139A53402093149B59402191119B3A
:100C7000002B01D100F01EFB02E0C046060C4080B4
:100C8000109B119C049305940E9B9A46159B9846C5
:100C9000FF231B0201935346029343460393039B96
:100CA0001868596803060A0E0602FF242404264029
:100CB0003343070A0E063E43019D2E403343000E88
:100CC0000E020643FF24264033430E0A0F063A4322
:100CD00009020143FF20000401400A432E40324331
:100CE000189D5540199959402F060E0E2802FF24D1
:100CF000240420400743280A80460806444620432F
:100D0000019C204038432D0E0F022F43FF24274023
:100D100038430F0A0C06264309022943FF24240402
:100D200021403143019C27403943029C216060608F
:100D30001A9906911B9907911C9908911D9909917F
:100D40001E990A911F990B9120990C9121990D914F
:100D500006998C46079F08990691099E0A98824633
:100D60000B980C9D0D999624079498466446BC46B2
:100D7000069BB146564682468B4696214B4002B4AE
:100D80006A4075406340D0432843191CA1434A4040
:100D9000E94331434B40211C91434D40311C1940E4
:100DA00061407040584051406A404446664698460B
:100DB00094464A4653465F468146AA467C405F4079
:100DC0007240E0433843151CB5436C40FD431D435E
:100DD0006A40351CA5436F401D1C15406E404340C2
:100DE000534066407C409B464346A04695099C067E
:100DF000980965409406604054086540DC076540EA
:100E00005C086040D40760406A404340F5004C0FE6
:100E1000C8006540740F604074066540CC096540A9
:100E20004C066040F40960406E40414055468A4699
:100E3000F9056C0AE80561407C0A6040FC096140E4
:100E40006C066140EC0960407C0660404F404540C4
:100E500054465946BB46B2464E4691464F0CF203A5
:100E6000700C5740CA0350408A0A5740B205574099
:100E7000B20A50408A05504079404640404662469A
:100E8000A846D4468A46050F1101170F4D400101AF
:100E90004F40C10C4D4051034D40D10C4F404103D8
:100EA0004F4002BC68407A40454680460F393C2995
:100EB00000D063E759465046B2464E460693674611
:100EC0004346189219931A941B97069B1C931D96E0
:100ED00053461E931F902095219108239C46029A09
:100EE00062440292039B08330393049A059B0820F3
:100EF0004042C11712184B4104920593002B00D0B9
:100F0000CDE6049B059C002C02D1072B00D9C6E638
:100F100010246442E5172C9A2D9BA4185D416B07A1
:100F2000E0081843E908461CF6000E9B9C46B444B2
:100F300063460E93159B9C46664408225242D31783
:100F4000564FB84724184D4101940722121BD20076
:100F500020235B42D11800D5B8E1A0338B4080211B
:100F60009140189A5140199A5340189119932C4363
:100F700000D195E008220198121AD20020204042A8
:100F8000101800D5A7E101256D42C540012040425F
:100F9000D040844630682840726864462240060685
:100FA000140EA3460402FF273F043C402643B046EC
:100FB000060A14063443FF263602344046462643CA
:100FC000B046000E14020443FF26B24634404646A3
:100FD0003443160AB0461606B1465E464F463E43B7
:100FE00012020243FF200004024032434046FF2623
:100FF000360230400243514063400E980668AE43CB
:101000003500466802966746BE43B44608061E0E83
:10101000354366460643B4460802FF263604304090
:1010200066460643B4460E0A18063043FF263602CB
:101030003040664630430E0EB4461E0267463E43BD
:10104000B046564647463E4030431E0AB0461E064E
:1010500035431E02B14666464F463E43FF273F04D6
:1010600037402F434646FF252D022E4037430E9D25
:101070002F6068600198C500202040422E1800D5DE
:1010800032E11F30F04001267642EE40014033400D
:101090004A4018925C40199402E0C04691670000F3
:1010A0001A9B0F9A53401B99129841408C461C99E9
:1010B000139A4A401D990191149E4E4019998946F0
:1010C0001E9D1F9C2099219F1898B046BA46F02675
:1010D000A346724040B4484069405A40C7430F435A
:1010E000161C9E437040CE432E4372401E1C864306
:1010F00071402E1C16405E406F40574046404840AD
:101100004B4665469146844640465A465446B84644
:101110008B46634054406840DF432743011CA9438A
:101120004B40E14311434840291C99434C40111C5A
:1011300001404D407A4042405D40634092464A46FD
:101140009946810993069709594083065F404308F1
:101150005940D307594053085F40C3075F40484098
:101160007A40E900730FF70059406B0F5F406B0640
:101170005940F309594073065F40EB095F404D4009
:101180007E405946B346E6054B0ACF055E40630AEA
:101190005F40E3095E404B065E40CB095F4063065B
:1011A0005F40744079405B465646A246AB46454692
:1011B0008046740CE8036F0C4440F0034740B00ACB
:1011C0004440A8054440A80A4740B005474066404F
:1011D0007D404F4660468946DC46B346390F0601DE
:1011E000040F71403E017440FE0C71404603714093
:1011F000C60C74407E03744040BC4F40604049467A
:10120000B9460F3E3C2E00D063E75C461599109E10
:10121000B4466144082216A8384B9847169A179886
:101220001106030E1602FF273F04BC463E40314321
:10123000170A06063E43FF273F023E403143160E83
:10124000B046060242461643FF22164031438A4604
:10125000060A01060B430002414608436146084066
:1012600003433E4033435D4053465C400F9B5D402B
:1012700012984440254321042B0C0B43210C1D43A1
:101280000C432406280A2043284310400138C00F8D
:10129000013823B03CBC90469946A246AB46F0BD0F
:1012A000002B04D12C9B072B01D9FFF78CFB0120CD
:1012B0004042EEE7109B119C002C03D1072B01D973
:1012C000FFF7DEFC109C119D159E3DE62021891A3A
:1012D0008023CB4043E62020801A01256D422C005C
:1012E0008440D540254351E62026761B012040420C
:1012F0000700B740E8403843C5E6C04641680000F3
:101300000C4B1B68002B06D1EFF31083002B07D08A
:101310000022094B1A70074A1368013313607047A3
:1013200072B6BFF35F8F0022044B1A700132024B7A
:101330001A70F0E7040300200803002000000020DA
:10134000084B1A68013A1A601B68002B09D1064B3A
:101350001B78002B05D00122044B1A70BFF35F8F5E
:1013600062B670470403002008030020000000203C
:10137000F0B583B001AC012565700027A77025701A
:1013800021000F20064EB047802212028223DB0587
:101390009A612770657021001C20B04703B0F0BD32
:1013A0004D18000003680A4A934203D0094A934249
:1013B00007D07047084A116980235B000B43136113
:1013C000F7E7054A116980239B000B431361F0E79F
:1013D000001C0042002000420008004070B50C00D4
:1013E00015000160A64B9847A64B00221A702A7878
:1013F0001A70A54B9C4200D1C7E0A44B9C4200D17F
:1014000000E1A36902221343A361A14ABC23E25075
:1014100007220C33E2509F4BE3619F4BE360AB7BB1
:10142000002B04D0E26880231B041343E3606B7835
:10143000002B03D0A36840221343A3606269AB78FA
:1014400013436361EB78002B04D0A2698023DB0196
:101450001343A3612B79002B04D0A26980239B0145
:101460001343A3616B79002B04D0A26980235B0135
:101470001343A361AB79002B03D1A369402213432B
:10148000A361EB79002B03D0A36910221343A3615E
:101490002B7A002B03D0A36908221343A3616B7A34
:1014A0001B04F022120313400122134323622B7BFF
:1014B0006A7B13436A8912041343A362EB7B1B020A
:1014C000FE22D2011340297C7F220A401343A364E9
:1014D0006A7C120130231340A97C89000C220A4047
:1014E00013438022A350EB7C002B03D0A35802218E
:1014F0000B43A3502B7D002B04D08022A358012145
:101500000B43A3509023AA69E2502B7F002B05D0F8
:10151000A022A15880231B060B43A350A022A15850
:101520006B7F1B06FE20C00503400B43A350AB7F1F
:10153000002B05D01032A15880231B060B43A3506B
:10154000B022A158EB7F1B06FE20C00503400B43D1
:10155000A3502023EB5C002B05D01032A158802330
:10156000DB050B43A350F022A1582123EB5C1B06A3
:10157000FC20800503400B43A3500323E365043B99
:10158000103AA3500432A35070BD3E491A20434B79
:1015900098471A20424B98473B4B9A6902210A43CD
:1015A0009A61404A1204120C802189030A43842163
:1015B0005A503D4A1204120C802149030A438820E4
:1015C0001A503A4A1204120C0A4318301A50384A78
:1015D0001204120C1143B0229950364A1204120C14
:1015E000AC215A50344A1204120C34490A43C02127
:1015F0005A50334A1204120C802109030A43F02185
:101600005A5002E71F491B20244B98471B20244BAC
:1016100098471E4B9A6902210A439A61294A12048B
:10162000120C802189030A4384215A50264A12044D
:10163000120C802149030A4388201A50234A1204BD
:10164000120C0A4318301A50214A1204120C11438A
:10165000B02299501F4A1204120CAC215A501E4A53
:101660001204120C15490A43C0215A501B4A120495
:10167000120C802109030A43F0215A50C5E6C046E6
:10168000A5130000AC250020001C004200200042F1
:1016900077070000030A0506330A0000052800004A
:1016A000952700000C1100208C0700200C0800205A
:1016B0008C0C00200C0300208C110020000004047E
:1016C000CC1300200C2200208C1800200C190020C4
:1016D0008C1D00200C1400208C220020CC24002023
:1016E0000268936901218B439361016801228B6930
:1016F0001A42FCD170470268936901210B43936140
:10170000026893691942FCD0936902210B439361EB
:101710000268916980235B000B43936102689169C1
:1017200080239B000B4393617047000010B5036852
:101730000948834204D0094C1720A34206D010BDAB
:1017400009689200064BD1500020F8E70968920022
:10175000044BD1500020F2E7001C00420020004260
:101760000C1100200C22002010B50C0003680F495A
:101770008B4204D00E4917208B420BD010BDD100F4
:101780008A18D2000B498918482220000A4B984732
:101790000020F3E7D1008A18D200084989184822AE
:1017A0002000054B98470020E8E7C046001C004297
:1017B000002000420C030020416800000C140020AF
:1017C00030B503681D48834204D01D4C1720A34246
:1017D0001AD030BD0D681B48D400A318DB001D5083
:1017E0004D68A318DB00C3185D600B000833A21816
:1017F000D200083282184831187810700133013253
:101800008B42F9D10020E4E70D680F48D400A318FB
:10181000DB001D504D68A318DB00C3185D600B0092
:101820000833A218D2000832821848311878107094
:10183000013301328B42F9D10020CAE7001C00427B
:10184000002000428C1100208C22002000B583B0C3
:1018500001AB80221A700A785A704A789A708A7896
:10186000DA701900014B984703B000BD0129000050
:10187000F0B5DE4657464E464546E0B587B0804651
:10188000049116001F000022002300218B463F24F4
:1018900001202100009601975C460394444605947C
:1018A00013E02024641A0500E540A84614E0009CDB
:1018B000019D121BAB415C464D462C43A346039C45
:1018C00045462C430394013925D3202464420C1946
:1018D000E7D40500A540A84604008C40A146921814
:1018E0005B4114001D00059E4F463E40B446049ED9
:1018F00047463E40B246664657463E4303D0060042
:10190000264332002B00009C019D9D42DBD8CED1A6
:101910009442D8D8CBE7039B5846190007B03CBC8B
:1019200090469946A246AB46F0BD10B54908402303
:101930000024814202D2180010BD1C00091A631C49
:101940009BB28842F9D94023FF2CF4D8148000239D
:10195000F1E70000F0B583B00F00160008AA117877
:1019600004004C434022BC4202D9100003B0F0BD39
:10197000002B14D1020008000021194CA0470100DF
:101980003A0000230020174CA04700220123121A1E
:101990008B41120C1B041A4332800022E5E700221F
:1019A000012BF9D10A00002300210D4CA0470200B1
:1019B0000B0000920193380000210A4CA04705005B
:1019C00080239B0140229842CFD8790FF800009ADB
:1019D000019BA047EA00821AD2B252032A43DBE7F6
:1019E000916700007118000010B582B004000E4B22
:1019F0001B78002B07D0002905D10B4B5B78834265
:101A000010D01D200CE001A90C701220074B984744
:101A10001220074B9847044B5C7001221A7000207B
:101A200002B010BD0020FBE70C25002005280000B7
:101A300095270000404B984231D00AD93F4B98423D
:101A40004DD03F4B98425AD03E4B984237D0002061
:101A500070473D4B98420CD03C4B9842F7D101293E
:101A600017D000295DD0022915D0032915D00020F8
:101A7000EEE7012907D0002951D0022905D003291A
:101A800005D00020E4E73248E2E73248E0E7324898
:101A9000DEE73248DCE73248DAE73248D8E70129A6
:101AA00007D000293FD0022905D0032905D0002006
:101AB000CEE72D48CCE72D48CAE72D48C8E70129D5
:101AC00007D0002931D0022905D0032905D00020F4
:101AD000BEE72848BCE72848BAE72848B8E7012904
:101AE00007D0002923D0022905D0032905D00020E2
:101AF000AEE72348ACE72348AAE72348A8E7012933
:101B000007D0002915D0022905D0032905D00020CF
:101B10009EE71E489CE71E489AE71E4898E71E4825
:101B200096E71E4894E71E4892E71E4890E71E4835
:101B30008EE71E488CE7C046000C004200140042AD
:101B40000018004200100042000400420008004259
:101B50000300050003000600030007000200110057
:101B6000020012000200130002000D0002000E002D
:101B700002000F0002001700020018000200190006
:101B80000300290003002A0003002B0003002300A8
:101B900003002000030021000300040002001000E5
:101BA00002000C00020016000300280003002200BF
:101BB00030B587B00B4B6A4632CB32C232CB32C221
:101BC000009B83420BD001239A00694652588242FF
:101BD00006D00133062BF7D1002007B030BD00231B
:101BE000D8B2FAE7F885000070470000F0B50A4B5C
:101BF0001B78002B0CD1094F094E0A4D0024DE51F1
:101C00005A1914600433182BF9D10122024B1A70AF
:101C10008000024BC150F0BD0E2500201025002091
:101C2000E91B0000B025002000B583B009236A46F7
:101C3000137001335370013393700133D370013348
:101C4000137101335371034B98476B46185603B019
:101C500000BDC046B11B000010B5024B1B68002040
:101C6000984710BD1025002010B5024B5B6801207D
:101C7000984710BD1025002010B5024B9B6802202C
:101C8000984710BD1025002010B5024BDB680320DB
:101C9000984710BD1025002010B5024B1B69042089
:101CA000984710BD1025002010B5024B5B69052038
:101CB000984710BD10250020F0B5DE4657464E4629
:101CC0004546E0B591B005000C00160029600800FB
:101CD000D24B984705280DD00700133722680523FB
:101CE000D20709D5180011B03CBC90469946A246CF
:101CF000AB46F0BD1927F1E7226817339207F1D4FC
:101D0000C74AD16901301B3B83400B43D3610FA904
:101D100035239846F35C0B70FFB23800C14B9847EF
:101D20003800C14B98474346F05C0021BF4B9847B1
:101D3000F37A6B712C23F35CAB712D23F35CEB71A5
:101D4000F37E2B722423F35C6B722B6802931800D2
:101D5000B24B984705281DD0133000220E2306A948
:101D60008C4663441A80338A98468023DB01984569
:101D700000D1C3E010D9C023DB01984500D1B8E001
:101D800080231B02984500D066E1032306930023BD
:101D900007930AE01920E0E780239B01984500D0D3
:101DA0005AE1102306930F3B079333680593F368BA
:101DB0009B4673690393337E04932E23F35C9A4608
:101DC00073689946002B00D1C5E080235B059945D7
:101DD00000D1A8E0737E002B02D0B37E029A9373E9
:101DE0000E2306AA944663441B88029A9381059A9F
:101DF0005B461A43039B1A434B461A4343461A4316
:101E0000049B1B021A4353465B071A432F23F35CC0
:101E1000002B01D104331A43737E9B022421715C91
:101E200049020B432621715C09020B432C21715C92
:101E300049040B432D21715C09040B43B07AF17AFC
:101E4000084318433389FF2B00D1AAE080214904BD
:101E50000A43184302998B689C46338C718C0B4360
:101E60001F000721634619403B000B4302998B601A
:101E7000F369002B02D06E490A401A433423F35C05
:101E8000002B03D16B4B9B789B0701D580231A4312
:101E90002968029FCB69002BFCD178602968CB6947
:101EA000002BFCD13A603B68F02212051340E0227F
:101EB000D20493420AD0BB6807229343BB60BA683E
:101EC0002523F15C1E3B0B401343BB600EAB80220D
:101ED0001A7000225A70DA709A70B36B0A93F36B1F
:101EE0000B93336C0C93736C02930D9300270AAE23
:101EF00066E008230693073B079356E7336805938C
:101F0000F3689B4673690393337E04932E23F35C3B
:101F10009A4673689946002B19D080235B05994532
:101F200001D0002327E02F23F35C002B00D051E7E2
:101F3000B36A1F00C0B2404B984701000E2206ABA7
:101F40009C46624438003D4B9847030013E0082349
:101F50000693002307932F23F35C002B0FD0069BDF
:101F60000093079B0E2206A98C466244316BB06A2F
:101F7000334FB8470300002B00D0B3E62AE7B36A1B
:101F80001F00C0B22C4B98470100069B0093079B93
:101F90000E2206A8844662443800294FB847030041
:101FA000E9E7F37E002B00D154E78023DB041A43DA
:101FB00050E72000234B984707E00137042F0DD04E
:101FC000F9B2BB0098590028F3D0431CF5D00EA9F4
:101FD0000870000CC0B21C4B9847EEE70023EB6082
:101FE0002B616B61AB61EB612B62AB626B620022B8
:101FF000EB85AB853033EA540133EA540133EA54BC
:102000000133EA542868054B984704000F49104BE8
:102010009847A4000F4BE550002363E6B11B000076
:10202000000800400528000095270000E91900007D
:10203000FFFFFFF000200041292800002B190000BD
:1020400055190000351A000001290000F520000094
:10205000ED1B0000B02500201023069300230793FA
:10206000A3E6C046C2791C23002A01D1180070479C
:10207000C28D92B2173B002AF8D102681185022165
:10208000137E0B42FCD00023F0E782791C23002A48
:1020900001D118007047828D92B2173B002AF8D107
:1020A0000268107E4007F4D5538BDBB258061DD072
:1020B000980703D5022353831833EAE7580703D55B
:1020C000042353831A33E4E7D80703D5012353834A
:1020D0001233DEE7D80603D5102353833233D8E713
:1020E0009B0603D5202353832133D2E7138D0B8026
:1020F0000023CEE7F8B58000644BC5582C68E3692F
:10210000002BFCD1237EA67D1E403023EB5C3122C8
:10211000AF5C1F40F30722D5EB8D9BB2002B1CD088
:10212000AA6A1378DBB2511CA962697901290ED021
:102130009BB2DB05DB0D2385EB8D013B9BB2EB8571
:10214000002B0CD1013323750133A37507E05178BF
:1021500009020B430232AA62EBE701232375B3079E
:1021600006D50223237500223133EA54FB071ED41F
:10217000730768D5AB8D9BB2002B62D0638BDBB24B
:102180001A0718D47F2213405A0601D540229343E0
:10219000002B33D09A0711D51A223223EA54303B50
:1021A00063837B074FD528006B6998474BE0280075
:1021B000EB689847DCE777221340E5E75A0705D537
:1021C0001E223223EA542E3B6383EAE7DA0705D561
:1021D00013223223EA54313B6383E2E7DA0605D562
:1021E00042223223EA54223B6383DAE79B06D8D5A6
:1021F00041223223EA54123B6383D2E7238DDB056D
:10220000DB0DDAB2696A0A706A6A511C696269791F
:10221000012910D0AB8D013B9BB2AB85002B12D1B5
:102220000433237500222E33EA54BB070BD5280054
:102230002B69984707E01B0A53706B6A01336B6286
:10224000E8E704232375F30604D5102323752376CA
:10225000FB060ED4B30604D52023237523763B0753
:102260000BD4330704D5082323752376BB0608D483
:10227000F8BD2800EB699847ECE72800AB69984760
:10228000EFE72B6A28009847F2E7C046B025002008
:1022900010B5072803D880000F4B1B589F4600201D
:1022A00018E00E4B586815E00D4B597D0907090FD2
:1022B00001310C480C4B98470CE0084B986809E03A
:1022C000074B1B7F00209B0704D5044B186801E0D7
:1022D0008020000210BDC046108600002825002086
:1022E00000100040006CDC02A5640000F0B5DE4682
:1022F00057464E464546E0B5254A938A45780178CB
:102300004C424C41A14681788C46C1788846467A39
:10231000077A817A8B461F4944688C60C17A8900AC
:10232000847B64002143447B2143C9B29175017BC6
:10233000D1750121484680000424A343034340464D
:102340000840C0000434A343034360460840000132
:102350000834A34303430F40BF01402083433B4362
:102360000E40F601403083433343793805402D0257
:10237000094803402B4358460140090307480340DE
:102380000B4393823CBC90469946A246AB46F0BDB7
:102390000014004028250020FFF8FFFFFFEFFFFF9B
:1023A000F8B50400C568037D012B4DD0A368180162
:1023B0002900294B98470F22024003092178C901BF
:1023C0006678B6013143C9B2244E31771104013B1E
:1023D0001B051B0D0B43336237002C260421BB5D0C
:1023E0000B42FCD1A3781B03E178C9000B43217990
:1023F00089000B43A17C032631400B43218A090449
:10240000174F39400B43E17C0902E027FF003940B8
:102410000B43277D3F01302139400B430F494B626D
:10242000637D1E402823CE540F002C260821BB5D5F
:102430000B42FCD10F23984382186A43637D043317
:10244000DA40084B1A60F8BD018A013149002800C2
:10245000014B98470500A9E7A56400000010004063
:102460000000FF0728250020072803D88000184B0C
:102470001B589F46172029E0164A137D02210B4363
:102480001375002022E0144A936902210B439361E3
:1024900000201BE00F4A138A02210B431382002005
:1024A00014E00D4A938A02210B43938200200DE031
:1024B000084A137F02210B43137710002A310222AE
:1024C000435C1342FCD1002000E000207047C0466E
:1024D000308600000010004000140040F0B5C646F1
:1024E00000B58EB003223F4B9A603F4A53681E21CD
:1024F0008B4318390B4353600AA8002303708022D2
:102500001202426083700122C2708372C37203732D
:10251000437383730239417043720272334B98479D
:102520000520334B984733490122CB681A42FCD02F
:10253000314B1A7D80210A431A7502225A751A00FE
:102540009369002BFCD12D4B984701AD01260296D3
:1025500000246C706C7205232B702E7229000120F0
:10256000274B984698470120264FB8476E606C70FD
:102570002C726C7207232B7029000820C04708209A
:10258000B84704A88470C47004711F4B836006822E
:102590004475C474847404700123437004751B4B28
:1025A000C3601B4B98470720114B984712483021B6
:1025B0000322435C1340032BFBD1023B154A1371EA
:1025C00001A94B6000224A704A7207320A700B72EE
:1025D00000200B4B984700200A4B98470EB004BCD4
:1025E0009046F0BD0018004000400041ED22000080
:1025F000692400000014004000100040192600006B
:102600003D260000E9260000006CDC02FF7F000090
:10261000A123000000080040064A536980210B43B3
:1026200053610122044B1A7019000B781342FCD13C
:102630007047C04600080040001C004070B5040010
:102640000D784B78002B02D08023DB001D434B7AA2
:10265000002B02D080231B011D43486801280FD99D
:10266000431E184231D102282DD902230022013203
:102670005B009842FBD880235B011D431204154385
:102680000B7A002B02D080239B011D430426A64019
:102690001149124A4B6813401E42FBD1104B984718
:1026A000A4000D4B9C466444226A80235B001A40C0
:1026B0002A4322626146094A4B6813401E42FBD1FD
:1026C000084B984770BD0022D5E7000480239B008B
:1026D00018430543D4E7C046001C0040FC07000037
:1026E000011300004113000010B5040004228240D1
:1026F00009480A4943680B401A42FBD1084B9847E6
:10270000A400054B9C466444226A80235B0013436B
:102710002362044B984710BD001C0040FC070000DA
:102720000113000041130000F8B5040004228240A8
:102730001248134943680B401A42FBD1114B98478A
:102740000E4F0834A400E0594007400F0E4B984745
:102750000600E559ED04ED0FE459240C0B4B9847A6
:10276000002D07D1012C07D921003000084B9847D4
:10277000060001E00134E6403000F8BD001C0040D6
:10278000FC0700000113000091220000411300002B
:10279000A564000010B50400094B9847A000094B40
:1027A0009C4660448022835840210B438350403133
:1027B000403A43581A42FCD0034B984710BDC046DC
:1027C00001130000001C00404113000010B504007C
:1027D000094B9847A000094B9C46604480228358CF
:1027E00040218B4383504031403A43581A42FCD138
:1027F000034B984710BDC04601130000001C004069
:102800004113000070B504000D00054B98472A786D
:102810000F2313402034A400024AA35070BDC046C9
:10282000CD270000001C004010B50400064B98475F
:102830002034A400054BE4582407240F044B984788
:102840002000044B984710BD01130000001C0040FD
:10285000411300002927000030B5D378002B35D173
:102860001378802B29D01B068024640223435478DC
:102870000225AC4306D19478002C20D18024A402F8
:10288000234341605478013C012C1CD90D042D0CCC
:10289000A024E4052C431C4384620D0CD0242406A0
:1028A0002C431C438462D478002C22D15B031CD5BA
:1028B0009378012B1ED0416117E00023D7E7C02495
:1028C000E4022343DDE70D4C2340DFE741600C04C5
:1028D000240CA023DB05234383620C0CD0231B06AE
:1028E00023438362D378002B03D15378013B012B20
:1028F00002D930BD8161F8E78160FAE7FFFFFBFF95
:1029000010B50A00C1090023002905D14309DB01E4
:102910008221C9058C4663441F2420400121814047
:102920001800014B984710BD59280000704700005F
:1029300010B5054B9847054B9847054B9847054BF5
:102940009847054B984710BDDD2400007113000027
:102950002D2900002D2900002D290000EFF305830B
:10296000FCE7000010B5174A174B9A4211D01A0025
:10297000164B9A420DD2164A03339B1A9B08013319
:102980009B00002210480F498C58845004329A4210
:10299000FAD1104A104B9A420AD2D3430E495B181F
:1029A00003218B4304339B18002102C29342FCD1C4
:1029B0000A4AFF210A4B8B4393600A4B98470A4B04
:1029C0009847FEE7ECB1000000000020E80200207C
:1029D00004000020E80200203C39002000ED00E067
:1029E00000000000E56700004D5C0000F0B5C64641
:1029F00000B50C00904600280FD1002A11DD8F1879
:102A0000094E0A4D306821002B6898470134BC42BA
:102A1000F8D1404604BC9046F0BD01235B42984685
:102A2000F7E78046F5E7C046D0250020C8250020FE
:102A3000F0B5C64600B50E0015000138022810D8C2
:102A4000002A11D000240C4B98460C4F43461868BE
:102A5000315D3B689847002808DB0134A542F5D179
:102A600006E00124644203E0140001E00124644212
:102A7000200004BC9046F0BDD0250020CC250020CD
:102A80000300064A1268002A04D0044A1068C318DA
:102A9000136070470249014A1160F6E734250020AF
:102AA0004059002001204042704780239B014B6029
:102AB000002070470120704700207047F0B5DE46C7
:102AC00057464E464546E0B59DB083460191904637
:102AD000269CC148C14B9847C148C24B984704AB9C
:102AE000DE1C3100C048C14B98473378682B0ED0AC
:102AF000BF4B9A46B94FBC4D5046B84704ABDE1C9D
:102B000031002800B94B98473378682BF4D1B94885
:102B1000B24B98470022B84B1A70B84B1968B848A6
:102B2000B04B98475B46002B0ADB019D0026B54F52
:102B3000202200212800B84701362035B345F7DAB6
:102B40000023059388231B040693059AAE4B134379
:102B50000593E0239B0306930822012107A8A94BB4
:102B60009847012205A92000A84B984723689A6935
:102B7000920702D40221D02299502168D822022340
:102B800088580342FCD01022FF21019D28009D4B54
:102B90009847290028009E4B9847012803D09D485C
:102BA0008E4B9847FEE71822019907A89A4B984741
:102BB0000023059388231B040693059A8023DB04D6
:102BC00013430593F0239B030693012205A92000DC
:102BD0008E4B984723689A69920702D40221D0222B
:102BE00099502168D822022388580342FCD08B4B8D
:102BF0001793179B8A4A1A408A4B13431793179BC4
:102C0000DB0ADB02022213431793179AE0239B058A
:102C1000134317935B46002B00DCA6E0019F20378F
:102C2000102343449A46804E012399467F4B984691
:102C300000230393022526945B460293A34646E0B5
:102C40005B461968D822029C8B581D42FCD0774AFB
:102C50001368002BFCD00294744B00221A60744B52
:102C6000744A995C013A9B5C8B4276D0704A481C4E
:102C7000032303406F481354CB005B18DB00932100
:102C800089008C4663449B18083318AA13CB13C2DF
:102C90001B681360102218A938005F4B98475246F2
:102CA000102118A8644B984739003800584B9847B2
:102CB000012854D101239C46E14401367605760D66
:102CC00020370F339C46E244029B4B454CDB434686
:102CD000039A1A60514B1793179B320450490B40CB
:102CE00013431793179BDB0ADB022B431793179AA7
:102CF000E0239B05134317932A0017A958464F4B0F
:102D000098475B461A68516D80231B030B4353653C
:102D10000023059388231B040693059A4B46013331
:102D2000FF339B0446490B4013430593E0239B0369
:102D3000069301991831082207A8374B98470122BA
:102D400005A95846314B98475B461B689A6915425E
:102D500000D075E7D0229D5072E7002394E74946E2
:102D60003848204B9847FEE75C46179B364A13408D
:102D70001793022217A92000304B984705AD002376
:102D8000059388231B040693059A1F4B1343059351
:102D9000E0239B0306930822012107A8194B9847BB
:102DA00001232B72012229002000184B9847236829
:102DB0009A69920702D40221D02299502168D82220
:102DC000022388580342FCD001201DB03CBC904631
:102DD0009946A246AB46F0BD50860000CD6A000081
:102DE00080860000D9690000AC860000056B0000F9
:102DF000B0860000C486000038250020143800206A
:102E0000108700007768000000004410C117000020
:102E1000415400001C87000041680000FF07008843
:102E2000FFFF00F800000103010200003C25002024
:102E3000D425002049020000515700002D17000042
:102E40000000FC1F50870000FFFFFFC710B502689D
:102E5000012906D9031D8900401810CB2243834263
:102E6000FBD150421043C00F0138404210BD00005A
:102E7000F8B505000E00C769C468010020312022A2
:102E800030000B4B9847042128000A4B9847002834
:102E900006D16400E40FE407F3691C43F461F8BD54
:102EA0007F00FF0FFF07F3691F43F761F7E7C04695
:102EB000536800004D2E0000F0B5C64600B5874CA3
:102EC000A54404000F002822002149A8844B9847FC
:102ED000012349931F339C46BC44634665460193D6
:102EE0002022210018007F4B9847E37FDB0998469A
:102EF000FB6B5B005B08FB630DA928007A4B9847CE
:102F00005DA90DA8794B984753AA79495DA8794BDB
:102F100098475DAA49A91000774B984753AA49A939
:102F20001000764B98477BA953A8754CA04776A90B
:102F300058A8A0477BAA76A91000724EB04776AA7F
:102F400053A95DA8704DA84771AA58A962A8A847BF
:102F500076AA71A91000B04771AA53A962A8A84720
:102F60006CAA58A95DA8A84771AA6CA91000674B64
:102F700098476CA976A8A04767A971A8A0476CAA32
:102F800067A91000B0477D245D4D6CA90800A847D3
:102F9000013C002CF9D180AA6CA976A8594B98471E
:102FA00080A908005A4B9847052180A8594B98479B
:102FB000002800D073E080AA11001000514B984700
:102FC0006CA97BA84E4DA8476CAA11007BA84E4C5B
:102FD000A0476CAA110080A8A04785A96CA84E4BF9
:102FE00098476CAA85A97BA8A04703AA6CA980A8CA
:102FF000A04776A903A8A84776AA11007BA8A047F6
:1030000003A8464B984708AA6CA971A8A04780AAB4
:1030100076A910003D4B984780A908003C4B984783
:10302000052180A83B4B984700283ED003A9080003
:103030003B4B9847052103A8364B9847002849D0B9
:103040000C9B9B0D434502D003A8364B984717A90C
:1030500003A8334CA04721A90DA8A04717A8324BBD
:103060009847002808D11CA8304B984717A82E4B2A
:103070009847002300280BD017A90800284B984731
:10308000390017A82A4CA047019921A8A04701237D
:1030900018008A239B009D4404BC9046F0BD80AA82
:1030A0006CA976A8194B984785E77BAB03AA190052
:1030B00031CA31C111CA11C103AC08AA21001000E4
:1030C00070C870C130C830C113CB13C2110005CB1A
:1030D00005C1ABE7079B9B0DB4E7C046D8FDFFFFDA
:1030E0007768000053680000013A0000B94400000E
:1030F00084870000454400008542000065420000CE
:10310000B1340000873100001D320000C3310000DF
:10311000F53600004D2E000085370000553D0000BB
:10312000294400000D430000714A0000F131000005
:10313000893A000070B503041B0C000C0C04240C2D
:10314000090C25005D434B4344434143280C2604AE
:10315000360C80191E04360C8019060C2D042D0C1B
:10316000000445401560240C1B0CE3180C04240CCF
:103170001B199B19180C090C091809041B041B0CBA
:103180004B40536070BD10B503681C000B689C4633
:103190006444146043681C004B689C46644454605B
:1031A00083681C008B689C4664449460C3681C0060
:1031B000CB689C466444D460036909695B18136159
:1031C00010BD10B503680C681B1B136043684C6886
:1031D0001B1B536083688C681B1B9360C368CC689F
:1031E0001B1BD360036909695B1A136110BD0000E2
:1031F000084B02689A1A026042689A1A4260826812
:103200009A1A8260C2689B1AC360034B02699B1AB8
:1032100003617047FFFFFF03FFFF7F00F0B5DE464D
:1032200057464E464546E0B59DB091464468E31783
:10323000019382689046D217139245466D171A95EE
:103240004646F6001896C768BA46FF1717975346C2
:103250005D171695DE00149603699B46DB171B93DA
:103260005A46521712925F46FD000E95036802936C
:10327000DA1703920A680492D017059008690600CD
:10328000C517069548680790C7170897CD68099530
:10329000EF170A978F680B97F9170C91630F019935
:1032A000C9001943E000814D0D963200069BA847E6
:1032B00006000F00049A059B02980399A847361848
:1032C0004F41079A089B0E981299A84736184F410C
:1032D000099A0A9B18981A99A84736184F410B9AD1
:1032E0000C9B14981699A84736184F4110961197C1
:1032F000079A089B02980399A84706000F00049AB2
:10330000059B20000199A84736184F410D9A069B4E
:1033100018981A99A84736184F410B9A0C9B0E988B
:103320001299A84736184F41099A0A9B1498169982
:10333000A84736184F41189619970B9A0C9B02987C
:103340000399A84706000F00049A059B404613996D
:10335000A84736184F41079A089B20000199A847B3
:1033600036184F410D9A069B14981699A84736189F
:103370004F41099A0A9B0E981299A84732003B00C8
:1033800012184B4114921593099A0A9B02980399BB
:10339000A84706000F00049A059B50461799A847B6
:1033A00036184F410B9A0C9B20000199A8473618FC
:1033B0004F41079A089B40461399A84736184F413A
:1033C0000D9A069B0E981299A84736184F410E96F3
:1033D0000F970D9A069B02980399A84706000F00C5
:1033E000049A059B58461B99A84736184F41099ADD
:1033F0000A9B20000199A84736184F41079A089B5D
:1034000050461799A84736184F410B9A0C9B4046D7
:103410001399A84736184F41109C119DAB01A00E7F
:103420001843A916189B199CC01861418B01840E82
:103430001C438D16149A159BA4185D41A3019B098A
:103440004A469360A901A20E0A43AB160E9C0F9D3B
:1034500012196B41910189094D46E9609901940E59
:103460000C439D16A4197D4163025B0A4A46136111
:10347000109B9B019B091E0000276902E20D0A4375
:10348000EB1592197B41910189094C46216080011D
:1034900080099B01920E1A43801860601DB03CBCED
:1034A00090469946A246AB46F0BDC04691670000E3
:1034B000F0B5DE4657464E464546E0B591B08946E2
:1034C0000168CB174A0005924468E21701920894FC
:1034D00065000D958668B346F4170394C668B24636
:1034E000F51702950469E617B04626170C962001D9
:1034F0000A90654D0A00080004931900A8470600C9
:103500000F000A9A0C9B08980199A84736184F415A
:103510005B461B0F0398010119435B461801524695
:10352000029BA84736184F410696079753465B0FF4
:10353000029FF90019435346D80052463B00A84762
:1035400006000F00089A019B05980499A8473618B1
:103550004F410A9A0C9B58460399A84736184F4189
:103560000E960F975A46039B05980499A8470600A4
:103570000F000898020001990B00A84736184F4128
:103580000A9A0C9B50460299A84732003B00121839
:103590004B41089209935246029B05980499A8470B
:1035A00006000F005A46039B0D980199A84736184C
:1035B0004F41630F4046C1001943E00022004346DB
:1035C000A84736184F410A960B97220043460598A4
:1035D0000499A84706000F005246029B0D980199D6
:1035E000A84736184F415A4603990B005846A8473A
:1035F00036184F41069C079DAB01A00E1843A91633
:103600000E9B0F9CC01861418B01840E1C438D16CC
:10361000089A099BA4185D41A3019B094A4693603F
:10362000A901A20E0A43AB160A9C0B9D12196B410D
:10363000910189094D46E9609901940E0C439D164C
:10364000A4197D4163025B0A4A461361069B9B01F4
:103650009B091E0000276902E20D0A43EB1592192F
:103660007B41910189094C462160800180099B01C1
:10367000920E1A438018606011B03CBC9046994687
:10368000A246AB46F0BDC04691670000F0B50568A4
:1036900047688268C6680369AC16E419A0168018EA
:1036A000A401A40982169219800180099616F618C1
:1036B0009201920977027F0AF615AD01AD097319DF
:1036C0009D162C19A51628188516AA189616F619EF
:1036D000F7159D01AD097D190D60A401A4094C6089
:1036E00080018009886092019209CA6073025B0AB6
:1036F0000B61F0BDF0B5036847688268C66805696C
:103700009C16E419A716BF18A401A409BA169219A9
:10371000BF01BF0990164019920192094602760A2C
:103720009B019B090133C0151B1898160419A0169C
:10373000C719A401A009BC16A218BF01BF0995169C
:10374000AD19920196096C02640A9B019B09ED1563
:10375000013D012215405B1B9D162D18A816C019AE
:10376000821692199B019B090B60AD01AD094D605A
:1037700080018009886093019B09CB60921614191F
:103780000C61F0BDF0B59BB005000E0010A9484CCF
:10379000A04710AA11002800464FB8470BA910A84F
:1037A000A0470BA90800A0470BAA110010A8B84712
:1037B00006A90BA8A04706A90800A04706A908006B
:1037C000A04706A90800A04706AA11000BA8B84701
:1037D00001A906A8A0470724354F01A90800B8474A
:1037E000013C002CF9D101AA110006A8314B9847E1
:1037F00010A901A82E4B98470F342D4F10A908008F
:10380000B847013C002CF9D110AA110001A8294B9E
:10381000984715A910A8264B98471F34244F15A97F
:103820000800B847013C002CF9D115AA110010A8D6
:10383000204B984720341E4F15A90800B847013C7B
:10384000002CF9D115AA10A910001A4B9847103472
:10385000174F15A90800B847013C002CF9D115AA4B
:10386000110001A8134B98470834114F15A90800FF
:10387000B847013C002CF9D115AA110006A80D4B40
:10388000984704340A4F15A90800B847013C002C9A
:10389000F9D115AA11000BA8064CA04715A90800DC
:1038A000034B9847320015A92800A0471BB0F0BD74
:1038B000B13400001D32000070B59EB0050005A9AE
:1038C0004D4CA04705AA110028004C4EB0470AA94C
:1038D00005A8A0470AA90800A0470AAA110005A840
:1038E000B0470FA90AA8A0470FA90800A0470FA931
:1038F0000800A0470FA90800A0470FAA11000AA8B6
:10390000B04714A90FA8A04707243B4E14A90800EC
:10391000B047013C002CF9D114AA11000FA8374B75
:10392000984705A914A8344B98470F34324E05A97F
:103930000800B047013C002CF9D105AA110014A8D9
:103940002E4B9847694605A82B4B98471F342A4EA3
:1039500069466846B047013C002CF9D16A46694681
:1039600005A8264B98472034234E69466846B04741
:10397000013C002CF9D16A4605A968461F4B9847BF
:1039800010341D4E69466846B047013C002CF9D101
:103990006A46694614A8194B98470834164E69467A
:1039A0006846B047013C002CF9D16A4669460FA829
:1039B000124B98470434104E69466846B047013CA4
:1039C000002CF9D16A4669460AA80C4CA047694602
:1039D0006846094EB04719AA69462800A04719A9A8
:1039E0000800B04719A90800B0472A0019A9280003
:1039F000A0471EB070BDC046B13400001D320000AB
:103A0000F0B503689B019B090B6043689B011C4A4E
:103A100013400468A40E23434B6083681B03194FB3
:103A20003B404468240D23438B60C3689D04FF26FC
:103A3000B604354083689B0B1D43CD60C3685B00B3
:103A40005B0A0B6103699B019B094B6143699C0104
:103A5000144003699B0E1C438C6183691A033A402E
:103A600043691B0D1A43CA61C3699B0433408269D1
:103A7000920B13430B62C3695B005B0A4B62F0BDA0
:103A8000C0FFFF0300F0FF0343689B060268134377
:103A90000B6083681B054268920913434B60C3683F
:103AA0009B038268120B13438B6003691B02C2687D
:103AB000920C1343CB6083699B06426913430B61ED
:103AC000C3691B058269920913434B61036A9B0317
:103AD000C269120B13438B61436A1B02026A920C88
:103AE0001343CB6170470000F0B5DE4657464E46A3
:103AF0004546E0B587B003919946590006D01300BA
:103B000089005118002410C38B42FCD14B46002B76
:103B100035D0019280469B00029300239B461B4BAD
:103B20009A46039F019E0024002502CF04AA434623
:103B30001868D047049A13191100594054400C4397
:103B40005C40E40F059A0092A11830681A184340AF
:103B50001C00504004435440E40F641804C601356F
:103B6000A945E2D1019B029A9C5001229446E3446C
:103B70000433019304239C46E0445D45D1D107B052
:103B80003CBC90469946A246AB46F0BD353100009C
:103B9000F0B5D6464F464646C0B584469146002B02
:103BA00022D09B0098460026002201239A466346B5
:103BB0009B598F59DD1B6C422C43E40F5046444007
:103BC0001440180078406F4038435840C00F2043DD
:103BD000AD1A4B469D51043602004645E7D11CBC48
:103BE00090469946A246F0BD0020F8E7F0B5B1B086
:103BF0001500082320AA2C4CA047082310AA2B4903
:103C000020A8A04708236A46294910A8A0470026F3
:103C1000002420A973581A1968463058844617188A
:103C200068463750100060405C402043504013000D
:103C30007B40644654401C437C400443E40F0436FC
:103C4000402EE7D100231A006A44126AEA50043376
:103C5000202BF8D1183B2A0015492800154EB047F3
:103C6000241A002312495A58224068461A50043335
:103C7000202BF8D100260023AA59D11868463458C1
:103C80000F19AF51080058405340184348400A00EC
:103C90007A400B00634013437B400343DB0F043641
:103CA000202EE9D131B0F0BDE93A000050AD00005E
:103CB00098AD0000913B000030B591B004000D00BC
:103CC000202200216846074B98470123009308AA49
:103CD00005492000054CA0472A00694608A8A047CE
:103CE00011B030BD7768000030AD0000ED3B000042
:103CF000F0B5D6464F464646C0B58946012603680C
:103D00001E40731E9C4600250023114A92465246CF
:103D1000AA5861460A40D4184659A1194F4679510C
:103D200027005F405A403A436240904622004A4092
:103D30002300734013434B4042461343DB0F0435CB
:103D4000202DE4D11CBC90469946A246F0BDC04649
:103D500098AD0000F0B50368DC07E417A6094268D7
:103D6000B1188268B218C5687519640A0769BC463B
:103D700064449B195B104F068026B6043740DB195C
:103D800003605306334049105918416069063140B9
:103D900052108A188260630633406D105D19C56049
:103DA00064100461F0BD03680B6043684B60836876
:103DB0008B60C368CB6003690B6143694B618369A6
:103DC0008B61C369CB61036A0B62436A4B627047C4
:103DD000F0B5D6464F464646C0B5D2B004008A4636
:103DE00090461E002AA9CC4DA8472000283034A9AF
:103DF000A847200050303EA9A8472000783048A9A5
:103E0000A8472500A035A023DB009946A144C24F56
:103E100001235B429C46E0444346DC0F644402A914
:103E20002800B847280028300CA9B847280050308F
:103E300016A9B8472800783020A9B8472A9A029BCB
:103E40005340234053402A932B9A039B53402340D3
:103E500053402B932C9A049B5340234053402C9364
:103E60002D9A059B5340234053402D932E9A069B39
:103E70005340234053402E932F9A079B5340234097
:103E800053402F93309A089B534023405340309324
:103E9000319A099B5340234053403193329A0A9BF5
:103EA0005340234053403293339A0B9B534023405B
:103EB00053403393349A0C9B5340234053403493E4
:103EC000359A0D9B5340234053403593369A0E9BB1
:103ED0005340234053403693379A0F9B534023401F
:103EE00053403793389A109B5340234053403893A4
:103EF000399A119B53402340534039933A9A129B6D
:103F00005340234053403A933B9A139B53402340E2
:103F100053403B933C9A149B5340234053403C9363
:103F20003D9A159B5340234053403D933E9A169B28
:103F30005340234053403E933F9A179B53402340A6
:103F400053403F93409A189B534023405340409323
:103F5000419A199B5340234053404193429A1A9BE4
:103F60005340234053404293439A1B9B534023406A
:103F700053404393449A1C9B5340234053404493E3
:103F8000459A1D9B5340234053404593469A1E9BA0
:103F90005340234053404693479A1F9B534023402E
:103FA00053404793489A209B5340234053404893A3
:103FB000499A219B5340234053404993802202ABAE
:103FC000A0215B18995802AB9B584B4023404B40B3
:103FD00002A9A02009188B50043202ABA0215B1863
:103FE000995802AB9B584B4023404B4002A90918FB
:103FF0008B50043202ABA0215B18995802AB9B583E
:104000004B4023404B4002A909188B50043202ABAD
:10401000A0215B18995802AB9B584B4023404B4062
:1040200002A909188B50043202ABA0215B189958E1
:1040300002AB9B584B4023404B4002A909188B50C0
:10404000043202ABA0215B18995802AB9B584B403D
:1040500023404B4002A909188B50043202ABA02127
:104060005B18995802AB9B584B4023404B4002A928
:1040700009188B509C2302AAA0215218D15802AAD9
:10408000D25801924A4014404C4002AAA021521832
:10409000D450A0354D4500D0BAE620A948A81E4C02
:1040A000A0470CA92AA8A04702A934A8A04720A885
:1040B0001A4CA04725A8A0472AAB02A934A80C682F
:1040C0001A686240324062401A608C6A9A6A6240A2
:1040D000324062409A628C6F9A6F62403240624016
:1040E0009A67043304318342E9D151462AA80A4C25
:1040F000A0475146283134A8A047514650313EA828
:10410000A0475146783148A8A04752B01CBC904601
:104110009946A246F0BDC046A73D0000F13100001F
:10412000F0B5DE4657464E464546E0B5BFB0040002
:10413000019192469B4620A9424DA8472000283075
:104140002AA9A8472000503034A9A847270078376B
:104150002300F022D200944663443A4A914698469E
:10416000544603E06446783747452ED0013CE50FBE
:10417000013D02A93800C847380028300CA9C847BB
:104180003800503016A9C84720AE02AB9A462AA87C
:1041900019003200A44613680C6863402B40146871
:1041A00063401360936A8C6A63402B40946A634057
:1041B0009362136D0C6D63402B40146D6340136567
:1041C000043204318242E6D1CCE7140016A934A8A7
:1041D0001C4DA8470CA920A8A84702A92AA8A847AF
:1041E00016A8194DA8471BA8A8475246594630683B
:1041F000136843400B4043403360B06A936A4340C6
:104200000B404340B362306D136D43400B4043405D
:10421000336504360432A642E9D1019D290020A865
:10422000084CA047290028312AA8A047290050316E
:1042300034A8A0473FB03CBC90469946A246AB4646
:10424000F0BDC046A73D0000F1310000002303602F
:1042500043608360C360036143618361C361036240
:1042600043627047F8B504000D001600044FB847CC
:10427000320014322900143120001430B847F8BD40
:1042800087310000F8B504000D001600044FB84750
:10429000320014322900143120001430B847F8BD20
:1042A000C331000010B503685B000C681B1B136072
:1042B00043685B004C681B1B536083685B008C6821
:1042C0001B1B9360C3685B00CC681B1BD360036936
:1042D0005B000C691B1B136143695B004C691B1B72
:1042E000536183695B008C691B1B9361C3695B002D
:1042F000CC691B1BD361036A5B000C6A1B1B136236
:10430000436A5B00496A5B1A536210BD104B026836
:104310009A1A026042689A1A426082689A1A826007
:10432000C2689A1AC2600B4A0169511A0161416957
:10433000591A41618169591A8161C169591AC1616A
:10434000016A5B1A0362436AD21A42627047C0462E
:10435000FFFFFF03FFFF7F00F0B5C64600B504680E
:10436000012398461A002240524291094368CE1810
:104370008368CD18C368CF18520A03699C4662440B
:10438000641864107306802189040B409C466444C1
:1043900004606C060C407610A61946607C060C4042
:1043A0006D106519856054060C407F10E719C760D1
:1043B000521002614269434613405B429F0984697F
:1043C0003E19C4693D19046A3C195B0A9846436A60
:1043D0009C4643466344D219521077060F40D219C7
:1043E00042616A060A4076109619866162060A40A2
:1043F0006D105519C5615A06114064100C190462FC
:104400005B10436204BC9046F0BD000070B5040030
:104410000D00044EB0472900143120001430B0477D
:1044200070BDC0468D36000070B504000D00044E0E
:10443000B0472900143120001430B04770BDC04689
:10444000F5360000F0B597B006000D00019211ABF3
:104450001A00164CA04714239C46B44463462F0010
:1044600014370CA90A00390000936046A04707A83A
:104470000200009930000E4EB04702AA3900280011
:10448000B047019E32000CA911A80A4DA84707AAFF
:1044900002A91000A04707AA11A91000A8473200DE
:1044A00014320CA907A8A84717B0F0BD1D320000B0
:1044B00087310000C3310000F0B591B005000C0059
:1044C000060014360BAA31000B4FB84706AA31007C
:1044D00028000A4B984701AA31002800084DA84738
:1044E000220006A90BA8A8472200143201A908003F
:1044F000B84711B0F0BDC04687310000C33100009D
:104500001D32000070B58AB0050005A90E4EB047F7
:104510002C00143469462000B04705AA69461000F3
:104520000A4B984705A80A4B98472000094B984723
:104530002A0005A92800084DA847220005A9200047
:10454000A8470AB070BDC046B134000087310000F2
:10455000B9380000F13100001D320000002906D0FA
:10456000030089004018002204C38342FCD1704735
:10457000F0B583B004000D000700503738000D4B34
:1045800098472A00390020000B4EB04728239C464C
:10459000AC44634620002830019362463900B0479E
:1045A00029002800054CA04701980100A04703B04E
:1045B000F0BDC04605450000454400002944000008
:1045C000F0B585B005000C00783078239C468C440B
:1045D0006346019362460100204EB0472A008C32A8
:1045E000100022008C320100B0472F002837220033
:1045F00039002800B04714229446AC4463463C225C
:104600009446AC4461462200143203910293180090
:10461000B0472200283229003800114FB847220045
:104620003C3202990398B8472900A0310198020052
:104630000C4FB8472A0050321000220050320100BF
:10464000B04764352800220064322900B047019841
:1046500002000549B84705B0F0BDC04687310000EB
:10466000C33100004544000070AD0000F0B583B0D8
:1046700004000D00070028370A003900154EB04726
:1046800014239C46A44463463C229446A4446146B9
:104690002A001432019100931800B0472A002832F2
:1046A000210038000C4FB8472A003C32009901988D
:1046B000B8472A0078322100A03120007830074B1B
:1046C00098472900503120005030054B984703B0DF
:1046D000F0BDC04687310000C331000045440000F2
:1046E000A73D0000F0B583B006000D000700283795
:1046F0000A003900154CA04714239C46B444634675
:104700003C229446B44461462A001432019100933D
:104710001800A0472C0028342200390030000C4F2C
:10472000B8472A003C3201990098B8472900503117
:1047300030005030074B984729002800064DA84705
:1047400021002000A84703B0F0BDC046C3310000DF
:1047500087310000A73D00000D440000F0B599B07E
:1047600007000EA92F4EB04728239C46BC44634641
:10477000644604A91800B0473A00009421003800AC
:10478000294CA0473800143039003C310200A047C2
:10479000A0239C46BC4463460193624604A90EA82C
:1047A000A047B4218C46BC4461460391624609A8E7
:1047B000010013A8A0470EAA110004A81B4DA8478A
:1047C00013AA110009A8A84750208446BC4460469B
:1047D00004A90290B0473C00783421003800B0476B
:1047E00004AA0EAE31001000114B98472200019E22
:1047F00031002000A8473B008C3318001A000399B1
:10480000A847009A31000EAB18000A4DA8473A009D
:10481000210004A8A847029A04A90EA8A84719B025
:10482000F0BDC046B944000087310000C33100002C
:10483000A542000045440000F0B59BB006000F0003
:10484000150050239C469444634678317830019398
:1048500062462F4CA047390050313000503010AA2A
:10486000A0472A0039003000A04728229446AC44D3
:10487000624639002831300028300292A04706AA4B
:10488000019F390010A8234EB04764239C46AC44D6
:1048900063460BAA0393614615A8B04710A802000F
:1048A000019739001C4FB84715A802000399B84773
:1048B000A0239C46AC4463460393624602992800B9
:1048C000B04714218C46AC4460463C218C46AC4435
:1048D00061462A00B43205910490B0472E00783624
:1048E000320002992800B8472A008C3205990498B2
:1048F000B8472A0006A90398A047019A06A910A85C
:10490000A047029A10A93000A0471BB0F0BDC046D6
:1049100045440000C331000087310000F0B5DE4699
:1049200000B5AEB007000D0028239C468C446346BA
:10493000664610AA18003A4CA0473C239C46AC445B
:10494000634614229446AC44614615AA0291019331
:104950001800A0471AAA290003963000314EB3462A
:10496000B0471FAA02990198B04778208446AC440A
:104970006046A0229446AC44614624AA0591049066
:10498000294EB04750239C46AC4463463800503013
:1049900006AA00936146B04738007830009A24A9EF
:1049A000B0472A0010A93800B04728373800039ACA
:1049B0001AA9B04724AA009906A8D8472F0064373F
:1049C00029AA39000BA8D84706AA00991000A047C9
:1049D0000BAA39001000A047059A039F3900280050
:1049E000D8472A00B43201990298D847049A39006E
:1049F0002800A0472A008C3201990298A0472A007B
:104A000024A90598B047009A24A906A8B0473A00FF
:104A100006A90498B0472EB004BC9346F0BDC0462A
:104A200087310000C331000045440000F8B505009F
:104A30000C000C4FB84726002836280020303100E3
:104A4000B847210078312000074DA8472100A03148
:104A50003000A84720005030044B984701232365BD
:104A6000F8BDC046013A0000A73D00004D420000DD
:104A700030B59FB00500283014A9214CA0470AA9E1
:104A80002800A0476A460AA914A81E4CA04705AAF8
:104A90000FA919A8A04714AA0AA910001A4DA847DF
:104AA0000AAA14A91948A84714A8194B9847012322
:104AB00014930AAA14A91000164DA8470FAA19A901
:104AC0001000A84714AA0AA96846A04719AA0FA966
:104AD00005A8A04714A908000F4B9847149B002B6A
:104AE0000AD114AB1CAA5968002907D10433934298
:104AF000F9D101201FB030BD0020FBE70020F9E70D
:104B0000B9440000C33100004544000070AD00000E
:104B10004D4200008731000029440000F0B5DE4618
:104B200057464E464546E0B587B005008B46002205
:104B3000C423CA5004900400183403005A68D007F4
:104B400019684908014352089868C0071960424033
:104B50005A600833A342F1D19946EA69D107AB699B
:104B60005B080B43AB615208EA615946C4235B44BE
:104B7000984601239C460096019748460AE0EF6953
:104B8000FB07AA6952081A43AA617B08EB6104314A
:104B9000414514D02B6862461340013B0B60049CD6
:104BA0006368DE072268520832435B08A668F6078E
:104BB00022607340636008348442F1D1DFE7009ED5
:104BC000019FC8235B449846322320229146A94482
:104BD000A246444698465B46059307E0814601237A
:104BE0009C46E04404344346FA2B56D0A3460123A6
:104BF0002A681340236004990096019757464B6832
:104C0000D8070A68520802435B088868C0070A6030
:104C100043404B600831B942F1D1BA46EA69D10745
:104C2000AB695B080B43AB615208EA613221404635
:104C30001D4B98478900059BCB585B425A4610682C
:104C400018408446029000230393029A039B28682D
:104C5000696812184B4129000CC10092019353421C
:104C6000009A1343DB0F01225340604618400600B0
:104C7000002748460A684B6892197B410CC1009294
:104C800001935342009A1343DB0F012253403340F8
:104C90001E0000278142EDD1A0E707B03CBC904642
:104CA0009946A246AB46F0BDB1650000F0B5DE46C0
:104CB00057464E464546E0B5CE4CA5440500039107
:104CC00085ACCD4A00212000CC4B98477DA9280017
:104CD000CB4B98477DA90800CA4B984785A97DA86A
:104CE000C94B9847F9239B00E2585200C83BE35850
:104CF000D218520095239B00E358D2185200C423C7
:104D0000E358C621490061585218C04CF0214901AE
:104D1000601819A9BE4DA84737AA23A919A8BD4DE7
:104D2000A8473CAA28A91EA8A84741AA23A919A8B0
:104D3000B94DA84746AA28A91EA8A8474BA8B74B13
:104D4000984701234B9337A8B54DA84741A8A847DA
:104D500055A937A8B34DA8475FA941A8A847B423D0
:104D60005B019846A044A123DB006B449A46BD2614
:104D7000A74B9946AC4DA84CD346DC465B46C8339E
:104D80001A68330030006438864208DB5946520006
:104D90000F68BA465244323BC8399842F7DDA34BFC
:104DA00063441B6819A94046C84755AA5FA910006B
:104DB000A84705AA4BA90800A0470AAA50A90800BD
:104DC000A04755AA2DA91000A8474BAA41A937A86A
:104DD000A04750AA46A93CA8A0475FAA37A941A866
:104DE0008C4B9A46984764AA3CA946A8D0470FAA7C
:104DF00055A905A8D04714AA5AA90AA8D04705AAB8
:104E000055A91000A0470AAA5AA91000A04755AA00
:104E10004BA919A8A84737AA5FA923A8A8475FAA42
:104E200037A955A8D04764AA3CA95AA8D04755AA83
:104E300037A91000A0475AAA3CA91000A0474BAAC6
:104E40000FA905A8A84737AA0FA95FA8A84741AA94
:104E500005A955A8A8470A3E754B9C46E04428235F
:104E60005B429C46E344952E87D1724B04AA94463C
:104E700063440293C6230193654B9B4608E0019B64
:104E8000013B0193029A043A0292BD2B00D18BE0C0
:104E900037A8694B98475D4BF02252019446634412
:104EA0009946019F3B0032225242944663449A46FF
:104EB000029B5D4D584C1E00B4463300C8331A683F
:104EC0003B003800643887420ADB3100009652000C
:104ED0000E68B0464244323BC8398342F7DA009E3E
:104EE000524B63441B6819A94846D84755AA5FA985
:104EF0001000A84705AA4BA90800A0470AAA50A974
:104F00000800A04755AA2DA91000A8474BAA41A9FF
:104F100037A8A04750AA46A93CA8A0475FAA37A92E
:104F200041A83C4B9846984764AA3CA946A8C0476C
:104F30000FAA55A905A8C04714AA5AA90AA8C0478C
:104F400005AA55A91000A0470AAA5AA91000A0470F
:104F500055AA4BA919A8A84737AA5FA923A8A8470B
:104F60005FAA37A955A8C04764AA3CA95AA8C04758
:104F700055AA37A91000A0475AAA3CA91000A0477B
:104F80004BAA0FA905A8A84737AA0FA95FA8A84749
:104F900041AA05A955A8A8470A3F254B9C46E144CC
:104FA000283E574588D16AE74BA8244B984769AA01
:104FB0004BA937A81C4CA04773AA4BA941A8A047EE
:104FC00069A908001E4CA04773A90800A047039DCB
:104FD000290069A81B4CA0472900203173A8A047CD
:104FE0000120194B9D443CBC90469946A246AB46D5
:104FF000F0BDC046ACF9FFFF3C040000776800003C
:10500000B93C0000F13C00001D4B0000AC870000E3
:1050100021410000C3310000873100004D420000F3
:1050200059430000A73D000045440000A8FDFFFFD4
:1050300080F8FFFF1C0500005D47000005450000EB
:1050400029440000893A000054060000F0B5DE460D
:1050500057464E464546E0B589B0924600239C46E9
:10506000203399468144083B984680444346009348
:105070000791834611E000945B46DB6919075A46A5
:10508000926912090A4359468A611B09CB610423BC
:105090009846C4446346F82B69D05A461F231268C9
:1050A0001340049300230593049A059B102040426B
:1050B000C11712184B41D91702910391C9435046A9
:1050C0006546415150420400544021404840400848
:1050D00007994851594609688D1A5540594609683B
:1050E00051400C002C43594609684C40E10F88465A
:1050F000029C039D01204042C11724184D414146A6
:1051000021400E000027594608684968801A9941D5
:1051100002000B0059460CC1009B984648460B689C
:105120004C681A00230014001D00A41BBD4130C1AF
:1051300000920193931B73403400009D6C40234305
:105140006B40DE0F00278142E9D181465946444633
:105150004B6818070A68120902431B098868000790
:105160000A6043404B6008318C42F1D183E75846D6
:10517000079B9B464B68DB0FDB43F821524653509D
:10518000026850424240134043405B085A46535025
:1051900009B03CBC90469946A246AB46F0BD000023
:1051A000F0B5DBB004000D006946184EB047200092
:1051B00028300AA9B0472000503014A9B047200079
:1051C00078301EA9B0472000A03028A9B047290098
:1051D00020000F4B984768460E4B984732A9684607
:1051E0000D4B98472C008C23DB009C4665440B4FED
:1051F000074E6A46210032A8B847A034210068460D
:10520000B047AC42F5D15BB0F0BDC046A73D000051
:10521000C14500005D4700006D46000039480000B0
:1052200070B5A8B0040069460D4B984720000D4D9D
:10523000A847210068460C4EB0472000A847200030
:10524000A8472000A8472000A84721006846B0478B
:105250002000A8472000A8472000A84728B070BD1C
:10526000C14500005D4700001D490000F0B55A4CE3
:10527000A54407000C0001921D00FC22002149A852
:10528000564EB047FC2200210AA8B047F723DB00A6
:1052900002AA9446634419003800514B9847F723FB
:1052A000DB0002AA9446634418004E4B98470090D6
:1052B000002800D183E0002D00D084E002A9200066
:1052C000494B984702A90800484B984788A9F723FB
:1052D000DB0002AA944663441800454B98470AAA8B
:1052E00049A902A8434B9847489B879AE321C900E4
:1052F00002A88446614488A83F4CA047F723DB00FE
:1053000002AA944663441900E323DB0063441800B7
:105310003A4B9847F4243A4D374F3A4EF723DB0087
:1053200002AA944663441800A8470AABE35849AA66
:10533000A258E321C90002A88446614488A8B8475E
:10534000F723DB0002AA944663441800A847F7231A
:10535000DB0002AA944663441800A847F723DB0049
:1053600002AA944663441800A847F723DB0002AA68
:10537000944663441900E323DB0063441800B047FC
:10538000043C231DCAD188231B0102AA944663440E
:105390001900F720C00060441B4B9847019D29006D
:1053A00088231B0102AA944663441800174CA047A7
:1053B00029002031164802AB9C466044A047009863
:1053C000144B9D44F0BDF720C00002AB9C466044E6
:1053D000114B984772E7C04624F7FFFF776800003B
:1053E0002D4A0000714A0000B93C0000F13C000069
:1053F000A15100004D500000D13D0000E5460000E5
:105400005D4700001D49000071450000893A000019
:10541000A8080000DC0800002152000010B590B080
:105420000C006946044B984721006846034B984797
:10543000012010B010BDC046AD4C0000712E000020
:1054400070B506000D00074B98470400012806D0F0
:1054500008213000044EB04708212800B047200042
:1054600070BDC0461D5400005D45000070B590B091
:10547000060008001500CB7B7F2B30D86946194BFE
:1054800098470400012806D008212800164B9847A9
:10549000200010B070BD01236A4631006846134EEB
:1054A000B047002801D10024EEE708216846104BE0
:1054B0009847002805D1202208A928000D4B9847BD
:1054C000E6E7072109A80A4B98470028F3D0089976
:1054D0004B1E0122521A1343EDD40724D4E70624AD
:1054E000D2E7C046B92E00005D4500006D520000B5
:1054F0004D2E000041680000F0B5DE4657464E468E
:105500004546E0B58BB0070000230793C6E00F20A7
:1055100002403EE00123234203D061465140CBB21A
:105520009C460492202398469044834B4146595C04
:105530000F2912D95200D1B210230B4202D00D3BD9
:105540005940C9B20F2319407B4B42469954049BE2
:105550001A01794B9846424491706408E4B20A00FB
:1055600034E0019B11003BE0030008AABA5C534001
:1055700008AABB5406350136242D3FD05346EA18FD
:10558000D30F9B185B105A46D25C4B46002BBED102
:10559000120931780801684B1B189B5C0F2BE4D96A
:1055A0000F23180008401340984206D251404A4049
:1055B0000F200300134051400840002BD5D0012B91
:1055C000D2D002001C0000218C460193012CC8D9C6
:1055D00011016118C9B2584B595C0F299AD8019B27
:1055E00062464A4011000F221140534A0401141927
:1055F000E1541B01D21811540B00B6E7029B013392
:105600000293039A06320392062B0BD002990F00E5
:10561000002308AA8B54039E069DFF33059A1A4067
:105620009246ABE7059B9C464F46504600210F240F
:105630005A460DE0C30F1B185B10D3181D78A54305
:1056400008AE8E5D35431D700131063006290DD040
:10565000002FEFD1C30F1B185B10D3181D78254006
:1056600008AE8E5D360135431D70EDE7934601238C
:105670009846C4446346062B0AD0304B039300235C
:105680000293674601331F4063460593B946BDE761
:105690001700079B013307930C2B46D0284B079A22
:1056A000D35C9846274D0024274E3B00474698463A
:1056B00006212000B04740442B787B401B01027834
:1056C00053400370123401356C2CF1D147464146EA
:1056D000454612351D485D3C0A781309C35C1B0121
:1056E0002240825C13430B7001318D42F4D1F91CCE
:1056F000142318201A000B781B044C78240223432F
:105700008C782343841A1D00A540D3402B431C0CE6
:105710000C701C0A4C708B700331043A002AEAD1D9
:10572000069200239C46BB46A7E70BB03CBC9046C4
:105730009946A246AB46F0BD04000020B8AD00007B
:10574000E4AD0000DCAD0000B9650000F0AD000084
:10575000F0B5D6464F464646C0B588B00500019024
:105760008946160003AC0F2200212000304B9847D9
:105770002023E373103B237463744B46DB0F4B44CD
:105780005B109A46002B49DD5B00A846984403ACA9
:10579000284F23782A785340237063786A785340DF
:1057A00063702000B84702354545F2D153464A465A
:1057B000D20735D503AA5B0001995B5C11784B4099
:1057C0001370517880235B424B40537003AC200030
:1057D000184B9847102200213000154B984733781A
:1057E0002278134333707378627813437370B41C58
:1057F000103603AD0F4F2800B84723782A7813439B
:10580000237063786A78134363700234B442F2D130
:1058100008B01CBC90469946A246F0BD0023C6E7DE
:1058200003AA117880235B424B401370CEE7C04639
:1058300077680000F954000070B582B005000E00D2
:1058400000226B46DA80064C6B46991D2800A04763
:105850000028F9D16B4606331B88337002B070BD47
:105860008B20000070B505008CB2034E210028008B
:10587000B0470028FAD170BD65200000F0B5CE46D3
:10588000474680B583B0B24B19680B6D0093009BFF
:105890001B0114D4009BDB0011D4AE4B1B78002BF2
:1058A0004FD1009B1B030DD580231B030B652027C5
:1058B0007F420024A84B9846A84B994614E0C02389
:1058C0005B050B6503B00CBC90469946F0BDA04B40
:1058D0001A689C23D0589B3BBB40034200D033E165
:1058E00001340137102CEDD01F2CF0D8984B1A68DA
:1058F0009823D058973BA3400342F1D001949821BC
:105900005350019B92256D006B4342469E5C01996A
:10591000019A69430431F3009B19DB00C918414423
:105920008B48C847019B5D43013603231E40434615
:10593000EE54019B022BD3D1894A136801331360C3
:10594000CEE7844B1B78012B20D0824B1B78022B97
:1059500066D0009B1B03B5D580231B030B6500207D
:105960009C239C460124982502001F2800D9ADE005
:105970004B59270087403B405F1EBB41DBB2002BE9
:1059800000D0AEE001301028EED19BE7009B1B0356
:1059900098D580231B030B6520277F4200246E4B84
:1059A00098466E4B99462DE0694B1A689C23D05857
:1059B0009B3BBB40034220D001949C215350019B50
:1059C00092256D006B4342469E5C0199019A6943A2
:1059D0000431F3009B19DB00C91841445C48C847F7
:1059E000019B5D43013603231E404346EE54019B59
:1059F0005C499B005A5801325A5001340137102C2F
:105A000000D15FE71F2CCFD8514B1A689823D0588C
:105A1000973BA3400342F0D0019498215350CEE726
:105A2000009B1B0300D44DE780231B030B65002064
:105A30009C239C460124982502001F280CD84B5912
:105A4000270087403B405F1EBB41DBB2002B0ED1DD
:105A500001301028F0D135E76346CB580700203FCE
:105A60002600BE4033405F1EBB41DBB2EEE7019231
:105A70001F2A25D80123934098228B50019B364E34
:105A80009224640063439D5D0199019A614304314E
:105A9000EB005B19DB00C91889192D482F4B98477B
:105AA000019B5C43013503231D40A555019A2E4BF4
:105AB0009200D1580131D1501A6801321A6001E7C1
:105AC000203A012393409C228B50D7E76346CB5862
:105AD0000700203F2600BE4033405F1EBB41DBB2C3
